8=FIX.4.4|9=109|35=A|34=1|49=TRD82841|52=20241208-17:11:36.990|56=QFXTRADES|98=0|108=30|141=Y|553=real82841|554=9hucfe4riucr|10=007|
8=FIX.4.4|9=109|35=A|34=1|49=TRD82841|52=20241208-17:12:35.852|56=QFXTRADES|98=0|108=30|141=Y|553=real82841|554=9hucfe4riucr|10=004|
8=FIX.4.4|9=109|35=A|34=1|49=TRD82841|52=20241208-17:13:36.871|56=QFXTRADES|98=0|108=30|141=Y|553=real82841|554=9hucfe4riucr|10=007|
8=FIX.4.4|9=109|35=A|34=1|49=TRD82841|52=20241208-17:14:36.852|56=QFXTRADES|98=0|108=30|141=Y|553=real82841|554=9hucfe4riucr|10=007|
8=FIX.4.4|9=109|35=A|34=1|49=TRD82841|52=20241208-17:15:37.872|56=QFXTRADES|98=0|108=30|141=Y|553=real82841|554=9hucfe4riucr|10=011|
8=FIX.4.4|9=109|35=A|34=1|49=TRD82841|52=20241208-18:47:16.466|56=QFXTRADES|98=0|108=30|141=Y|553=real82841|554=9hucfe4riucr|10=013|
8=FIX.4.4|9=78|35=A|34=1|49=QFXTRADES|52=20241208-18:47:18.017|56=TRD82841|98=0|108=30|141=Y|10=221|
8=FIX.4.4|9=107|35=AF|34=2|49=TRD82841|52=20241208-18:47:17.140|56=QFXTRADES|1=82841|584=active-orders-1733683637139|585=6|10=127|
8=FIX.4.4|9=107|35=AF|34=3|49=TRD82841|52=20241208-18:47:17.149|56=QFXTRADES|1=82841|584=active-orders-1733683637139|585=6|10=137|
8=FIX.4.4|9=163|35=8|34=2|49=QFXTRADES|52=20241208-18:47:18.618|56=TRD82841|1=82841|6=0|11= |14=0|17= |37= |39=0|54=1|55= |150=I|151=0|584=active-orders-1733683637139|911=0|912=Y|10=196|
8=FIX.4.4|9=163|35=8|34=3|49=QFXTRADES|52=20241208-18:47:18.618|56=TRD82841|1=82841|6=0|11= |14=0|17= |37= |39=0|54=1|55= |150=I|151=0|584=active-orders-1733683637139|911=0|912=Y|10=197|
8=FIX.4.4|9=60|35=0|34=4|49=TRD82841|52=20241208-18:47:47.193|56=QFXTRADES|10=135|
8=FIX.4.4|9=60|35=0|34=4|49=QFXTRADES|52=20241208-18:47:48.661|56=TRD82841|10=136|
8=FIX.4.4|9=69|35=1|34=5|49=TRD82841|52=20241208-18:48:02.199|56=QFXTRADES|112=TEST|10=162|
8=FIX.4.4|9=69|35=0|34=5|49=QFXTRADES|52=20241208-18:48:03.662|56=TRD82841|112=TEST|10=157|
8=FIX.4.4|9=109|35=A|34=1|49=TRD82841|52=20241208-18:48:30.208|56=QFXTRADES|98=0|108=30|141=Y|553=real82841|554=9hucfe4riucr|10=004|
8=FIX.4.4|9=78|35=A|34=1|49=QFXTRADES|52=20241208-18:48:31.683|56=TRD82841|98=0|108=30|141=Y|10=226|
8=FIX.4.4|9=109|35=A|34=1|49=TRD82841|52=20241208-18:49:31.209|56=QFXTRADES|98=0|108=30|141=Y|553=real82841|554=9hucfe4riucr|10=007|
8=FIX.4.4|9=78|35=A|34=1|49=QFXTRADES|52=20241208-18:49:32.680|56=TRD82841|98=0|108=30|141=Y|10=225|
8=FIX.4.4|9=109|35=A|34=1|49=TRD82841|52=20241208-19:39:41.274|56=QFXTRADES|98=0|108=30|141=Y|553=real82841|554=9hucfe4riucr|10=010|
8=FIX.4.4|9=109|35=A|34=1|49=TRD82841|52=20241208-19:41:04.709|56=QFXTRADES|98=0|108=30|141=Y|553=real82841|554=9hucfe4riucr|10=005|
8=FIX.4.4|9=109|35=A|34=1|49=TRD82841|52=20241208-19:42:04.544|56=QFXTRADES|98=0|108=30|141=Y|553=real82841|554=9hucfe4riucr|10=003|
8=FIX.4.4|9=109|35=A|34=1|49=TRD82841|52=20241208-19:43:05.540|56=QFXTRADES|98=0|108=30|141=Y|553=real82841|554=9hucfe4riucr|10=001|
8=FIX.4.4|9=109|35=A|34=1|49=TRD82841|52=20241208-19:44:06.535|56=QFXTRADES|98=0|108=30|141=Y|553=real82841|554=9hucfe4riucr|10=007|
8=FIX.4.4|9=109|35=A|34=1|49=TRD82841|52=20241208-19:53:41.346|56=QFXTRADES|98=0|108=30|141=Y|553=real82841|554=9hucfe4riucr|10=006|
8=FIX.4.4|9=109|35=A|34=1|49=TRD82841|52=20241208-19:54:41.265|56=QFXTRADES|98=0|108=30|141=Y|553=real82841|554=9hucfe4riucr|10=007|
8=FIX.4.4|9=109|35=A|34=1|49=TRD82841|52=20241208-19:55:42.247|56=QFXTRADES|98=0|108=30|141=Y|553=real82841|554=9hucfe4riucr|10=009|
8=FIX.4.4|9=109|35=A|34=1|49=TRD82841|52=20241208-19:56:43.242|56=QFXTRADES|98=0|108=30|141=Y|553=real82841|554=9hucfe4riucr|10=006|
8=FIX.4.4|9=109|35=A|34=1|49=TRD82841|52=20241208-19:57:44.221|56=QFXTRADES|98=0|108=30|141=Y|553=real82841|554=9hucfe4riucr|10=005|
8=FIX.4.4|9=109|35=A|34=1|49=TRD82841|52=20241208-19:58:44.410|56=QFXTRADES|98=0|108=30|141=Y|553=real82841|554=9hucfe4riucr|10=006|
8=FIX.4.4|9=109|35=A|34=1|49=TRD82841|52=20241208-19:59:46.898|56=QFXTRADES|98=0|108=30|141=Y|553=real82841|554=9hucfe4riucr|10=029|
8=FIX.4.4|9=109|35=A|34=1|49=TRD82841|52=20241208-20:00:48.223|56=QFXTRADES|98=0|108=30|141=Y|553=real82841|554=9hucfe4riucr|10=247|
8=FIX.4.4|9=109|35=A|34=1|49=TRD82841|52=20241208-20:01:49.225|56=QFXTRADES|98=0|108=30|141=Y|553=real82841|554=9hucfe4riucr|10=251|
8=FIX.4.4|9=109|35=A|34=1|49=TRD82841|52=20241208-20:02:49.226|56=QFXTRADES|98=0|108=30|141=Y|553=real82841|554=9hucfe4riucr|10=253|
8=FIX.4.4|9=109|35=A|34=1|49=TRD82841|52=20241208-20:03:50.237|56=QFXTRADES|98=0|108=30|141=Y|553=real82841|554=9hucfe4riucr|10=248|
8=FIX.4.4|9=109|35=A|34=1|49=TRD82841|52=20241208-20:04:50.727|56=QFXTRADES|98=0|108=30|141=Y|553=real82841|554=9hucfe4riucr|10=253|
8=FIX.4.4|9=109|35=A|34=1|49=TRD82841|52=20241208-20:05:50.411|56=QFXTRADES|98=0|108=30|141=Y|553=real82841|554=9hucfe4riucr|10=244|
8=FIX.4.4|9=109|35=A|34=1|49=TRD82841|52=20241208-20:06:51.229|56=QFXTRADES|98=0|108=30|141=Y|553=real82841|554=9hucfe4riucr|10=253|
8=FIX.4.4|9=109|35=A|34=1|49=TRD82841|52=20241208-20:07:52.224|56=QFXTRADES|98=0|108=30|141=Y|553=real82841|554=9hucfe4riucr|10=250|
8=FIX.4.4|9=109|35=A|34=1|49=TRD82841|52=20241208-20:08:53.220|56=QFXTRADES|98=0|108=30|141=Y|553=real82841|554=9hucfe4riucr|10=248|
8=FIX.4.4|9=109|35=A|34=1|49=TRD82841|52=20241208-20:11:02.303|56=QFXTRADES|98=0|108=30|141=Y|553=real82841|554=9hucfe4riucr|10=238|
8=FIX.4.4|9=78|35=A|34=1|49=QFXTRADES|52=20241208-20:11:03.795|56=TRD82841|98=0|108=30|141=Y|10=212|
8=FIX.4.4|9=107|35=AF|34=2|49=TRD82841|52=20241208-20:11:02.959|56=QFXTRADES|1=82841|584=active-orders-1733688662945|585=6|10=131|
8=FIX.4.4|9=107|35=AF|34=3|49=TRD82841|52=20241208-20:11:02.967|56=QFXTRADES|1=82841|584=active-orders-1733688662945|585=6|10=131|
8=FIX.4.4|9=163|35=8|34=2|49=QFXTRADES|52=20241208-20:11:04.433|56=TRD82841|1=82841|6=0|11= |14=0|17= |37= |39=0|54=1|55= |150=I|151=0|584=active-orders-1733688662945|911=0|912=Y|10=178|
8=FIX.4.4|9=163|35=8|34=3|49=QFXTRADES|52=20241208-20:11:04.451|56=TRD82841|1=82841|6=0|11= |14=0|17= |37= |39=0|54=1|55= |150=I|151=0|584=active-orders-1733688662945|911=0|912=Y|10=179|
8=FIX.4.4|9=60|35=0|34=4|49=TRD82841|52=20241208-20:11:33.135|56=QFXTRADES|10=110|
8=FIX.4.4|9=60|35=0|34=4|49=QFXTRADES|52=20241208-20:11:34.657|56=TRD82841|10=120|
8=FIX.4.4|9=69|35=1|34=5|49=TRD82841|52=20241208-20:11:48.130|56=QFXTRADES|112=TEST|10=140|
8=FIX.4.4|9=69|35=0|34=5|49=QFXTRADES|52=20241208-20:11:49.593|56=TRD82841|112=TEST|10=153|
8=FIX.4.4|9=109|35=A|34=1|49=TRD82841|52=20241208-20:12:16.127|56=QFXTRADES|98=0|108=30|141=Y|553=real82841|554=9hucfe4riucr|10=248|
8=FIX.4.4|9=78|35=A|34=1|49=QFXTRADES|52=20241208-20:12:17.654|56=TRD82841|98=0|108=30|141=Y|10=212|
8=FIX.4.4|9=109|35=A|34=1|49=TRD82841|52=20241208-20:13:17.134|56=QFXTRADES|98=0|108=30|141=Y|553=real82841|554=9hucfe4riucr|10=248|
8=FIX.4.4|9=78|35=A|34=1|49=QFXTRADES|52=20241208-20:13:18.641|56=TRD82841|98=0|108=30|141=Y|10=210|
8=FIX.4.4|9=109|35=A|34=1|49=TRD82841|52=20241208-20:14:11.578|56=QFXTRADES|98=0|108=30|141=Y|553=real82841|554=9hucfe4riucr|10=255|
8=FIX.4.4|9=78|35=A|34=1|49=QFXTRADES|52=20241208-20:14:13.161|56=TRD82841|98=0|108=30|141=Y|10=203|
8=FIX.4.4|9=107|35=AF|34=2|49=TRD82841|52=20241208-20:14:11.977|56=QFXTRADES|1=82841|584=active-orders-1733688851977|585=6|10=139|
8=FIX.4.4|9=107|35=AF|34=3|49=TRD82841|52=20241208-20:14:11.979|56=QFXTRADES|1=82841|584=active-orders-1733688851977|585=6|10=142|
8=FIX.4.4|9=163|35=8|34=2|49=QFXTRADES|52=20241208-20:14:13.503|56=TRD82841|1=82841|6=0|11= |14=0|17= |37= |39=0|54=1|55= |150=I|151=0|584=active-orders-1733688851977|911=0|912=Y|10=184|
8=FIX.4.4|9=163|35=8|34=3|49=QFXTRADES|52=20241208-20:14:13.521|56=TRD82841|1=82841|6=0|11= |14=0|17= |37= |39=0|54=1|55= |150=I|151=0|584=active-orders-1733688851977|911=0|912=Y|10=185|
8=FIX.4.4|9=60|35=0|34=4|49=TRD82841|52=20241208-20:14:42.832|56=QFXTRADES|10=117|
8=FIX.4.4|9=60|35=0|34=4|49=QFXTRADES|52=20241208-20:14:44.245|56=TRD82841|10=117|
8=FIX.4.4|9=69|35=1|34=5|49=TRD82841|52=20241208-20:14:57.823|56=QFXTRADES|112=TEST|10=152|
8=FIX.4.4|9=69|35=0|34=5|49=QFXTRADES|52=20241208-20:14:59.326|56=TRD82841|112=TEST|10=151|
8=FIX.4.4|9=109|35=A|34=1|49=TRD82841|52=20241208-20:15:25.825|56=QFXTRADES|98=0|108=30|141=Y|553=real82841|554=9hucfe4riucr|10=000|
8=FIX.4.4|9=78|35=A|34=1|49=QFXTRADES|52=20241208-20:15:27.316|56=TRD82841|98=0|108=30|141=Y|10=211|
8=FIX.4.4|9=109|35=A|34=1|49=TRD82841|52=20241208-20:16:26.836|56=QFXTRADES|98=0|108=30|141=Y|553=real82841|554=9hucfe4riucr|10=004|
8=FIX.4.4|9=78|35=A|34=1|49=QFXTRADES|52=20241208-20:16:28.340|56=TRD82841|98=0|108=30|141=Y|10=210|
8=FIX.4.4|9=109|35=A|34=1|49=TRD82841|52=20241208-20:17:27.826|56=QFXTRADES|98=0|108=30|141=Y|553=real82841|554=9hucfe4riucr|10=005|
8=FIX.4.4|9=78|35=A|34=1|49=QFXTRADES|52=20241208-20:17:29.587|56=TRD82841|98=0|108=30|141=Y|10=225|
8=FIX.4.4|9=109|35=A|34=1|49=TRD82841|52=20241208-20:18:20.622|56=QFXTRADES|98=0|108=30|141=Y|553=real82841|554=9hucfe4riucr|10=249|
8=FIX.4.4|9=78|35=A|34=1|49=QFXTRADES|52=20241208-20:18:22.134|56=TRD82841|98=0|108=30|141=Y|10=207|
8=FIX.4.4|9=107|35=AF|34=2|49=TRD82841|52=20241208-20:18:21.208|56=QFXTRADES|1=82841|584=active-orders-1733689101207|585=6|10=106|
8=FIX.4.4|9=107|35=AF|34=3|49=TRD82841|52=20241208-20:18:21.209|56=QFXTRADES|1=82841|584=active-orders-1733689101207|585=6|10=108|
8=FIX.4.4|9=163|35=8|34=2|49=QFXTRADES|52=20241208-20:18:22.692|56=TRD82841|1=82841|6=0|11= |14=0|17= |37= |39=0|54=1|55= |150=I|151=0|584=active-orders-1733689101207|911=0|912=Y|10=172|
8=FIX.4.4|9=163|35=8|34=3|49=QFXTRADES|52=20241208-20:18:22.709|56=TRD82841|1=82841|6=0|11= |14=0|17= |37= |39=0|54=1|55= |150=I|151=0|584=active-orders-1733689101207|911=0|912=Y|10=172|
8=FIX.4.4|9=60|35=0|34=4|49=TRD82841|52=20241208-20:18:51.259|56=QFXTRADES|10=124|
8=FIX.4.4|9=60|35=0|34=4|49=QFXTRADES|52=20241208-20:18:52.731|56=TRD82841|10=120|
8=FIX.4.4|9=69|35=1|34=5|49=TRD82841|52=20241208-20:19:06.254|56=QFXTRADES|112=TEST|10=149|
8=FIX.4.4|9=69|35=0|34=5|49=QFXTRADES|52=20241208-20:19:07.740|56=TRD82841|112=TEST|10=149|
8=FIX.4.4|9=109|35=A|34=1|49=TRD82841|52=20241208-20:19:34.270|56=QFXTRADES|98=0|108=30|141=Y|553=real82841|554=9hucfe4riucr|10=254|
8=FIX.4.4|9=78|35=A|34=1|49=QFXTRADES|52=20241208-20:19:35.762|56=TRD82841|98=0|108=30|141=Y|10=219|
8=FIX.4.4|9=109|35=A|34=1|49=TRD82841|52=20241208-22:06:49.736|56=QFXTRADES|98=0|108=30|141=Y|553=real82841|554=9hucfe4riucr|10=009|
8=FIX.4.4|9=78|35=A|34=1|49=QFXTRADES|52=20241208-22:06:51.273|56=TRD82841|98=0|108=30|141=Y|10=212|
8=FIX.4.4|9=107|35=AF|34=2|49=TRD82841|52=20241208-22:06:50.304|56=QFXTRADES|1=82841|584=active-orders-1733695610302|585=6|10=102|
8=FIX.4.4|9=107|35=AF|34=3|49=TRD82841|52=20241208-22:06:50.308|56=QFXTRADES|1=82841|584=active-orders-1733695610302|585=6|10=107|
8=FIX.4.4|9=163|35=8|34=2|49=QFXTRADES|52=20241208-22:06:51.803|56=TRD82841|1=82841|6=0|11= |14=0|17= |37= |39=0|54=1|55= |150=I|151=0|584=active-orders-1733695610302|911=0|912=Y|10=165|
8=FIX.4.4|9=163|35=8|34=3|49=QFXTRADES|52=20241208-22:06:51.820|56=TRD82841|1=82841|6=0|11= |14=0|17= |37= |39=0|54=1|55= |150=I|151=0|584=active-orders-1733695610302|911=0|912=Y|10=165|
8=FIX.4.4|9=60|35=0|34=4|49=TRD82841|52=20241208-22:07:20.357|56=QFXTRADES|10=119|
8=FIX.4.4|9=60|35=0|34=4|49=QFXTRADES|52=20241208-22:07:21.859|56=TRD82841|10=127|
8=FIX.4.4|9=69|35=1|34=5|49=TRD82841|52=20241208-22:07:35.349|56=QFXTRADES|112=TEST|10=155|
8=FIX.4.4|9=69|35=0|34=5|49=QFXTRADES|52=20241208-22:07:36.839|56=TRD82841|112=TEST|10=159|
8=FIX.4.4|9=109|35=A|34=1|49=TRD82841|52=20241208-22:09:13.240|56=QFXTRADES|98=0|108=30|141=Y|553=real82841|554=9hucfe4riucr|10=249|
8=FIX.4.4|9=78|35=A|34=1|49=QFXTRADES|52=20241208-22:09:14.770|56=TRD82841|98=0|108=30|141=Y|10=216|
8=FIX.4.4|9=107|35=AF|34=2|49=TRD82841|52=20241208-22:09:13.790|56=QFXTRADES|1=82841|584=active-orders-1733695753780|585=6|10=131|
8=FIX.4.4|9=107|35=AF|34=3|49=TRD82841|52=20241208-22:09:13.797|56=QFXTRADES|1=82841|584=active-orders-1733695753780|585=6|10=139|
8=FIX.4.4|9=163|35=8|34=2|49=QFXTRADES|52=20241208-22:09:15.281|56=TRD82841|1=82841|6=0|11= |14=0|17= |37= |39=0|54=1|55= |150=I|151=0|584=active-orders-1733695753780|911=0|912=Y|10=186|
8=FIX.4.4|9=163|35=8|34=3|49=QFXTRADES|52=20241208-22:09:15.298|56=TRD82841|1=82841|6=0|11= |14=0|17= |37= |39=0|54=1|55= |150=I|151=0|584=active-orders-1733695753780|911=0|912=Y|10=195|
8=FIX.4.4|9=60|35=0|34=4|49=TRD82841|52=20241208-22:09:44.112|56=QFXTRADES|10=116|
8=FIX.4.4|9=60|35=0|34=4|49=QFXTRADES|52=20241208-22:09:45.604|56=TRD82841|10=123|
8=FIX.4.4|9=69|35=1|34=5|49=TRD82841|52=20241208-22:09:59.113|56=QFXTRADES|112=TEST|10=152|
8=FIX.4.4|9=69|35=0|34=5|49=QFXTRADES|52=20241208-22:10:00.616|56=TRD82841|112=TEST|10=137|
8=FIX.4.4|9=109|35=A|34=1|49=TRD82841|52=20241208-22:10:27.118|56=QFXTRADES|98=0|108=30|141=Y|553=real82841|554=9hucfe4riucr|10=250|
8=FIX.4.4|9=78|35=A|34=1|49=QFXTRADES|52=20241208-22:10:28.641|56=TRD82841|98=0|108=30|141=Y|10=210|
8=FIX.4.4|9=109|35=A|34=1|49=TRD82841|52=20241208-22:11:27.146|56=QFXTRADES|98=0|108=30|141=Y|553=real82841|554=9hucfe4riucr|10=252|
8=FIX.4.4|9=78|35=A|34=1|49=QFXTRADES|52=20241208-22:11:28.660|56=TRD82841|98=0|108=30|141=Y|10=212|
8=FIX.4.4|9=109|35=A|34=1|49=TRD82841|52=20241208-22:29:54.639|56=QFXTRADES|98=0|108=30|141=Y|553=real82841|554=9hucfe4riucr|10=012|
8=FIX.4.4|9=78|35=A|34=1|49=QFXTRADES|52=20241208-22:29:56.178|56=TRD82841|98=0|108=30|141=Y|10=226|
8=FIX.4.4|9=107|35=AF|34=2|49=TRD82841|52=20241208-22:29:55.740|56=QFXTRADES|1=82841|584=active-orders-1733696995735|585=6|10=143|
8=FIX.4.4|9=107|35=AF|34=3|49=TRD82841|52=20241208-22:29:55.741|56=QFXTRADES|1=82841|584=active-orders-1733696995735|585=6|10=145|
8=FIX.4.4|9=163|35=8|34=2|49=QFXTRADES|52=20241208-22:29:57.239|56=TRD82841|1=82841|6=0|11= |14=0|17= |37= |39=0|54=1|55= |150=I|151=0|584=active-orders-1733696995735|911=0|912=Y|10=206|
8=FIX.4.4|9=163|35=8|34=3|49=QFXTRADES|52=20241208-22:29:57.621|56=TRD82841|1=82841|6=0|11= |14=0|17= |37= |39=0|54=1|55= |150=I|151=0|584=active-orders-1733696995735|911=0|912=Y|10=202|
8=FIX.4.4|9=60|35=0|34=4|49=TRD82841|52=20241208-22:30:26.470|56=QFXTRADES|10=117|
8=FIX.4.4|9=60|35=0|34=4|49=QFXTRADES|52=20241208-22:30:27.960|56=TRD82841|10=122|
8=FIX.4.4|9=60|35=0|34=5|49=QFXTRADES|52=20241208-22:30:58.245|56=TRD82841|10=123|
8=FIX.4.4|9=109|35=A|34=1|49=TRD82841|52=20241208-22:31:08.498|56=QFXTRADES|98=0|108=30|141=Y|553=real82841|554=9hucfe4riucr|10=007|
8=FIX.4.4|9=78|35=A|34=1|49=QFXTRADES|52=20241208-22:31:10.008|56=TRD82841|98=0|108=30|141=Y|10=201|
8=FIX.4.4|9=109|35=A|34=1|49=TRD82841|52=20241208-22:32:08.576|56=QFXTRADES|98=0|108=30|141=Y|553=real82841|554=9hucfe4riucr|10=005|
8=FIX.4.4|9=78|35=A|34=1|49=QFXTRADES|52=20241208-22:32:10.079|56=TRD82841|98=0|108=30|141=Y|10=210|
8=FIX.4.4|9=109|35=A|34=1|49=TRD82841|52=20241208-22:33:09.477|56=QFXTRADES|98=0|108=30|141=Y|553=real82841|554=9hucfe4riucr|10=007|
8=FIX.4.4|9=78|35=A|34=1|49=QFXTRADES|52=20241208-22:33:10.995|56=TRD82841|98=0|108=30|141=Y|10=218|
8=FIX.4.4|9=109|35=A|34=1|49=TRD82841|52=20241208-22:34:10.472|56=QFXTRADES|98=0|108=30|141=Y|553=real82841|554=9hucfe4riucr|10=251|
8=FIX.4.4|9=78|35=A|34=1|49=QFXTRADES|52=20241208-22:34:12.002|56=TRD82841|98=0|108=30|141=Y|10=200|
8=FIX.4.4|9=109|35=A|34=1|49=TRD82841|52=20241208-23:47:28.792|56=QFXTRADES|98=0|108=30|141=Y|553=real82841|554=9hucfe4riucr|10=014|
8=FIX.4.4|9=78|35=A|34=1|49=QFXTRADES|52=20241208-23:47:30.557|56=TRD82841|98=0|108=30|141=Y|10=220|
8=FIX.4.4|9=107|35=AF|34=2|49=TRD82841|52=20241208-23:47:29.246|56=QFXTRADES|1=82841|584=active-orders-1733701649246|585=6|10=126|
8=FIX.4.4|9=107|35=AF|34=3|49=TRD82841|52=20241208-23:47:29.248|56=QFXTRADES|1=82841|584=active-orders-1733701649246|585=6|10=129|
8=FIX.4.4|9=163|35=8|34=2|49=QFXTRADES|52=20241208-23:47:30.756|56=TRD82841|1=82841|6=0|11= |14=0|17= |37= |39=0|54=1|55= |150=I|151=0|584=active-orders-1733701649246|911=0|912=Y|10=182|
8=FIX.4.4|9=163|35=8|34=3|49=QFXTRADES|52=20241208-23:47:30.784|56=TRD82841|1=82841|6=0|11= |14=0|17= |37= |39=0|54=1|55= |150=I|151=0|584=active-orders-1733701649246|911=0|912=Y|10=184|
8=FIX.4.4|9=60|35=0|34=4|49=TRD82841|52=20241208-23:47:59.387|56=QFXTRADES|10=139|
8=FIX.4.4|9=60|35=0|34=4|49=QFXTRADES|52=20241208-23:48:00.899|56=TRD82841|10=134|
8=FIX.4.4|9=109|35=A|34=1|49=TRD82841|52=20241208-23:48:27.652|56=QFXTRADES|98=0|108=30|141=Y|553=real82841|554=9hucfe4riucr|10=009|
8=FIX.4.4|9=78|35=A|34=1|49=QFXTRADES|52=20241208-23:48:29.238|56=TRD82841|98=0|108=30|141=Y|10=225|
8=FIX.4.4|9=107|35=AF|34=2|49=TRD82841|52=20241208-23:48:28.011|56=QFXTRADES|1=82841|584=active-orders-1733701707999|585=6|10=126|
8=FIX.4.4|9=107|35=AF|34=3|49=TRD82841|52=20241208-23:48:28.012|56=QFXTRADES|1=82841|584=active-orders-1733701707999|585=6|10=128|
8=FIX.4.4|9=163|35=8|34=2|49=QFXTRADES|52=20241208-23:48:29.519|56=TRD82841|1=82841|6=0|11= |14=0|17= |37= |39=0|54=1|55= |150=I|151=0|584=active-orders-1733701707999|911=0|912=Y|10=198|
8=FIX.4.4|9=163|35=8|34=3|49=QFXTRADES|52=20241208-23:48:29.538|56=TRD82841|1=82841|6=0|11= |14=0|17= |37= |39=0|54=1|55= |150=I|151=0|584=active-orders-1733701707999|911=0|912=Y|10=200|
8=FIX.4.4|9=60|35=0|34=4|49=TRD82841|52=20241208-23:48:58.243|56=QFXTRADES|10=130|
8=FIX.4.4|9=60|35=0|34=4|49=QFXTRADES|52=20241208-23:48:59.748|56=TRD82841|10=141|
8=FIX.4.4|9=69|35=1|34=5|49=TRD82841|52=20241208-23:49:13.244|56=QFXTRADES|112=TEST|10=152|
8=FIX.4.4|9=69|35=0|34=5|49=QFXTRADES|52=20241208-23:49:14.752|56=TRD82841|112=TEST|10=156|
8=FIX.4.4|9=109|35=A|34=1|49=TRD82841|52=20241208-23:49:41.245|56=QFXTRADES|98=0|108=30|141=Y|553=real82841|554=9hucfe4riucr|10=004|
8=FIX.4.4|9=78|35=A|34=1|49=QFXTRADES|52=20241208-23:49:42.760|56=TRD82841|98=0|108=30|141=Y|10=221|
8=FIX.4.4|9=109|35=A|34=1|49=TRD82841|52=20241208-23:50:41.245|56=QFXTRADES|98=0|108=30|141=Y|553=real82841|554=9hucfe4riucr|10=252|
8=FIX.4.4|9=78|35=A|34=1|49=QFXTRADES|52=20241208-23:50:42.771|56=TRD82841|98=0|108=30|141=Y|10=215|
8=FIX.4.4|9=109|35=A|34=1|49=TRD82841|52=20241208-23:51:42.258|56=QFXTRADES|98=0|108=30|141=Y|553=real82841|554=9hucfe4riucr|10=002|
8=FIX.4.4|9=78|35=A|34=1|49=QFXTRADES|52=20241208-23:51:43.776|56=TRD82841|98=0|108=30|141=Y|10=222|
8=FIX.4.4|9=109|35=A|34=1|49=TRD82841|52=20241208-23:52:43.252|56=QFXTRADES|98=0|108=30|141=Y|553=real82841|554=9hucfe4riucr|10=254|
8=FIX.4.4|9=78|35=A|34=1|49=QFXTRADES|52=20241208-23:52:44.779|56=TRD82841|98=0|108=30|141=Y|10=227|
8=FIX.4.4|9=109|35=A|34=1|49=TRD82841|52=20241208-23:53:44.254|56=QFXTRADES|98=0|108=30|141=Y|553=real82841|554=9hucfe4riucr|10=002|
8=FIX.4.4|9=78|35=A|34=1|49=QFXTRADES|52=20241208-23:53:45.796|56=TRD82841|98=0|108=30|141=Y|10=228|
8=FIX.4.4|9=109|35=A|34=1|49=TRD82841|52=20241208-23:54:44.608|56=QFXTRADES|98=0|108=30|141=Y|553=real82841|554=9hucfe4riucr|10=006|
8=FIX.4.4|9=78|35=A|34=1|49=QFXTRADES|52=20241208-23:54:46.139|56=TRD82841|98=0|108=30|141=Y|10=221|
8=FIX.4.4|9=109|35=A|34=1|49=TRD82841|52=20241208-23:57:30.340|56=QFXTRADES|98=0|108=30|141=Y|553=real82841|554=9hucfe4riucr|10=253|
8=FIX.4.4|9=78|35=A|34=1|49=QFXTRADES|52=20241208-23:57:31.920|56=TRD82841|98=0|108=30|141=Y|10=216|
8=FIX.4.4|9=107|35=AF|34=2|49=TRD82841|52=20241208-23:57:30.686|56=QFXTRADES|1=82841|584=active-orders-1733702250683|585=6|10=121|
8=FIX.4.4|9=107|35=AF|34=3|49=TRD82841|52=20241208-23:57:30.695|56=QFXTRADES|1=82841|584=active-orders-1733702250683|585=6|10=122|
8=FIX.4.4|9=163|35=8|34=2|49=QFXTRADES|52=20241208-23:57:32.214|56=TRD82841|1=82841|6=0|11= |14=0|17= |37= |39=0|54=1|55= |150=I|151=0|584=active-orders-1733702250683|911=0|912=Y|10=168|
8=FIX.4.4|9=163|35=8|34=3|49=QFXTRADES|52=20241208-23:57:32.231|56=TRD82841|1=82841|6=0|11= |14=0|17= |37= |39=0|54=1|55= |150=I|151=0|584=active-orders-1733702250683|911=0|912=Y|10=168|
8=FIX.4.4|9=60|35=0|34=4|49=QFXTRADES|52=20241208-23:58:02.245|56=TRD82841|10=122|
8=FIX.4.4|9=60|35=0|34=4|49=TRD82841|52=20241208-23:58:00.997|56=QFXTRADES|10=134|
8=FIX.4.4|9=69|35=1|34=5|49=TRD82841|52=20241208-23:58:16.002|56=QFXTRADES|112=TEST|10=147|
8=FIX.4.4|9=69|35=0|34=5|49=QFXTRADES|52=20241208-23:58:17.513|56=TRD82841|112=TEST|10=154|
8=FIX.4.4|9=109|35=A|34=1|49=TRD82841|52=20241208-23:58:44.009|56=QFXTRADES|98=0|108=30|141=Y|553=real82841|554=9hucfe4riucr|10=005|
8=FIX.4.4|9=78|35=A|34=1|49=QFXTRADES|52=20241208-23:58:45.547|56=TRD82841|98=0|108=30|141=Y|10=227|
8=FIX.4.4|9=109|35=A|34=1|49=TRD82841|52=20241208-23:59:44.020|56=QFXTRADES|98=0|108=30|141=Y|553=real82841|554=9hucfe4riucr|10=255|
8=FIX.4.4|9=78|35=A|34=1|49=QFXTRADES|52=20241208-23:59:45.551|56=TRD82841|98=0|108=30|141=Y|10=223|
8=FIX.4.4|9=109|35=A|34=1|49=TRD82841|52=20241209-00:06:33.683|56=QFXTRADES|98=0|108=30|141=Y|553=real82841|554=9hucfe4riucr|10=000|
8=FIX.4.4|9=78|35=A|34=1|49=QFXTRADES|52=20241209-00:06:35.224|56=TRD82841|98=0|108=30|141=Y|10=207|
8=FIX.4.4|9=107|35=AF|34=2|49=TRD82841|52=20241209-00:06:33.929|56=QFXTRADES|1=82841|584=active-orders-1733702793923|585=6|10=123|
8=FIX.4.4|9=107|35=AF|34=3|49=TRD82841|52=20241209-00:06:33.930|56=QFXTRADES|1=82841|584=active-orders-1733702793923|585=6|10=116|
8=FIX.4.4|9=163|35=8|34=2|49=QFXTRADES|52=20241209-00:06:35.466|56=TRD82841|1=82841|6=0|11= |14=0|17= |37= |39=0|54=1|55= |150=I|151=0|584=active-orders-1733702793923|911=0|912=Y|10=179|
8=FIX.4.4|9=163|35=8|34=3|49=QFXTRADES|52=20241209-00:06:35.479|56=TRD82841|1=82841|6=0|11= |14=0|17= |37= |39=0|54=1|55= |150=I|151=0|584=active-orders-1733702793923|911=0|912=Y|10=184|
8=FIX.4.4|9=60|35=0|34=4|49=TRD82841|52=20241209-00:07:04.367|56=QFXTRADES|10=119|
8=FIX.4.4|9=60|35=0|34=4|49=QFXTRADES|52=20241209-00:07:05.880|56=TRD82841|10=120|
8=FIX.4.4|9=109|35=A|34=1|49=TRD82841|52=20241209-00:07:18.218|56=QFXTRADES|98=0|108=30|141=Y|553=real82841|554=9hucfe4riucr|10=254|
8=FIX.4.4|9=78|35=A|34=1|49=QFXTRADES|52=20241209-00:07:19.807|56=TRD82841|98=0|108=30|141=Y|10=217|
8=FIX.4.4|9=107|35=AF|34=2|49=TRD82841|52=20241209-00:07:18.570|56=QFXTRADES|1=82841|584=active-orders-1733702838569|585=6|10=125|
8=FIX.4.4|9=107|35=AF|34=3|49=TRD82841|52=20241209-00:07:18.572|56=QFXTRADES|1=82841|584=active-orders-1733702838569|585=6|10=128|
8=FIX.4.4|9=163|35=8|34=2|49=QFXTRADES|52=20241209-00:07:20.089|56=TRD82841|1=82841|6=0|11= |14=0|17= |37= |39=0|54=1|55= |150=I|151=0|584=active-orders-1733702838569|911=0|912=Y|10=181|
8=FIX.4.4|9=163|35=8|34=3|49=QFXTRADES|52=20241209-00:07:20.105|56=TRD82841|1=82841|6=0|11= |14=0|17= |37= |39=0|54=1|55= |150=I|151=0|584=active-orders-1733702838569|911=0|912=Y|10=171|
8=FIX.4.4|9=60|35=0|34=4|49=TRD82841|52=20241209-00:07:48.803|56=QFXTRADES|10=122|
8=FIX.4.4|9=60|35=0|34=4|49=QFXTRADES|52=20241209-00:07:50.245|56=TRD82841|10=115|
8=FIX.4.4|9=69|35=1|34=5|49=TRD82841|52=20241209-00:08:03.802|56=QFXTRADES|112=TEST|10=142|
8=FIX.4.4|9=69|35=0|34=5|49=QFXTRADES|52=20241209-00:08:05.318|56=TRD82841|112=TEST|10=145|
8=FIX.4.4|9=109|35=A|34=1|49=TRD82841|52=20241209-00:08:31.820|56=QFXTRADES|98=0|108=30|141=Y|553=real82841|554=9hucfe4riucr|10=249|
8=FIX.4.4|9=78|35=A|34=1|49=QFXTRADES|52=20241209-00:08:33.374|56=TRD82841|98=0|108=30|141=Y|10=213|
8=FIX.4.4|9=109|35=A|34=1|49=TRD82841|52=20241209-00:09:31.895|56=QFXTRADES|98=0|108=30|141=Y|553=real82841|554=9hucfe4riucr|10=006|
8=FIX.4.4|9=78|35=A|34=1|49=QFXTRADES|52=20241209-00:09:33.435|56=TRD82841|98=0|108=30|141=Y|10=212|
8=FIX.4.4|9=109|35=A|34=1|49=TRD82841|52=20241209-00:10:32.810|56=QFXTRADES|98=0|108=30|141=Y|553=real82841|554=9hucfe4riucr|10=242|
8=FIX.4.4|9=78|35=A|34=1|49=QFXTRADES|52=20241209-00:10:34.337|56=TRD82841|98=0|108=30|141=Y|10=206|
8=FIX.4.4|9=109|35=A|34=1|49=TRD82841|52=20241209-00:11:33.814|56=QFXTRADES|98=0|108=30|141=Y|553=real82841|554=9hucfe4riucr|10=248|
8=FIX.4.4|9=78|35=A|34=1|49=QFXTRADES|52=20241209-00:11:35.329|56=TRD82841|98=0|108=30|141=Y|10=209|
8=FIX.4.4|9=109|35=A|34=1|49=TRD82841|52=20241209-00:12:33.820|56=QFXTRADES|98=0|108=30|141=Y|553=real82841|554=9hucfe4riucr|10=246|
8=FIX.4.4|9=78|35=A|34=1|49=QFXTRADES|52=20241209-00:12:35.348|56=TRD82841|98=0|108=30|141=Y|10=211|
8=FIX.4.4|9=109|35=A|34=1|49=TRD82841|52=20241209-00:13:34.813|56=QFXTRADES|98=0|108=30|141=Y|553=real82841|554=9hucfe4riucr|10=250|
8=FIX.4.4|9=78|35=A|34=1|49=QFXTRADES|52=20241209-00:13:36.347|56=TRD82841|98=0|108=30|141=Y|10=212|
8=FIX.4.4|9=109|35=A|34=1|49=TRD82841|52=20241209-00:14:35.821|56=QFXTRADES|98=0|108=30|141=Y|553=real82841|554=9hucfe4riucr|10=251|
8=FIX.4.4|9=78|35=A|34=1|49=QFXTRADES|52=20241209-00:14:37.356|56=TRD82841|98=0|108=30|141=Y|10=214|
8=FIX.4.4|9=109|35=A|34=1|49=TRD82841|52=20241209-00:15:35.840|56=QFXTRADES|98=0|108=30|141=Y|553=real82841|554=9hucfe4riucr|10=253|
8=FIX.4.4|9=78|35=A|34=1|49=QFXTRADES|52=20241209-00:15:37.386|56=TRD82841|98=0|108=30|141=Y|10=218|
8=FIX.4.4|9=109|35=A|34=1|49=TRD82841|52=20241209-00:16:36.818|56=QFXTRADES|98=0|108=30|141=Y|553=real82841|554=9hucfe4riucr|10=004|
8=FIX.4.4|9=78|35=A|34=1|49=QFXTRADES|52=20241209-00:16:38.350|56=TRD82841|98=0|108=30|141=Y|10=211|
8=FIX.4.4|9=109|35=A|34=1|49=TRD82841|52=20241209-00:17:37.808|56=QFXTRADES|98=0|108=30|141=Y|553=real82841|554=9hucfe4riucr|10=005|
8=FIX.4.4|9=78|35=A|34=1|49=QFXTRADES|52=20241209-00:17:39.347|56=TRD82841|98=0|108=30|141=Y|10=219|
8=FIX.4.4|9=109|35=A|34=1|49=TRD82841|52=20241209-00:18:37.801|56=QFXTRADES|98=0|108=30|141=Y|553=real82841|554=9hucfe4riucr|10=255|
8=FIX.4.4|9=78|35=A|34=1|49=QFXTRADES|52=20241209-00:18:39.327|56=TRD82841|98=0|108=30|141=Y|10=218|
8=FIX.4.4|9=109|35=A|34=1|49=TRD82841|52=20241209-00:19:37.879|56=QFXTRADES|98=0|108=30|141=Y|553=real82841|554=9hucfe4riucr|10=015|
8=FIX.4.4|9=78|35=A|34=1|49=QFXTRADES|52=20241209-00:19:39.424|56=TRD82841|98=0|108=30|141=Y|10=217|
8=FIX.4.4|9=109|35=A|34=2|49=TRD82841|52=20241209-00:20:18.640|56=QFXTRADES|98=0|108=30|141=Y|553=real82841|554=9hucfe4riucr|10=249|
8=FIX.4.4|9=78|35=A|34=1|49=QFXTRADES|52=20241209-00:20:20.247|56=TRD82841|98=0|108=30|141=Y|10=202|
8=FIX.4.4|9=109|35=A|34=1|49=TRD82841|52=20241209-00:20:43.756|56=QFXTRADES|98=0|108=30|141=Y|553=real82841|554=9hucfe4riucr|10=254|
8=FIX.4.4|9=78|35=A|34=1|49=QFXTRADES|52=20241209-00:20:45.350|56=TRD82841|98=0|108=30|141=Y|10=204|
8=FIX.4.4|9=60|35=0|34=2|49=TRD82841|52=20241209-00:21:14.433|56=QFXTRADES|10=108|
8=FIX.4.4|9=60|35=0|34=2|49=QFXTRADES|52=20241209-00:21:15.952|56=TRD82841|10=115|
8=FIX.4.4|9=60|35=0|34=3|49=TRD82841|52=20241209-00:21:44.432|56=QFXTRADES|10=111|
8=FIX.4.4|9=60|35=0|34=3|49=QFXTRADES|52=20241209-00:21:45.948|56=TRD82841|10=124|
8=FIX.4.4|9=60|35=0|34=4|49=TRD82841|52=20241209-00:22:14.428|56=QFXTRADES|10=115|
8=FIX.4.4|9=60|35=0|34=4|49=QFXTRADES|52=20241209-00:22:15.948|56=TRD82841|10=123|
8=FIX.4.4|9=60|35=0|34=5|49=TRD82841|52=20241209-00:22:44.431|56=QFXTRADES|10=113|
8=FIX.4.4|9=60|35=0|34=5|49=QFXTRADES|52=20241209-00:22:45.952|56=TRD82841|10=122|
8=FIX.4.4|9=60|35=0|34=6|49=TRD82841|52=20241209-00:23:14.426|56=QFXTRADES|10=116|
8=FIX.4.4|9=60|35=0|34=6|49=QFXTRADES|52=20241209-00:23:15.944|56=TRD82841|10=122|
8=FIX.4.4|9=60|35=0|34=7|49=TRD82841|52=20241209-00:23:44.424|56=QFXTRADES|10=118|
8=FIX.4.4|9=60|35=0|34=7|49=QFXTRADES|52=20241209-00:23:45.944|56=TRD82841|10=126|
8=FIX.4.4|9=60|35=0|34=8|49=TRD82841|52=20241209-00:24:14.428|56=QFXTRADES|10=121|
8=FIX.4.4|9=60|35=0|34=8|49=QFXTRADES|52=20241209-00:24:15.950|56=TRD82841|10=122|
8=FIX.4.4|9=60|35=0|34=9|49=TRD82841|52=20241209-00:24:44.440|56=QFXTRADES|10=119|
8=FIX.4.4|9=60|35=0|34=9|49=QFXTRADES|52=20241209-00:24:45.960|56=TRD82841|10=127|
8=FIX.4.4|9=61|35=0|34=10|49=TRD82841|52=20241209-00:25:14.436|56=QFXTRADES|10=163|
8=FIX.4.4|9=61|35=0|34=10|49=QFXTRADES|52=20241209-00:25:15.952|56=TRD82841|10=167|
8=FIX.4.4|9=61|35=0|34=11|49=QFXTRADES|52=20241209-00:25:46.245|56=TRD82841|10=167|
8=FIX.4.4|9=61|35=0|34=11|49=TRD82841|52=20241209-00:25:44.895|56=QFXTRADES|10=176|
8=FIX.4.4|9=61|35=0|34=12|49=QFXTRADES|52=20241209-00:26:16.245|56=TRD82841|10=166|
8=FIX.4.4|9=61|35=0|34=12|49=TRD82841|52=20241209-00:26:14.971|56=QFXTRADES|10=170|
8=FIX.4.4|9=61|35=0|34=13|49=QFXTRADES|52=20241209-00:26:46.245|56=TRD82841|10=170|
8=FIX.4.4|9=61|35=0|34=13|49=TRD82841|52=20241209-00:26:45.437|56=QFXTRADES|10=172|
8=FIX.4.4|9=61|35=0|34=14|49=QFXTRADES|52=20241209-00:27:16.246|56=TRD82841|10=170|
8=FIX.4.4|9=61|35=0|34=14|49=TRD82841|52=20241209-00:27:15.439|56=QFXTRADES|10=173|
8=FIX.4.4|9=61|35=0|34=15|49=QFXTRADES|52=20241209-00:27:46.245|56=TRD82841|10=173|
8=FIX.4.4|9=61|35=0|34=15|49=TRD82841|52=20241209-00:27:45.438|56=QFXTRADES|10=176|
8=FIX.4.4|9=109|35=A|34=1|49=TRD82841|52=20241209-00:30:44.270|56=QFXTRADES|98=0|108=30|141=Y|553=real82841|554=9hucfe4riucr|10=247|
8=FIX.4.4|9=78|35=A|34=1|49=QFXTRADES|52=20241209-00:30:46.047|56=TRD82841|98=0|108=30|141=Y|10=209|
8=FIX.4.4|9=60|35=0|34=2|49=TRD82841|52=20241209-00:31:14.796|56=QFXTRADES|10=121|
8=FIX.4.4|9=60|35=0|34=2|49=QFXTRADES|52=20241209-00:31:16.245|56=TRD82841|10=112|
8=FIX.4.4|9=60|35=0|34=3|49=TRD82841|52=20241209-00:31:44.792|56=QFXTRADES|10=121|
8=FIX.4.4|9=60|35=0|34=3|49=QFXTRADES|52=20241209-00:31:46.246|56=TRD82841|10=117|
8=FIX.4.4|9=60|35=0|34=4|49=TRD82841|52=20241209-00:32:14.793|56=QFXTRADES|10=121|
8=FIX.4.4|9=60|35=0|34=4|49=QFXTRADES|52=20241209-00:32:16.245|56=TRD82841|10=115|
8=FIX.4.4|9=60|35=0|34=5|49=TRD82841|52=20241209-00:32:44.795|56=QFXTRADES|10=127|
8=FIX.4.4|9=60|35=0|34=5|49=QFXTRADES|52=20241209-00:32:46.245|56=TRD82841|10=119|
8=FIX.4.4|9=60|35=0|34=6|49=TRD82841|52=20241209-00:33:14.794|56=QFXTRADES|10=125|
8=FIX.4.4|9=60|35=0|34=6|49=QFXTRADES|52=20241209-00:33:16.245|56=TRD82841|10=118|
8=FIX.4.4|9=60|35=0|34=7|49=QFXTRADES|52=20241209-00:33:46.245|56=TRD82841|10=122|
8=FIX.4.4|9=60|35=0|34=7|49=TRD82841|52=20241209-00:33:44.892|56=QFXTRADES|10=128|
8=FIX.4.4|9=60|35=0|34=8|49=QFXTRADES|52=20241209-00:34:16.245|56=TRD82841|10=121|
8=FIX.4.4|9=60|35=0|34=8|49=TRD82841|52=20241209-00:34:14.923|56=QFXTRADES|10=122|
8=FIX.4.4|9=60|35=0|34=9|49=QFXTRADES|52=20241209-00:34:46.245|56=TRD82841|10=125|
8=FIX.4.4|9=60|35=0|34=9|49=TRD82841|52=20241209-00:34:45.790|56=QFXTRADES|10=129|
8=FIX.4.4|9=61|35=0|34=10|49=QFXTRADES|52=20241209-00:35:16.245|56=TRD82841|10=164|
8=FIX.4.4|9=61|35=0|34=10|49=TRD82841|52=20241209-00:35:15.786|56=QFXTRADES|10=173|
8=FIX.4.4|9=61|35=0|34=11|49=QFXTRADES|52=20241209-00:35:46.245|56=TRD82841|10=168|
8=FIX.4.4|9=61|35=0|34=11|49=TRD82841|52=20241209-00:35:45.786|56=QFXTRADES|10=177|
8=FIX.4.4|9=61|35=0|34=12|49=QFXTRADES|52=20241209-00:36:16.245|56=TRD82841|10=167|
8=FIX.4.4|9=61|35=0|34=12|49=TRD82841|52=20241209-00:36:15.794|56=QFXTRADES|10=175|
8=FIX.4.4|9=61|35=0|34=13|49=QFXTRADES|52=20241209-00:36:46.245|56=TRD82841|10=171|
8=FIX.4.4|9=61|35=0|34=13|49=TRD82841|52=20241209-00:36:45.790|56=QFXTRADES|10=175|
8=FIX.4.4|9=61|35=0|34=14|49=QFXTRADES|52=20241209-00:37:16.245|56=TRD82841|10=170|
8=FIX.4.4|9=61|35=0|34=14|49=TRD82841|52=20241209-00:37:15.788|56=QFXTRADES|10=181|
8=FIX.4.4|9=61|35=0|34=15|49=QFXTRADES|52=20241209-00:37:46.245|56=TRD82841|10=174|
8=FIX.4.4|9=61|35=0|34=15|49=TRD82841|52=20241209-00:37:45.785|56=QFXTRADES|10=182|
8=FIX.4.4|9=109|35=A|34=1|49=TRD82841|52=20241209-00:49:17.594|56=QFXTRADES|98=0|108=30|141=Y|553=real82841|554=9hucfe4riucr|10=010|
8=FIX.4.4|9=78|35=A|34=1|49=QFXTRADES|52=20241209-00:49:19.214|56=TRD82841|98=0|108=30|141=Y|10=215|
8=FIX.4.4|9=60|35=0|34=2|49=QFXTRADES|52=20241209-00:49:49.245|56=TRD82841|10=127|
8=FIX.4.4|9=60|35=0|34=2|49=TRD82841|52=20241209-00:49:47.889|56=QFXTRADES|10=139|
8=FIX.4.4|9=60|35=0|34=3|49=QFXTRADES|52=20241209-00:50:19.245|56=TRD82841|10=117|
8=FIX.4.4|9=60|35=0|34=3|49=TRD82841|52=20241209-00:50:18.112|56=QFXTRADES|10=109|
8=FIX.4.4|9=60|35=0|34=4|49=QFXTRADES|52=20241209-00:50:49.245|56=TRD82841|10=121|
8=FIX.4.4|9=60|35=0|34=4|49=TRD82841|52=20241209-00:50:48.111|56=QFXTRADES|10=112|
8=FIX.4.4|9=60|35=0|34=5|49=QFXTRADES|52=20241209-00:51:19.245|56=TRD82841|10=120|
8=FIX.4.4|9=60|35=0|34=5|49=TRD82841|52=20241209-00:51:18.153|56=QFXTRADES|10=117|
8=FIX.4.4|9=60|35=0|34=6|49=QFXTRADES|52=20241209-00:51:49.245|56=TRD82841|10=124|
8=FIX.4.4|9=60|35=0|34=6|49=TRD82841|52=20241209-00:51:49.117|56=QFXTRADES|10=122|
8=FIX.4.4|9=109|35=A|34=1|49=TRD82841|52=20241211-02:55:30.163|56=QFXTRADES|98=0|108=30|141=Y|553=real82841|554=9hucfe4riucr|10=245|
8=FIX.4.4|9=78|35=A|34=1|49=QFXTRADES|52=20241211-02:55:29.464|56=TRD82841|98=0|108=30|141=Y|10=215|
8=FIX.4.4|9=107|35=AF|34=2|49=TRD82841|52=20241211-02:55:30.529|56=QFXTRADES|1=82841|584=active-orders-1733885730529|585=6|10=120|
8=FIX.4.4|9=107|35=AF|34=3|49=TRD82841|52=20241211-02:55:30.530|56=QFXTRADES|1=82841|584=active-orders-1733885730529|585=6|10=113|
8=FIX.4.4|9=163|35=8|34=2|49=QFXTRADES|52=20241211-02:55:29.798|56=TRD82841|1=82841|6=0|11= |14=0|17= |37= |39=0|54=1|55= |150=I|151=0|584=active-orders-1733885730529|911=0|912=Y|10=194|
8=FIX.4.4|9=127|35=j|34=4|49=TRD82841|52=20241211-02:55:30.785|56=QFXTRADES|45=2|58=Conditionally Required Field Missing, field=73|372=8|380=5|10=057|
8=FIX.4.4|9=163|35=8|34=3|49=QFXTRADES|52=20241211-02:55:29.815|56=TRD82841|1=82841|6=0|11= |14=0|17= |37= |39=0|54=1|55= |150=I|151=0|584=active-orders-1733885730529|911=0|912=Y|10=185|
8=FIX.4.4|9=127|35=j|34=5|49=TRD82841|52=20241211-02:55:31.214|56=QFXTRADES|45=3|58=Conditionally Required Field Missing, field=73|372=8|380=5|10=047|
8=FIX.4.4|9=60|35=0|34=4|49=QFXTRADES|52=20241211-02:56:00.245|56=TRD82841|10=109|
8=FIX.4.4|9=60|35=0|34=6|49=TRD82841|52=20241211-02:56:01.629|56=QFXTRADES|10=118|
8=FIX.4.4|9=60|35=0|34=5|49=QFXTRADES|52=20241211-02:56:30.245|56=TRD82841|10=113|
8=FIX.4.4|9=60|35=0|34=7|49=TRD82841|52=20241211-02:56:31.627|56=QFXTRADES|10=120|
8=FIX.4.4|9=60|35=0|34=6|49=QFXTRADES|52=20241211-02:57:00.245|56=TRD82841|10=112|
8=FIX.4.4|9=60|35=0|34=8|49=TRD82841|52=20241211-02:57:01.631|56=QFXTRADES|10=114|
8=FIX.4.4|9=60|35=0|34=7|49=QFXTRADES|52=20241211-02:57:30.245|56=TRD82841|10=116|
8=FIX.4.4|9=60|35=0|34=9|49=TRD82841|52=20241211-02:57:31.622|56=QFXTRADES|10=118|
8=FIX.4.4|9=60|35=0|34=8|49=QFXTRADES|52=20241211-02:58:00.245|56=TRD82841|10=115|
8=FIX.4.4|9=61|35=0|34=10|49=TRD82841|52=20241211-02:58:01.632|56=QFXTRADES|10=158|
8=FIX.4.4|9=60|35=0|34=9|49=QFXTRADES|52=20241211-02:58:30.245|56=TRD82841|10=119|
8=FIX.4.4|9=61|35=0|34=11|49=TRD82841|52=20241211-02:58:32.627|56=QFXTRADES|10=167|
8=FIX.4.4|9=61|35=0|34=10|49=QFXTRADES|52=20241211-02:59:00.245|56=TRD82841|10=158|
8=FIX.4.4|9=61|35=0|34=12|49=TRD82841|52=20241211-02:59:02.631|56=QFXTRADES|10=161|
8=FIX.4.4|9=61|35=0|34=11|49=QFXTRADES|52=20241211-02:59:30.245|56=TRD82841|10=162|
8=FIX.4.4|9=61|35=0|34=13|49=TRD82841|52=20241211-02:59:32.631|56=QFXTRADES|10=165|
8=FIX.4.4|9=61|35=0|34=12|49=QFXTRADES|52=20241211-03:00:00.245|56=TRD82841|10=147|
8=FIX.4.4|9=61|35=0|34=14|49=TRD82841|52=20241211-03:00:03.618|56=QFXTRADES|10=156|
8=FIX.4.4|9=61|35=0|34=13|49=QFXTRADES|52=20241211-03:00:30.245|56=TRD82841|10=151|
8=FIX.4.4|9=61|35=0|34=15|49=TRD82841|52=20241211-03:00:33.620|56=QFXTRADES|10=153|
8=FIX.4.4|9=61|35=0|34=14|49=QFXTRADES|52=20241211-03:01:00.245|56=TRD82841|10=150|
8=FIX.4.4|9=61|35=0|34=16|49=TRD82841|52=20241211-03:01:03.622|56=QFXTRADES|10=154|
8=FIX.4.4|9=61|35=0|34=15|49=QFXTRADES|52=20241211-03:01:30.245|56=TRD82841|10=154|
8=FIX.4.4|9=61|35=0|34=17|49=TRD82841|52=20241211-03:01:33.625|56=QFXTRADES|10=161|
8=FIX.4.4|9=61|35=0|34=16|49=QFXTRADES|52=20241211-03:02:00.245|56=TRD82841|10=153|
8=FIX.4.4|9=61|35=0|34=18|49=TRD82841|52=20241211-03:02:03.628|56=QFXTRADES|10=163|
8=FIX.4.4|9=61|35=0|34=17|49=QFXTRADES|52=20241211-03:02:30.245|56=TRD82841|10=157|
8=FIX.4.4|9=61|35=0|34=19|49=TRD82841|52=20241211-03:02:33.619|56=QFXTRADES|10=167|
8=FIX.4.4|9=61|35=0|34=18|49=QFXTRADES|52=20241211-03:03:00.245|56=TRD82841|10=156|
8=FIX.4.4|9=61|35=0|34=20|49=TRD82841|52=20241211-03:03:03.620|56=QFXTRADES|10=149|
8=FIX.4.4|9=61|35=0|34=19|49=QFXTRADES|52=20241211-03:03:30.245|56=TRD82841|10=160|
8=FIX.4.4|9=61|35=0|34=21|49=TRD82841|52=20241211-03:03:33.624|56=QFXTRADES|10=157|
8=FIX.4.4|9=61|35=0|34=20|49=QFXTRADES|52=20241211-03:04:00.245|56=TRD82841|10=150|
8=FIX.4.4|9=61|35=0|34=22|49=TRD82841|52=20241211-03:04:03.630|56=QFXTRADES|10=153|
8=FIX.4.4|9=61|35=0|34=21|49=QFXTRADES|52=20241211-03:04:30.245|56=TRD82841|10=154|
8=FIX.4.4|9=61|35=0|34=23|49=TRD82841|52=20241211-03:04:33.622|56=QFXTRADES|10=158|
8=FIX.4.4|9=61|35=0|34=22|49=QFXTRADES|52=20241211-03:05:00.245|56=TRD82841|10=153|
8=FIX.4.4|9=61|35=0|34=24|49=TRD82841|52=20241211-03:05:03.625|56=QFXTRADES|10=160|
8=FIX.4.4|9=61|35=0|34=23|49=QFXTRADES|52=20241211-03:05:30.245|56=TRD82841|10=157|
8=FIX.4.4|9=61|35=0|34=25|49=TRD82841|52=20241211-03:05:33.618|56=QFXTRADES|10=166|
8=FIX.4.4|9=61|35=0|34=24|49=QFXTRADES|52=20241211-03:06:00.245|56=TRD82841|10=156|
8=FIX.4.4|9=61|35=0|34=26|49=TRD82841|52=20241211-03:06:03.621|56=QFXTRADES|10=159|
8=FIX.4.4|9=61|35=0|34=25|49=QFXTRADES|52=20241211-03:06:30.245|56=TRD82841|10=160|
8=FIX.4.4|9=61|35=0|34=27|49=TRD82841|52=20241211-03:06:33.619|56=QFXTRADES|10=170|
8=FIX.4.4|9=61|35=0|34=26|49=QFXTRADES|52=20241211-03:07:00.245|56=TRD82841|10=159|
8=FIX.4.4|9=61|35=0|34=28|49=TRD82841|52=20241211-03:07:03.629|56=QFXTRADES|10=170|
8=FIX.4.4|9=61|35=0|34=27|49=QFXTRADES|52=20241211-03:07:30.245|56=TRD82841|10=163|
8=FIX.4.4|9=61|35=0|34=29|49=TRD82841|52=20241211-03:07:33.631|56=QFXTRADES|10=167|
8=FIX.4.4|9=61|35=0|34=28|49=QFXTRADES|52=20241211-03:08:00.245|56=TRD82841|10=162|
8=FIX.4.4|9=61|35=0|34=30|49=TRD82841|52=20241211-03:08:03.628|56=QFXTRADES|10=163|
8=FIX.4.4|9=61|35=0|34=29|49=QFXTRADES|52=20241211-03:08:30.245|56=TRD82841|10=166|
8=FIX.4.4|9=61|35=0|34=31|49=TRD82841|52=20241211-03:08:33.632|56=QFXTRADES|10=162|
8=FIX.4.4|9=61|35=0|34=30|49=QFXTRADES|52=20241211-03:09:00.245|56=TRD82841|10=156|
8=FIX.4.4|9=61|35=0|34=32|49=TRD82841|52=20241211-03:09:04.627|56=QFXTRADES|10=166|
8=FIX.4.4|9=61|35=0|34=31|49=QFXTRADES|52=20241211-03:09:30.245|56=TRD82841|10=160|
8=FIX.4.4|9=61|35=0|34=33|49=TRD82841|52=20241211-03:09:34.629|56=QFXTRADES|10=172|
8=FIX.4.4|9=61|35=0|34=32|49=QFXTRADES|52=20241211-03:10:00.245|56=TRD82841|10=150|
8=FIX.4.4|9=61|35=0|34=34|49=TRD82841|52=20241211-03:10:04.625|56=QFXTRADES|10=158|
8=FIX.4.4|9=61|35=0|34=33|49=QFXTRADES|52=20241211-03:10:30.245|56=TRD82841|10=154|
8=FIX.4.4|9=61|35=0|34=35|49=TRD82841|52=20241211-03:10:34.622|56=QFXTRADES|10=159|
8=FIX.4.4|9=61|35=0|34=34|49=QFXTRADES|52=20241211-03:11:00.245|56=TRD82841|10=153|
8=FIX.4.4|9=61|35=0|34=36|49=TRD82841|52=20241211-03:11:04.623|56=QFXTRADES|10=159|
8=FIX.4.4|9=61|35=0|34=35|49=QFXTRADES|52=20241211-03:11:30.245|56=TRD82841|10=157|
8=FIX.4.4|9=61|35=0|34=37|49=TRD82841|52=20241211-03:11:34.630|56=QFXTRADES|10=161|
8=FIX.4.4|9=61|35=0|34=36|49=QFXTRADES|52=20241211-03:12:00.246|56=TRD82841|10=157|
8=FIX.4.4|9=61|35=0|34=38|49=TRD82841|52=20241211-03:12:05.630|56=QFXTRADES|10=161|
8=FIX.4.4|9=61|35=0|34=37|49=QFXTRADES|52=20241211-03:12:30.245|56=TRD82841|10=160|
8=FIX.4.4|9=61|35=0|34=39|49=TRD82841|52=20241211-03:12:35.626|56=QFXTRADES|10=170|
8=FIX.4.4|9=61|35=0|34=38|49=QFXTRADES|52=20241211-03:13:00.245|56=TRD82841|10=159|
8=FIX.4.4|9=61|35=0|34=40|49=TRD82841|52=20241211-03:13:05.625|56=QFXTRADES|10=159|
8=FIX.4.4|9=61|35=0|34=39|49=QFXTRADES|52=20241211-03:13:30.245|56=TRD82841|10=163|
8=FIX.4.4|9=61|35=0|34=41|49=TRD82841|52=20241211-03:13:35.630|56=QFXTRADES|10=159|
8=FIX.4.4|9=61|35=0|34=40|49=QFXTRADES|52=20241211-03:14:00.245|56=TRD82841|10=153|
8=FIX.4.4|9=61|35=0|34=42|49=TRD82841|52=20241211-03:14:05.627|56=QFXTRADES|10=164|
8=FIX.4.4|9=61|35=0|34=41|49=QFXTRADES|52=20241211-03:14:30.245|56=TRD82841|10=157|
8=FIX.4.4|9=61|35=0|34=43|49=TRD82841|52=20241211-03:14:35.621|56=QFXTRADES|10=162|
8=FIX.4.4|9=61|35=0|34=42|49=QFXTRADES|52=20241211-03:15:00.245|56=TRD82841|10=156|
8=FIX.4.4|9=61|35=0|34=44|49=TRD82841|52=20241211-03:15:05.629|56=QFXTRADES|10=169|
8=FIX.4.4|9=61|35=0|34=43|49=QFXTRADES|52=20241211-03:15:30.245|56=TRD82841|10=160|
8=FIX.4.4|9=61|35=0|34=45|49=TRD82841|52=20241211-03:15:36.630|56=QFXTRADES|10=166|
8=FIX.4.4|9=61|35=0|34=44|49=QFXTRADES|52=20241211-03:16:00.245|56=TRD82841|10=159|
8=FIX.4.4|9=61|35=0|34=46|49=TRD82841|52=20241211-03:16:06.624|56=QFXTRADES|10=168|
8=FIX.4.4|9=61|35=0|34=45|49=QFXTRADES|52=20241211-03:16:30.245|56=TRD82841|10=163|
8=FIX.4.4|9=61|35=0|34=47|49=TRD82841|52=20241211-03:16:36.632|56=QFXTRADES|10=171|
8=FIX.4.4|9=61|35=0|34=46|49=QFXTRADES|52=20241211-03:17:00.245|56=TRD82841|10=162|
8=FIX.4.4|9=61|35=0|34=48|49=TRD82841|52=20241211-03:17:06.630|56=QFXTRADES|10=168|
8=FIX.4.4|9=61|35=0|34=47|49=QFXTRADES|52=20241211-03:17:30.245|56=TRD82841|10=166|
8=FIX.4.4|9=61|35=0|34=49|49=TRD82841|52=20241211-03:17:36.630|56=QFXTRADES|10=172|
8=FIX.4.4|9=61|35=0|34=48|49=QFXTRADES|52=20241211-03:18:00.245|56=TRD82841|10=165|
8=FIX.4.4|9=61|35=0|34=50|49=TRD82841|52=20241211-03:18:06.625|56=QFXTRADES|10=166|
8=FIX.4.4|9=61|35=0|34=49|49=QFXTRADES|52=20241211-03:18:30.245|56=TRD82841|10=169|
8=FIX.4.4|9=61|35=0|34=51|49=TRD82841|52=20241211-03:18:36.623|56=QFXTRADES|10=168|
8=FIX.4.4|9=61|35=0|34=50|49=QFXTRADES|52=20241211-03:19:00.245|56=TRD82841|10=159|
8=FIX.4.4|9=61|35=0|34=52|49=TRD82841|52=20241211-03:19:06.631|56=QFXTRADES|10=166|
8=FIX.4.4|9=61|35=0|34=51|49=QFXTRADES|52=20241211-03:19:30.245|56=TRD82841|10=163|
8=FIX.4.4|9=61|35=0|34=53|49=TRD82841|52=20241211-03:19:37.619|56=QFXTRADES|10=177|
8=FIX.4.4|9=61|35=0|34=52|49=QFXTRADES|52=20241211-03:20:00.245|56=TRD82841|10=153|
8=FIX.4.4|9=109|35=A|34=1|49=TRD82841|52=20241211-22:15:52.582|56=QFXTRADES|98=0|108=30|141=Y|553=real82841|554=9hucfe4riucr|10=252|
8=FIX.4.4|9=78|35=A|34=1|49=QFXTRADES|52=20241211-22:15:51.566|56=TRD82841|98=0|108=30|141=Y|10=211|
8=FIX.4.4|9=107|35=AF|34=2|49=TRD82841|52=20241211-22:15:53.082|56=QFXTRADES|1=82841|584=active-orders-1733955353079|585=6|10=116|
8=FIX.4.4|9=107|35=AF|34=3|49=TRD82841|52=20241211-22:15:53.084|56=QFXTRADES|1=82841|584=active-orders-1733955353079|585=6|10=119|
8=FIX.4.4|9=163|35=8|34=2|49=QFXTRADES|52=20241211-22:15:52.053|56=TRD82841|1=82841|6=0|11= |14=0|17= |37= |39=0|54=1|55= |150=I|151=0|584=active-orders-1733955353079|911=0|912=Y|10=171|
8=FIX.4.4|9=127|35=j|34=4|49=TRD82841|52=20241211-22:15:53.459|56=QFXTRADES|45=2|58=Conditionally Required Field Missing, field=73|372=8|380=5|10=058|
8=FIX.4.4|9=163|35=8|34=3|49=QFXTRADES|52=20241211-22:15:52.070|56=TRD82841|1=82841|6=0|11= |14=0|17= |37= |39=0|54=1|55= |150=I|151=0|584=active-orders-1733955353079|911=0|912=Y|10=171|
8=FIX.4.4|9=127|35=j|34=5|49=TRD82841|52=20241211-22:15:53.808|56=QFXTRADES|45=3|58=Conditionally Required Field Missing, field=73|372=8|380=5|10=058|
8=FIX.4.4|9=60|35=0|34=6|49=TRD82841|52=20241211-22:16:24.284|56=QFXTRADES|10=118|
8=FIX.4.4|9=60|35=0|34=4|49=QFXTRADES|52=20241211-22:16:22.245|56=TRD82841|10=111|
8=FIX.4.4|9=60|35=0|34=5|49=QFXTRADES|52=20241211-22:16:52.245|56=TRD82841|10=115|
8=FIX.4.4|9=60|35=0|34=7|49=TRD82841|52=20241211-22:16:54.279|56=QFXTRADES|10=126|
8=FIX.4.4|9=60|35=0|34=6|49=QFXTRADES|52=20241211-22:17:22.245|56=TRD82841|10=114|
8=FIX.4.4|9=60|35=0|34=8|49=TRD82841|52=20241211-22:17:24.280|56=QFXTRADES|10=117|
8=FIX.4.4|9=109|35=A|34=1|49=TRD82841|52=20241211-22:32:23.111|56=QFXTRADES|98=0|108=30|141=Y|553=real82841|554=9hucfe4riucr|10=237|
8=FIX.4.4|9=78|35=A|34=1|49=QFXTRADES|52=20241211-22:32:22.280|56=TRD82841|98=0|108=30|141=Y|10=201|
8=FIX.4.4|9=107|35=AF|34=2|49=TRD82841|52=20241211-22:32:23.793|56=QFXTRADES|1=82841|584=active-orders-1733956343784|585=6|10=124|
8=FIX.4.4|9=107|35=AF|34=3|49=TRD82841|52=20241211-22:32:23.810|56=QFXTRADES|1=82841|584=active-orders-1733956343784|585=6|10=115|
8=FIX.4.4|9=163|35=8|34=2|49=QFXTRADES|52=20241211-22:32:22.790|56=TRD82841|1=82841|6=0|11= |14=0|17= |37= |39=0|54=1|55= |150=I|151=0|584=active-orders-1733956343784|911=0|912=Y|10=178|
8=FIX.4.4|9=127|35=j|34=4|49=TRD82841|52=20241211-22:32:24.292|56=QFXTRADES|45=2|58=Conditionally Required Field Missing, field=73|372=8|380=5|10=050|
8=FIX.4.4|9=163|35=8|34=3|49=QFXTRADES|52=20241211-22:32:22.806|56=TRD82841|1=82841|6=0|11= |14=0|17= |37= |39=0|54=1|55= |150=I|151=0|584=active-orders-1733956343784|911=0|912=Y|10=177|
8=FIX.4.4|9=127|35=j|34=5|49=TRD82841|52=20241211-22:32:24.670|56=QFXTRADES|45=3|58=Conditionally Required Field Missing, field=73|372=8|380=5|10=052|
8=FIX.4.4|9=60|35=0|34=6|49=TRD82841|52=20241211-22:32:54.791|56=QFXTRADES|10=122|
8=FIX.4.4|9=60|35=0|34=4|49=QFXTRADES|52=20241211-22:32:53.245|56=TRD82841|10=113|
8=FIX.4.4|9=60|35=0|34=5|49=QFXTRADES|52=20241211-22:33:23.245|56=TRD82841|10=112|
8=FIX.4.4|9=60|35=0|34=7|49=TRD82841|52=20241211-22:33:24.786|56=QFXTRADES|10=125|
8=FIX.4.4|9=60|35=0|34=6|49=QFXTRADES|52=20241211-22:33:53.245|56=TRD82841|10=116|
8=FIX.4.4|9=60|35=0|34=8|49=TRD82841|52=20241211-22:33:54.794|56=QFXTRADES|10=128|
8=FIX.4.4|9=109|35=A|34=1|49=TRD82841|52=20241211-22:38:52.340|56=QFXTRADES|98=0|108=30|141=Y|553=real82841|554=9hucfe4riucr|10=249|
8=FIX.4.4|9=78|35=A|34=1|49=QFXTRADES|52=20241211-22:38:51.342|56=TRD82841|98=0|108=30|141=Y|10=208|
8=FIX.4.4|9=107|35=AF|34=2|49=TRD82841|52=20241211-22:39:16.309|56=QFXTRADES|1=82841|584=active-orders-1733956756308|585=6|10=126|
8=FIX.4.4|9=107|35=AF|34=3|49=TRD82841|52=20241211-22:39:16.310|56=QFXTRADES|1=82841|584=active-orders-1733956756308|585=6|10=119|
8=FIX.4.4|9=163|35=8|34=2|49=QFXTRADES|52=20241211-22:39:15.297|56=TRD82841|1=82841|6=0|11= |14=0|17= |37= |39=0|54=1|55= |150=I|151=0|584=active-orders-1733956756308|911=0|912=Y|10=189|
8=FIX.4.4|9=127|35=j|34=4|49=TRD82841|52=20241211-22:39:16.712|56=QFXTRADES|45=2|58=Conditionally Required Field Missing, field=73|372=8|380=5|10=055|
8=FIX.4.4|9=163|35=8|34=3|49=QFXTRADES|52=20241211-22:39:15.313|56=TRD82841|1=82841|6=0|11= |14=0|17= |37= |39=0|54=1|55= |150=I|151=0|584=active-orders-1733956756308|911=0|912=Y|10=179|
8=FIX.4.4|9=127|35=j|34=5|49=TRD82841|52=20241211-22:39:17.004|56=QFXTRADES|45=3|58=Conditionally Required Field Missing, field=73|372=8|380=5|10=052|
8=FIX.4.4|9=109|35=A|34=1|49=TRD82841|52=20241211-22:39:45.681|56=QFXTRADES|98=0|108=30|141=Y|553=real82841|554=9hucfe4riucr|10=004|
8=FIX.4.4|9=78|35=A|34=1|49=QFXTRADES|52=20241211-22:39:44.723|56=TRD82841|98=0|108=30|141=Y|10=214|
8=FIX.4.4|9=107|35=AF|34=2|49=TRD82841|52=20241211-22:39:48.647|56=QFXTRADES|1=82841|584=active-orders-1733956788647|585=6|10=147|
8=FIX.4.4|9=107|35=AF|34=3|49=TRD82841|52=20241211-22:39:48.649|56=QFXTRADES|1=82841|584=active-orders-1733956788647|585=6|10=150|
8=FIX.4.4|9=163|35=8|34=2|49=QFXTRADES|52=20241211-22:39:47.631|56=TRD82841|1=82841|6=0|11= |14=0|17= |37= |39=0|54=1|55= |150=I|151=0|584=active-orders-1733956788647|911=0|912=Y|10=197|
8=FIX.4.4|9=127|35=j|34=4|49=TRD82841|52=20241211-22:39:49.058|56=QFXTRADES|45=2|58=Conditionally Required Field Missing, field=73|372=8|380=5|10=064|
8=FIX.4.4|9=163|35=8|34=3|49=QFXTRADES|52=20241211-22:39:47.647|56=TRD82841|1=82841|6=0|11= |14=0|17= |37= |39=0|54=1|55= |150=I|151=0|584=active-orders-1733956788647|911=0|912=Y|10=205|
8=FIX.4.4|9=127|35=j|34=5|49=TRD82841|52=20241211-22:39:49.454|56=QFXTRADES|45=3|58=Conditionally Required Field Missing, field=73|372=8|380=5|10=066|
8=FIX.4.4|9=109|35=A|34=1|49=TRD82841|52=20241211-22:40:58.010|56=QFXTRADES|98=0|108=30|141=Y|553=real82841|554=9hucfe4riucr|10=242|
8=FIX.4.4|9=78|35=A|34=1|49=QFXTRADES|52=20241211-22:40:57.090|56=TRD82841|98=0|108=30|141=Y|10=207|
8=FIX.4.4|9=60|35=0|34=2|49=QFXTRADES|52=20241211-22:41:27.245|56=TRD82841|10=112|
8=FIX.4.4|9=60|35=0|34=2|49=TRD82841|52=20241211-22:41:28.465|56=QFXTRADES|10=117|
8=FIX.4.4|9=60|35=0|34=3|49=QFXTRADES|52=20241211-22:41:57.245|56=TRD82841|10=116|
8=FIX.4.4|9=60|35=0|34=3|49=TRD82841|52=20241211-22:41:58.663|56=QFXTRADES|10=121|
8=FIX.4.4|9=60|35=0|34=4|49=QFXTRADES|52=20241211-22:42:27.245|56=TRD82841|10=115|
8=FIX.4.4|9=60|35=0|34=4|49=TRD82841|52=20241211-22:42:28.772|56=QFXTRADES|10=121|
8=FIX.4.4|9=60|35=0|34=5|49=QFXTRADES|52=20241211-22:42:57.245|56=TRD82841|10=119|
8=FIX.4.4|9=60|35=0|34=5|49=TRD82841|52=20241211-22:42:58.771|56=QFXTRADES|10=124|
8=FIX.4.4|9=60|35=0|34=6|49=QFXTRADES|52=20241211-22:43:27.244|56=TRD82841|10=117|
8=FIX.4.4|9=60|35=0|34=6|49=TRD82841|52=20241211-22:43:28.762|56=QFXTRADES|10=123|
8=FIX.4.4|9=60|35=0|34=7|49=QFXTRADES|52=20241211-22:43:57.245|56=TRD82841|10=122|
8=FIX.4.4|9=60|35=0|34=7|49=TRD82841|52=20241211-22:43:58.770|56=QFXTRADES|10=126|
8=FIX.4.4|9=60|35=0|34=8|49=QFXTRADES|52=20241211-22:44:27.245|56=TRD82841|10=121|
8=FIX.4.4|9=60|35=0|34=8|49=TRD82841|52=20241211-22:44:28.775|56=QFXTRADES|10=130|
8=FIX.4.4|9=109|35=A|34=1|49=TRD82841|52=20241211-22:44:52.457|56=QFXTRADES|98=0|108=30|141=Y|553=real82841|554=9hucfe4riucr|10=255|
8=FIX.4.4|9=78|35=A|34=1|49=QFXTRADES|52=20241211-22:44:51.607|56=TRD82841|98=0|108=30|141=Y|10=209|
8=FIX.4.4|9=107|35=AF|34=2|49=TRD82841|52=20241211-22:45:09.708|56=QFXTRADES|1=82841|584=active-orders-1733957109707|585=6|10=124|
8=FIX.4.4|9=107|35=AF|34=3|49=TRD82841|52=20241211-22:45:09.709|56=QFXTRADES|1=82841|584=active-orders-1733957109707|585=6|10=126|
8=FIX.4.4|9=163|35=8|34=2|49=QFXTRADES|52=20241211-22:45:08.698|56=TRD82841|1=82841|6=0|11= |14=0|17= |37= |39=0|54=1|55= |150=I|151=0|584=active-orders-1733957109707|911=0|912=Y|10=189|
8=FIX.4.4|9=127|35=j|34=4|49=TRD82841|52=20241211-22:45:09.990|56=QFXTRADES|45=2|58=Conditionally Required Field Missing, field=73|372=8|380=5|10=062|
8=FIX.4.4|9=163|35=8|34=3|49=QFXTRADES|52=20241211-22:45:08.715|56=TRD82841|1=82841|6=0|11= |14=0|17= |37= |39=0|54=1|55= |150=I|151=0|584=active-orders-1733957109707|911=0|912=Y|10=180|
8=FIX.4.4|9=127|35=j|34=5|49=TRD82841|52=20241211-22:45:10.251|56=QFXTRADES|45=3|58=Conditionally Required Field Missing, field=73|372=8|380=5|10=046|
8=FIX.4.4|9=109|35=A|34=1|49=TRD82841|52=20241211-22:45:37.361|56=QFXTRADES|98=0|108=30|141=Y|553=real82841|554=9hucfe4riucr|10=253|
8=FIX.4.4|9=78|35=A|34=1|49=QFXTRADES|52=20241211-22:45:36.368|56=TRD82841|98=0|108=30|141=Y|10=217|
8=FIX.4.4|9=107|35=AF|34=2|49=TRD82841|52=20241211-22:45:43.361|56=QFXTRADES|1=82841|584=active-orders-1733957143359|585=6|10=118|
8=FIX.4.4|9=107|35=AF|34=3|49=TRD82841|52=20241211-22:45:43.362|56=QFXTRADES|1=82841|584=active-orders-1733957143359|585=6|10=120|
8=FIX.4.4|9=163|35=8|34=2|49=QFXTRADES|52=20241211-22:45:42.367|56=TRD82841|1=82841|6=0|11= |14=0|17= |37= |39=0|54=1|55= |150=I|151=0|584=active-orders-1733957143359|911=0|912=Y|10=181|
8=FIX.4.4|9=127|35=j|34=4|49=TRD82841|52=20241211-22:45:43.603|56=QFXTRADES|45=2|58=Conditionally Required Field Missing, field=73|372=8|380=5|10=051|
8=FIX.4.4|9=163|35=8|34=3|49=QFXTRADES|52=20241211-22:45:42.384|56=TRD82841|1=82841|6=0|11= |14=0|17= |37= |39=0|54=1|55= |150=I|151=0|584=active-orders-1733957143359|911=0|912=Y|10=181|
8=FIX.4.4|9=127|35=j|34=5|49=TRD82841|52=20241211-22:45:43.784|56=QFXTRADES|45=3|58=Conditionally Required Field Missing, field=73|372=8|380=5|10=063|
8=FIX.4.4|9=60|35=0|34=6|49=TRD82841|52=20241211-22:46:14.050|56=QFXTRADES|10=111|
8=FIX.4.4|9=60|35=0|34=4|49=QFXTRADES|52=20241211-22:46:13.038|56=TRD82841|10=114|
8=FIX.4.4|9=60|35=0|34=7|49=TRD82841|52=20241211-22:46:44.053|56=QFXTRADES|10=118|
8=FIX.4.4|9=60|35=0|34=5|49=QFXTRADES|52=20241211-22:46:43.038|56=TRD82841|10=118|
8=FIX.4.4|9=109|35=A|34=1|49=TRD82841|52=20241211-22:48:50.545|56=QFXTRADES|98=0|108=30|141=Y|553=real82841|554=9hucfe4riucr|10=255|
8=FIX.4.4|9=78|35=A|34=1|49=QFXTRADES|52=20241211-22:48:49.556|56=TRD82841|98=0|108=30|141=Y|10=223|
8=FIX.4.4|9=107|35=AF|34=2|49=TRD82841|52=20241211-22:49:03.524|56=QFXTRADES|1=82841|584=active-orders-1733957343524|585=6|10=115|
8=FIX.4.4|9=107|35=AF|34=3|49=TRD82841|52=20241211-22:49:03.525|56=QFXTRADES|1=82841|584=active-orders-1733957343524|585=6|10=117|
8=FIX.4.4|9=163|35=8|34=2|49=QFXTRADES|52=20241211-22:49:02.514|56=TRD82841|1=82841|6=0|11= |14=0|17= |37= |39=0|54=1|55= |150=I|151=0|584=active-orders-1733957343524|911=0|912=Y|10=171|
8=FIX.4.4|9=127|35=j|34=4|49=TRD82841|52=20241211-22:49:03.807|56=QFXTRADES|45=2|58=Conditionally Required Field Missing, field=73|372=8|380=5|10=057|
8=FIX.4.4|9=163|35=8|34=3|49=QFXTRADES|52=20241211-22:49:02.533|56=TRD82841|1=82841|6=0|11= |14=0|17= |37= |39=0|54=1|55= |150=I|151=0|584=active-orders-1733957343524|911=0|912=Y|10=173|
8=FIX.4.4|9=127|35=j|34=5|49=TRD82841|52=20241211-22:49:04.057|56=QFXTRADES|45=3|58=Conditionally Required Field Missing, field=73|372=8|380=5|10=057|
8=FIX.4.4|9=60|35=0|34=6|49=TRD82841|52=20241211-22:49:34.195|56=QFXTRADES|10=126|
8=FIX.4.4|9=60|35=0|34=4|49=QFXTRADES|52=20241211-22:49:33.206|56=TRD82841|10=116|
8=FIX.4.4|9=60|35=0|34=7|49=TRD82841|52=20241211-22:50:04.200|56=QFXTRADES|10=103|
8=FIX.4.4|9=60|35=0|34=5|49=QFXTRADES|52=20241211-22:50:03.245|56=TRD82841|10=109|
8=FIX.4.4|9=60|35=0|34=6|49=QFXTRADES|52=20241211-22:50:33.245|56=TRD82841|10=113|
8=FIX.4.4|9=60|35=0|34=8|49=TRD82841|52=20241211-22:50:34.592|56=QFXTRADES|10=121|
8=FIX.4.4|9=60|35=0|34=9|49=TRD82841|52=20241211-22:51:05.189|56=QFXTRADES|10=123|
8=FIX.4.4|9=60|35=0|34=7|49=QFXTRADES|52=20241211-22:51:03.245|56=TRD82841|10=112|
8=FIX.4.4|9=60|35=0|34=8|49=QFXTRADES|52=20241211-22:51:33.245|56=TRD82841|10=116|
8=FIX.4.4|9=61|35=0|34=10|49=TRD82841|52=20241211-22:51:35.185|56=QFXTRADES|10=163|
8=FIX.4.4|9=60|35=0|34=9|49=QFXTRADES|52=20241211-22:52:03.245|56=TRD82841|10=115|
8=FIX.4.4|9=61|35=0|34=11|49=TRD82841|52=20241211-22:52:05.197|56=QFXTRADES|10=165|
8=FIX.4.4|9=61|35=0|34=10|49=QFXTRADES|52=20241211-22:52:33.247|56=TRD82841|10=161|
8=FIX.4.4|9=61|35=0|34=12|49=TRD82841|52=20241211-22:52:35.192|56=QFXTRADES|10=164|
8=FIX.4.4|9=61|35=0|34=11|49=QFXTRADES|52=20241211-22:53:03.246|56=TRD82841|10=159|
8=FIX.4.4|9=61|35=0|34=13|49=TRD82841|52=20241211-22:53:05.193|56=QFXTRADES|10=164|
8=FIX.4.4|9=109|35=A|34=1|49=TRD82841|52=20241212-23:33:22.542|56=QFXTRADES|98=0|108=30|141=Y|553=real82841|554=9hucfe4riucr|10=247|
8=FIX.4.4|9=78|35=A|34=1|49=QFXTRADES|52=20241212-23:33:22.606|56=TRD82841|98=0|108=30|141=Y|10=206|
8=FIX.4.4|9=107|35=AF|34=2|49=TRD82841|52=20241212-23:33:23.626|56=QFXTRADES|1=82841|584=active-orders-1734046403626|585=6|10=105|
8=FIX.4.4|9=107|35=AF|34=3|49=TRD82841|52=20241212-23:33:23.627|56=QFXTRADES|1=82841|584=active-orders-1734046403626|585=6|10=107|
8=FIX.4.4|9=163|35=8|34=2|49=QFXTRADES|52=20241212-23:33:23.675|56=TRD82841|1=82841|6=0|11= |14=0|17= |37= |39=0|54=1|55= |150=I|151=0|584=active-orders-1734046403626|911=0|912=Y|10=167|
8=FIX.4.4|9=127|35=j|34=4|49=TRD82841|52=20241212-23:33:23.974|56=QFXTRADES|45=2|58=Conditionally Required Field Missing, field=73|372=8|380=5|10=059|
8=FIX.4.4|9=163|35=8|34=3|49=QFXTRADES|52=20241212-23:33:23.703|56=TRD82841|1=82841|6=0|11= |14=0|17= |37= |39=0|54=1|55= |150=I|151=0|584=active-orders-1734046403626|911=0|912=Y|10=160|
8=FIX.4.4|9=127|35=j|34=5|49=TRD82841|52=20241212-23:33:24.080|56=QFXTRADES|45=3|58=Conditionally Required Field Missing, field=73|372=8|380=5|10=050|
8=FIX.4.4|9=60|35=0|34=6|49=TRD82841|52=20241212-23:33:54.250|56=QFXTRADES|10=115|
8=FIX.4.4|9=60|35=0|34=4|49=QFXTRADES|52=20241212-23:33:54.246|56=TRD82841|10=118|
8=FIX.4.4|9=60|35=0|34=7|49=TRD82841|52=20241212-23:34:24.247|56=QFXTRADES|10=120|
8=FIX.4.4|9=60|35=0|34=5|49=QFXTRADES|52=20241212-23:34:24.245|56=TRD82841|10=116|
8=FIX.4.4|9=60|35=0|34=8|49=TRD82841|52=20241212-23:34:54.245|56=QFXTRADES|10=122|
8=FIX.4.4|9=60|35=0|34=6|49=QFXTRADES|52=20241212-23:34:54.245|56=TRD82841|10=120|
8=FIX.4.4|9=60|35=0|34=9|49=TRD82841|52=20241212-23:35:24.246|56=QFXTRADES|10=122|
8=FIX.4.4|9=60|35=0|34=7|49=QFXTRADES|52=20241212-23:35:24.245|56=TRD82841|10=119|
8=FIX.4.4|9=109|35=A|34=1|49=TRD82841|52=20241212-23:35:59.745|56=QFXTRADES|98=0|108=30|141=Y|553=real82841|554=9hucfe4riucr|10=008|
8=FIX.4.4|9=78|35=A|34=1|49=QFXTRADES|52=20241212-23:35:59.905|56=TRD82841|98=0|108=30|141=Y|10=220|
8=FIX.4.4|9=107|35=AF|34=2|49=TRD82841|52=20241212-23:36:04.664|56=QFXTRADES|1=82841|584=active-orders-1734046564663|585=6|10=118|
8=FIX.4.4|9=107|35=AF|34=3|49=TRD82841|52=20241212-23:36:04.665|56=QFXTRADES|1=82841|584=active-orders-1734046564663|585=6|10=120|
8=FIX.4.4|9=163|35=8|34=2|49=QFXTRADES|52=20241212-23:36:04.756|56=TRD82841|1=82841|6=0|11= |14=0|17= |37= |39=0|54=1|55= |150=I|151=0|584=active-orders-1734046564663|911=0|912=Y|10=178|
8=FIX.4.4|9=127|35=j|34=4|49=TRD82841|52=20241212-23:36:04.937|56=QFXTRADES|45=2|58=Conditionally Required Field Missing, field=73|372=8|380=5|10=060|
8=FIX.4.4|9=163|35=8|34=3|49=QFXTRADES|52=20241212-23:36:04.771|56=TRD82841|1=82841|6=0|11= |14=0|17= |37= |39=0|54=1|55= |150=I|151=0|584=active-orders-1734046564663|911=0|912=Y|10=176|
8=FIX.4.4|9=127|35=j|34=5|49=TRD82841|52=20241212-23:36:05.117|56=QFXTRADES|45=3|58=Conditionally Required Field Missing, field=73|372=8|380=5|10=053|
8=FIX.4.4|9=60|35=0|34=6|49=TRD82841|52=20241212-23:36:35.299|56=QFXTRADES|10=130|
8=FIX.4.4|9=60|35=0|34=4|49=QFXTRADES|52=20241212-23:36:35.245|56=TRD82841|10=119|
8=FIX.4.4|9=60|35=0|34=7|49=TRD82841|52=20241212-23:37:05.293|56=QFXTRADES|10=123|
8=FIX.4.4|9=60|35=0|34=5|49=QFXTRADES|52=20241212-23:37:05.245|56=TRD82841|10=118|
8=FIX.4.4|9=109|35=A|34=1|49=TRD82841|52=20241212-23:37:26.491|56=QFXTRADES|98=0|108=30|141=Y|553=real82841|554=9hucfe4riucr|10=002|
8=FIX.4.4|9=78|35=A|34=1|49=QFXTRADES|52=20241212-23:37:26.711|56=TRD82841|98=0|108=30|141=Y|10=211|
8=FIX.4.4|9=107|35=AF|34=2|49=TRD82841|52=20241212-23:37:48.230|56=QFXTRADES|1=82841|584=active-orders-1734046668230|585=6|10=111|
8=FIX.4.4|9=107|35=AF|34=3|49=TRD82841|52=20241212-23:37:48.231|56=QFXTRADES|1=82841|584=active-orders-1734046668230|585=6|10=113|
8=FIX.4.4|9=163|35=8|34=2|49=QFXTRADES|52=20241212-23:37:48.282|56=TRD82841|1=82841|6=0|11= |14=0|17= |37= |39=0|54=1|55= |150=I|151=0|584=active-orders-1734046668230|911=0|912=Y|10=176|
8=FIX.4.4|9=127|35=j|34=4|49=TRD82841|52=20241212-23:37:48.485|56=QFXTRADES|45=2|58=Conditionally Required Field Missing, field=73|372=8|380=5|10=067|
8=FIX.4.4|9=163|35=8|34=3|49=QFXTRADES|52=20241212-23:37:48.300|56=TRD82841|1=82841|6=0|11= |14=0|17= |37= |39=0|54=1|55= |150=I|151=0|584=active-orders-1734046668230|911=0|912=Y|10=168|
8=FIX.4.4|9=127|35=j|34=5|49=TRD82841|52=20241212-23:37:48.650|56=QFXTRADES|45=3|58=Conditionally Required Field Missing, field=73|372=8|380=5|10=063|
8=FIX.4.4|9=60|35=0|34=6|49=TRD82841|52=20241212-23:38:19.096|56=QFXTRADES|10=129|
8=FIX.4.4|9=60|35=0|34=4|49=QFXTRADES|52=20241212-23:38:19.245|56=TRD82841|10=123|
8=FIX.4.4|9=109|35=A|34=1|49=TRD82841|52=20241212-23:38:39.185|56=QFXTRADES|98=0|108=30|141=Y|553=real82841|554=9hucfe4riucr|10=007|
8=FIX.4.4|9=78|35=A|34=1|49=QFXTRADES|52=20241212-23:38:39.349|56=TRD82841|98=0|108=30|141=Y|10=223|
8=FIX.4.4|9=107|35=AF|34=2|49=TRD82841|52=20241212-23:38:50.947|56=QFXTRADES|1=82841|584=active-orders-1734046730946|585=6|10=124|
8=FIX.4.4|9=107|35=AF|34=3|49=TRD82841|52=20241212-23:38:50.948|56=QFXTRADES|1=82841|584=active-orders-1734046730946|585=6|10=126|
8=FIX.4.4|9=163|35=8|34=2|49=QFXTRADES|52=20241212-23:38:51.176|56=TRD82841|1=82841|6=0|11= |14=0|17= |37= |39=0|54=1|55= |150=I|151=0|584=active-orders-1734046730946|911=0|912=Y|10=177|
8=FIX.4.4|9=127|35=j|34=4|49=TRD82841|52=20241212-23:38:51.387|56=QFXTRADES|45=2|58=Conditionally Required Field Missing, field=73|372=8|380=5|10=063|
8=FIX.4.4|9=163|35=8|34=3|49=QFXTRADES|52=20241212-23:38:51.193|56=TRD82841|1=82841|6=0|11= |14=0|17= |37= |39=0|54=1|55= |150=I|151=0|584=active-orders-1734046730946|911=0|912=Y|10=177|
8=FIX.4.4|9=127|35=j|34=5|49=TRD82841|52=20241212-23:38:51.590|56=QFXTRADES|45=3|58=Conditionally Required Field Missing, field=73|372=8|380=5|10=061|
8=FIX.4.4|9=60|35=0|34=4|49=QFXTRADES|52=20241212-23:39:21.244|56=TRD82841|10=116|
8=FIX.4.4|9=60|35=0|34=6|49=TRD82841|52=20241212-23:39:21.698|56=QFXTRADES|10=131|
8=FIX.4.4|9=60|35=0|34=5|49=QFXTRADES|52=20241212-23:39:51.245|56=TRD82841|10=121|
8=FIX.4.4|9=60|35=0|34=7|49=TRD82841|52=20241212-23:39:51.882|56=QFXTRADES|10=130|
8=FIX.4.4|9=60|35=0|34=6|49=QFXTRADES|52=20241212-23:40:21.245|56=TRD82841|10=111|
8=FIX.4.4|9=60|35=0|34=8|49=TRD82841|52=20241212-23:40:21.874|56=QFXTRADES|10=121|
8=FIX.4.4|9=60|35=0|34=7|49=QFXTRADES|52=20241212-23:40:51.245|56=TRD82841|10=115|
8=FIX.4.4|9=60|35=0|34=9|49=TRD82841|52=20241212-23:40:51.877|56=QFXTRADES|10=128|
8=FIX.4.4|9=60|35=0|34=8|49=QFXTRADES|52=20241212-23:41:21.245|56=TRD82841|10=114|
8=FIX.4.4|9=61|35=0|34=10|49=TRD82841|52=20241212-23:41:21.879|56=QFXTRADES|10=169|
8=FIX.4.4|9=60|35=0|34=9|49=QFXTRADES|52=20241212-23:41:51.245|56=TRD82841|10=118|
8=FIX.4.4|9=61|35=0|34=11|49=TRD82841|52=20241212-23:41:51.884|56=QFXTRADES|10=169|
8=FIX.4.4|9=61|35=0|34=10|49=QFXTRADES|52=20241212-23:42:21.245|56=TRD82841|10=157|
8=FIX.4.4|9=61|35=0|34=12|49=TRD82841|52=20241212-23:42:21.881|56=QFXTRADES|10=165|
8=FIX.4.4|9=61|35=0|34=11|49=QFXTRADES|52=20241212-23:42:51.245|56=TRD82841|10=161|
8=FIX.4.4|9=61|35=0|34=13|49=TRD82841|52=20241212-23:42:51.874|56=QFXTRADES|10=171|
8=FIX.4.4|9=109|35=A|34=1|49=TRD82841|52=20241212-23:44:29.229|56=QFXTRADES|98=0|108=30|141=Y|553=real82841|554=9hucfe4riucr|10=002|
8=FIX.4.4|9=78|35=A|34=1|49=QFXTRADES|52=20241212-23:44:29.442|56=TRD82841|98=0|108=30|141=Y|10=213|
8=FIX.4.4|9=107|35=AF|34=2|49=TRD82841|52=20241212-23:44:29.742|56=QFXTRADES|1=82841|584=active-orders-1734047069742|585=6|10=120|
8=FIX.4.4|9=107|35=AF|34=3|49=TRD82841|52=20241212-23:44:29.744|56=QFXTRADES|1=82841|584=active-orders-1734047069742|585=6|10=123|
8=FIX.4.4|9=163|35=8|34=2|49=QFXTRADES|52=20241212-23:44:29.788|56=TRD82841|1=82841|6=0|11= |14=0|17= |37= |39=0|54=1|55= |150=I|151=0|584=active-orders-1734047069742|911=0|912=Y|10=188|
8=FIX.4.4|9=127|35=j|34=4|49=TRD82841|52=20241212-23:44:30.032|56=QFXTRADES|45=2|58=Conditionally Required Field Missing, field=73|372=8|380=5|10=044|
8=FIX.4.4|9=163|35=8|34=3|49=QFXTRADES|52=20241212-23:44:29.804|56=TRD82841|1=82841|6=0|11= |14=0|17= |37= |39=0|54=1|55= |150=I|151=0|584=active-orders-1734047069742|911=0|912=Y|10=178|
8=FIX.4.4|9=127|35=j|34=5|49=TRD82841|52=20241212-23:44:30.234|56=QFXTRADES|45=3|58=Conditionally Required Field Missing, field=73|372=8|380=5|10=050|
8=FIX.4.4|9=60|35=0|34=4|49=QFXTRADES|52=20241212-23:45:00.245|56=TRD82841|10=111|
8=FIX.4.4|9=60|35=0|34=6|49=TRD82841|52=20241212-23:45:00.592|56=QFXTRADES|10=118|
8=FIX.4.4|9=60|35=0|34=5|49=QFXTRADES|52=20241212-23:45:30.245|56=TRD82841|10=115|
8=FIX.4.4|9=60|35=0|34=7|49=TRD82841|52=20241212-23:45:30.791|56=QFXTRADES|10=123|
8=FIX.4.4|9=60|35=0|34=6|49=QFXTRADES|52=20241212-23:46:00.245|56=TRD82841|10=114|
8=FIX.4.4|9=60|35=0|34=8|49=TRD82841|52=20241212-23:46:00.783|56=QFXTRADES|10=123|
8=FIX.4.4|9=60|35=0|34=7|49=QFXTRADES|52=20241212-23:46:30.245|56=TRD82841|10=118|
8=FIX.4.4|9=60|35=0|34=9|49=TRD82841|52=20241212-23:46:30.790|56=QFXTRADES|10=125|
8=FIX.4.4|9=60|35=0|34=8|49=QFXTRADES|52=20241212-23:47:00.245|56=TRD82841|10=117|
8=FIX.4.4|9=61|35=0|34=10|49=TRD82841|52=20241212-23:47:01.778|56=QFXTRADES|10=171|
8=FIX.4.4|9=60|35=0|34=9|49=QFXTRADES|52=20241212-23:47:30.245|56=TRD82841|10=121|
8=FIX.4.4|9=61|35=0|34=11|49=TRD82841|52=20241212-23:47:31.790|56=QFXTRADES|10=169|
8=FIX.4.4|9=61|35=0|34=10|49=QFXTRADES|52=20241212-23:48:00.245|56=TRD82841|10=160|
8=FIX.4.4|9=61|35=0|34=12|49=TRD82841|52=20241212-23:48:02.778|56=QFXTRADES|10=175|
8=FIX.4.4|9=61|35=0|34=11|49=QFXTRADES|52=20241212-23:48:30.245|56=TRD82841|10=164|
8=FIX.4.4|9=61|35=0|34=13|49=TRD82841|52=20241212-23:48:32.790|56=QFXTRADES|10=173|
8=FIX.4.4|9=61|35=0|34=12|49=QFXTRADES|52=20241212-23:49:00.245|56=TRD82841|10=163|
8=FIX.4.4|9=61|35=0|34=14|49=TRD82841|52=20241212-23:49:02.781|56=QFXTRADES|10=172|
8=FIX.4.4|9=61|35=0|34=13|49=QFXTRADES|52=20241212-23:49:30.245|56=TRD82841|10=167|
8=FIX.4.4|9=61|35=0|34=15|49=TRD82841|52=20241212-23:49:32.786|56=QFXTRADES|10=181|
8=FIX.4.4|9=61|35=0|34=14|49=QFXTRADES|52=20241212-23:50:00.245|56=TRD82841|10=157|
8=FIX.4.4|9=61|35=0|34=16|49=TRD82841|52=20241212-23:50:02.779|56=QFXTRADES|10=173|
8=FIX.4.4|9=61|35=0|34=15|49=QFXTRADES|52=20241212-23:50:30.245|56=TRD82841|10=161|
8=FIX.4.4|9=61|35=0|34=17|49=TRD82841|52=20241212-23:50:32.779|56=QFXTRADES|10=177|
8=FIX.4.4|9=61|35=0|34=16|49=QFXTRADES|52=20241212-23:51:00.245|56=TRD82841|10=160|
8=FIX.4.4|9=61|35=0|34=18|49=TRD82841|52=20241212-23:51:02.777|56=QFXTRADES|10=174|
8=FIX.4.4|9=61|35=0|34=17|49=QFXTRADES|52=20241212-23:51:30.245|56=TRD82841|10=164|
8=FIX.4.4|9=61|35=0|34=19|49=TRD82841|52=20241212-23:51:32.783|56=QFXTRADES|10=175|
8=FIX.4.4|9=61|35=0|34=18|49=QFXTRADES|52=20241212-23:52:00.245|56=TRD82841|10=163|
8=FIX.4.4|9=61|35=0|34=20|49=TRD82841|52=20241212-23:52:02.789|56=QFXTRADES|10=171|
8=FIX.4.4|9=61|35=0|34=19|49=QFXTRADES|52=20241212-23:52:30.245|56=TRD82841|10=167|
8=FIX.4.4|9=61|35=0|34=21|49=TRD82841|52=20241212-23:52:32.790|56=QFXTRADES|10=167|
8=FIX.4.4|9=61|35=0|34=20|49=QFXTRADES|52=20241212-23:53:00.245|56=TRD82841|10=157|
8=FIX.4.4|9=61|35=0|34=22|49=TRD82841|52=20241212-23:53:03.782|56=QFXTRADES|10=168|
8=FIX.4.4|9=109|35=A|34=1|49=TRD82841|52=20241212-23:53:32.704|56=QFXTRADES|98=0|108=30|141=Y|553=real82841|554=9hucfe4riucr|10=250|
8=FIX.4.4|9=78|35=A|34=1|49=QFXTRADES|52=20241212-23:53:32.765|56=TRD82841|98=0|108=30|141=Y|10=215|
8=FIX.4.4|9=107|35=AF|34=2|49=TRD82841|52=20241212-23:53:33.277|56=QFXTRADES|1=82841|584=active-orders-1734047613268|585=6|10=116|
8=FIX.4.4|9=107|35=AF|34=3|49=TRD82841|52=20241212-23:53:33.279|56=QFXTRADES|1=82841|584=active-orders-1734047613268|585=6|10=119|
8=FIX.4.4|9=163|35=8|34=2|49=QFXTRADES|52=20241212-23:53:33.315|56=TRD82841|1=82841|6=0|11= |14=0|17= |37= |39=0|54=1|55= |150=I|151=0|584=active-orders-1734047613268|911=0|912=Y|10=167|
8=FIX.4.4|9=127|35=j|34=4|49=TRD82841|52=20241212-23:53:33.509|56=QFXTRADES|45=2|58=Conditionally Required Field Missing, field=73|372=8|380=5|10=056|
8=FIX.4.4|9=163|35=8|34=3|49=QFXTRADES|52=20241212-23:53:33.332|56=TRD82841|1=82841|6=0|11= |14=0|17= |37= |39=0|54=1|55= |150=I|151=0|584=active-orders-1734047613268|911=0|912=Y|10=167|
8=FIX.4.4|9=127|35=j|34=5|49=TRD82841|52=20241212-23:53:33.684|56=QFXTRADES|45=3|58=Conditionally Required Field Missing, field=73|372=8|380=5|10=062|
8=FIX.4.4|9=108|35=UAA|34=6|49=TRD82841|52=20241212-23:53:46.409|56=QFXTRADES|1=82841|3336=account_info_req_id1734047626409|10=073|
8=FIX.4.4|9=108|35=UAA|34=7|49=TRD82841|52=20241212-23:53:46.410|56=QFXTRADES|1=82841|3336=account_info_req_id1734047626409|10=066|
8=FIX.4.4|9=496|35=UAB|34=4|49=QFXTRADES|52=20241212-23:53:46.496|56=TRD82841|1=82841|15=USD|898=179769313486231570000000000000000000000000000000000000000000000000000000000000000000000000000000000000000000000000000000000000000000000000000000000000000000000000000000000000000000000000000000000000000000000000000000000000000000000000000000000000000000000000000000000000000000000000000000000000000000000000000|3330=2391.06|3331=2391.06|3332=0|3333=0|3334=2391.06|3335=0|3336=account_info_req_id1734047626409|3337=0|10=065|
8=FIX.4.4|9=146|35=3|34=8|49=TRD82841|52=20241212-23:53:46.645|56=QFXTRADES|45=4|58=Value is incorrect (out of range) for this tag, field=35|371=35|372=UAB|373=5|10=158|
8=FIX.4.4|9=496|35=UAB|34=5|49=QFXTRADES|52=20241212-23:53:46.513|56=TRD82841|1=82841|15=USD|898=179769313486231570000000000000000000000000000000000000000000000000000000000000000000000000000000000000000000000000000000000000000000000000000000000000000000000000000000000000000000000000000000000000000000000000000000000000000000000000000000000000000000000000000000000000000000000000000000000000000000000000000|3330=2391.06|3331=2391.06|3332=0|3333=0|3334=2391.06|3335=0|3336=account_info_req_id1734047626409|3337=0|10=056|
8=FIX.4.4|9=146|35=3|34=9|49=TRD82841|52=20241212-23:53:46.806|56=QFXTRADES|45=5|58=Value is incorrect (out of range) for this tag, field=35|371=35|372=UAB|373=5|10=159|
8=FIX.4.4|9=61|35=0|34=10|49=TRD82841|52=20241212-23:54:17.280|56=QFXTRADES|10=164|
8=FIX.4.4|9=60|35=0|34=6|49=QFXTRADES|52=20241212-23:54:17.245|56=TRD82841|10=121|
8=FIX.4.4|9=61|35=0|34=11|49=TRD82841|52=20241212-23:54:47.273|56=QFXTRADES|10=170|
8=FIX.4.4|9=60|35=0|34=7|49=QFXTRADES|52=20241212-23:54:47.245|56=TRD82841|10=125|
8=FIX.4.4|9=109|35=A|34=1|49=TRD82841|52=20241214-00:13:30.546|56=QFXTRADES|98=0|108=30|141=Y|553=real82841|554=9hucfe4riucr|10=245|
8=FIX.4.4|9=78|35=A|34=1|49=QFXTRADES|52=20241214-00:13:29.910|56=TRD82841|98=0|108=30|141=Y|10=206|
8=FIX.4.4|9=107|35=AF|34=2|49=TRD82841|52=20241214-00:13:35.411|56=QFXTRADES|1=82841|584=active-orders-1734135215410|585=6|10=086|
8=FIX.4.4|9=107|35=AF|34=3|49=TRD82841|52=20241214-00:13:35.412|56=QFXTRADES|1=82841|584=active-orders-1734135215410|585=6|10=088|
8=FIX.4.4|9=163|35=8|34=2|49=QFXTRADES|52=20241214-00:13:34.682|56=TRD82841|1=82841|6=0|11= |14=0|17= |37= |39=0|54=1|55= |150=I|151=0|584=active-orders-1734135215410|911=0|912=Y|10=153|
8=FIX.4.4|9=127|35=j|34=4|49=TRD82841|52=20241214-00:13:37.264|56=QFXTRADES|45=2|58=Conditionally Required Field Missing, field=73|372=8|380=5|10=051|
8=FIX.4.4|9=163|35=8|34=3|49=QFXTRADES|52=20241214-00:13:34.710|56=TRD82841|1=82841|6=0|11= |14=0|17= |37= |39=0|54=1|55= |150=I|151=0|584=active-orders-1734135215410|911=0|912=Y|10=146|
8=FIX.4.4|9=127|35=j|34=5|49=TRD82841|52=20241214-00:13:40.330|56=QFXTRADES|45=3|58=Conditionally Required Field Missing, field=73|372=8|380=5|10=041|
8=FIX.4.4|9=108|35=UAA|34=6|49=TRD82841|52=20241214-00:13:50.900|56=QFXTRADES|1=82841|3336=account_info_req_id1734135230900|10=042|
8=FIX.4.4|9=108|35=UAA|34=7|49=TRD82841|52=20241214-00:13:50.901|56=QFXTRADES|1=82841|3336=account_info_req_id1734135230900|10=044|
8=FIX.4.4|9=496|35=UAB|34=4|49=QFXTRADES|52=20241214-00:13:50.188|56=TRD82841|1=82841|15=USD|898=179769313486231570000000000000000000000000000000000000000000000000000000000000000000000000000000000000000000000000000000000000000000000000000000000000000000000000000000000000000000000000000000000000000000000000000000000000000000000000000000000000000000000000000000000000000000000000000000000000000000000000000|3330=2391.06|3331=2391.06|3332=0|3333=0|3334=2391.06|3335=0|3336=account_info_req_id1734135230900|3337=0|10=036|
8=FIX.4.4|9=146|35=3|34=8|49=TRD82841|52=20241214-00:13:52.219|56=QFXTRADES|45=4|58=Value is incorrect (out of range) for this tag, field=35|371=35|372=UAB|373=5|10=145|
8=FIX.4.4|9=496|35=UAB|34=5|49=QFXTRADES|52=20241214-00:13:50.204|56=TRD82841|1=82841|15=USD|898=179769313486231570000000000000000000000000000000000000000000000000000000000000000000000000000000000000000000000000000000000000000000000000000000000000000000000000000000000000000000000000000000000000000000000000000000000000000000000000000000000000000000000000000000000000000000000000000000000000000000000000000|3330=2391.06|3331=2391.06|3332=0|3333=0|3334=2391.06|3335=0|3336=account_info_req_id1734135230900|3337=0|10=026|
8=FIX.4.4|9=146|35=3|34=9|49=TRD82841|52=20241214-00:13:52.400|56=QFXTRADES|45=5|58=Value is incorrect (out of range) for this tag, field=35|371=35|372=UAB|373=5|10=139|
8=FIX.4.4|9=60|35=0|34=6|49=QFXTRADES|52=20241214-00:14:20.245|56=TRD82841|10=108|
8=FIX.4.4|9=61|35=0|34=10|49=TRD82841|52=20241214-00:14:22.493|56=QFXTRADES|10=159|
8=FIX.4.4|9=60|35=0|34=7|49=QFXTRADES|52=20241214-00:14:50.245|56=TRD82841|10=112|
8=FIX.4.4|9=61|35=0|34=11|49=TRD82841|52=20241214-00:14:52.485|56=QFXTRADES|10=164|
8=FIX.4.4|9=60|35=0|34=8|49=QFXTRADES|52=20241214-00:15:20.245|56=TRD82841|10=111|
8=FIX.4.4|9=61|35=0|34=12|49=TRD82841|52=20241214-00:15:22.486|56=QFXTRADES|10=164|
8=FIX.4.4|9=109|35=A|34=1|49=TRD82841|52=20241214-00:15:48.958|56=QFXTRADES|98=0|108=30|141=Y|553=real82841|554=9hucfe4riucr|10=007|
8=FIX.4.4|9=78|35=A|34=1|49=QFXTRADES|52=20241214-00:15:48.316|56=TRD82841|98=0|108=30|141=Y|10=209|
8=FIX.4.4|9=107|35=AF|34=2|49=TRD82841|52=20241214-00:15:52.345|56=QFXTRADES|1=82841|584=active-orders-1734135352344|585=6|10=101|
8=FIX.4.4|9=107|35=AF|34=3|49=TRD82841|52=20241214-00:15:52.347|56=QFXTRADES|1=82841|584=active-orders-1734135352344|585=6|10=104|
8=FIX.4.4|9=163|35=8|34=2|49=QFXTRADES|52=20241214-00:15:51.678|56=TRD82841|1=82841|6=0|11= |14=0|17= |37= |39=0|54=1|55= |150=I|151=0|584=active-orders-1734135352344|911=0|912=Y|10=167|
8=FIX.4.4|9=127|35=j|34=4|49=TRD82841|52=20241214-00:15:52.835|56=QFXTRADES|45=2|58=Conditionally Required Field Missing, field=73|372=8|380=5|10=054|
8=FIX.4.4|9=163|35=8|34=3|49=QFXTRADES|52=20241214-00:15:51.695|56=TRD82841|1=82841|6=0|11= |14=0|17= |37= |39=0|54=1|55= |150=I|151=0|584=active-orders-1734135352344|911=0|912=Y|10=167|
8=FIX.4.4|9=127|35=j|34=5|49=TRD82841|52=20241214-00:15:53.200|56=QFXTRADES|45=3|58=Conditionally Required Field Missing, field=73|372=8|380=5|10=043|
8=FIX.4.4|9=108|35=UAA|34=6|49=TRD82841|52=20241214-00:16:04.492|56=QFXTRADES|1=82841|3336=account_info_req_id1734135364491|10=063|
8=FIX.4.4|9=108|35=UAA|34=7|49=TRD82841|52=20241214-00:16:04.493|56=QFXTRADES|1=82841|3336=account_info_req_id1734135364491|10=065|
8=FIX.4.4|9=496|35=UAB|34=4|49=QFXTRADES|52=20241214-00:16:03.793|56=TRD82841|1=82841|15=USD|898=179769313486231570000000000000000000000000000000000000000000000000000000000000000000000000000000000000000000000000000000000000000000000000000000000000000000000000000000000000000000000000000000000000000000000000000000000000000000000000000000000000000000000000000000000000000000000000000000000000000000000000000|3330=2391.06|3331=2391.06|3332=0|3333=0|3334=2391.06|3335=0|3336=account_info_req_id1734135364491|3337=0|10=052|
8=FIX.4.4|9=146|35=3|34=8|49=TRD82841|52=20241214-00:16:04.891|56=QFXTRADES|45=4|58=Value is incorrect (out of range) for this tag, field=35|371=35|372=UAB|373=5|10=151|
8=FIX.4.4|9=496|35=UAB|34=5|49=QFXTRADES|52=20241214-00:16:03.810|56=TRD82841|1=82841|15=USD|898=179769313486231570000000000000000000000000000000000000000000000000000000000000000000000000000000000000000000000000000000000000000000000000000000000000000000000000000000000000000000000000000000000000000000000000000000000000000000000000000000000000000000000000000000000000000000000000000000000000000000000000000|3330=2391.06|3331=2391.06|3332=0|3333=0|3334=2391.06|3335=0|3336=account_info_req_id1734135364491|3337=0|10=043|
8=FIX.4.4|9=146|35=3|34=9|49=TRD82841|52=20241214-00:16:05.579|56=QFXTRADES|45=5|58=Value is incorrect (out of range) for this tag, field=35|371=35|372=UAB|373=5|10=157|
8=FIX.4.4|9=109|35=A|34=1|49=TRD82841|52=20241214-00:34:37.487|56=QFXTRADES|98=0|108=30|141=Y|553=real82841|554=9hucfe4riucr|10=003|
8=FIX.4.4|9=78|35=A|34=1|49=QFXTRADES|52=20241214-00:34:36.766|56=TRD82841|98=0|108=30|141=Y|10=216|
8=FIX.4.4|9=107|35=AF|34=2|49=TRD82841|52=20241214-00:34:46.467|56=QFXTRADES|1=82841|584=active-orders-1734136486466|585=6|10=124|
8=FIX.4.4|9=107|35=AF|34=3|49=TRD82841|52=20241214-00:34:46.468|56=QFXTRADES|1=82841|584=active-orders-1734136486466|585=6|10=126|
8=FIX.4.4|9=163|35=8|34=2|49=QFXTRADES|52=20241214-00:34:45.748|56=TRD82841|1=82841|6=0|11= |14=0|17= |37= |39=0|54=1|55= |150=I|151=0|584=active-orders-1734136486466|911=0|912=Y|10=183|
8=FIX.4.4|9=127|35=j|34=4|49=TRD82841|52=20241214-00:34:50.610|56=QFXTRADES|45=2|58=Conditionally Required Field Missing, field=73|372=8|380=5|10=044|
8=FIX.4.4|9=163|35=8|34=3|49=QFXTRADES|52=20241214-00:34:45.765|56=TRD82841|1=82841|6=0|11= |14=0|17= |37= |39=0|54=1|55= |150=I|151=0|584=active-orders-1734136486466|911=0|912=Y|10=183|
8=FIX.4.4|9=127|35=j|34=5|49=TRD82841|52=20241214-00:34:55.446|56=QFXTRADES|45=3|58=Conditionally Required Field Missing, field=73|372=8|380=5|10=058|
8=FIX.4.4|9=108|35=UAA|34=6|49=TRD82841|52=20241214-00:34:58.510|56=QFXTRADES|1=82841|3336=account_info_req_id1734136498509|10=072|
8=FIX.4.4|9=108|35=UAA|34=7|49=TRD82841|52=20241214-00:34:58.511|56=QFXTRADES|1=82841|3336=account_info_req_id1734136498509|10=074|
8=FIX.4.4|9=496|35=UAB|34=4|49=QFXTRADES|52=20241214-00:34:57.787|56=TRD82841|1=82841|15=USD|898=179769313486231570000000000000000000000000000000000000000000000000000000000000000000000000000000000000000000000000000000000000000000000000000000000000000000000000000000000000000000000000000000000000000000000000000000000000000000000000000000000000000000000000000000000000000000000000000000000000000000000000000|3330=2391.06|3331=2391.06|3332=0|3333=0|3334=2391.06|3335=0|3336=account_info_req_id1734136498509|3337=0|10=073|
8=FIX.4.4|9=496|35=UAB|34=5|49=QFXTRADES|52=20241214-00:34:57.804|56=TRD82841|1=82841|15=USD|898=179769313486231570000000000000000000000000000000000000000000000000000000000000000000000000000000000000000000000000000000000000000000000000000000000000000000000000000000000000000000000000000000000000000000000000000000000000000000000000000000000000000000000000000000000000000000000000000000000000000000000000000|3330=2391.06|3331=2391.06|3332=0|3333=0|3334=2391.06|3335=0|3336=account_info_req_id1734136498509|3337=0|10=064|
8=FIX.4.4|9=144|35=AN|34=8|49=TRD82841|52=20241214-00:35:08.518|56=QFXTRADES|1=82841|60=20241214-00:35:08.518|581=1|710=open-positions-1734136508517|715=|724=0|10=179|
8=FIX.4.4|9=119|35=3|34=6|49=QFXTRADES|52=20241214-00:35:07.847|56=TRD82841|45=8|58=Tag specified without a value|371=715|372=AN|373=4|10=006|
8=FIX.4.4|9=60|35=0|34=9|49=TRD82841|52=20241214-00:35:39.478|56=QFXTRADES|10=132|
8=FIX.4.4|9=60|35=0|34=7|49=QFXTRADES|52=20241214-00:35:38.245|56=TRD82841|10=121|
8=FIX.4.4|9=109|35=A|34=1|49=TRD82841|52=20241214-00:42:26.848|56=QFXTRADES|98=0|108=30|141=Y|553=real82841|554=9hucfe4riucr|10=001|
8=FIX.4.4|9=78|35=A|34=1|49=QFXTRADES|52=20241214-00:42:26.123|56=TRD82841|98=0|108=30|141=Y|10=201|
8=FIX.4.4|9=107|35=AF|34=2|49=TRD82841|52=20241214-00:42:34.221|56=QFXTRADES|1=82841|584=active-orders-1734136954220|585=6|10=096|
8=FIX.4.4|9=107|35=AF|34=3|49=TRD82841|52=20241214-00:42:34.222|56=QFXTRADES|1=82841|584=active-orders-1734136954220|585=6|10=098|
8=FIX.4.4|9=163|35=8|34=2|49=QFXTRADES|52=20241214-00:42:33.495|56=TRD82841|1=82841|6=0|11= |14=0|17= |37= |39=0|54=1|55= |150=I|151=0|584=active-orders-1734136954220|911=0|912=Y|10=166|
8=FIX.4.4|9=127|35=j|34=4|49=TRD82841|52=20241214-00:42:38.017|56=QFXTRADES|45=2|58=Conditionally Required Field Missing, field=73|372=8|380=5|10=050|
8=FIX.4.4|9=163|35=8|34=3|49=QFXTRADES|52=20241214-00:42:33.512|56=TRD82841|1=82841|6=0|11= |14=0|17= |37= |39=0|54=1|55= |150=I|151=0|584=active-orders-1734136954220|911=0|912=Y|10=157|
8=FIX.4.4|9=127|35=j|34=5|49=TRD82841|52=20241214-00:42:41.175|56=QFXTRADES|45=3|58=Conditionally Required Field Missing, field=73|372=8|380=5|10=051|
8=FIX.4.4|9=108|35=UAA|34=6|49=TRD82841|52=20241214-00:42:46.045|56=QFXTRADES|1=82841|3336=account_info_req_id1734136966045|10=066|
8=FIX.4.4|9=108|35=UAA|34=7|49=TRD82841|52=20241214-00:42:46.047|56=QFXTRADES|1=82841|3336=account_info_req_id1734136966045|10=069|
8=FIX.4.4|9=496|35=UAB|34=4|49=QFXTRADES|52=20241214-00:42:45.355|56=TRD82841|1=82841|15=USD|898=179769313486231570000000000000000000000000000000000000000000000000000000000000000000000000000000000000000000000000000000000000000000000000000000000000000000000000000000000000000000000000000000000000000000000000000000000000000000000000000000000000000000000000000000000000000000000000000000000000000000000000000|3330=2391.06|3331=2391.06|3332=0|3333=0|3334=2391.06|3335=0|3336=account_info_req_id1734136966045|3337=0|10=055|
8=FIX.4.4|9=496|35=UAB|34=5|49=QFXTRADES|52=20241214-00:42:45.372|56=TRD82841|1=82841|15=USD|898=179769313486231570000000000000000000000000000000000000000000000000000000000000000000000000000000000000000000000000000000000000000000000000000000000000000000000000000000000000000000000000000000000000000000000000000000000000000000000000000000000000000000000000000000000000000000000000000000000000000000000000000|3330=2391.06|3331=2391.06|3332=0|3333=0|3334=2391.06|3335=0|3336=account_info_req_id1734136966045|3337=0|10=055|
8=FIX.4.4|9=144|35=AN|34=8|49=TRD82841|52=20241214-00:42:57.260|56=QFXTRADES|1=82841|60=20241214-00:42:57.260|581=1|710=open-positions-1734136977259|715=|724=0|10=184|
8=FIX.4.4|9=119|35=3|34=6|49=QFXTRADES|52=20241214-00:42:56.556|56=TRD82841|45=8|58=Tag specified without a value|371=715|372=AN|373=4|10=005|
8=FIX.4.4|9=60|35=0|34=9|49=TRD82841|52=20241214-00:43:28.158|56=QFXTRADES|10=124|
8=FIX.4.4|9=60|35=0|34=7|49=QFXTRADES|52=20241214-00:43:27.245|56=TRD82841|10=118|
8=FIX.4.4|9=109|35=A|34=1|49=TRD82841|52=20241214-00:47:02.363|56=QFXTRADES|98=0|108=30|141=Y|553=real82841|554=9hucfe4riucr|10=248|
8=FIX.4.4|9=78|35=A|34=1|49=QFXTRADES|52=20241214-00:47:01.685|56=TRD82841|98=0|108=30|141=Y|10=212|
8=FIX.4.4|9=107|35=AF|34=2|49=TRD82841|52=20241214-00:47:06.298|56=QFXTRADES|1=82841|584=active-orders-1734137226297|585=6|10=121|
8=FIX.4.4|9=107|35=AF|34=3|49=TRD82841|52=20241214-00:47:06.300|56=QFXTRADES|1=82841|584=active-orders-1734137226297|585=6|10=106|
8=FIX.4.4|9=163|35=8|34=2|49=QFXTRADES|52=20241214-00:47:05.566|56=TRD82841|1=82841|6=0|11= |14=0|17= |37= |39=0|54=1|55= |150=I|151=0|584=active-orders-1734137226297|911=0|912=Y|10=176|
8=FIX.4.4|9=163|35=8|34=3|49=QFXTRADES|52=20241214-00:47:05.583|56=TRD82841|1=82841|6=0|11= |14=0|17= |37= |39=0|54=1|55= |150=I|151=0|584=active-orders-1734137226297|911=0|912=Y|10=176|
8=FIX.4.4|9=127|35=j|34=4|49=TRD82841|52=20241214-00:47:13.476|56=QFXTRADES|45=2|58=Conditionally Required Field Missing, field=73|372=8|380=5|10=057|
8=FIX.4.4|9=127|35=j|34=5|49=TRD82841|52=20241214-00:47:13.477|56=QFXTRADES|45=3|58=Conditionally Required Field Missing, field=73|372=8|380=5|10=060|
8=FIX.4.4|9=108|35=UAA|34=6|49=TRD82841|52=20241214-00:47:22.989|56=QFXTRADES|1=82841|3336=account_info_req_id1734137242988|10=086|
8=FIX.4.4|9=108|35=UAA|34=7|49=TRD82841|52=20241214-00:47:22.990|56=QFXTRADES|1=82841|3336=account_info_req_id1734137242988|10=079|
8=FIX.4.4|9=496|35=UAB|34=4|49=QFXTRADES|52=20241214-00:47:22.314|56=TRD82841|1=82841|15=USD|898=179769313486231570000000000000000000000000000000000000000000000000000000000000000000000000000000000000000000000000000000000000000000000000000000000000000000000000000000000000000000000000000000000000000000000000000000000000000000000000000000000000000000000000000000000000000000000000000000000000000000000000000|3330=2391.06|3331=2391.06|3332=0|3333=0|3334=2391.06|3335=0|3336=account_info_req_id1734137242988|3337=0|10=054|
8=FIX.4.4|9=496|35=UAB|34=5|49=QFXTRADES|52=20241214-00:47:22.331|56=TRD82841|1=82841|15=USD|898=179769313486231570000000000000000000000000000000000000000000000000000000000000000000000000000000000000000000000000000000000000000000000000000000000000000000000000000000000000000000000000000000000000000000000000000000000000000000000000000000000000000000000000000000000000000000000000000000000000000000000000000|3330=2391.06|3331=2391.06|3332=0|3333=0|3334=2391.06|3335=0|3336=account_info_req_id1734137242988|3337=0|10=054|
8=FIX.4.4|9=151|35=AN|34=8|49=TRD82841|52=20241214-00:47:38.263|56=QFXTRADES|1=82841|60=20241214-00:47:38.262|581=1|710=open-positions-1734137258262|715=CURRENT|724=0|10=217|
8=FIX.4.4|9=162|35=AO|34=6|49=QFXTRADES|52=20241214-00:47:37.981|56=TRD82841|1=82841|581=1|710=open-positions-1734137258262|721=ACKopen-positions-1734137258262|727=0|728=0|729=0|10=111|
8=FIX.4.4|9=106|35=j|34=9|49=TRD82841|52=20241214-00:47:38.941|56=QFXTRADES|45=6|58=Unsupported Message Type|372=AO|380=3|10=058|
8=FIX.4.4|9=61|35=0|34=10|49=TRD82841|52=20241214-00:48:08.980|56=QFXTRADES|10=171|
8=FIX.4.4|9=60|35=0|34=7|49=QFXTRADES|52=20241214-00:48:08.236|56=TRD82841|10=122|
8=FIX.4.4|9=61|35=0|34=11|49=TRD82841|52=20241214-00:48:38.974|56=QFXTRADES|10=178|
8=FIX.4.4|9=60|35=0|34=8|49=QFXTRADES|52=20241214-00:48:38.244|56=TRD82841|10=125|
8=FIX.4.4|9=109|35=A|34=1|49=TRD82841|52=20241214-21:30:00.127|56=QFXTRADES|98=0|108=30|141=Y|553=real82841|554=9hucfe4riucr|10=239|
8=FIX.4.4|9=78|35=A|34=1|49=QFXTRADES|52=20241214-21:29:59.844|56=TRD82841|98=0|108=30|141=Y|10=225|
8=FIX.4.4|9=107|35=AF|34=2|49=TRD82841|52=20241214-21:30:03.572|56=QFXTRADES|1=82841|584=active-orders-1734211803572|585=6|10=098|
8=FIX.4.4|9=107|35=AF|34=3|49=TRD82841|52=20241214-21:30:03.575|56=QFXTRADES|1=82841|584=active-orders-1734211803572|585=6|10=102|
8=FIX.4.4|9=163|35=8|34=2|49=QFXTRADES|52=20241214-21:30:03.284|56=TRD82841|1=82841|6=0|11= |14=0|17= |37= |39=0|54=1|55= |150=I|151=0|584=active-orders-1734211803572|911=0|912=Y|10=156|
8=FIX.4.4|9=127|35=j|34=4|49=TRD82841|52=20241214-21:30:03.907|56=QFXTRADES|45=2|58=Conditionally Required Field Missing, field=73|372=8|380=5|10=050|
8=FIX.4.4|9=163|35=8|34=3|49=QFXTRADES|52=20241214-21:30:03.285|56=TRD82841|1=82841|6=0|11= |14=0|17= |37= |39=0|54=1|55= |150=I|151=0|584=active-orders-1734211803572|911=0|912=Y|10=158|
8=FIX.4.4|9=127|35=j|34=5|49=TRD82841|52=20241214-21:30:04.126|56=QFXTRADES|45=3|58=Conditionally Required Field Missing, field=73|372=8|380=5|10=046|
8=FIX.4.4|9=108|35=UAA|34=6|49=TRD82841|52=20241214-21:30:17.162|56=QFXTRADES|1=82841|3336=account_info_req_id1734211817162|10=053|
8=FIX.4.4|9=108|35=UAA|34=7|49=TRD82841|52=20241214-21:30:17.164|56=QFXTRADES|1=82841|3336=account_info_req_id1734211817162|10=056|
8=FIX.4.4|9=496|35=UAB|34=4|49=QFXTRADES|52=20241214-21:30:16.877|56=TRD82841|1=82841|15=USD|898=179769313486231570000000000000000000000000000000000000000000000000000000000000000000000000000000000000000000000000000000000000000000000000000000000000000000000000000000000000000000000000000000000000000000000000000000000000000000000000000000000000000000000000000000000000000000000000000000000000000000000000000|3330=2391.06|3331=2391.06|3332=0|3333=0|3334=2391.06|3335=0|3336=account_info_req_id1734211817162|3337=0|10=051|
8=FIX.4.4|9=496|35=UAB|34=5|49=QFXTRADES|52=20241214-21:30:16.887|56=TRD82841|1=82841|15=USD|898=179769313486231570000000000000000000000000000000000000000000000000000000000000000000000000000000000000000000000000000000000000000000000000000000000000000000000000000000000000000000000000000000000000000000000000000000000000000000000000000000000000000000000000000000000000000000000000000000000000000000000000000|3330=2391.06|3331=2391.06|3332=0|3333=0|3334=2391.06|3335=0|3336=account_info_req_id1734211817162|3337=0|10=053|
8=FIX.4.4|9=151|35=AN|34=8|49=TRD82841|52=20241214-21:30:30.633|56=QFXTRADES|1=82841|60=20241214-21:30:30.633|581=1|710=open-positions-1734211830632|715=CURRENT|724=0|10=184|
8=FIX.4.4|9=162|35=AO|34=6|49=QFXTRADES|52=20241214-21:30:30.390|56=TRD82841|1=82841|581=1|710=open-positions-1734211830632|721=ACKopen-positions-1734211830632|727=0|728=0|729=0|10=073|
8=FIX.4.4|9=128|35=j|34=9|49=TRD82841|52=20241214-21:30:30.902|56=QFXTRADES|45=6|58=Conditionally Required Field Missing, field=58|372=AO|380=5|10=146|
8=FIX.4.4|9=109|35=A|34=1|49=TRD82841|52=20241214-21:31:25.481|56=QFXTRADES|98=0|108=30|141=Y|553=real82841|554=9hucfe4riucr|10=250|
8=FIX.4.4|9=78|35=A|34=1|49=QFXTRADES|52=20241214-21:31:25.351|56=TRD82841|98=0|108=30|141=Y|10=204|
8=FIX.4.4|9=60|35=0|34=2|49=TRD82841|52=20241214-21:31:55.804|56=QFXTRADES|10=115|
8=FIX.4.4|9=60|35=0|34=2|49=QFXTRADES|52=20241214-21:31:55.351|56=TRD82841|10=112|
8=FIX.4.4|9=60|35=0|34=3|49=TRD82841|52=20241214-21:32:25.798|56=QFXTRADES|10=126|
8=FIX.4.4|9=60|35=0|34=3|49=QFXTRADES|52=20241214-21:32:25.351|56=TRD82841|10=111|
8=FIX.4.4|9=107|35=AF|34=4|49=TRD82841|52=20241214-21:32:39.202|56=QFXTRADES|1=82841|584=active-orders-1734211959201|585=6|10=102|
8=FIX.4.4|9=107|35=AF|34=5|49=TRD82841|52=20241214-21:32:39.203|56=QFXTRADES|1=82841|584=active-orders-1734211959201|585=6|10=104|
8=FIX.4.4|9=163|35=8|34=4|49=QFXTRADES|52=20241214-21:32:38.908|56=TRD82841|1=82841|6=0|11= |14=0|17= |37= |39=0|54=1|55= |150=I|151=0|584=active-orders-1734211959201|911=0|912=Y|10=172|
8=FIX.4.4|9=127|35=j|34=6|49=TRD82841|52=20241214-21:32:39.422|56=QFXTRADES|45=4|58=Conditionally Required Field Missing, field=73|372=8|380=5|10=057|
8=FIX.4.4|9=163|35=8|34=5|49=QFXTRADES|52=20241214-21:32:38.926|56=TRD82841|1=82841|6=0|11= |14=0|17= |37= |39=0|54=1|55= |150=I|151=0|584=active-orders-1734211959201|911=0|912=Y|10=173|
8=FIX.4.4|9=127|35=j|34=7|49=TRD82841|52=20241214-21:32:39.580|56=QFXTRADES|45=5|58=Conditionally Required Field Missing, field=73|372=8|380=5|10=064|
8=FIX.4.4|9=108|35=UAA|34=8|49=TRD82841|52=20241214-21:32:50.965|56=QFXTRADES|1=82841|3336=account_info_req_id1734211970964|10=075|
8=FIX.4.4|9=108|35=UAA|34=9|49=TRD82841|52=20241214-21:32:50.966|56=QFXTRADES|1=82841|3336=account_info_req_id1734211970964|10=077|
8=FIX.4.4|9=496|35=UAB|34=6|49=QFXTRADES|52=20241214-21:32:50.700|56=TRD82841|1=82841|15=USD|898=179769313486231570000000000000000000000000000000000000000000000000000000000000000000000000000000000000000000000000000000000000000000000000000000000000000000000000000000000000000000000000000000000000000000000000000000000000000000000000000000000000000000000000000000000000000000000000000000000000000000000000000|3330=2391.06|3331=2391.06|3332=0|3333=0|3334=2391.06|3335=0|3336=account_info_req_id1734211970964|3337=0|10=048|
8=FIX.4.4|9=496|35=UAB|34=7|49=QFXTRADES|52=20241214-21:32:50.717|56=TRD82841|1=82841|15=USD|898=179769313486231570000000000000000000000000000000000000000000000000000000000000000000000000000000000000000000000000000000000000000000000000000000000000000000000000000000000000000000000000000000000000000000000000000000000000000000000000000000000000000000000000000000000000000000000000000000000000000000000000000|3330=2391.06|3331=2391.06|3332=0|3333=0|3334=2391.06|3335=0|3336=account_info_req_id1734211970964|3337=0|10=057|
8=FIX.4.4|9=152|35=AN|34=10|49=TRD82841|52=20241214-21:32:55.736|56=QFXTRADES|1=82841|60=20241214-21:32:55.736|581=1|710=open-positions-1734211975735|715=CURRENT|724=0|10=010|
8=FIX.4.4|9=162|35=AO|34=8|49=QFXTRADES|52=20241214-21:32:55.447|56=TRD82841|1=82841|581=1|710=open-positions-1734211975735|721=ACKopen-positions-1734211975735|727=0|728=0|729=0|10=115|
8=FIX.4.4|9=129|35=j|34=11|49=TRD82841|52=20241214-21:32:57.107|56=QFXTRADES|45=8|58=Conditionally Required Field Missing, field=58|372=AO|380=5|10=198|
8=FIX.4.4|9=60|35=0|34=9|49=QFXTRADES|52=20241214-21:33:26.351|56=TRD82841|10=119|
8=FIX.4.4|9=61|35=0|34=12|49=TRD82841|52=20241214-21:33:27.193|56=QFXTRADES|10=167|
8=FIX.4.4|9=61|35=0|34=10|49=QFXTRADES|52=20241214-21:33:56.351|56=TRD82841|10=163|
8=FIX.4.4|9=61|35=0|34=13|49=TRD82841|52=20241214-21:33:57.801|56=QFXTRADES|10=167|
8=FIX.4.4|9=61|35=0|34=11|49=QFXTRADES|52=20241214-21:34:26.351|56=TRD82841|10=162|
8=FIX.4.4|9=61|35=0|34=14|49=TRD82841|52=20241214-21:34:27.797|56=QFXTRADES|10=180|
8=FIX.4.4|9=61|35=0|34=12|49=QFXTRADES|52=20241214-21:34:56.351|56=TRD82841|10=166|
8=FIX.4.4|9=61|35=0|34=15|49=TRD82841|52=20241214-21:34:57.799|56=QFXTRADES|10=186|
8=FIX.4.4|9=109|35=A|34=1|49=TRD82841|52=20241214-21:41:31.463|56=QFXTRADES|98=0|108=30|141=Y|553=real82841|554=9hucfe4riucr|10=248|
8=FIX.4.4|9=78|35=A|34=1|49=QFXTRADES|52=20241214-21:41:31.529|56=TRD82841|98=0|108=30|141=Y|10=209|
8=FIX.4.4|9=107|35=AF|34=2|49=TRD82841|52=20241214-21:41:38.921|56=QFXTRADES|1=82841|584=active-orders-1734212498920|585=6|10=114|
8=FIX.4.4|9=107|35=AF|34=3|49=TRD82841|52=20241214-21:41:38.922|56=QFXTRADES|1=82841|584=active-orders-1734212498920|585=6|10=116|
8=FIX.4.4|9=163|35=8|34=2|49=QFXTRADES|52=20241214-21:41:38.635|56=TRD82841|1=82841|6=0|11= |14=0|17= |37= |39=0|54=1|55= |150=I|151=0|584=active-orders-1734212498920|911=0|912=Y|10=174|
8=FIX.4.4|9=127|35=j|34=4|49=TRD82841|52=20241214-21:41:39.194|56=QFXTRADES|45=2|58=Conditionally Required Field Missing, field=73|372=8|380=5|10=059|
8=FIX.4.4|9=163|35=8|34=3|49=QFXTRADES|52=20241214-21:41:38.653|56=TRD82841|1=82841|6=0|11= |14=0|17= |37= |39=0|54=1|55= |150=I|151=0|584=active-orders-1734212498920|911=0|912=Y|10=175|
8=FIX.4.4|9=127|35=j|34=5|49=TRD82841|52=20241214-21:41:39.398|56=QFXTRADES|45=3|58=Conditionally Required Field Missing, field=73|372=8|380=5|10=067|
8=FIX.4.4|9=108|35=UAA|34=6|49=TRD82841|52=20241214-21:41:50.562|56=QFXTRADES|1=82841|3336=account_info_req_id1734212510561|10=050|
8=FIX.4.4|9=108|35=UAA|34=7|49=TRD82841|52=20241214-21:41:50.565|56=QFXTRADES|1=82841|3336=account_info_req_id1734212510561|10=054|
8=FIX.4.4|9=496|35=UAB|34=4|49=QFXTRADES|52=20241214-21:41:50.260|56=TRD82841|1=82841|15=USD|898=179769313486231570000000000000000000000000000000000000000000000000000000000000000000000000000000000000000000000000000000000000000000000000000000000000000000000000000000000000000000000000000000000000000000000000000000000000000000000000000000000000000000000000000000000000000000000000000000000000000000000000000|3330=2391.06|3331=2391.06|3332=0|3333=0|3334=2391.06|3335=0|3336=account_info_req_id1734212510561|3337=0|10=031|
8=FIX.4.4|9=496|35=UAB|34=5|49=QFXTRADES|52=20241214-21:41:50.277|56=TRD82841|1=82841|15=USD|898=179769313486231570000000000000000000000000000000000000000000000000000000000000000000000000000000000000000000000000000000000000000000000000000000000000000000000000000000000000000000000000000000000000000000000000000000000000000000000000000000000000000000000000000000000000000000000000000000000000000000000000000|3330=2391.06|3331=2391.06|3332=0|3333=0|3334=2391.06|3335=0|3336=account_info_req_id1734212510561|3337=0|10=040|
8=FIX.4.4|9=151|35=AN|34=8|49=TRD82841|52=20241214-21:41:57.172|56=QFXTRADES|1=82841|60=20241214-21:41:57.172|581=1|710=open-positions-1734212517171|715=CURRENT|724=0|10=203|
8=FIX.4.4|9=162|35=AO|34=6|49=QFXTRADES|52=20241214-21:41:56.887|56=TRD82841|1=82841|581=1|710=open-positions-1734212517171|721=ACKopen-positions-1734212517171|727=0|728=0|729=0|10=096|
8=FIX.4.4|9=128|35=j|34=9|49=TRD82841|52=20241214-21:41:58.225|56=QFXTRADES|45=6|58=Conditionally Required Field Missing, field=58|372=AO|380=5|10=156|
8=FIX.4.4|9=60|35=0|34=7|49=QFXTRADES|52=20241214-21:42:27.351|56=TRD82841|10=118|
8=FIX.4.4|9=61|35=0|34=10|49=TRD82841|52=20241214-21:42:28.952|56=QFXTRADES|10=169|
8=FIX.4.4|9=109|35=A|34=1|49=TRD82841|52=20241214-21:51:58.003|56=QFXTRADES|98=0|108=30|141=Y|553=real82841|554=9hucfe4riucr|10=248|
8=FIX.4.4|9=78|35=A|34=1|49=QFXTRADES|52=20241214-21:51:57.995|56=TRD82841|98=0|108=30|141=Y|10=225|
8=FIX.4.4|9=107|35=AF|34=2|49=TRD82841|52=20241214-21:52:01.368|56=QFXTRADES|1=82841|584=active-orders-1734213121368|585=6|10=101|
8=FIX.4.4|9=107|35=AF|34=3|49=TRD82841|52=20241214-21:52:01.369|56=QFXTRADES|1=82841|584=active-orders-1734213121368|585=6|10=103|
8=FIX.4.4|9=163|35=8|34=2|49=QFXTRADES|52=20241214-21:52:01.112|56=TRD82841|1=82841|6=0|11= |14=0|17= |37= |39=0|54=1|55= |150=I|151=0|584=active-orders-1734213121368|911=0|912=Y|10=146|
8=FIX.4.4|9=163|35=8|34=3|49=QFXTRADES|52=20241214-21:52:01.128|56=TRD82841|1=82841|6=0|11= |14=0|17= |37= |39=0|54=1|55= |150=I|151=0|584=active-orders-1734213121368|911=0|912=Y|10=154|
8=FIX.4.4|9=108|35=UAA|34=4|49=TRD82841|52=20241214-21:52:12.515|56=QFXTRADES|1=82841|3336=account_info_req_id1734213132514|10=045|
8=FIX.4.4|9=108|35=UAA|34=5|49=TRD82841|52=20241214-21:52:12.516|56=QFXTRADES|1=82841|3336=account_info_req_id1734213132514|10=047|
8=FIX.4.4|9=496|35=UAB|34=4|49=QFXTRADES|52=20241214-21:52:12.221|56=TRD82841|1=82841|15=USD|898=179769313486231570000000000000000000000000000000000000000000000000000000000000000000000000000000000000000000000000000000000000000000000000000000000000000000000000000000000000000000000000000000000000000000000000000000000000000000000000000000000000000000000000000000000000000000000000000000000000000000000000000|3330=2391.06|3331=2391.06|3332=0|3333=0|3334=2391.06|3335=0|3336=account_info_req_id1734213132514|3337=0|10=027|
8=FIX.4.4|9=496|35=UAB|34=5|49=QFXTRADES|52=20241214-21:52:12.238|56=TRD82841|1=82841|15=USD|898=179769313486231570000000000000000000000000000000000000000000000000000000000000000000000000000000000000000000000000000000000000000000000000000000000000000000000000000000000000000000000000000000000000000000000000000000000000000000000000000000000000000000000000000000000000000000000000000000000000000000000000000|3330=2391.06|3331=2391.06|3332=0|3333=0|3334=2391.06|3335=0|3336=account_info_req_id1734213132514|3337=0|10=036|
8=FIX.4.4|9=151|35=AN|34=6|49=TRD82841|52=20241214-21:52:17.785|56=QFXTRADES|1=82841|60=20241214-21:52:17.785|581=1|710=open-positions-1734213137784|715=CURRENT|724=0|10=226|
8=FIX.4.4|9=162|35=AO|34=6|49=QFXTRADES|52=20241214-21:52:17.480|56=TRD82841|1=82841|581=1|710=open-positions-1734213137784|721=ACKopen-positions-1734213137784|727=0|728=0|729=0|10=102|
8=FIX.4.4|9=60|35=0|34=7|49=TRD82841|52=20241214-21:52:48.625|56=QFXTRADES|10=126|
8=FIX.4.4|9=60|35=0|34=7|49=QFXTRADES|52=20241214-21:52:48.333|56=TRD82841|10=122|
8=FIX.4.4|9=109|35=A|34=1|49=TRD82841|52=20241214-21:56:04.540|56=QFXTRADES|98=0|108=30|141=Y|553=real82841|554=9hucfe4riucr|10=250|
8=FIX.4.4|9=78|35=A|34=1|49=QFXTRADES|52=20241214-21:56:04.253|56=TRD82841|98=0|108=30|141=Y|10=209|
8=FIX.4.4|9=107|35=AF|34=2|49=TRD82841|52=20241214-21:56:08.996|56=QFXTRADES|1=82841|584=active-orders-1734213368995|585=6|10=138|
8=FIX.4.4|9=107|35=AF|34=3|49=TRD82841|52=20241214-21:56:08.996|56=QFXTRADES|1=82841|584=active-orders-1734213368995|585=6|10=139|
8=FIX.4.4|9=163|35=8|34=2|49=QFXTRADES|52=20241214-21:56:08.690|56=TRD82841|1=82841|6=0|11= |14=0|17= |37= |39=0|54=1|55= |150=I|151=0|584=active-orders-1734213368995|911=0|912=Y|10=187|
8=FIX.4.4|9=163|35=8|34=3|49=QFXTRADES|52=20241214-21:56:08.706|56=TRD82841|1=82841|6=0|11= |14=0|17= |37= |39=0|54=1|55= |150=I|151=0|584=active-orders-1734213368995|911=0|912=Y|10=186|
8=FIX.4.4|9=127|35=j|34=4|49=TRD82841|52=20241214-21:56:14.415|56=QFXTRADES|45=2|58=Conditionally Required Field Missing, field=73|372=8|380=5|10=054|
8=FIX.4.4|9=127|35=j|34=5|49=TRD82841|52=20241214-21:56:15.692|56=QFXTRADES|45=3|58=Conditionally Required Field Missing, field=73|372=8|380=5|10=064|
8=FIX.4.4|9=108|35=UAA|34=6|49=TRD82841|52=20241214-21:56:31.068|56=QFXTRADES|1=82841|3336=account_info_req_id1734213391068|10=066|
8=FIX.4.4|9=108|35=UAA|34=7|49=TRD82841|52=20241214-21:56:31.070|56=QFXTRADES|1=82841|3336=account_info_req_id1734213391068|10=060|
8=FIX.4.4|9=496|35=UAB|34=4|49=QFXTRADES|52=20241214-21:56:30.773|56=TRD82841|1=82841|15=USD|898=179769313486231570000000000000000000000000000000000000000000000000000000000000000000000000000000000000000000000000000000000000000000000000000000000000000000000000000000000000000000000000000000000000000000000000000000000000000000000000000000000000000000000000000000000000000000000000000000000000000000000000000|3330=2391.06|3331=2391.06|3332=0|3333=0|3334=2391.06|3335=0|3336=account_info_req_id1734213391068|3337=0|10=054|
8=FIX.4.4|9=496|35=UAB|34=5|49=QFXTRADES|52=20241214-21:56:30.789|56=TRD82841|1=82841|15=USD|898=179769313486231570000000000000000000000000000000000000000000000000000000000000000000000000000000000000000000000000000000000000000000000000000000000000000000000000000000000000000000000000000000000000000000000000000000000000000000000000000000000000000000000000000000000000000000000000000000000000000000000000000|3330=2391.06|3331=2391.06|3332=0|3333=0|3334=2391.06|3335=0|3336=account_info_req_id1734213391068|3337=0|10=062|
8=FIX.4.4|9=151|35=AN|34=8|49=TRD82841|52=20241214-21:56:46.261|56=QFXTRADES|1=82841|60=20241214-21:56:46.261|581=1|710=open-positions-1734213406260|715=CURRENT|724=0|10=206|
8=FIX.4.4|9=162|35=AO|34=6|49=QFXTRADES|52=20241214-21:56:45.981|56=TRD82841|1=82841|581=1|710=open-positions-1734213406260|721=ACKopen-positions-1734213406260|727=0|728=0|729=0|10=089|
8=FIX.4.4|9=128|35=j|34=9|49=TRD82841|52=20241214-21:56:57.325|56=QFXTRADES|45=6|58=Conditionally Required Field Missing, field=58|372=AO|380=5|10=162|
8=FIX.4.4|9=60|35=0|34=7|49=QFXTRADES|52=20241214-21:57:16.351|56=TRD82841|10=122|
8=FIX.4.4|9=61|35=0|34=10|49=TRD82841|52=20241214-21:57:27.321|56=QFXTRADES|10=164|
8=FIX.4.4|9=109|35=A|34=1|49=TRD82841|52=20241214-21:58:01.028|56=QFXTRADES|98=0|108=30|141=Y|553=real82841|554=9hucfe4riucr|10=250|
8=FIX.4.4|9=78|35=A|34=1|49=QFXTRADES|52=20241214-21:58:01.008|56=TRD82841|98=0|108=30|141=Y|10=206|
8=FIX.4.4|9=109|35=A|34=1|49=TRD82841|52=20241214-21:59:00.607|56=QFXTRADES|98=0|108=30|141=Y|553=real82841|554=9hucfe4riucr|10=253|
8=FIX.4.4|9=78|35=A|34=1|49=QFXTRADES|52=20241214-21:59:00.328|56=TRD82841|98=0|108=30|141=Y|10=211|
8=FIX.4.4|9=107|35=AF|34=2|49=TRD82841|52=20241214-21:59:04.768|56=QFXTRADES|1=82841|584=active-orders-1734213544768|585=6|10=128|
