8=FIX.4.4|9=106|35=A|34=1|49=PRC1602|52=20240902-02:03:20.908|56=QFXPRICES|98=0|108=30|141=Y|553=prices1602|554=sdfkj43kj|10=012|
8=FIX.4.4|9=106|35=A|34=1|49=PRC1602|52=20240902-02:05:33.394|56=QFXPRICES|98=0|108=30|141=Y|553=prices1602|554=sdfkj43kj|10=017|
8=FIX.4.4|9=106|35=A|34=1|49=PRC1602|52=20240902-02:08:35.400|56=QFXPRICES|98=0|108=30|141=Y|553=prices1602|554=sdfkj43kj|10=010|
8=FIX.4.4|9=106|35=A|34=1|49=PRC1602|52=20240902-02:11:37.385|56=QFXPRICES|98=0|108=30|141=Y|553=prices1602|554=sdfkj43kj|10=018|
8=FIX.4.4|9=106|35=A|34=1|49=PRC1602|52=20240902-02:14:39.312|56=QFXPRICES|98=0|108=30|141=Y|553=prices1602|554=sdfkj43kj|10=013|
8=FIX.4.4|9=106|35=A|34=1|49=PRC1602|52=20240902-02:25:28.696|56=QFXPRICES|98=0|108=30|141=Y|553=prices1602|554=sdfkj43kj|10=028|
8=FIX.4.4|9=106|35=A|34=1|49=PRC1602|52=20240902-02:28:30.726|56=QFXPRICES|98=0|108=30|141=Y|553=prices1602|554=sdfkj43kj|10=018|
8=FIX.4.4|9=106|35=A|34=1|49=PRC1602|52=20240902-02:31:32.743|56=QFXPRICES|98=0|108=30|141=Y|553=prices1602|554=sdfkj43kj|10=013|
8=FIX.4.4|9=106|35=A|34=1|49=PRC1602|52=20240902-02:34:34.688|56=QFXPRICES|98=0|108=30|141=Y|553=prices1602|554=sdfkj43kj|10=026|
8=FIX.4.4|9=106|35=A|34=1|49=PRC1602|52=20240902-02:39:28.328|56=QFXPRICES|98=0|108=30|141=Y|553=prices1602|554=sdfkj43kj|10=025|
8=FIX.4.4|9=106|35=A|34=1|49=PRC1602|52=20240902-02:42:30.393|56=QFXPRICES|98=0|108=30|141=Y|553=prices1602|554=sdfkj43kj|10=014|
8=FIX.4.4|9=106|35=A|34=1|49=PRC1602|52=20240902-02:47:33.281|56=QFXPRICES|98=0|108=30|141=Y|553=prices1602|554=sdfkj43kj|10=018|
8=FIX.4.4|9=106|35=A|34=1|49=PRC1602|52=20240902-02:54:30.624|56=QFXPRICES|98=0|108=30|141=Y|553=prices1602|554=sdfkj43kj|10=014|
8=FIX.4.4|9=106|35=A|34=1|49=PRC1602|52=20240902-02:57:32.658|56=QFXPRICES|98=0|108=30|141=Y|553=prices1602|554=sdfkj43kj|10=026|
8=FIX.4.4|9=106|35=A|34=1|49=PRC1602|52=20240902-03:00:34.637|56=QFXPRICES|98=0|108=30|141=Y|553=prices1602|554=sdfkj43kj|10=014|
8=FIX.4.4|9=106|35=A|34=1|49=PRC1602|52=20240902-03:03:16.649|56=QFXPRICES|98=0|108=30|141=Y|553=prices1602|554=sdfkj43kj|10=020|
8=FIX.4.4|9=106|35=A|34=1|49=PRC1602|52=20240903-14:35:34.417|56=QFXPRICES|98=0|108=30|141=Y|553=prices1602|554=sdfkj43kj|10=021|
8=FIX.4.4|9=106|35=A|34=1|49=PRC1602|52=20240903-14:38:36.451|56=QFXPRICES|98=0|108=30|141=Y|553=prices1602|554=sdfkj43kj|10=024|
8=FIX.4.4|9=106|35=A|34=1|49=PRC1602|52=20240903-14:39:37.405|56=QFXPRICES|98=0|108=30|141=Y|553=prices1602|554=sdfkj43kj|10=025|
8=FIX.4.4|9=106|35=A|34=1|49=PRC1602|52=20240903-14:42:38.532|56=QFXPRICES|98=0|108=30|141=Y|553=prices1602|554=sdfkj43kj|10=021|
8=FIX.4.4|9=106|35=A|34=1|49=PRC1602|52=20240903-20:18:03.285|56=QFXPRICES|98=0|108=30|141=Y|553=prices1602|554=sdfkj43kj|10=018|
8=FIX.4.4|9=106|35=A|34=1|49=PRC1602|52=20240903-20:22:06.400|56=QFXPRICES|98=0|108=30|141=Y|553=prices1602|554=sdfkj43kj|10=005|
8=FIX.4.4|9=106|35=A|34=1|49=PRC1602|52=20240903-20:28:11.457|56=QFXPRICES|98=0|108=30|141=Y|553=prices1602|554=sdfkj43kj|10=019|
8=FIX.4.4|9=106|35=A|34=1|49=PRC1602|52=20240903-23:28:57.874|56=QFXPRICES|98=0|108=30|141=Y|553=prices1602|554=sdfkj43kj|10=035|
8=FIX.4.4|9=106|35=A|34=1|49=PRC1602|52=20240903-23:31:59.833|56=QFXPRICES|98=0|108=30|141=Y|553=prices1602|554=sdfkj43kj|10=026|
8=FIX.4.4|9=106|35=A|34=1|49=PRC1602|52=20240903-23:36:02.748|56=QFXPRICES|98=0|108=30|141=Y|553=prices1602|554=sdfkj43kj|10=024|
8=FIX.4.4|9=106|35=A|34=1|49=PRC1602|52=20240903-23:37:03.759|56=QFXPRICES|98=0|108=30|141=Y|553=prices1602|554=sdfkj43kj|10=028|
8=FIX.4.4|9=106|35=A|34=1|49=PRC1602|52=20240903-23:40:05.800|56=QFXPRICES|98=0|108=30|141=Y|553=prices1602|554=sdfkj43kj|10=011|
8=FIX.4.4|9=106|35=A|34=1|49=PRC1602|52=20240903-23:41:06.766|56=QFXPRICES|98=0|108=30|141=Y|553=prices1602|554=sdfkj43kj|10=024|
8=FIX.4.4|9=106|35=A|34=1|49=PRC1602|52=20240903-23:42:08.120|56=QFXPRICES|98=0|108=30|141=Y|553=prices1602|554=sdfkj43kj|10=011|
8=FIX.4.4|9=106|35=A|34=1|49=PRC1602|52=20240903-23:43:09.057|56=QFXPRICES|98=0|108=30|141=Y|553=prices1602|554=sdfkj43kj|10=022|
8=FIX.4.4|9=106|35=A|34=1|49=PRC1602|52=20240903-23:44:09.764|56=QFXPRICES|98=0|108=30|141=Y|553=prices1602|554=sdfkj43kj|10=028|
8=FIX.4.4|9=106|35=A|34=1|49=PRC1602|52=20240903-23:47:11.760|56=QFXPRICES|98=0|108=30|141=Y|553=prices1602|554=sdfkj43kj|10=020|
8=FIX.4.4|9=106|35=A|34=1|49=PRC1602|52=20240903-23:50:13.754|56=QFXPRICES|98=0|108=30|141=Y|553=prices1602|554=sdfkj43kj|10=019|
8=FIX.4.4|9=106|35=A|34=1|49=PRC1602|52=20240903-23:53:16.037|56=QFXPRICES|98=0|108=30|141=Y|553=prices1602|554=sdfkj43kj|10=019|
8=FIX.4.4|9=106|35=A|34=1|49=PRC1602|52=20240903-23:54:16.759|56=QFXPRICES|98=0|108=30|141=Y|553=prices1602|554=sdfkj43kj|10=031|
8=FIX.4.4|9=106|35=A|34=1|49=PRC1602|52=20240903-23:57:18.757|56=QFXPRICES|98=0|108=30|141=Y|553=prices1602|554=sdfkj43kj|10=034|
8=FIX.4.4|9=106|35=A|34=1|49=PRC1602|52=20240904-00:00:20.761|56=QFXPRICES|98=0|108=30|141=Y|553=prices1602|554=sdfkj43kj|10=006|
8=FIX.4.4|9=106|35=A|34=1|49=PRC1602|52=20240904-00:03:22.764|56=QFXPRICES|98=0|108=30|141=Y|553=prices1602|554=sdfkj43kj|10=014|
8=FIX.4.4|9=106|35=A|34=1|49=PRC1602|52=20240904-00:06:24.761|56=QFXPRICES|98=0|108=30|141=Y|553=prices1602|554=sdfkj43kj|10=016|
8=FIX.4.4|9=106|35=A|34=1|49=PRC1602|52=20240904-00:09:26.829|56=QFXPRICES|98=0|108=30|141=Y|553=prices1602|554=sdfkj43kj|10=026|
8=FIX.4.4|9=106|35=A|34=1|49=PRC1602|52=20240904-00:12:28.759|56=QFXPRICES|98=0|108=30|141=Y|553=prices1602|554=sdfkj43kj|10=024|
8=FIX.4.4|9=106|35=A|34=1|49=PRC1602|52=20240904-00:14:29.838|56=QFXPRICES|98=0|108=30|141=Y|553=prices1602|554=sdfkj43kj|10=025|
8=FIX.4.4|9=106|35=A|34=1|49=PRC1602|52=20240904-00:16:30.756|56=QFXPRICES|98=0|108=30|141=Y|553=prices1602|554=sdfkj43kj|10=018|
8=FIX.4.4|9=106|35=A|34=1|49=PRC1602|52=20240904-00:21:33.751|56=QFXPRICES|98=0|108=30|141=Y|553=prices1602|554=sdfkj43kj|10=012|
8=FIX.4.4|9=106|35=A|34=1|49=PRC1602|52=20240904-00:24:35.801|56=QFXPRICES|98=0|108=30|141=Y|553=prices1602|554=sdfkj43kj|10=013|
8=FIX.4.4|9=106|35=A|34=1|49=PRC1602|52=20240904-00:28:38.817|56=QFXPRICES|98=0|108=30|141=Y|553=prices1602|554=sdfkj43kj|10=027|
8=FIX.4.4|9=106|35=A|34=1|49=PRC1602|52=20240904-00:31:40.974|56=QFXPRICES|98=0|108=30|141=Y|553=prices1602|554=sdfkj43kj|10=018|
8=FIX.4.4|9=106|35=A|34=1|49=PRC1602|52=20240904-00:32:41.749|56=QFXPRICES|98=0|108=30|141=Y|553=prices1602|554=sdfkj43kj|10=020|
8=FIX.4.4|9=106|35=A|34=1|49=PRC1602|52=20240904-00:35:43.856|56=QFXPRICES|98=0|108=30|141=Y|553=prices1602|554=sdfkj43kj|10=024|
8=FIX.4.4|9=106|35=A|34=1|49=PRC1602|52=20240904-00:39:46.757|56=QFXPRICES|98=0|108=30|141=Y|553=prices1602|554=sdfkj43kj|10=031|
8=FIX.4.4|9=106|35=A|34=1|49=PRC1602|52=20240904-00:42:48.678|56=QFXPRICES|98=0|108=30|141=Y|553=prices1602|554=sdfkj43kj|10=029|
8=FIX.4.4|9=106|35=A|34=1|49=PRC1602|52=20240904-00:45:50.833|56=QFXPRICES|98=0|108=30|141=Y|553=prices1602|554=sdfkj43kj|10=018|
8=FIX.4.4|9=106|35=A|34=1|49=PRC1602|52=20240904-00:46:51.748|56=QFXPRICES|98=0|108=30|141=Y|553=prices1602|554=sdfkj43kj|10=025|
8=FIX.4.4|9=106|35=A|34=1|49=PRC1602|52=20240904-00:48:52.947|56=QFXPRICES|98=0|108=30|141=Y|553=prices1602|554=sdfkj43kj|10=029|
8=FIX.4.4|9=106|35=A|34=1|49=PRC1602|52=20240904-00:49:53.760|56=QFXPRICES|98=0|108=30|141=Y|553=prices1602|554=sdfkj43kj|10=024|
8=FIX.4.4|9=106|35=A|34=1|49=PRC1602|52=20240904-00:50:54.874|56=QFXPRICES|98=0|108=30|141=Y|553=prices1602|554=sdfkj43kj|10=023|
8=FIX.4.4|9=106|35=A|34=1|49=PRC1602|52=20240904-00:54:56.808|56=QFXPRICES|98=0|108=30|141=Y|553=prices1602|554=sdfkj43kj|10=026|
8=FIX.4.4|9=106|35=A|34=1|49=PRC1602|52=20240904-00:55:57.760|56=QFXPRICES|98=0|108=30|141=Y|553=prices1602|554=sdfkj43kj|10=025|
8=FIX.4.4|9=106|35=A|34=1|49=PRC1602|52=20240904-00:58:59.757|56=QFXPRICES|98=0|108=30|141=Y|553=prices1602|554=sdfkj43kj|10=036|
8=FIX.4.4|9=106|35=A|34=1|49=PRC1602|52=20240904-01:05:03.852|56=QFXPRICES|98=0|108=30|141=Y|553=prices1602|554=sdfkj43kj|10=014|
8=FIX.4.4|9=106|35=A|34=1|49=PRC1602|52=20240904-01:06:04.760|56=QFXPRICES|98=0|108=30|141=Y|553=prices1602|554=sdfkj43kj|10=014|
8=FIX.4.4|9=106|35=A|34=1|49=PRC1602|52=20240904-01:08:05.756|56=QFXPRICES|98=0|108=30|141=Y|553=prices1602|554=sdfkj43kj|10=022|
8=FIX.4.4|9=106|35=A|34=1|49=PRC1602|52=20240904-01:10:06.837|56=QFXPRICES|98=0|108=30|141=Y|553=prices1602|554=sdfkj43kj|10=016|
8=FIX.4.4|9=106|35=A|34=1|49=PRC1602|52=20240904-01:15:09.762|56=QFXPRICES|98=0|108=30|141=Y|553=prices1602|554=sdfkj43kj|10=021|
8=FIX.4.4|9=106|35=A|34=1|49=PRC1602|52=20240904-01:17:10.863|56=QFXPRICES|98=0|108=30|141=Y|553=prices1602|554=sdfkj43kj|10=017|
8=FIX.4.4|9=106|35=A|34=1|49=PRC1602|52=20240904-01:22:13.748|56=QFXPRICES|98=0|108=30|141=Y|553=prices1602|554=sdfkj43kj|10=018|
8=FIX.4.4|9=106|35=A|34=1|49=PRC1602|52=20240904-01:27:16.756|56=QFXPRICES|98=0|108=30|141=Y|553=prices1602|554=sdfkj43kj|10=025|
8=FIX.4.4|9=106|35=A|34=1|49=PRC1602|52=20240904-01:29:17.815|56=QFXPRICES|98=0|108=30|141=Y|553=prices1602|554=sdfkj43kj|10=024|
8=FIX.4.4|9=106|35=A|34=1|49=PRC1602|52=20240904-01:34:20.752|56=QFXPRICES|98=0|108=30|141=Y|553=prices1602|554=sdfkj43kj|10=014|
8=FIX.4.4|9=106|35=A|34=1|49=PRC1602|52=20240904-01:36:21.879|56=QFXPRICES|98=0|108=30|141=Y|553=prices1602|554=sdfkj43kj|10=027|
8=FIX.4.4|9=106|35=A|34=1|49=PRC1602|52=20240904-01:41:24.745|56=QFXPRICES|98=0|108=30|141=Y|553=prices1602|554=sdfkj43kj|10=018|
8=FIX.4.4|9=106|35=A|34=1|49=PRC1602|52=20240904-01:43:25.864|56=QFXPRICES|98=0|108=30|141=Y|553=prices1602|554=sdfkj43kj|10=023|
8=FIX.4.4|9=106|35=A|34=1|49=PRC1602|52=20240904-01:48:28.749|56=QFXPRICES|98=0|108=30|141=Y|553=prices1602|554=sdfkj43kj|10=033|
8=FIX.4.4|9=106|35=A|34=1|49=PRC1602|52=20240904-01:50:29.854|56=QFXPRICES|98=0|108=30|141=Y|553=prices1602|554=sdfkj43kj|10=024|
8=FIX.4.4|9=106|35=A|34=1|49=PRC1602|52=20240904-01:53:31.763|56=QFXPRICES|98=0|108=30|141=Y|553=prices1602|554=sdfkj43kj|10=019|
8=FIX.4.4|9=106|35=A|34=1|49=PRC1602|52=20240904-01:58:34.809|56=QFXPRICES|98=0|108=30|141=Y|553=prices1602|554=sdfkj43kj|10=028|
8=FIX.4.4|9=106|35=A|34=1|49=PRC1602|52=20240904-02:01:36.758|56=QFXPRICES|98=0|108=30|141=Y|553=prices1602|554=sdfkj43kj|10=022|
8=FIX.4.4|9=106|35=A|34=1|49=PRC1602|52=20240904-02:03:37.862|56=QFXPRICES|98=0|108=30|141=Y|553=prices1602|554=sdfkj43kj|10=021|
8=FIX.4.4|9=106|35=A|34=1|49=PRC1602|52=20240904-02:06:39.758|56=QFXPRICES|98=0|108=30|141=Y|553=prices1602|554=sdfkj43kj|10=030|
8=FIX.4.4|9=106|35=A|34=1|49=PRC1602|52=20240904-02:08:40.831|56=QFXPRICES|98=0|108=30|141=Y|553=prices1602|554=sdfkj43kj|10=016|
8=FIX.4.4|9=106|35=A|34=1|49=PRC1602|52=20240904-02:11:42.751|56=QFXPRICES|98=0|108=30|141=Y|553=prices1602|554=sdfkj43kj|10=013|
8=FIX.4.4|9=106|35=A|34=1|49=PRC1602|52=20240904-02:13:43.861|56=QFXPRICES|98=0|108=30|141=Y|553=prices1602|554=sdfkj43kj|10=018|
8=FIX.4.4|9=106|35=A|34=1|49=PRC1602|52=20240904-02:16:45.751|56=QFXPRICES|98=0|108=30|141=Y|553=prices1602|554=sdfkj43kj|10=021|
8=FIX.4.4|9=106|35=A|34=1|49=PRC1602|52=20240904-02:18:46.749|56=QFXPRICES|98=0|108=30|141=Y|553=prices1602|554=sdfkj43kj|10=031|
8=FIX.4.4|9=106|35=A|34=1|49=PRC1602|52=20240904-02:23:49.749|56=QFXPRICES|98=0|108=30|141=Y|553=prices1602|554=sdfkj43kj|10=030|
8=FIX.4.4|9=106|35=A|34=1|49=PRC1602|52=20240904-02:28:52.762|56=QFXPRICES|98=0|108=30|141=Y|553=prices1602|554=sdfkj43kj|10=024|
8=FIX.4.4|9=106|35=A|34=1|49=PRC1602|52=20240904-02:35:56.751|56=QFXPRICES|98=0|108=30|141=Y|553=prices1602|554=sdfkj43kj|10=024|
8=FIX.4.4|9=106|35=A|34=1|49=PRC1602|52=20240904-02:37:57.787|56=QFXPRICES|98=0|108=30|141=Y|553=prices1602|554=sdfkj43kj|10=036|
8=FIX.4.4|9=106|35=A|34=1|49=PRC1602|52=20240904-02:45:01.748|56=QFXPRICES|98=0|108=30|141=Y|553=prices1602|554=sdfkj43kj|10=021|
8=FIX.4.4|9=106|35=A|34=1|49=PRC1602|52=20240904-02:47:02.819|56=QFXPRICES|98=0|108=30|141=Y|553=prices1602|554=sdfkj43kj|10=023|
8=FIX.4.4|9=106|35=A|34=1|49=PRC1602|52=20240904-02:52:05.762|56=QFXPRICES|98=0|108=30|141=Y|553=prices1602|554=sdfkj43kj|10=019|
8=FIX.4.4|9=106|35=A|34=1|49=PRC1602|52=20240904-02:54:06.790|56=QFXPRICES|98=0|108=30|141=Y|553=prices1602|554=sdfkj43kj|10=023|
8=FIX.4.4|9=106|35=A|34=1|49=PRC1602|52=20240904-02:59:09.757|56=QFXPRICES|98=0|108=30|141=Y|553=prices1602|554=sdfkj43kj|10=034|
8=FIX.4.4|9=106|35=A|34=1|49=PRC1602|52=20240904-03:01:10.827|56=QFXPRICES|98=0|108=30|141=Y|553=prices1602|554=sdfkj43kj|10=012|
8=FIX.4.4|9=106|35=A|34=1|49=PRC1602|52=20240904-09:20:23.765|56=QFXPRICES|98=0|108=30|141=Y|553=prices1602|554=sdfkj43kj|10=024|
8=FIX.4.4|9=106|35=A|34=1|49=PRC1602|52=20240904-09:22:24.704|56=QFXPRICES|98=0|108=30|141=Y|553=prices1602|554=sdfkj43kj|10=020|
8=FIX.4.4|9=106|35=A|34=1|49=PRC1602|52=20240904-09:26:27.715|56=QFXPRICES|98=0|108=30|141=Y|553=prices1602|554=sdfkj43kj|10=029|
8=FIX.4.4|9=106|35=A|34=1|49=PRC1602|52=20240904-09:28:28.935|56=QFXPRICES|98=0|108=30|141=Y|553=prices1602|554=sdfkj43kj|10=036|
8=FIX.4.4|9=106|35=A|34=1|49=PRC1602|52=20240904-09:29:29.875|56=QFXPRICES|98=0|108=30|141=Y|553=prices1602|554=sdfkj43kj|10=041|
8=FIX.4.4|9=106|35=A|34=1|49=PRC1602|52=20240904-09:30:30.788|56=QFXPRICES|98=0|108=30|141=Y|553=prices1602|554=sdfkj43kj|10=028|
8=FIX.4.4|9=106|35=A|34=1|49=PRC1602|52=20240904-09:34:33.823|56=QFXPRICES|98=0|108=30|141=Y|553=prices1602|554=sdfkj43kj|10=025|
8=FIX.4.4|9=106|35=A|34=1|49=PRC1602|52=20240904-09:35:34.707|56=QFXPRICES|98=0|108=30|141=Y|553=prices1602|554=sdfkj43kj|10=028|
8=FIX.4.4|9=106|35=A|34=1|49=PRC1602|52=20240904-09:37:37.168|56=QFXPRICES|98=0|108=30|141=Y|553=prices1602|554=sdfkj43kj|10=034|
8=FIX.4.4|9=106|35=A|34=1|49=PRC1602|52=20240904-09:39:37.693|56=QFXPRICES|98=0|108=30|141=Y|553=prices1602|554=sdfkj43kj|10=039|
8=FIX.4.4|9=106|35=A|34=1|49=PRC1602|52=20240904-09:43:40.695|56=QFXPRICES|98=0|108=30|141=Y|553=prices1602|554=sdfkj43kj|10=030|
8=FIX.4.4|9=106|35=A|34=1|49=PRC1602|52=20240904-09:46:42.791|56=QFXPRICES|98=0|108=30|141=Y|553=prices1602|554=sdfkj43kj|10=032|
8=FIX.4.4|9=106|35=A|34=1|49=PRC1602|52=20240904-09:50:45.764|56=QFXPRICES|98=0|108=30|141=Y|553=prices1602|554=sdfkj43kj|10=030|
8=FIX.4.4|9=106|35=A|34=1|49=PRC1602|52=20240904-09:51:46.692|56=QFXPRICES|98=0|108=30|141=Y|553=prices1602|554=sdfkj43kj|10=032|
8=FIX.4.4|9=106|35=A|34=1|49=PRC1602|52=20240904-09:58:51.761|56=QFXPRICES|98=0|108=30|141=Y|553=prices1602|554=sdfkj43kj|10=032|
8=FIX.4.4|9=106|35=A|34=1|49=PRC1602|52=20240904-10:02:54.704|56=QFXPRICES|98=0|108=30|141=Y|553=prices1602|554=sdfkj43kj|10=013|
8=FIX.4.4|9=106|35=A|34=1|49=PRC1602|52=20240904-10:05:56.853|56=QFXPRICES|98=0|108=30|141=Y|553=prices1602|554=sdfkj43kj|10=023|
8=FIX.4.4|9=106|35=A|34=1|49=PRC1602|52=20240904-10:06:57.703|56=QFXPRICES|98=0|108=30|141=Y|553=prices1602|554=sdfkj43kj|10=019|
8=FIX.4.4|9=106|35=A|34=1|49=PRC1602|52=20240904-10:09:59.693|56=QFXPRICES|98=0|108=30|141=Y|553=prices1602|554=sdfkj43kj|10=032|
8=FIX.4.4|9=106|35=A|34=1|49=PRC1602|52=20240904-10:12:13.413|56=QFXPRICES|98=0|108=30|141=Y|553=prices1602|554=sdfkj43kj|10=006|
8=FIX.4.4|9=106|35=A|34=1|49=PRC1602|52=20240904-10:20:04.706|56=QFXPRICES|98=0|108=30|141=Y|553=prices1602|554=sdfkj43kj|10=010|
8=FIX.4.4|9=106|35=A|34=1|49=PRC1602|52=20240904-10:22:05.762|56=QFXPRICES|98=0|108=30|141=Y|553=prices1602|554=sdfkj43kj|10=015|
8=FIX.4.4|9=106|35=A|34=1|49=PRC1602|52=20240904-10:24:06.705|56=QFXPRICES|98=0|108=30|141=Y|553=prices1602|554=sdfkj43kj|10=015|
8=FIX.4.4|9=106|35=A|34=1|49=PRC1602|52=20240904-10:26:07.758|56=QFXPRICES|98=0|108=30|141=Y|553=prices1602|554=sdfkj43kj|10=026|
8=FIX.4.4|9=106|35=A|34=1|49=PRC1602|52=20240904-10:28:08.695|56=QFXPRICES|98=0|108=30|141=Y|553=prices1602|554=sdfkj43kj|10=029|
8=FIX.4.4|9=106|35=A|34=1|49=PRC1602|52=20240904-10:33:10.706|56=QFXPRICES|98=0|108=30|141=Y|553=prices1602|554=sdfkj43kj|10=011|
8=FIX.4.4|9=106|35=A|34=1|49=PRC1602|52=20240904-10:38:12.787|56=QFXPRICES|98=0|108=30|141=Y|553=prices1602|554=sdfkj43kj|10=027|
8=FIX.4.4|9=106|35=A|34=1|49=PRC1602|52=20240904-10:46:39.453|56=QFXPRICES|98=0|108=30|141=Y|553=prices1602|554=sdfkj43kj|10=025|
8=FIX.4.4|9=106|35=A|34=1|49=PRC1602|52=20240904-10:49:41.431|56=QFXPRICES|98=0|108=30|141=Y|553=prices1602|554=sdfkj43kj|10=017|
8=FIX.4.4|9=106|35=A|34=1|49=PRC1602|52=20240904-10:52:39.143|56=QFXPRICES|98=0|108=30|141=Y|553=prices1602|554=sdfkj43kj|10=018|
8=FIX.4.4|9=106|35=A|34=1|49=PRC1602|52=20240904-10:53:39.973|56=QFXPRICES|98=0|108=30|141=Y|553=prices1602|554=sdfkj43kj|10=030|
8=FIX.4.4|9=106|35=A|34=1|49=PRC1602|52=20240904-10:54:41.534|56=QFXPRICES|98=0|108=30|141=Y|553=prices1602|554=sdfkj43kj|10=017|
8=FIX.4.4|9=106|35=A|34=1|49=PRC1602|52=20240904-10:57:43.178|56=QFXPRICES|98=0|108=30|141=Y|553=prices1602|554=sdfkj43kj|10=026|
8=FIX.4.4|9=106|35=A|34=1|49=PRC1602|52=20240904-10:58:43.976|56=QFXPRICES|98=0|108=30|141=Y|553=prices1602|554=sdfkj43kj|10=033|
8=FIX.4.4|9=106|35=A|34=1|49=PRC1602|52=20240904-11:02:47.166|56=QFXPRICES|98=0|108=30|141=Y|553=prices1602|554=sdfkj43kj|10=018|
8=FIX.4.4|9=106|35=A|34=1|49=PRC1602|52=20240904-11:03:47.979|56=QFXPRICES|98=0|108=30|141=Y|553=prices1602|554=sdfkj43kj|10=031|
8=FIX.4.4|9=106|35=A|34=1|49=PRC1602|52=20240904-11:04:48.980|56=QFXPRICES|98=0|108=30|141=Y|553=prices1602|554=sdfkj43kj|10=025|
8=FIX.4.4|9=106|35=A|34=1|49=PRC1602|52=20240904-11:08:52.029|56=QFXPRICES|98=0|108=30|141=Y|553=prices1602|554=sdfkj43kj|10=018|
8=FIX.4.4|9=106|35=A|34=1|49=PRC1602|52=20240904-11:13:56.002|56=QFXPRICES|98=0|108=30|141=Y|553=prices1602|554=sdfkj43kj|10=009|
8=FIX.4.4|9=106|35=A|34=1|49=PRC1602|52=20240904-11:19:00.050|56=QFXPRICES|98=0|108=30|141=Y|553=prices1602|554=sdfkj43kj|10=007|
8=FIX.4.4|9=106|35=A|34=1|49=PRC1602|52=20240904-11:20:00.979|56=QFXPRICES|98=0|108=30|141=Y|553=prices1602|554=sdfkj43kj|10=019|
8=FIX.4.4|9=106|35=A|34=1|49=PRC1602|52=20240904-11:25:04.973|56=QFXPRICES|98=0|108=30|141=Y|553=prices1602|554=sdfkj43kj|10=022|
8=FIX.4.4|9=106|35=A|34=1|49=PRC1602|52=20240904-11:35:12.355|56=QFXPRICES|98=0|108=30|141=Y|553=prices1602|554=sdfkj43kj|10=016|
8=FIX.4.4|9=106|35=A|34=1|49=PRC1602|52=20240904-11:39:15.356|56=QFXPRICES|98=0|108=30|141=Y|553=prices1602|554=sdfkj43kj|10=024|
8=FIX.4.4|9=106|35=A|34=1|49=PRC1602|52=20240904-11:40:17.050|56=QFXPRICES|98=0|108=30|141=Y|553=prices1602|554=sdfkj43kj|10=009|
8=FIX.4.4|9=106|35=A|34=1|49=PRC1602|52=20240904-11:42:17.501|56=QFXPRICES|98=0|108=30|141=Y|553=prices1602|554=sdfkj43kj|10=012|
8=FIX.4.4|9=106|35=A|34=1|49=PRC1602|52=20240904-11:46:23.347|56=QFXPRICES|98=0|108=30|141=Y|553=prices1602|554=sdfkj43kj|10=021|
8=FIX.4.4|9=106|35=A|34=1|49=PRC1602|52=20240904-11:47:24.351|56=QFXPRICES|98=0|108=30|141=Y|553=prices1602|554=sdfkj43kj|10=018|
8=FIX.4.4|9=106|35=A|34=1|49=PRC1602|52=20240904-11:50:23.726|56=QFXPRICES|98=0|108=30|141=Y|553=prices1602|554=sdfkj43kj|10=017|
8=FIX.4.4|9=106|35=A|34=1|49=PRC1602|52=20240904-11:52:25.228|56=QFXPRICES|98=0|108=30|141=Y|553=prices1602|554=sdfkj43kj|10=018|
8=FIX.4.4|9=106|35=A|34=1|49=PRC1602|52=20240904-11:54:27.218|56=QFXPRICES|98=0|108=30|141=Y|553=prices1602|554=sdfkj43kj|10=021|
8=FIX.4.4|9=106|35=A|34=1|49=PRC1602|52=20240904-11:55:44.354|56=QFXPRICES|98=0|108=30|141=Y|553=prices1602|554=sdfkj43kj|10=022|
8=FIX.4.4|9=106|35=A|34=1|49=PRC1602|52=20240904-11:56:27.990|56=QFXPRICES|98=0|108=30|141=Y|553=prices1602|554=sdfkj43kj|10=030|
8=FIX.4.4|9=106|35=A|34=1|49=PRC1602|52=20240904-11:57:28.349|56=QFXPRICES|98=0|108=30|141=Y|553=prices1602|554=sdfkj43kj|10=030|
8=FIX.4.4|9=106|35=A|34=1|49=PRC1602|52=20240904-11:58:28.801|56=QFXPRICES|98=0|108=30|141=Y|553=prices1602|554=sdfkj43kj|10=024|
8=FIX.4.4|9=106|35=A|34=1|49=PRC1602|52=20240904-11:59:29.339|56=QFXPRICES|98=0|108=30|141=Y|553=prices1602|554=sdfkj43kj|10=032|
8=FIX.4.4|9=106|35=A|34=1|49=PRC1602|52=20240904-12:57:33.990|56=QFXPRICES|98=0|108=30|141=Y|553=prices1602|554=sdfkj43kj|10=029|
8=FIX.4.4|9=106|35=A|34=1|49=PRC1602|52=20240904-12:58:34.845|56=QFXPRICES|98=0|108=30|141=Y|553=prices1602|554=sdfkj43kj|10=030|
8=FIX.4.4|9=106|35=A|34=1|49=PRC1602|52=20240904-13:04:44.628|56=QFXPRICES|98=0|108=30|141=Y|553=prices1602|554=sdfkj43kj|10=022|
8=FIX.4.4|9=106|35=A|34=1|49=PRC1602|52=20240904-13:07:46.728|56=QFXPRICES|98=0|108=30|141=Y|553=prices1602|554=sdfkj43kj|10=028|
8=FIX.4.4|9=106|35=A|34=1|49=PRC1602|52=20240904-13:11:49.637|56=QFXPRICES|98=0|108=30|141=Y|553=prices1602|554=sdfkj43kj|10=025|
8=FIX.4.4|9=106|35=A|34=1|49=PRC1602|52=20240904-13:13:52.183|56=QFXPRICES|98=0|108=30|141=Y|553=prices1602|554=sdfkj43kj|10=017|
8=FIX.4.4|9=106|35=A|34=1|49=PRC1602|52=20240904-13:20:58.776|56=QFXPRICES|98=0|108=30|141=Y|553=prices1602|554=sdfkj43kj|10=029|
8=FIX.4.4|9=106|35=A|34=1|49=PRC1602|52=20240904-13:21:58.624|56=QFXPRICES|98=0|108=30|141=Y|553=prices1602|554=sdfkj43kj|10=022|
8=FIX.4.4|9=106|35=A|34=1|49=PRC1602|52=20240904-13:28:03.809|56=QFXPRICES|98=0|108=30|141=Y|553=prices1602|554=sdfkj43kj|10=024|
8=FIX.4.4|9=106|35=A|34=1|49=PRC1602|52=20240904-13:29:04.632|56=QFXPRICES|98=0|108=30|141=Y|553=prices1602|554=sdfkj43kj|10=020|
8=FIX.4.4|9=106|35=A|34=1|49=PRC1602|52=20240904-13:30:05.660|56=QFXPRICES|98=0|108=30|141=Y|553=prices1602|554=sdfkj43kj|10=014|
8=FIX.4.4|9=106|35=A|34=1|49=PRC1602|52=20240904-13:31:06.452|56=QFXPRICES|98=0|108=30|141=Y|553=prices1602|554=sdfkj43kj|10=015|
8=FIX.4.4|9=106|35=A|34=1|49=PRC1602|52=20240904-13:35:08.626|56=QFXPRICES|98=0|108=30|141=Y|553=prices1602|554=sdfkj43kj|10=024|
8=FIX.4.4|9=106|35=A|34=1|49=PRC1602|52=20240904-13:37:10.694|56=QFXPRICES|98=0|108=30|141=Y|553=prices1602|554=sdfkj43kj|10=024|
8=FIX.4.4|9=106|35=A|34=1|49=PRC1602|52=20240904-13:41:12.652|56=QFXPRICES|98=0|108=30|141=Y|553=prices1602|554=sdfkj43kj|10=015|
8=FIX.4.4|9=106|35=A|34=1|49=PRC1602|52=20240904-13:42:13.632|56=QFXPRICES|98=0|108=30|141=Y|553=prices1602|554=sdfkj43kj|10=015|
8=FIX.4.4|9=106|35=A|34=1|49=PRC1602|52=20240904-13:45:15.702|56=QFXPRICES|98=0|108=30|141=Y|553=prices1602|554=sdfkj43kj|10=018|
8=FIX.4.4|9=106|35=A|34=1|49=PRC1602|52=20240904-13:49:18.790|56=QFXPRICES|98=0|108=30|141=Y|553=prices1602|554=sdfkj43kj|10=032|
8=FIX.4.4|9=106|35=A|34=1|49=PRC1602|52=20240904-13:50:19.636|56=QFXPRICES|98=0|108=30|141=Y|553=prices1602|554=sdfkj43kj|10=024|
8=FIX.4.4|9=106|35=A|34=1|49=PRC1602|52=20240904-13:54:22.718|56=QFXPRICES|98=0|108=30|141=Y|553=prices1602|554=sdfkj43kj|10=023|
8=FIX.4.4|9=106|35=A|34=1|49=PRC1602|52=20240904-13:58:25.721|56=QFXPRICES|98=0|108=30|141=Y|553=prices1602|554=sdfkj43kj|10=024|
8=FIX.4.4|9=106|35=A|34=1|49=PRC1602|52=20240904-13:59:26.633|56=QFXPRICES|98=0|108=30|141=Y|553=prices1602|554=sdfkj43kj|10=028|
8=FIX.4.4|9=106|35=A|34=1|49=PRC1602|52=20240904-14:03:29.705|56=QFXPRICES|98=0|108=30|141=Y|553=prices1602|554=sdfkj43kj|10=021|
8=FIX.4.4|9=106|35=A|34=1|49=PRC1602|52=20240904-14:04:30.627|56=QFXPRICES|98=0|108=30|141=Y|553=prices1602|554=sdfkj43kj|10=017|
8=FIX.4.4|9=106|35=A|34=1|49=PRC1602|52=20240904-14:08:33.681|56=QFXPRICES|98=0|108=30|141=Y|553=prices1602|554=sdfkj43kj|10=024|
8=FIX.4.4|9=106|35=A|34=1|49=PRC1602|52=20240904-14:09:34.624|56=QFXPRICES|98=0|108=30|141=Y|553=prices1602|554=sdfkj43kj|10=023|
8=FIX.4.4|9=106|35=A|34=1|49=PRC1602|52=20240904-14:13:37.747|56=QFXPRICES|98=0|108=30|141=Y|553=prices1602|554=sdfkj43kj|10=027|
8=FIX.4.4|9=106|35=A|34=1|49=PRC1602|52=20240904-14:14:38.633|56=QFXPRICES|98=0|108=30|141=Y|553=prices1602|554=sdfkj43kj|10=023|
8=FIX.4.4|9=106|35=A|34=1|49=PRC1602|52=20240904-14:18:41.627|56=QFXPRICES|98=0|108=30|141=Y|553=prices1602|554=sdfkj43kj|10=024|
8=FIX.4.4|9=106|35=A|34=1|49=PRC1602|52=20240904-14:22:44.645|56=QFXPRICES|98=0|108=30|141=Y|553=prices1602|554=sdfkj43kj|10=022|
8=FIX.4.4|9=106|35=A|34=1|49=PRC1602|52=20240904-14:26:47.739|56=QFXPRICES|98=0|108=30|141=Y|553=prices1602|554=sdfkj43kj|10=033|
8=FIX.4.4|9=106|35=A|34=1|49=PRC1602|52=20240904-14:27:48.635|56=QFXPRICES|98=0|108=30|141=Y|553=prices1602|554=sdfkj43kj|10=030|
8=FIX.4.4|9=106|35=A|34=1|49=PRC1602|52=20240904-14:31:51.630|56=QFXPRICES|98=0|108=30|141=Y|553=prices1602|554=sdfkj43kj|10=014|
8=FIX.4.4|9=106|35=A|34=1|49=PRC1602|52=20240904-14:34:53.746|56=QFXPRICES|98=0|108=30|141=Y|553=prices1602|554=sdfkj43kj|10=027|
8=FIX.4.4|9=106|35=A|34=1|49=PRC1602|52=20240904-14:35:54.635|56=QFXPRICES|98=0|108=30|141=Y|553=prices1602|554=sdfkj43kj|10=026|
8=FIX.4.4|9=106|35=A|34=1|49=PRC1602|52=20240904-14:39:57.621|56=QFXPRICES|98=0|108=30|141=Y|553=prices1602|554=sdfkj43kj|10=028|
8=FIX.4.4|9=106|35=A|34=1|49=PRC1602|52=20240904-14:44:00.657|56=QFXPRICES|98=0|108=30|141=Y|553=prices1602|554=sdfkj43kj|10=021|
8=FIX.4.4|9=106|35=A|34=1|49=PRC1602|52=20240904-14:48:03.740|56=QFXPRICES|98=0|108=30|141=Y|553=prices1602|554=sdfkj43kj|10=021|
8=FIX.4.4|9=106|35=A|34=1|49=PRC1602|52=20240904-14:53:07.622|56=QFXPRICES|98=0|108=30|141=Y|553=prices1602|554=sdfkj43kj|10=020|
8=FIX.4.4|9=106|35=A|34=1|49=PRC1602|52=20240904-19:16:33.517|56=QFXPRICES|98=0|108=30|141=Y|553=prices1602|554=sdfkj43kj|10=026|
8=FIX.4.4|9=106|35=A|34=1|49=PRC1602|52=20240904-19:19:35.782|56=QFXPRICES|98=0|108=30|141=Y|553=prices1602|554=sdfkj43kj|10=035|
8=FIX.4.4|9=106|35=A|34=1|49=PRC1602|52=20240904-19:21:37.431|56=QFXPRICES|98=0|108=30|141=Y|553=prices1602|554=sdfkj43kj|10=021|
8=FIX.4.4|9=106|35=A|34=1|49=PRC1602|52=20240904-19:25:40.465|56=QFXPRICES|98=0|108=30|141=Y|553=prices1602|554=sdfkj43kj|10=026|
8=FIX.4.4|9=106|35=A|34=1|49=PRC1602|52=20240904-19:26:41.419|56=QFXPRICES|98=0|108=30|141=Y|553=prices1602|554=sdfkj43kj|10=027|
8=FIX.4.4|9=106|35=A|34=1|49=PRC1602|52=20240904-19:30:44.455|56=QFXPRICES|98=0|108=30|141=Y|553=prices1602|554=sdfkj43kj|10=025|
8=FIX.4.4|9=106|35=A|34=1|49=PRC1602|52=20240904-19:34:47.728|56=QFXPRICES|98=0|108=30|141=Y|553=prices1602|554=sdfkj43kj|10=035|
8=FIX.4.4|9=106|35=A|34=1|49=PRC1602|52=20240904-19:35:48.495|56=QFXPRICES|98=0|108=30|141=Y|553=prices1602|554=sdfkj43kj|10=038|
8=FIX.4.4|9=106|35=A|34=1|49=PRC1602|52=20240904-19:36:49.423|56=QFXPRICES|98=0|108=30|141=Y|553=prices1602|554=sdfkj43kj|10=031|
8=FIX.4.4|9=106|35=A|34=1|49=PRC1602|52=20240904-19:38:51.420|56=QFXPRICES|98=0|108=30|141=Y|553=prices1602|554=sdfkj43kj|10=023|
8=FIX.4.4|9=106|35=A|34=1|49=PRC1602|52=20240904-19:40:52.683|56=QFXPRICES|98=0|108=30|141=Y|553=prices1602|554=sdfkj43kj|10=028|
8=FIX.4.4|9=106|35=A|34=1|49=PRC1602|52=20240904-19:41:53.531|56=QFXPRICES|98=0|108=30|141=Y|553=prices1602|554=sdfkj43kj|10=022|
8=FIX.4.4|9=106|35=A|34=1|49=PRC1602|52=20240904-19:42:54.428|56=QFXPRICES|98=0|108=30|141=Y|553=prices1602|554=sdfkj43kj|10=029|
8=FIX.4.4|9=106|35=A|34=1|49=PRC1602|52=20240904-19:47:58.424|56=QFXPRICES|98=0|108=30|141=Y|553=prices1602|554=sdfkj43kj|10=034|
8=FIX.4.4|9=106|35=A|34=1|49=PRC1602|52=20240904-19:48:59.419|56=QFXPRICES|98=0|108=30|141=Y|553=prices1602|554=sdfkj43kj|10=040|
8=FIX.4.4|9=106|35=A|34=1|49=PRC1602|52=20240904-19:53:02.471|56=QFXPRICES|98=0|108=30|141=Y|553=prices1602|554=sdfkj43kj|10=022|
8=FIX.4.4|9=106|35=A|34=1|49=PRC1602|52=20240904-19:54:03.423|56=QFXPRICES|98=0|108=30|141=Y|553=prices1602|554=sdfkj43kj|10=021|
8=FIX.4.4|9=106|35=A|34=1|49=PRC1602|52=20240904-19:55:04.428|56=QFXPRICES|98=0|108=30|141=Y|553=prices1602|554=sdfkj43kj|10=028|
8=FIX.4.4|9=106|35=A|34=1|49=PRC1602|52=20240904-19:56:04.421|56=QFXPRICES|98=0|108=30|141=Y|553=prices1602|554=sdfkj43kj|10=022|
8=FIX.4.4|9=106|35=A|34=1|49=PRC1602|52=20240904-19:57:05.430|56=QFXPRICES|98=0|108=30|141=Y|553=prices1602|554=sdfkj43kj|10=024|
8=FIX.4.4|9=106|35=A|34=1|49=PRC1602|52=20240904-19:58:06.426|56=QFXPRICES|98=0|108=30|141=Y|553=prices1602|554=sdfkj43kj|10=031|
8=FIX.4.4|9=106|35=A|34=1|49=PRC1602|52=20240904-20:01:15.719|56=QFXPRICES|98=0|108=30|141=Y|553=prices1602|554=sdfkj43kj|10=016|
8=FIX.4.4|9=106|35=A|34=1|49=PRC1602|52=20240904-20:05:12.656|56=QFXPRICES|98=0|108=30|141=Y|553=prices1602|554=sdfkj43kj|10=017|
8=FIX.4.4|9=106|35=A|34=1|49=PRC1602|52=20240904-20:06:12.498|56=QFXPRICES|98=0|108=30|141=Y|553=prices1602|554=sdfkj43kj|10=022|
8=FIX.4.4|9=106|35=A|34=1|49=PRC1602|52=20240904-20:07:15.419|56=QFXPRICES|98=0|108=30|141=Y|553=prices1602|554=sdfkj43kj|10=019|
8=FIX.4.4|9=106|35=A|34=1|49=PRC1602|52=20240904-20:10:15.599|56=QFXPRICES|98=0|108=30|141=Y|553=prices1602|554=sdfkj43kj|10=022|
8=FIX.4.4|9=106|35=A|34=1|49=PRC1602|52=20240904-20:11:16.424|56=QFXPRICES|98=0|108=30|141=Y|553=prices1602|554=sdfkj43kj|10=011|
8=FIX.4.4|9=106|35=A|34=1|49=PRC1602|52=20240904-20:12:18.137|56=QFXPRICES|98=0|108=30|141=Y|553=prices1602|554=sdfkj43kj|10=015|
8=FIX.4.4|9=106|35=A|34=1|49=PRC1602|52=20240904-20:15:19.546|56=QFXPRICES|98=0|108=30|141=Y|553=prices1602|554=sdfkj43kj|10=023|
8=FIX.4.4|9=106|35=A|34=1|49=PRC1602|52=20240904-20:20:23.562|56=QFXPRICES|98=0|108=30|141=Y|553=prices1602|554=sdfkj43kj|10=012|
8=FIX.4.4|9=106|35=A|34=1|49=PRC1602|52=20240904-20:21:24.501|56=QFXPRICES|98=0|108=30|141=Y|553=prices1602|554=sdfkj43kj|10=007|
8=FIX.4.4|9=106|35=A|34=1|49=PRC1602|52=20240904-20:22:25.429|56=QFXPRICES|98=0|108=30|141=Y|553=prices1602|554=sdfkj43kj|10=018|
8=FIX.4.4|9=106|35=A|34=1|49=PRC1602|52=20240904-20:26:29.656|56=QFXPRICES|98=0|108=30|141=Y|553=prices1602|554=sdfkj43kj|10=028|
8=FIX.4.4|9=106|35=A|34=1|49=PRC1602|52=20240904-20:27:29.433|56=QFXPRICES|98=0|108=30|141=Y|553=prices1602|554=sdfkj43kj|10=022|
8=FIX.4.4|9=106|35=A|34=1|49=PRC1602|52=20240904-20:28:30.426|56=QFXPRICES|98=0|108=30|141=Y|553=prices1602|554=sdfkj43kj|10=017|
8=FIX.4.4|9=106|35=A|34=1|49=PRC1602|52=20240904-20:36:36.634|56=QFXPRICES|98=0|108=30|141=Y|553=prices1602|554=sdfkj43kj|10=023|
8=FIX.4.4|9=106|35=A|34=1|49=PRC1602|52=20240904-20:37:37.449|56=QFXPRICES|98=0|108=30|141=Y|553=prices1602|554=sdfkj43kj|10=029|
8=FIX.4.4|9=106|35=A|34=1|49=PRC1602|52=20240904-20:43:42.489|56=QFXPRICES|98=0|108=30|141=Y|553=prices1602|554=sdfkj43kj|10=026|
8=FIX.4.4|9=106|35=A|34=1|49=PRC1602|52=20240904-20:44:43.420|56=QFXPRICES|98=0|108=30|141=Y|553=prices1602|554=sdfkj43kj|10=013|
8=FIX.4.4|9=106|35=A|34=1|49=PRC1602|52=20240904-20:51:49.471|56=QFXPRICES|98=0|108=30|141=Y|553=prices1602|554=sdfkj43kj|10=023|
8=FIX.4.4|9=106|35=A|34=1|49=PRC1602|52=20240904-20:56:53.447|56=QFXPRICES|98=0|108=30|141=Y|553=prices1602|554=sdfkj43kj|10=026|
8=FIX.4.4|9=106|35=A|34=1|49=PRC1602|52=20240904-21:02:10.945|56=QFXPRICES|98=0|108=30|141=Y|553=prices1602|554=sdfkj43kj|10=014|
8=FIX.4.4|9=106|35=A|34=1|49=PRC1602|52=20240904-21:03:11.416|56=QFXPRICES|98=0|108=30|141=Y|553=prices1602|554=sdfkj43kj|10=009|
8=FIX.4.4|9=106|35=A|34=1|49=PRC1602|52=20240904-21:12:18.578|56=QFXPRICES|98=0|108=30|141=Y|553=prices1602|554=sdfkj43kj|10=025|
8=FIX.4.4|9=106|35=A|34=1|49=PRC1602|52=20240907-19:13:11.660|56=QFXPRICES|98=0|108=30|141=Y|553=prices1602|554=sdfkj43kj|10=021|
8=FIX.4.4|9=106|35=A|34=1|49=PRC1602|52=20240907-19:18:07.702|56=QFXPRICES|98=0|108=30|141=Y|553=prices1602|554=sdfkj43kj|10=028|
8=FIX.4.4|9=106|35=A|34=1|49=PRC1602|52=20240907-19:33:43.322|56=QFXPRICES|98=0|108=30|141=Y|553=prices1602|554=sdfkj43kj|10=023|
8=FIX.4.4|9=106|35=A|34=1|49=PRC1602|52=20240907-19:34:59.416|56=QFXPRICES|98=0|108=30|141=Y|553=prices1602|554=sdfkj43kj|10=035|
8=FIX.4.4|9=106|35=A|34=1|49=PRC1602|52=20240907-19:42:03.607|56=QFXPRICES|98=0|108=30|141=Y|553=prices1602|554=sdfkj43kj|10=025|
8=FIX.4.4|9=106|35=A|34=1|49=PRC1602|52=20240907-19:43:04.535|56=QFXPRICES|98=0|108=30|141=Y|553=prices1602|554=sdfkj43kj|10=027|
8=FIX.4.4|9=106|35=A|34=1|49=PRC1602|52=20240907-19:44:05.405|56=QFXPRICES|98=0|108=30|141=Y|553=prices1602|554=sdfkj43kj|10=025|
8=FIX.4.4|9=106|35=A|34=1|49=PRC1602|52=20240907-19:47:07.439|56=QFXPRICES|98=0|108=30|141=Y|553=prices1602|554=sdfkj43kj|10=037|
8=FIX.4.4|9=106|35=A|34=1|49=PRC1602|52=20240907-19:48:08.396|56=QFXPRICES|98=0|108=30|141=Y|553=prices1602|554=sdfkj43kj|10=041|
8=FIX.4.4|9=106|35=A|34=1|49=PRC1602|52=20240907-19:50:10.405|56=QFXPRICES|98=0|108=30|141=Y|553=prices1602|554=sdfkj43kj|10=018|
8=FIX.4.4|9=106|35=A|34=1|49=PRC1602|52=20240907-19:51:10.403|56=QFXPRICES|98=0|108=30|141=Y|553=prices1602|554=sdfkj43kj|10=017|
8=FIX.4.4|9=106|35=A|34=1|49=PRC1602|52=20240907-19:53:10.400|56=QFXPRICES|98=0|108=30|141=Y|553=prices1602|554=sdfkj43kj|10=016|
8=FIX.4.4|9=106|35=A|34=1|49=PRC1602|52=20240907-19:54:11.811|56=QFXPRICES|98=0|108=30|141=Y|553=prices1602|554=sdfkj43kj|10=024|
8=FIX.4.4|9=106|35=A|34=1|49=PRC1602|52=20240907-19:57:13.638|56=QFXPRICES|98=0|108=30|141=Y|553=prices1602|554=sdfkj43kj|10=036|
8=FIX.4.4|9=106|35=A|34=1|49=PRC1602|52=20240907-19:59:14.570|56=QFXPRICES|98=0|108=30|141=Y|553=prices1602|554=sdfkj43kj|10=034|
8=FIX.4.4|9=106|35=A|34=1|49=PRC1602|52=20240907-20:00:15.603|56=QFXPRICES|98=0|108=30|141=Y|553=prices1602|554=sdfkj43kj|10=010|
8=FIX.4.4|9=106|35=A|34=1|49=PRC1602|52=20240907-20:01:15.540|56=QFXPRICES|98=0|108=30|141=Y|553=prices1602|554=sdfkj43kj|10=011|
8=FIX.4.4|9=106|35=A|34=1|49=PRC1602|52=20240907-20:02:16.432|56=QFXPRICES|98=0|108=30|141=Y|553=prices1602|554=sdfkj43kj|10=013|
8=FIX.4.4|9=106|35=A|34=1|49=PRC1602|52=20240907-20:03:17.422|56=QFXPRICES|98=0|108=30|141=Y|553=prices1602|554=sdfkj43kj|10=014|
8=FIX.4.4|9=106|35=A|34=1|49=PRC1602|52=20240907-20:06:22.643|56=QFXPRICES|98=0|108=30|141=Y|553=prices1602|554=sdfkj43kj|10=018|
8=FIX.4.4|9=106|35=A|34=1|49=PRC1602|52=20240907-20:08:22.554|56=QFXPRICES|98=0|108=30|141=Y|553=prices1602|554=sdfkj43kj|10=021|
8=FIX.4.4|9=106|35=A|34=1|49=PRC1602|52=20240907-20:09:22.831|56=QFXPRICES|98=0|108=30|141=Y|553=prices1602|554=sdfkj43kj|10=020|
8=FIX.4.4|9=106|35=A|34=1|49=PRC1602|52=20240907-20:11:25.404|56=QFXPRICES|98=0|108=30|141=Y|553=prices1602|554=sdfkj43kj|10=012|
8=FIX.4.4|9=106|35=A|34=1|49=PRC1602|52=20240907-20:12:23.752|56=QFXPRICES|98=0|108=30|141=Y|553=prices1602|554=sdfkj43kj|10=017|
8=FIX.4.4|9=106|35=A|34=1|49=PRC1602|52=20240907-20:14:25.398|56=QFXPRICES|98=0|108=30|141=Y|553=prices1602|554=sdfkj43kj|10=027|
8=FIX.4.4|9=106|35=A|34=1|49=PRC1602|52=20240907-20:17:26.467|56=QFXPRICES|98=0|108=30|141=Y|553=prices1602|554=sdfkj43kj|10=028|
8=FIX.4.4|9=106|35=A|34=1|49=PRC1602|52=20240907-20:18:27.400|56=QFXPRICES|98=0|108=30|141=Y|553=prices1602|554=sdfkj43kj|10=017|
8=FIX.4.4|9=106|35=A|34=1|49=PRC1602|52=20240907-20:19:28.700|56=QFXPRICES|98=0|108=30|141=Y|553=prices1602|554=sdfkj43kj|10=022|
8=FIX.4.4|9=106|35=A|34=1|49=PRC1602|52=20240907-20:20:28.549|56=QFXPRICES|98=0|108=30|141=Y|553=prices1602|554=sdfkj43kj|10=025|
8=FIX.4.4|9=106|35=A|34=1|49=PRC1602|52=20240907-20:21:29.504|56=QFXPRICES|98=0|108=30|141=Y|553=prices1602|554=sdfkj43kj|10=018|
8=FIX.4.4|9=106|35=A|34=1|49=PRC1602|52=20240907-20:22:29.540|56=QFXPRICES|98=0|108=30|141=Y|553=prices1602|554=sdfkj43kj|10=019|
8=FIX.4.4|9=106|35=A|34=1|49=PRC1602|52=20240907-20:23:29.640|56=QFXPRICES|98=0|108=30|141=Y|553=prices1602|554=sdfkj43kj|10=021|
8=FIX.4.4|9=106|35=A|34=1|49=PRC1602|52=20240907-20:24:31.424|56=QFXPRICES|98=0|108=30|141=Y|553=prices1602|554=sdfkj43kj|10=015|
8=FIX.4.4|9=106|35=A|34=1|49=PRC1602|52=20240907-20:25:31.403|56=QFXPRICES|98=0|108=30|141=Y|553=prices1602|554=sdfkj43kj|10=013|
8=FIX.4.4|9=106|35=A|34=1|49=PRC1602|52=20240907-20:26:32.403|56=QFXPRICES|98=0|108=30|141=Y|553=prices1602|554=sdfkj43kj|10=015|
8=FIX.4.4|9=106|35=A|34=1|49=PRC1602|52=20240907-20:28:34.981|56=QFXPRICES|98=0|108=30|141=Y|553=prices1602|554=sdfkj43kj|10=030|
8=FIX.4.4|9=106|35=A|34=1|49=PRC1602|52=20240907-20:29:35.391|56=QFXPRICES|98=0|108=30|141=Y|553=prices1602|554=sdfkj43kj|10=027|
8=FIX.4.4|9=106|35=A|34=1|49=PRC1602|52=20240907-20:30:35.423|56=QFXPRICES|98=0|108=30|141=Y|553=prices1602|554=sdfkj43kj|10=015|
8=FIX.4.4|9=106|35=A|34=1|49=PRC1602|52=20240907-20:31:35.804|56=QFXPRICES|98=0|108=30|141=Y|553=prices1602|554=sdfkj43kj|10=019|
8=FIX.4.4|9=106|35=A|34=1|49=PRC1602|52=20240907-20:33:36.543|56=QFXPRICES|98=0|108=30|141=Y|553=prices1602|554=sdfkj43kj|10=022|
8=FIX.4.4|9=106|35=A|34=1|49=PRC1602|52=20240907-20:36:38.577|56=QFXPRICES|98=0|108=30|141=Y|553=prices1602|554=sdfkj43kj|10=034|
8=FIX.4.4|9=106|35=A|34=1|49=PRC1602|52=20240907-20:38:39.390|56=QFXPRICES|98=0|108=30|141=Y|553=prices1602|554=sdfkj43kj|10=030|
8=FIX.4.4|9=106|35=A|34=1|49=PRC1602|52=20240907-20:43:43.613|56=QFXPRICES|98=0|108=30|141=Y|553=prices1602|554=sdfkj43kj|10=019|
8=FIX.4.4|9=106|35=A|34=1|49=PRC1602|52=20240907-20:44:43.633|56=QFXPRICES|98=0|108=30|141=Y|553=prices1602|554=sdfkj43kj|10=022|
8=FIX.4.4|9=106|35=A|34=1|49=PRC1602|52=20240907-20:45:43.541|56=QFXPRICES|98=0|108=30|141=Y|553=prices1602|554=sdfkj43kj|10=021|
8=FIX.4.4|9=106|35=A|34=1|49=PRC1602|52=20240907-20:46:44.466|56=QFXPRICES|98=0|108=30|141=Y|553=prices1602|554=sdfkj43kj|10=029|
8=FIX.4.4|9=106|35=A|34=1|49=PRC1602|52=20240907-20:47:45.393|56=QFXPRICES|98=0|108=30|141=Y|553=prices1602|554=sdfkj43kj|10=030|
8=FIX.4.4|9=106|35=A|34=1|49=PRC1602|52=20240907-20:48:45.397|56=QFXPRICES|98=0|108=30|141=Y|553=prices1602|554=sdfkj43kj|10=035|
8=FIX.4.4|9=106|35=A|34=1|49=PRC1602|52=20240907-20:51:49.109|56=QFXPRICES|98=0|108=30|141=Y|553=prices1602|554=sdfkj43kj|10=024|
8=FIX.4.4|9=106|35=A|34=1|49=PRC1602|52=20240907-20:56:52.517|56=QFXPRICES|98=0|108=30|141=Y|553=prices1602|554=sdfkj43kj|10=026|
8=FIX.4.4|9=106|35=A|34=1|49=PRC1602|52=20240907-20:57:53.551|56=QFXPRICES|98=0|108=30|141=Y|553=prices1602|554=sdfkj43kj|10=026|
8=FIX.4.4|9=106|35=A|34=1|49=PRC1602|52=20240907-20:58:54.391|56=QFXPRICES|98=0|108=30|141=Y|553=prices1602|554=sdfkj43kj|10=030|
8=FIX.4.4|9=106|35=A|34=1|49=PRC1602|52=20240907-21:04:00.350|56=QFXPRICES|98=0|108=30|141=Y|553=prices1602|554=sdfkj43kj|10=008|
8=FIX.4.4|9=106|35=A|34=1|49=PRC1602|52=20240907-21:10:03.578|56=QFXPRICES|98=0|108=30|141=Y|553=prices1602|554=sdfkj43kj|10=020|
8=FIX.4.4|9=106|35=A|34=1|49=PRC1602|52=20240907-21:11:04.496|56=QFXPRICES|98=0|108=30|141=Y|553=prices1602|554=sdfkj43kj|10=021|
8=FIX.4.4|9=106|35=A|34=1|49=PRC1602|52=20240907-21:12:05.393|56=QFXPRICES|98=0|108=30|141=Y|553=prices1602|554=sdfkj43kj|10=019|
8=FIX.4.4|9=106|35=A|34=1|49=PRC1602|52=20240907-21:21:12.568|56=QFXPRICES|98=0|108=30|141=Y|553=prices1602|554=sdfkj43kj|10=021|
8=FIX.4.4|9=106|35=A|34=1|49=PRC1602|52=20240907-21:22:13.408|56=QFXPRICES|98=0|108=30|141=Y|553=prices1602|554=sdfkj43kj|10=016|
8=FIX.4.4|9=106|35=A|34=1|49=PRC1602|52=20240907-21:23:14.403|56=QFXPRICES|98=0|108=30|141=Y|553=prices1602|554=sdfkj43kj|10=013|
8=FIX.4.4|9=106|35=A|34=1|49=PRC1602|52=20240907-21:41:48.053|56=QFXPRICES|98=0|108=30|141=Y|553=prices1602|554=sdfkj43kj|10=021|
8=FIX.4.4|9=106|35=A|34=1|49=PRC1602|52=20240907-22:01:39.841|56=QFXPRICES|98=0|108=30|141=Y|553=prices1602|554=sdfkj43kj|10=023|
8=FIX.4.4|9=106|35=A|34=1|49=PRC1602|52=20240907-22:02:40.890|56=QFXPRICES|98=0|108=30|141=Y|553=prices1602|554=sdfkj43kj|10=020|
8=FIX.4.4|9=106|35=A|34=1|49=PRC1602|52=20240907-22:03:41.704|56=QFXPRICES|98=0|108=30|141=Y|553=prices1602|554=sdfkj43kj|10=016|
8=FIX.4.4|9=106|35=A|34=1|49=PRC1602|52=20240907-22:04:42.701|56=QFXPRICES|98=0|108=30|141=Y|553=prices1602|554=sdfkj43kj|10=015|
8=FIX.4.4|9=106|35=A|34=1|49=PRC1602|52=20240908-13:20:31.842|56=QFXPRICES|98=0|108=30|141=Y|553=prices1602|554=sdfkj43kj|10=018|
8=FIX.4.4|9=106|35=A|34=1|49=PRC1602|52=20240908-13:24:34.840|56=QFXPRICES|98=0|108=30|141=Y|553=prices1602|554=sdfkj43kj|10=023|
8=FIX.4.4|9=106|35=A|34=1|49=PRC1602|52=20240908-13:54:33.719|56=QFXPRICES|98=0|108=30|141=Y|553=prices1602|554=sdfkj43kj|10=030|
8=FIX.4.4|9=106|35=A|34=1|49=PRC1602|52=20240908-13:58:36.797|56=QFXPRICES|98=0|108=30|141=Y|553=prices1602|554=sdfkj43kj|10=043|
8=FIX.4.4|9=106|35=A|34=1|49=PRC1602|52=20240908-13:59:37.635|56=QFXPRICES|98=0|108=30|141=Y|553=prices1602|554=sdfkj43kj|10=036|
8=FIX.4.4|9=106|35=A|34=1|49=PRC1602|52=20240908-14:02:39.764|56=QFXPRICES|98=0|108=30|141=Y|553=prices1602|554=sdfkj43kj|10=030|
8=FIX.4.4|9=106|35=A|34=1|49=PRC1602|52=20240908-14:05:11.544|56=QFXPRICES|98=0|108=30|141=Y|553=prices1602|554=sdfkj43kj|10=019|
8=FIX.4.4|9=106|35=A|34=1|49=PRC1602|52=20240908-14:06:12.358|56=QFXPRICES|98=0|108=30|141=Y|553=prices1602|554=sdfkj43kj|10=024|
8=FIX.4.4|9=106|35=A|34=1|49=PRC1602|52=20240908-14:09:14.510|56=QFXPRICES|98=0|108=30|141=Y|553=prices1602|554=sdfkj43kj|10=019|
8=FIX.4.4|9=106|35=A|34=1|49=PRC1602|52=20240908-14:15:52.414|56=QFXPRICES|98=0|108=30|141=Y|553=prices1602|554=sdfkj43kj|10=021|
8=FIX.4.4|9=106|35=A|34=1|49=PRC1602|52=20240908-14:18:54.552|56=QFXPRICES|98=0|108=30|141=Y|553=prices1602|554=sdfkj43kj|10=029|
8=FIX.4.4|9=106|35=A|34=1|49=PRC1602|52=20240908-14:19:55.420|56=QFXPRICES|98=0|108=30|141=Y|553=prices1602|554=sdfkj43kj|10=025|
8=FIX.4.4|9=106|35=A|34=1|49=PRC1602|52=20240908-14:23:58.409|56=QFXPRICES|98=0|108=30|141=Y|553=prices1602|554=sdfkj43kj|10=030|
8=FIX.4.4|9=106|35=A|34=1|49=PRC1602|52=20240908-14:29:02.546|56=QFXPRICES|98=0|108=30|141=Y|553=prices1602|554=sdfkj43kj|10=027|
8=FIX.4.4|9=106|35=A|34=1|49=PRC1602|52=20240908-14:30:03.413|56=QFXPRICES|98=0|108=30|141=Y|553=prices1602|554=sdfkj43kj|10=013|
8=FIX.4.4|9=106|35=A|34=1|49=PRC1602|52=20240908-14:33:05.445|56=QFXPRICES|98=0|108=30|141=Y|553=prices1602|554=sdfkj43kj|10=023|
8=FIX.4.4|9=106|35=A|34=1|49=PRC1602|52=20240908-14:36:07.411|56=QFXPRICES|98=0|108=30|141=Y|553=prices1602|554=sdfkj43kj|10=021|
8=FIX.4.4|9=106|35=A|34=1|49=PRC1602|52=20240908-14:41:10.414|56=QFXPRICES|98=0|108=30|141=Y|553=prices1602|554=sdfkj43kj|10=014|
8=FIX.4.4|9=106|35=A|34=1|49=PRC1602|52=20240908-14:43:12.420|56=QFXPRICES|98=0|108=30|141=Y|553=prices1602|554=sdfkj43kj|10=015|
8=FIX.4.4|9=106|35=A|34=1|49=PRC1602|52=20240908-14:47:14.529|56=QFXPRICES|98=0|108=30|141=Y|553=prices1602|554=sdfkj43kj|10=031|
8=FIX.4.4|9=106|35=A|34=1|49=PRC1602|52=20240908-14:48:15.407|56=QFXPRICES|98=0|108=30|141=Y|553=prices1602|554=sdfkj43kj|10=028|
8=FIX.4.4|9=106|35=A|34=1|49=PRC1602|52=20240908-14:54:20.646|56=QFXPRICES|98=0|108=30|141=Y|553=prices1602|554=sdfkj43kj|10=026|
8=FIX.4.4|9=106|35=A|34=1|49=PRC1602|52=20240908-14:55:21.411|56=QFXPRICES|98=0|108=30|141=Y|553=prices1602|554=sdfkj43kj|10=018|
8=FIX.4.4|9=106|35=A|34=1|49=PRC1602|52=20240908-14:56:22.418|56=QFXPRICES|98=0|108=30|141=Y|553=prices1602|554=sdfkj43kj|10=027|
8=FIX.4.4|9=106|35=A|34=1|49=PRC1602|52=20240908-14:57:23.416|56=QFXPRICES|98=0|108=30|141=Y|553=prices1602|554=sdfkj43kj|10=027|
8=FIX.4.4|9=106|35=A|34=1|49=PRC1602|52=20240908-15:02:27.489|56=QFXPRICES|98=0|108=30|141=Y|553=prices1602|554=sdfkj43kj|10=032|
8=FIX.4.4|9=106|35=A|34=1|49=PRC1602|52=20240908-15:07:31.572|56=QFXPRICES|98=0|108=30|141=Y|553=prices1602|554=sdfkj43kj|10=025|
8=FIX.4.4|9=106|35=A|34=1|49=PRC1602|52=20240908-15:14:36.414|56=QFXPRICES|98=0|108=30|141=Y|553=prices1602|554=sdfkj43kj|10=023|
8=FIX.4.4|9=106|35=A|34=1|49=PRC1602|52=20240908-15:18:39.436|56=QFXPRICES|98=0|108=30|141=Y|553=prices1602|554=sdfkj43kj|10=034|
8=FIX.4.4|9=106|35=A|34=1|49=PRC1602|52=20240908-15:19:40.420|56=QFXPRICES|98=0|108=30|141=Y|553=prices1602|554=sdfkj43kj|10=020|
8=FIX.4.4|9=106|35=A|34=1|49=PRC1602|52=20240908-15:23:43.407|56=QFXPRICES|98=0|108=30|141=Y|553=prices1602|554=sdfkj43kj|10=023|
8=FIX.4.4|9=106|35=A|34=1|49=PRC1602|52=20240908-15:25:44.408|56=QFXPRICES|98=0|108=30|141=Y|553=prices1602|554=sdfkj43kj|10=027|
8=FIX.4.4|9=106|35=A|34=1|49=PRC1602|52=20240908-15:29:47.419|56=QFXPRICES|98=0|108=30|141=Y|553=prices1602|554=sdfkj43kj|10=036|
8=FIX.4.4|9=106|35=A|34=1|49=PRC1602|52=20240908-15:33:50.522|56=QFXPRICES|98=0|108=30|141=Y|553=prices1602|554=sdfkj43kj|10=020|
8=FIX.4.4|9=106|35=A|34=1|49=PRC1602|52=20240908-15:34:51.526|56=QFXPRICES|98=0|108=30|141=Y|553=prices1602|554=sdfkj43kj|10=026|
8=FIX.4.4|9=106|35=A|34=1|49=PRC1602|52=20240908-15:35:52.411|56=QFXPRICES|98=0|108=30|141=Y|553=prices1602|554=sdfkj43kj|10=021|
8=FIX.4.4|9=106|35=A|34=1|49=PRC1602|52=20240908-15:40:56.474|56=QFXPRICES|98=0|108=30|141=Y|553=prices1602|554=sdfkj43kj|10=030|
8=FIX.4.4|9=106|35=A|34=1|49=PRC1602|52=20240908-15:44:59.413|56=QFXPRICES|98=0|108=30|141=Y|553=prices1602|554=sdfkj43kj|10=030|
8=FIX.4.4|9=106|35=A|34=1|49=PRC1602|52=20240908-15:50:03.422|56=QFXPRICES|98=0|108=30|141=Y|553=prices1602|554=sdfkj43kj|10=016|
8=FIX.4.4|9=106|35=A|34=1|49=PRC1602|52=20240908-15:54:06.413|56=QFXPRICES|98=0|108=30|141=Y|553=prices1602|554=sdfkj43kj|10=023|
8=FIX.4.4|9=106|35=A|34=1|49=PRC1602|52=20240908-16:02:12.653|56=QFXPRICES|98=0|108=30|141=Y|553=prices1602|554=sdfkj43kj|10=020|
8=FIX.4.4|9=106|35=A|34=1|49=PRC1602|52=20240908-16:03:13.593|56=QFXPRICES|98=0|108=30|141=Y|553=prices1602|554=sdfkj43kj|10=025|
8=FIX.4.4|9=106|35=A|34=1|49=PRC1602|52=20240908-16:04:14.485|56=QFXPRICES|98=0|108=30|141=Y|553=prices1602|554=sdfkj43kj|10=027|
8=FIX.4.4|9=106|35=A|34=1|49=PRC1602|52=20240908-16:05:15.406|56=QFXPRICES|98=0|108=30|141=Y|553=prices1602|554=sdfkj43kj|10=022|
8=FIX.4.4|9=106|35=A|34=1|49=PRC1602|52=20240908-16:09:18.550|56=QFXPRICES|98=0|108=30|141=Y|553=prices1602|554=sdfkj43kj|10=029|
8=FIX.4.4|9=106|35=A|34=1|49=PRC1602|52=20240908-16:10:19.417|56=QFXPRICES|98=0|108=30|141=Y|553=prices1602|554=sdfkj43kj|10=024|
8=FIX.4.4|9=106|35=A|34=1|49=PRC1602|52=20240908-16:15:23.411|56=QFXPRICES|98=0|108=30|141=Y|553=prices1602|554=sdfkj43kj|10=018|
8=FIX.4.4|9=106|35=A|34=1|49=PRC1602|52=20240908-16:19:26.413|56=QFXPRICES|98=0|108=30|141=Y|553=prices1602|554=sdfkj43kj|10=027|
8=FIX.4.4|9=106|35=A|34=1|49=PRC1602|52=20240908-16:24:30.469|56=QFXPRICES|98=0|108=30|141=Y|553=prices1602|554=sdfkj43kj|10=029|
8=FIX.4.4|9=106|35=A|34=1|49=PRC1602|52=20240908-16:25:31.419|56=QFXPRICES|98=0|108=30|141=Y|553=prices1602|554=sdfkj43kj|10=026|
8=FIX.4.4|9=106|35=A|34=1|49=PRC1602|52=20240908-16:29:34.495|56=QFXPRICES|98=0|108=30|141=Y|553=prices1602|554=sdfkj43kj|10=037|
8=FIX.4.4|9=106|35=A|34=1|49=PRC1602|52=20240908-19:02:23.668|56=QFXPRICES|98=0|108=30|141=Y|553=prices1602|554=sdfkj43kj|10=031|
8=FIX.4.4|9=106|35=A|34=1|49=PRC1602|52=20240908-19:03:24.523|56=QFXPRICES|98=0|108=30|141=Y|553=prices1602|554=sdfkj43kj|10=023|
8=FIX.4.4|9=106|35=A|34=1|49=PRC1602|52=20240908-19:04:25.404|56=QFXPRICES|98=0|108=30|141=Y|553=prices1602|554=sdfkj43kj|10=023|
8=FIX.4.4|9=106|35=A|34=1|49=PRC1602|52=20240908-19:06:26.970|56=QFXPRICES|98=0|108=30|141=Y|553=prices1602|554=sdfkj43kj|10=034|
8=FIX.4.4|9=106|35=A|34=1|49=PRC1602|52=20240908-19:07:28.401|56=QFXPRICES|98=0|108=30|141=Y|553=prices1602|554=sdfkj43kj|10=026|
8=FIX.4.4|9=106|35=A|34=1|49=PRC1602|52=20240908-19:11:30.504|56=QFXPRICES|98=0|108=30|141=Y|553=prices1602|554=sdfkj43kj|10=018|
8=FIX.4.4|9=106|35=A|34=1|49=PRC1602|52=20240908-19:12:31.525|56=QFXPRICES|98=0|108=30|141=Y|553=prices1602|554=sdfkj43kj|10=023|
8=FIX.4.4|9=106|35=A|34=1|49=PRC1602|52=20240908-19:13:32.394|56=QFXPRICES|98=0|108=30|141=Y|553=prices1602|554=sdfkj43kj|10=029|
8=FIX.4.4|9=106|35=A|34=1|49=PRC1602|52=20240908-19:14:33.395|56=QFXPRICES|98=0|108=30|141=Y|553=prices1602|554=sdfkj43kj|10=032|
8=FIX.4.4|9=106|35=A|34=1|49=PRC1602|52=20240908-19:16:35.397|56=QFXPRICES|98=0|108=30|141=Y|553=prices1602|554=sdfkj43kj|10=038|
8=FIX.4.4|9=106|35=A|34=1|49=PRC1602|52=20240908-19:17:36.404|56=QFXPRICES|98=0|108=30|141=Y|553=prices1602|554=sdfkj43kj|10=029|
8=FIX.4.4|9=106|35=A|34=1|49=PRC1602|52=20241002-11:13:38.445|56=QFXPRICES|98=0|108=30|141=Y|553=prices1602|554=sdfkj43kj|10=010|
8=FIX.4.4|9=106|35=A|34=1|49=PRC1602|52=20241002-11:17:41.314|56=QFXPRICES|98=0|108=30|141=Y|553=prices1602|554=sdfkj43kj|10=003|
8=FIX.4.4|9=106|35=A|34=1|49=PRC1602|52=20241002-11:21:47.567|56=QFXPRICES|98=0|108=30|141=Y|553=prices1602|554=sdfkj43kj|10=014|
8=FIX.4.4|9=106|35=A|34=1|49=PRC1602|52=20241002-11:22:48.364|56=QFXPRICES|98=0|108=30|141=Y|553=prices1602|554=sdfkj43kj|10=011|
8=FIX.4.4|9=106|35=A|34=1|49=PRC1602|52=20241002-11:25:50.774|56=QFXPRICES|98=0|108=30|141=Y|553=prices1602|554=sdfkj43kj|10=012|
8=FIX.4.4|9=106|35=A|34=1|49=PRC1602|52=20241002-11:26:50.376|56=QFXPRICES|98=0|108=30|141=Y|553=prices1602|554=sdfkj43kj|10=011|
8=FIX.4.4|9=106|35=A|34=1|49=PRC1602|52=20241002-11:30:53.403|56=QFXPRICES|98=0|108=30|141=Y|553=prices1602|554=sdfkj43kj|10=000|
8=FIX.4.4|9=106|35=A|34=1|49=PRC1602|52=20241002-11:31:54.345|56=QFXPRICES|98=0|108=30|141=Y|553=prices1602|554=sdfkj43kj|10=007|
8=FIX.4.4|9=106|35=A|34=1|49=PRC1602|52=20241002-11:35:57.312|56=QFXPRICES|98=0|108=30|141=Y|553=prices1602|554=sdfkj43kj|10=008|
8=FIX.4.4|9=106|35=A|34=1|49=PRC1602|52=20241002-11:40:00.309|56=QFXPRICES|98=0|108=30|141=Y|553=prices1602|554=sdfkj43kj|10=254|
8=FIX.4.4|9=106|35=A|34=1|49=PRC1602|52=20241002-11:44:03.297|56=QFXPRICES|98=0|108=30|141=Y|553=prices1602|554=sdfkj43kj|10=011|
8=FIX.4.4|9=106|35=A|34=1|49=PRC1602|52=20241002-11:47:05.310|56=QFXPRICES|98=0|108=30|141=Y|553=prices1602|554=sdfkj43kj|10=002|
8=FIX.4.4|9=106|35=A|34=1|49=PRC1602|52=20241002-11:50:07.309|56=QFXPRICES|98=0|108=30|141=Y|553=prices1602|554=sdfkj43kj|10=006|
8=FIX.4.4|9=106|35=A|34=1|49=PRC1602|52=20241002-11:53:09.301|56=QFXPRICES|98=0|108=30|141=Y|553=prices1602|554=sdfkj43kj|10=003|
8=FIX.4.4|9=106|35=A|34=1|49=PRC1602|52=20241002-11:56:11.299|56=QFXPRICES|98=0|108=30|141=Y|553=prices1602|554=sdfkj43kj|10=015|
8=FIX.4.4|9=106|35=A|34=1|49=PRC1602|52=20241002-11:57:12.413|56=QFXPRICES|98=0|108=30|141=Y|553=prices1602|554=sdfkj43kj|10=005|
8=FIX.4.4|9=106|35=A|34=1|49=PRC1602|52=20241002-11:58:12.308|56=QFXPRICES|98=0|108=30|141=Y|553=prices1602|554=sdfkj43kj|10=009|
8=FIX.4.4|9=106|35=A|34=1|49=PRC1602|52=20241002-12:01:14.303|56=QFXPRICES|98=0|108=30|141=Y|553=prices1602|554=sdfkj43kj|10=251|
8=FIX.4.4|9=106|35=A|34=1|49=PRC1602|52=20241002-12:04:16.298|56=QFXPRICES|98=0|108=30|141=Y|553=prices1602|554=sdfkj43kj|10=013|
8=FIX.4.4|9=106|35=A|34=1|49=PRC1602|52=20241002-12:07:18.297|56=QFXPRICES|98=0|108=30|141=Y|553=prices1602|554=sdfkj43kj|10=017|
8=FIX.4.4|9=106|35=A|34=1|49=PRC1602|52=20241002-12:16:24.403|56=QFXPRICES|98=0|108=30|141=Y|553=prices1602|554=sdfkj43kj|10=003|
8=FIX.4.4|9=106|35=A|34=1|49=PRC1602|52=20241002-12:23:29.300|56=QFXPRICES|98=0|108=30|141=Y|553=prices1602|554=sdfkj43kj|10=002|
8=FIX.4.4|9=106|35=A|34=1|49=PRC1602|52=20241002-12:24:32.302|56=QFXPRICES|98=0|108=30|141=Y|553=prices1602|554=sdfkj43kj|10=255|
8=FIX.4.4|9=106|35=A|34=1|49=PRC1602|52=20241002-12:25:30.608|56=QFXPRICES|98=0|108=30|141=Y|553=prices1602|554=sdfkj43kj|10=007|
8=FIX.4.4|9=106|35=A|34=1|49=PRC1602|52=20241002-12:26:30.297|56=QFXPRICES|98=0|108=30|141=Y|553=prices1602|554=sdfkj43kj|10=012|
8=FIX.4.4|9=106|35=A|34=1|49=PRC1602|52=20241002-12:29:32.309|56=QFXPRICES|98=0|108=30|141=Y|553=prices1602|554=sdfkj43kj|10=011|
8=FIX.4.4|9=106|35=A|34=1|49=PRC1602|52=20241002-12:32:34.355|56=QFXPRICES|98=0|108=30|141=Y|553=prices1602|554=sdfkj43kj|10=008|
8=FIX.4.4|9=106|35=A|34=1|49=PRC1602|52=20241002-12:42:41.400|56=QFXPRICES|98=0|108=30|141=Y|553=prices1602|554=sdfkj43kj|10=254|
8=FIX.4.4|9=106|35=A|34=1|49=PRC1602|52=20241002-12:46:44.311|56=QFXPRICES|98=0|108=30|141=Y|553=prices1602|554=sdfkj43kj|10=006|
8=FIX.4.4|9=106|35=A|34=1|49=PRC1602|52=20241002-12:49:46.319|56=QFXPRICES|98=0|108=30|141=Y|553=prices1602|554=sdfkj43kj|10=019|
8=FIX.4.4|9=106|35=A|34=1|49=PRC1602|52=20241002-12:56:51.302|56=QFXPRICES|98=0|108=30|141=Y|553=prices1602|554=sdfkj43kj|10=005|
8=FIX.4.4|9=106|35=A|34=1|49=PRC1602|52=20241002-12:57:52.297|56=QFXPRICES|98=0|108=30|141=Y|553=prices1602|554=sdfkj43kj|10=020|
8=FIX.4.4|9=106|35=A|34=1|49=PRC1602|52=20241002-12:59:53.424|56=QFXPRICES|98=0|108=30|141=Y|553=prices1602|554=sdfkj43kj|10=015|
8=FIX.4.4|9=106|35=A|34=1|49=PRC1602|52=20241002-13:03:56.359|56=QFXPRICES|98=0|108=30|141=Y|553=prices1602|554=sdfkj43kj|10=015|
8=FIX.4.4|9=106|35=A|34=1|49=PRC1602|52=20241002-13:04:57.512|56=QFXPRICES|98=0|108=30|141=Y|553=prices1602|554=sdfkj43kj|10=008|
8=FIX.4.4|9=106|35=A|34=1|49=PRC1602|52=20241002-13:10:00.298|56=QFXPRICES|98=0|108=30|141=Y|553=prices1602|554=sdfkj43kj|10=004|
8=FIX.4.4|9=106|35=A|34=1|49=PRC1602|52=20241002-13:13:02.308|56=QFXPRICES|98=0|108=30|141=Y|553=prices1602|554=sdfkj43kj|10=001|
8=FIX.4.4|9=106|35=A|34=1|49=PRC1602|52=20241002-13:16:04.299|56=QFXPRICES|98=0|108=30|141=Y|553=prices1602|554=sdfkj43kj|10=015|
8=FIX.4.4|9=106|35=A|34=1|49=PRC1602|52=20241002-13:21:07.406|56=QFXPRICES|98=0|108=30|141=Y|553=prices1602|554=sdfkj43kj|10=004|
8=FIX.4.4|9=106|35=A|34=1|49=PRC1602|52=20241002-13:28:12.310|56=QFXPRICES|98=0|108=30|141=Y|553=prices1602|554=sdfkj43kj|10=001|
8=FIX.4.4|9=106|35=A|34=1|49=PRC1602|52=20241002-13:31:14.358|56=QFXPRICES|98=0|108=30|141=Y|553=prices1602|554=sdfkj43kj|10=009|
8=FIX.4.4|9=106|35=A|34=1|49=PRC1602|52=20241002-13:32:15.650|56=QFXPRICES|98=0|108=30|141=Y|553=prices1602|554=sdfkj43kj|10=006|
8=FIX.4.4|9=106|35=A|34=1|49=PRC1602|52=20241002-13:33:15.335|56=QFXPRICES|98=0|108=30|141=Y|553=prices1602|554=sdfkj43kj|10=007|
8=FIX.4.4|9=106|35=A|34=1|49=PRC1602|52=20241002-13:37:18.309|56=QFXPRICES|98=0|108=30|141=Y|553=prices1602|554=sdfkj43kj|10=015|
8=FIX.4.4|9=106|35=A|34=1|49=PRC1602|52=20241002-13:45:45.301|56=QFXPRICES|98=0|108=30|141=Y|553=prices1602|554=sdfkj43kj|10=006|
8=FIX.4.4|9=106|35=A|34=1|49=PRC1602|52=20241002-17:55:59.989|56=QFXPRICES|98=0|108=30|141=Y|553=prices1602|554=sdfkj43kj|10=038|
8=FIX.4.4|9=106|35=A|34=1|49=PRC1602|52=20241002-18:01:03.981|56=QFXPRICES|98=0|108=30|141=Y|553=prices1602|554=sdfkj43kj|10=011|
8=FIX.4.4|9=106|35=A|34=1|49=PRC1602|52=20241002-18:05:06.991|56=QFXPRICES|98=0|108=30|141=Y|553=prices1602|554=sdfkj43kj|10=019|
8=FIX.4.4|9=106|35=A|34=1|49=PRC1602|52=20241002-18:09:09.980|56=QFXPRICES|98=0|108=30|141=Y|553=prices1602|554=sdfkj43kj|10=024|
8=FIX.4.4|9=106|35=A|34=1|49=PRC1602|52=20241002-18:15:13.979|56=QFXPRICES|98=0|108=30|141=Y|553=prices1602|554=sdfkj43kj|10=024|
8=FIX.4.4|9=106|35=A|34=1|49=PRC1602|52=20241002-18:19:16.981|56=QFXPRICES|98=0|108=30|141=Y|553=prices1602|554=sdfkj43kj|10=024|
8=FIX.4.4|9=106|35=A|34=1|49=PRC1602|52=20241002-18:23:20.114|56=QFXPRICES|98=0|108=30|141=Y|553=prices1602|554=sdfkj43kj|10=002|
8=FIX.4.4|9=106|35=A|34=1|49=PRC1602|52=20241002-18:27:23.054|56=QFXPRICES|98=0|108=30|141=Y|553=prices1602|554=sdfkj43kj|10=012|
8=FIX.4.4|9=106|35=A|34=1|49=PRC1602|52=20241002-18:31:25.990|56=QFXPRICES|98=0|108=30|141=Y|553=prices1602|554=sdfkj43kj|10=018|
8=FIX.4.4|9=106|35=A|34=1|49=PRC1602|52=20241002-18:35:28.986|56=QFXPRICES|98=0|108=30|141=Y|553=prices1602|554=sdfkj43kj|10=030|
8=FIX.4.4|9=106|35=A|34=1|49=PRC1602|52=20241002-18:38:31.055|56=QFXPRICES|98=0|108=30|141=Y|553=prices1602|554=sdfkj43kj|10=014|
8=FIX.4.4|9=106|35=A|34=1|49=PRC1602|52=20241002-18:42:34.101|56=QFXPRICES|98=0|108=30|141=Y|553=prices1602|554=sdfkj43kj|10=004|
8=FIX.4.4|9=106|35=A|34=1|49=PRC1602|52=20241002-18:46:36.980|56=QFXPRICES|98=0|108=30|141=Y|553=prices1602|554=sdfkj43kj|10=025|
8=FIX.4.4|9=106|35=A|34=1|49=PRC1602|52=20241002-18:49:39.098|56=QFXPRICES|98=0|108=30|141=Y|553=prices1602|554=sdfkj43kj|10=031|
8=FIX.4.4|9=106|35=A|34=1|49=PRC1602|52=20241002-18:53:42.042|56=QFXPRICES|98=0|108=30|141=Y|553=prices1602|554=sdfkj43kj|10=009|
8=FIX.4.4|9=106|35=A|34=1|49=PRC1602|52=20241002-18:54:42.978|56=QFXPRICES|98=0|108=30|141=Y|553=prices1602|554=sdfkj43kj|10=028|
8=FIX.4.4|9=106|35=A|34=1|49=PRC1602|52=20241002-19:10:00.991|56=QFXPRICES|98=0|108=30|141=Y|553=prices1602|554=sdfkj43kj|10=010|
8=FIX.4.4|9=106|35=A|34=1|49=PRC1602|52=20241002-19:13:03.025|56=QFXPRICES|98=0|108=30|141=Y|553=prices1602|554=sdfkj43kj|10=004|
8=FIX.4.4|9=106|35=A|34=1|49=PRC1602|52=20241002-19:18:06.984|56=QFXPRICES|98=0|108=30|141=Y|553=prices1602|554=sdfkj43kj|10=026|
8=FIX.4.4|9=106|35=A|34=1|49=PRC1602|52=20241002-19:23:10.997|56=QFXPRICES|98=0|108=30|141=Y|553=prices1602|554=sdfkj43kj|10=021|
8=FIX.4.4|9=106|35=A|34=1|49=PRC1602|52=20241002-19:24:11.977|56=QFXPRICES|98=0|108=30|141=Y|553=prices1602|554=sdfkj43kj|10=021|
8=FIX.4.4|9=106|35=A|34=1|49=PRC1602|52=20241002-19:28:15.022|56=QFXPRICES|98=0|108=30|141=Y|553=prices1602|554=sdfkj43kj|10=010|
8=FIX.4.4|9=106|35=A|34=1|49=PRC1602|52=20241002-19:32:18.028|56=QFXPRICES|98=0|108=30|141=Y|553=prices1602|554=sdfkj43kj|10=014|
8=FIX.4.4|9=106|35=A|34=1|49=PRC1602|52=20241002-19:33:18.980|56=QFXPRICES|98=0|108=30|141=Y|553=prices1602|554=sdfkj43kj|10=022|
8=FIX.4.4|9=106|35=A|34=1|49=PRC1602|52=20241002-19:37:21.977|56=QFXPRICES|98=0|108=30|141=Y|553=prices1602|554=sdfkj43kj|10=026|
8=FIX.4.4|9=106|35=A|34=1|49=PRC1602|52=20241002-19:41:25.057|56=QFXPRICES|98=0|108=30|141=Y|553=prices1602|554=sdfkj43kj|10=014|
8=FIX.4.4|9=106|35=A|34=1|49=PRC1602|52=20241002-19:42:25.991|56=QFXPRICES|98=0|108=30|141=Y|553=prices1602|554=sdfkj43kj|10=022|
8=FIX.4.4|9=106|35=A|34=1|49=PRC1602|52=20241002-19:48:31.043|56=QFXPRICES|98=0|108=30|141=Y|553=prices1602|554=sdfkj43kj|10=013|
8=FIX.4.4|9=106|35=A|34=1|49=PRC1602|52=20241002-19:49:31.988|56=QFXPRICES|98=0|108=30|141=Y|553=prices1602|554=sdfkj43kj|10=032|
8=FIX.4.4|9=106|35=A|34=1|49=PRC1602|52=20241002-19:53:35.045|56=QFXPRICES|98=0|108=30|141=Y|553=prices1602|554=sdfkj43kj|10=015|
8=FIX.4.4|9=106|35=A|34=1|49=PRC1602|52=20241002-19:57:38.007|56=QFXPRICES|98=0|108=30|141=Y|553=prices1602|554=sdfkj43kj|10=020|
8=FIX.4.4|9=106|35=A|34=1|49=PRC1602|52=20241002-20:21:44.235|56=QFXPRICES|98=0|108=30|141=Y|553=prices1602|554=sdfkj43kj|10=003|
8=FIX.4.4|9=106|35=A|34=1|49=PRC1602|52=20241002-20:24:45.307|56=QFXPRICES|98=0|108=30|141=Y|553=prices1602|554=sdfkj43kj|10=007|
8=FIX.4.4|9=106|35=A|34=1|49=PRC1602|52=20241002-20:27:47.156|56=QFXPRICES|98=0|108=30|141=Y|553=prices1602|554=sdfkj43kj|10=014|
8=FIX.4.4|9=106|35=A|34=1|49=PRC1602|52=20241002-20:28:47.971|56=QFXPRICES|98=0|108=30|141=Y|553=prices1602|554=sdfkj43kj|10=020|
8=FIX.4.4|9=106|35=A|34=1|49=PRC1602|52=20241002-20:29:48.979|56=QFXPRICES|98=0|108=30|141=Y|553=prices1602|554=sdfkj43kj|10=030|
8=FIX.4.4|9=106|35=A|34=1|49=PRC1602|52=20241002-20:35:53.035|56=QFXPRICES|98=0|108=30|141=Y|553=prices1602|554=sdfkj43kj|10=006|
8=FIX.4.4|9=106|35=A|34=1|49=PRC1602|52=20241002-20:36:53.971|56=QFXPRICES|98=0|108=30|141=Y|553=prices1602|554=sdfkj43kj|10=016|
8=FIX.4.4|9=106|35=A|34=1|49=PRC1602|52=20241002-20:40:57.171|56=QFXPRICES|98=0|108=30|141=Y|553=prices1602|554=sdfkj43kj|10=007|
8=FIX.4.4|9=106|35=A|34=1|49=PRC1602|52=20241002-20:41:57.976|56=QFXPRICES|98=0|108=30|141=Y|553=prices1602|554=sdfkj43kj|10=021|
8=FIX.4.4|9=106|35=A|34=1|49=PRC1602|52=20241002-20:46:01.971|56=QFXPRICES|98=0|108=30|141=Y|553=prices1602|554=sdfkj43kj|10=010|
8=FIX.4.4|9=106|35=A|34=1|49=PRC1602|52=20241002-20:52:05.981|56=QFXPRICES|98=0|108=30|141=Y|553=prices1602|554=sdfkj43kj|10=012|
8=FIX.4.4|9=106|35=A|34=1|49=PRC1602|52=20241002-20:56:09.095|56=QFXPRICES|98=0|108=30|141=Y|553=prices1602|554=sdfkj43kj|10=016|
8=FIX.4.4|9=106|35=A|34=1|49=PRC1602|52=20241002-20:57:09.973|56=QFXPRICES|98=0|108=30|141=Y|553=prices1602|554=sdfkj43kj|10=022|
8=FIX.4.4|9=106|35=A|34=1|49=PRC1602|52=20241002-21:02:13.981|56=QFXPRICES|98=0|108=30|141=Y|553=prices1602|554=sdfkj43kj|10=007|
8=FIX.4.4|9=106|35=A|34=1|49=PRC1602|52=20241002-21:03:14.970|56=QFXPRICES|98=0|108=30|141=Y|553=prices1602|554=sdfkj43kj|10=007|
8=FIX.4.4|9=106|35=A|34=1|49=PRC1602|52=20241002-21:04:14.218|56=QFXPRICES|98=0|108=30|141=Y|553=prices1602|554=sdfkj43kj|10=003|
8=FIX.4.4|9=106|35=A|34=1|49=PRC1602|52=20241002-21:06:15.158|56=QFXPRICES|98=0|108=30|141=Y|553=prices1602|554=sdfkj43kj|10=009|
8=FIX.4.4|9=106|35=A|34=1|49=PRC1602|52=20241002-21:07:15.976|56=QFXPRICES|98=0|108=30|141=Y|553=prices1602|554=sdfkj43kj|10=018|
8=FIX.4.4|9=106|35=A|34=1|49=PRC1602|52=20241002-21:08:16.976|56=QFXPRICES|98=0|108=30|141=Y|553=prices1602|554=sdfkj43kj|10=020|
8=FIX.4.4|9=106|35=A|34=1|49=PRC1602|52=20241002-21:11:18.970|56=QFXPRICES|98=0|108=30|141=Y|553=prices1602|554=sdfkj43kj|10=010|
8=FIX.4.4|9=106|35=A|34=1|49=PRC1602|52=20241002-21:18:24.136|56=QFXPRICES|98=0|108=30|141=Y|553=prices1602|554=sdfkj43kj|10=008|
8=FIX.4.4|9=106|35=A|34=1|49=PRC1602|52=20241002-21:19:24.976|56=QFXPRICES|98=0|108=30|141=Y|553=prices1602|554=sdfkj43kj|10=021|
8=FIX.4.4|9=106|35=A|34=1|49=PRC1602|52=20241002-21:20:25.979|56=QFXPRICES|98=0|108=30|141=Y|553=prices1602|554=sdfkj43kj|10=017|
8=FIX.4.4|9=106|35=A|34=1|49=PRC1602|52=20241002-21:21:26.973|56=QFXPRICES|98=0|108=30|141=Y|553=prices1602|554=sdfkj43kj|10=013|
8=FIX.4.4|9=106|35=A|34=1|49=PRC1602|52=20241002-21:27:32.180|56=QFXPRICES|98=0|108=30|141=Y|553=prices1602|554=sdfkj43kj|10=006|
8=FIX.4.4|9=106|35=A|34=1|49=PRC1602|52=20241002-21:28:33.111|56=QFXPRICES|98=0|108=30|141=Y|553=prices1602|554=sdfkj43kj|10=002|
8=FIX.4.4|9=106|35=A|34=1|49=PRC1602|52=20241002-21:29:34.022|56=QFXPRICES|98=0|108=30|141=Y|553=prices1602|554=sdfkj43kj|10=005|
8=FIX.4.4|9=106|35=A|34=1|49=PRC1602|52=20241002-21:30:34.982|56=QFXPRICES|98=0|108=30|141=Y|553=prices1602|554=sdfkj43kj|10=012|
8=FIX.4.4|9=106|35=A|34=1|49=PRC1602|52=20241002-21:32:35.973|56=QFXPRICES|98=0|108=30|141=Y|553=prices1602|554=sdfkj43kj|10=015|
8=FIX.4.4|9=106|35=A|34=1|49=PRC1602|52=20241002-21:33:36.980|56=QFXPRICES|98=0|108=30|141=Y|553=prices1602|554=sdfkj43kj|10=015|
8=FIX.4.4|9=106|35=A|34=1|49=PRC1602|52=20241002-21:55:51.456|56=QFXPRICES|98=0|108=30|141=Y|553=prices1602|554=sdfkj43kj|10=014|
8=FIX.4.4|9=106|35=A|34=1|49=PRC1602|52=20241002-22:04:56.513|56=QFXPRICES|98=0|108=30|141=Y|553=prices1602|554=sdfkj43kj|10=008|
8=FIX.4.4|9=106|35=A|34=1|49=PRC1602|52=20241002-22:07:55.971|56=QFXPRICES|98=0|108=30|141=Y|553=prices1602|554=sdfkj43kj|10=018|
8=FIX.4.4|9=106|35=A|34=1|49=PRC1602|52=20241003-07:51:17.154|56=QFXPRICES|98=0|108=30|141=Y|553=prices1602|554=sdfkj43kj|10=012|
8=FIX.4.4|9=106|35=A|34=1|49=PRC1602|52=20241003-07:52:18.032|56=QFXPRICES|98=0|108=30|141=Y|553=prices1602|554=sdfkj43kj|10=009|
8=FIX.4.4|9=106|35=A|34=1|49=PRC1602|52=20241003-07:53:18.946|56=QFXPRICES|98=0|108=30|141=Y|553=prices1602|554=sdfkj43kj|10=024|
8=FIX.4.4|9=106|35=A|34=1|49=PRC1602|52=20241003-07:54:19.943|56=QFXPRICES|98=0|108=30|141=Y|553=prices1602|554=sdfkj43kj|10=023|
8=FIX.4.4|9=106|35=A|34=1|49=PRC1602|52=20241003-07:55:20.940|56=QFXPRICES|98=0|108=30|141=Y|553=prices1602|554=sdfkj43kj|10=013|
8=FIX.4.4|9=106|35=A|34=1|49=PRC1602|52=20241003-08:02:26.937|56=QFXPRICES|98=0|108=30|141=Y|553=prices1602|554=sdfkj43kj|10=018|
8=FIX.4.4|9=106|35=A|34=1|49=PRC1602|52=20241003-08:03:27.954|56=QFXPRICES|98=0|108=30|141=Y|553=prices1602|554=sdfkj43kj|10=019|
8=FIX.4.4|9=106|35=A|34=1|49=PRC1602|52=20241003-08:04:27.950|56=QFXPRICES|98=0|108=30|141=Y|553=prices1602|554=sdfkj43kj|10=016|
8=FIX.4.4|9=106|35=A|34=1|49=PRC1602|52=20241003-08:05:28.288|56=QFXPRICES|98=0|108=30|141=Y|553=prices1602|554=sdfkj43kj|10=022|
8=FIX.4.4|9=106|35=A|34=1|49=PRC1602|52=20241003-08:07:28.938|56=QFXPRICES|98=0|108=30|141=Y|553=prices1602|554=sdfkj43kj|10=026|
8=FIX.4.4|9=106|35=A|34=1|49=PRC1602|52=20241003-08:08:29.014|56=QFXPRICES|98=0|108=30|141=Y|553=prices1602|554=sdfkj43kj|10=013|
8=FIX.4.4|9=106|35=A|34=1|49=PRC1602|52=20241003-08:09:29.093|56=QFXPRICES|98=0|108=30|141=Y|553=prices1602|554=sdfkj43kj|10=021|
8=FIX.4.4|9=106|35=A|34=1|49=PRC1602|52=20241003-08:10:29.030|56=QFXPRICES|98=0|108=30|141=Y|553=prices1602|554=sdfkj43kj|10=004|
8=FIX.4.4|9=106|35=A|34=1|49=PRC1602|52=20241003-08:11:30.206|56=QFXPRICES|98=0|108=30|141=Y|553=prices1602|554=sdfkj43kj|10=002|
8=FIX.4.4|9=106|35=A|34=1|49=PRC1602|52=20241003-08:13:30.961|56=QFXPRICES|98=0|108=30|141=Y|553=prices1602|554=sdfkj43kj|10=012|
8=FIX.4.4|9=106|35=A|34=1|49=PRC1602|52=20241003-08:14:31.093|56=QFXPRICES|98=0|108=30|141=Y|553=prices1602|554=sdfkj43kj|10=010|
8=FIX.4.4|9=106|35=A|34=1|49=PRC1602|52=20241003-08:15:31.293|56=QFXPRICES|98=0|108=30|141=Y|553=prices1602|554=sdfkj43kj|10=013|
8=FIX.4.4|9=106|35=A|34=1|49=PRC1602|52=20241003-08:18:32.132|56=QFXPRICES|98=0|108=30|141=Y|553=prices1602|554=sdfkj43kj|10=009|
8=FIX.4.4|9=106|35=A|34=1|49=PRC1602|52=20241003-08:19:32.239|56=QFXPRICES|98=0|108=30|141=Y|553=prices1602|554=sdfkj43kj|10=018|
8=FIX.4.4|9=106|35=A|34=1|49=PRC1602|52=20241003-08:20:32.941|56=QFXPRICES|98=0|108=30|141=Y|553=prices1602|554=sdfkj43kj|10=010|
8=FIX.4.4|9=106|35=A|34=1|49=PRC1602|52=20241003-08:21:32.934|56=QFXPRICES|98=0|108=30|141=Y|553=prices1602|554=sdfkj43kj|10=013|
8=FIX.4.4|9=106|35=A|34=1|49=PRC1602|52=20241003-08:22:32.943|56=QFXPRICES|98=0|108=30|141=Y|553=prices1602|554=sdfkj43kj|10=014|
8=FIX.4.4|9=106|35=A|34=1|49=PRC1602|52=20241003-08:23:32.967|56=QFXPRICES|98=0|108=30|141=Y|553=prices1602|554=sdfkj43kj|10=021|
8=FIX.4.4|9=106|35=A|34=1|49=PRC1602|52=20241003-08:24:32.935|56=QFXPRICES|98=0|108=30|141=Y|553=prices1602|554=sdfkj43kj|10=017|
8=FIX.4.4|9=106|35=A|34=1|49=PRC1602|52=20241003-08:25:33.991|56=QFXPRICES|98=0|108=30|141=Y|553=prices1602|554=sdfkj43kj|10=021|
8=FIX.4.4|9=106|35=A|34=1|49=PRC1602|52=20241003-08:26:34.174|56=QFXPRICES|98=0|108=30|141=Y|553=prices1602|554=sdfkj43kj|10=016|
8=FIX.4.4|9=106|35=A|34=1|49=PRC1602|52=20241003-08:27:35.053|56=QFXPRICES|98=0|108=30|141=Y|553=prices1602|554=sdfkj43kj|10=014|
8=FIX.4.4|9=106|35=A|34=1|49=PRC1602|52=20241003-08:28:35.949|56=QFXPRICES|98=0|108=30|141=Y|553=prices1602|554=sdfkj43kj|10=029|
8=FIX.4.4|9=106|35=A|34=1|49=PRC1602|52=20241003-08:29:36.947|56=QFXPRICES|98=0|108=30|141=Y|553=prices1602|554=sdfkj43kj|10=029|
8=FIX.4.4|9=106|35=A|34=1|49=PRC1602|52=20241003-08:30:37.944|56=QFXPRICES|98=0|108=30|141=Y|553=prices1602|554=sdfkj43kj|10=019|
8=FIX.4.4|9=106|35=A|34=1|49=PRC1602|52=20241003-08:34:41.053|56=QFXPRICES|98=0|108=30|141=Y|553=prices1602|554=sdfkj43kj|10=009|
8=FIX.4.4|9=106|35=A|34=1|49=PRC1602|52=20241003-08:35:41.952|56=QFXPRICES|98=0|108=30|141=Y|553=prices1602|554=sdfkj43kj|10=018|
8=FIX.4.4|9=106|35=A|34=1|49=PRC1602|52=20241003-08:38:44.181|56=QFXPRICES|98=0|108=30|141=Y|553=prices1602|554=sdfkj43kj|10=018|
8=FIX.4.4|9=106|35=A|34=1|49=PRC1602|52=20241003-08:39:45.062|56=QFXPRICES|98=0|108=30|141=Y|553=prices1602|554=sdfkj43kj|10=018|
8=FIX.4.4|9=106|35=A|34=1|49=PRC1602|52=20241003-08:40:45.940|56=QFXPRICES|98=0|108=30|141=Y|553=prices1602|554=sdfkj43kj|10=015|
8=FIX.4.4|9=106|35=A|34=1|49=PRC1602|52=20241003-08:45:49.947|56=QFXPRICES|98=0|108=30|141=Y|553=prices1602|554=sdfkj43kj|10=031|
8=FIX.4.4|9=106|35=A|34=1|49=PRC1602|52=20241003-08:56:58.950|56=QFXPRICES|98=0|108=30|141=Y|553=prices1602|554=sdfkj43kj|10=027|
8=FIX.4.4|9=106|35=A|34=1|49=PRC1602|52=20241003-09:00:00.953|56=QFXPRICES|98=0|108=30|141=Y|553=prices1602|554=sdfkj43kj|10=007|
8=FIX.4.4|9=106|35=A|34=1|49=PRC1602|52=20241003-09:04:03.978|56=QFXPRICES|98=0|108=30|141=Y|553=prices1602|554=sdfkj43kj|10=021|
8=FIX.4.4|9=106|35=A|34=1|49=PRC1602|52=20241003-09:09:07.945|56=QFXPRICES|98=0|108=30|141=Y|553=prices1602|554=sdfkj43kj|10=024|
8=FIX.4.4|9=106|35=A|34=1|49=PRC1602|52=20241003-09:12:09.969|56=QFXPRICES|98=0|108=30|141=Y|553=prices1602|554=sdfkj43kj|10=026|
8=FIX.4.4|9=106|35=A|34=1|49=PRC1602|52=20241003-09:16:12.936|56=QFXPRICES|98=0|108=30|141=Y|553=prices1602|554=sdfkj43kj|10=018|
8=FIX.4.4|9=106|35=A|34=1|49=PRC1602|52=20241003-09:20:15.970|56=QFXPRICES|98=0|108=30|141=Y|553=prices1602|554=sdfkj43kj|10=014|
8=FIX.4.4|9=106|35=A|34=1|49=PRC1602|52=20241003-09:24:19.018|56=QFXPRICES|98=0|108=30|141=Y|553=prices1602|554=sdfkj43kj|10=015|
8=FIX.4.4|9=106|35=A|34=1|49=PRC1602|52=20241003-09:30:24.051|56=QFXPRICES|98=0|108=30|141=Y|553=prices1602|554=sdfkj43kj|10=005|
8=FIX.4.4|9=106|35=A|34=1|49=PRC1602|52=20241003-09:31:24.941|56=QFXPRICES|98=0|108=30|141=Y|553=prices1602|554=sdfkj43kj|10=014|
8=FIX.4.4|9=106|35=A|34=1|49=PRC1602|52=20241003-09:35:28.060|56=QFXPRICES|98=0|108=30|141=Y|553=prices1602|554=sdfkj43kj|10=014|
8=FIX.4.4|9=106|35=A|34=1|49=PRC1602|52=20241003-09:40:31.939|56=QFXPRICES|98=0|108=30|141=Y|553=prices1602|554=sdfkj43kj|10=019|
8=FIX.4.4|9=106|35=A|34=1|49=PRC1602|52=20241003-09:45:35.973|56=QFXPRICES|98=0|108=30|141=Y|553=prices1602|554=sdfkj43kj|10=026|
8=FIX.4.4|9=106|35=A|34=1|49=PRC1602|52=20241003-09:46:36.936|56=QFXPRICES|98=0|108=30|141=Y|553=prices1602|554=sdfkj43kj|10=027|
8=FIX.4.4|9=106|35=A|34=1|49=PRC1602|52=20241003-09:56:45.037|56=QFXPRICES|98=0|108=30|141=Y|553=prices1602|554=sdfkj43kj|10=020|
8=FIX.4.4|9=106|35=A|34=1|49=PRC1602|52=20241003-09:57:45.941|56=QFXPRICES|98=0|108=30|141=Y|553=prices1602|554=sdfkj43kj|10=025|
8=FIX.4.4|9=106|35=A|34=1|49=PRC1602|52=20241003-09:59:47.058|56=QFXPRICES|98=0|108=30|141=Y|553=prices1602|554=sdfkj43kj|10=028|
8=FIX.4.4|9=106|35=A|34=1|49=PRC1602|52=20241003-10:00:47.944|56=QFXPRICES|98=0|108=30|141=Y|553=prices1602|554=sdfkj43kj|10=010|
8=FIX.4.4|9=106|35=A|34=1|49=PRC1602|52=20241007-09:12:27.500|56=QFXPRICES|98=0|108=30|141=Y|553=prices1602|554=sdfkj43kj|10=011|
8=FIX.4.4|9=106|35=A|34=1|49=PRC1602|52=20241007-09:16:30.546|56=QFXPRICES|98=0|108=30|141=Y|553=prices1602|554=sdfkj43kj|10=019|
8=FIX.4.4|9=106|35=A|34=1|49=PRC1602|52=20241007-09:17:31.422|56=QFXPRICES|98=0|108=30|141=Y|553=prices1602|554=sdfkj43kj|10=014|
8=FIX.4.4|9=106|35=A|34=1|49=PRC1602|52=20241007-09:21:34.418|56=QFXPRICES|98=0|108=30|141=Y|553=prices1602|554=sdfkj43kj|10=017|
8=FIX.4.4|9=106|35=A|34=1|49=PRC1602|52=20241007-09:25:37.528|56=QFXPRICES|98=0|108=30|141=Y|553=prices1602|554=sdfkj43kj|10=026|
8=FIX.4.4|9=106|35=A|34=1|49=PRC1602|52=20241007-09:26:38.433|56=QFXPRICES|98=0|108=30|141=Y|553=prices1602|554=sdfkj43kj|10=023|
8=FIX.4.4|9=106|35=A|34=1|49=PRC1602|52=20241007-09:30:41.429|56=QFXPRICES|98=0|108=30|141=Y|553=prices1602|554=sdfkj43kj|10=017|
8=FIX.4.4|9=106|35=A|34=1|49=PRC1602|52=20241007-09:34:44.458|56=QFXPRICES|98=0|108=30|141=Y|553=prices1602|554=sdfkj43kj|10=026|
8=FIX.4.4|9=106|35=A|34=1|49=PRC1602|52=20241007-09:35:45.428|56=QFXPRICES|98=0|108=30|141=Y|553=prices1602|554=sdfkj43kj|10=025|
8=FIX.4.4|9=106|35=A|34=1|49=PRC1602|52=20241007-09:39:48.426|56=QFXPRICES|98=0|108=30|141=Y|553=prices1602|554=sdfkj43kj|10=030|
8=FIX.4.4|9=106|35=A|34=1|49=PRC1602|52=20241007-09:42:58.661|56=QFXPRICES|98=0|108=30|141=Y|553=prices1602|554=sdfkj43kj|10=026|
8=FIX.4.4|9=106|35=A|34=1|49=PRC1602|52=20241007-09:47:54.537|56=QFXPRICES|98=0|108=30|141=Y|553=prices1602|554=sdfkj43kj|10=029|
8=FIX.4.4|9=106|35=A|34=1|49=PRC1602|52=20241007-09:51:57.427|56=QFXPRICES|98=0|108=30|141=Y|553=prices1602|554=sdfkj43kj|10=025|
8=FIX.4.4|9=106|35=A|34=1|49=PRC1602|52=20241007-09:57:01.418|56=QFXPRICES|98=0|108=30|141=Y|553=prices1602|554=sdfkj43kj|10=020|
8=FIX.4.4|9=106|35=A|34=1|49=PRC1602|52=20241007-10:02:05.492|56=QFXPRICES|98=0|108=30|141=Y|553=prices1602|554=sdfkj43kj|10=008|
8=FIX.4.4|9=106|35=A|34=1|49=PRC1602|52=20241007-10:03:06.419|56=QFXPRICES|98=0|108=30|141=Y|553=prices1602|554=sdfkj43kj|10=009|
8=FIX.4.4|9=106|35=A|34=1|49=PRC1602|52=20241007-11:00:24.350|56=QFXPRICES|98=0|108=30|141=Y|553=prices1602|554=sdfkj43kj|10=001|
8=FIX.4.4|9=106|35=A|34=1|49=PRC1602|52=20241007-11:30:07.572|56=QFXPRICES|98=0|108=30|141=Y|553=prices1602|554=sdfkj43kj|10=011|
8=FIX.4.4|9=106|35=A|34=1|49=PRC1602|52=20241007-11:33:13.679|56=QFXPRICES|98=0|108=30|141=Y|553=prices1602|554=sdfkj43kj|10=019|
8=FIX.4.4|9=106|35=A|34=1|49=PRC1602|52=20241007-11:34:14.631|56=QFXPRICES|98=0|108=30|141=Y|553=prices1602|554=sdfkj43kj|10=009|
8=FIX.4.4|9=106|35=A|34=1|49=PRC1602|52=20241007-11:39:07.441|56=QFXPRICES|98=0|108=30|141=Y|553=prices1602|554=sdfkj43kj|10=015|
8=FIX.4.4|9=106|35=A|34=1|49=PRC1602|52=20241007-11:46:53.309|56=QFXPRICES|98=0|108=30|141=Y|553=prices1602|554=sdfkj43kj|10=017|
8=FIX.4.4|9=106|35=A|34=1|49=PRC1602|52=20241007-11:47:52.534|56=QFXPRICES|98=0|108=30|141=Y|553=prices1602|554=sdfkj43kj|10=017|
8=FIX.4.4|9=106|35=A|34=1|49=PRC1602|52=20241007-11:48:54.008|56=QFXPRICES|98=0|108=30|141=Y|553=prices1602|554=sdfkj43kj|10=016|
8=FIX.4.4|9=106|35=A|34=1|49=PRC1602|52=20241007-12:02:47.000|56=QFXPRICES|98=0|108=30|141=Y|553=prices1602|554=sdfkj43kj|10=001|
8=FIX.4.4|9=106|35=A|34=1|49=PRC1602|52=20241007-15:34:03.026|56=QFXPRICES|98=0|108=30|141=Y|553=prices1602|554=sdfkj43kj|10=009|
8=FIX.4.4|9=106|35=A|34=1|49=PRC1602|52=20241007-15:39:03.973|56=QFXPRICES|98=0|108=30|141=Y|553=prices1602|554=sdfkj43kj|10=025|
8=FIX.4.4|9=106|35=A|34=1|49=PRC1602|52=20241007-15:41:05.032|56=QFXPRICES|98=0|108=30|141=Y|553=prices1602|554=sdfkj43kj|10=006|
8=FIX.4.4|9=106|35=A|34=1|49=PRC1602|52=20241007-15:44:06.970|56=QFXPRICES|98=0|108=30|141=Y|553=prices1602|554=sdfkj43kj|10=021|
8=FIX.4.4|9=106|35=A|34=1|49=PRC1602|52=20241007-15:46:08.153|56=QFXPRICES|98=0|108=30|141=Y|553=prices1602|554=sdfkj43kj|10=018|
8=FIX.4.4|9=106|35=A|34=1|49=PRC1602|52=20241007-15:49:09.963|56=QFXPRICES|98=0|108=30|141=Y|553=prices1602|554=sdfkj43kj|10=031|
8=FIX.4.4|9=106|35=A|34=1|49=PRC1602|52=20241007-15:51:14.844|56=QFXPRICES|98=0|108=30|141=Y|553=prices1602|554=sdfkj43kj|10=018|
8=FIX.4.4|9=106|35=A|34=1|49=PRC1602|52=20241007-15:54:13.193|56=QFXPRICES|98=0|108=30|141=Y|553=prices1602|554=sdfkj43kj|10=017|
8=FIX.4.4|9=106|35=A|34=1|49=PRC1602|52=20241007-15:55:13.963|56=QFXPRICES|98=0|108=30|141=Y|553=prices1602|554=sdfkj43kj|10=023|
8=FIX.4.4|9=106|35=A|34=1|49=PRC1602|52=20241007-15:57:14.962|56=QFXPRICES|98=0|108=30|141=Y|553=prices1602|554=sdfkj43kj|10=025|
8=FIX.4.4|9=106|35=A|34=1|49=PRC1602|52=20241007-16:00:16.977|56=QFXPRICES|98=0|108=30|141=Y|553=prices1602|554=sdfkj43kj|10=022|
8=FIX.4.4|9=106|35=A|34=1|49=PRC1602|52=20241007-16:07:21.033|56=QFXPRICES|98=0|108=30|141=Y|553=prices1602|554=sdfkj43kj|10=008|
8=FIX.4.4|9=106|35=A|34=1|49=PRC1602|52=20241007-16:12:23.964|56=QFXPRICES|98=0|108=30|141=Y|553=prices1602|554=sdfkj43kj|10=019|
8=FIX.4.4|9=106|35=A|34=1|49=PRC1602|52=20241007-16:14:25.033|56=QFXPRICES|98=0|108=30|141=Y|553=prices1602|554=sdfkj43kj|10=010|
8=FIX.4.4|9=106|35=A|34=1|49=PRC1602|52=20241007-16:18:32.502|56=QFXPRICES|98=0|108=30|141=Y|553=prices1602|554=sdfkj43kj|10=013|
8=FIX.4.4|9=106|35=A|34=1|49=PRC1602|52=20241007-16:19:27.969|56=QFXPRICES|98=0|108=30|141=Y|553=prices1602|554=sdfkj43kj|10=035|
8=FIX.4.4|9=106|35=A|34=1|49=PRC1602|52=20241007-16:24:30.973|56=QFXPRICES|98=0|108=30|141=Y|553=prices1602|554=sdfkj43kj|10=020|
8=FIX.4.4|9=106|35=A|34=1|49=PRC1602|52=20241007-16:26:32.090|56=QFXPRICES|98=0|108=30|141=Y|553=prices1602|554=sdfkj43kj|10=014|
8=FIX.4.4|9=106|35=A|34=1|49=PRC1602|52=20241007-16:29:33.970|56=QFXPRICES|98=0|108=30|141=Y|553=prices1602|554=sdfkj43kj|10=025|
8=FIX.4.4|9=106|35=A|34=1|49=PRC1602|52=20241007-16:32:35.971|56=QFXPRICES|98=0|108=30|141=Y|553=prices1602|554=sdfkj43kj|10=022|
8=FIX.4.4|9=106|35=A|34=1|49=PRC1602|52=20241007-16:35:37.988|56=QFXPRICES|98=0|108=30|141=Y|553=prices1602|554=sdfkj43kj|10=035|
8=FIX.4.4|9=106|35=A|34=1|49=PRC1602|52=20241007-16:36:39.813|56=QFXPRICES|98=0|108=30|141=Y|553=prices1602|554=sdfkj43kj|10=025|
8=FIX.4.4|9=106|35=A|34=1|49=PRC1602|52=20241007-16:38:40.245|56=QFXPRICES|98=0|108=30|141=Y|553=prices1602|554=sdfkj43kj|10=018|
8=FIX.4.4|9=106|35=A|34=1|49=PRC1602|52=20241007-16:39:41.022|56=QFXPRICES|98=0|108=30|141=Y|553=prices1602|554=sdfkj43kj|10=013|
8=FIX.4.4|9=106|35=A|34=1|49=PRC1602|52=20241007-16:43:43.966|56=QFXPRICES|98=0|108=30|141=Y|553=prices1602|554=sdfkj43kj|10=027|
8=FIX.4.4|9=106|35=A|34=1|49=PRC1602|52=20241007-16:45:44.972|56=QFXPRICES|98=0|108=30|141=Y|553=prices1602|554=sdfkj43kj|10=027|
8=FIX.4.4|9=106|35=A|34=1|49=PRC1602|52=20241007-16:47:46.974|56=QFXPRICES|98=0|108=30|141=Y|553=prices1602|554=sdfkj43kj|10=033|
8=FIX.4.4|9=106|35=A|34=1|49=PRC1602|52=20241007-16:51:49.223|56=QFXPRICES|98=0|108=30|141=Y|553=prices1602|554=sdfkj43kj|10=018|
8=FIX.4.4|9=106|35=A|34=1|49=PRC1602|52=20241007-16:55:52.886|56=QFXPRICES|98=0|108=30|141=Y|553=prices1602|554=sdfkj43kj|10=031|
8=FIX.4.4|9=106|35=A|34=1|49=PRC1602|52=20241007-16:56:51.970|56=QFXPRICES|98=0|108=30|141=Y|553=prices1602|554=sdfkj43kj|10=025|
8=FIX.4.4|9=106|35=A|34=1|49=PRC1602|52=20241007-16:57:52.049|56=QFXPRICES|98=0|108=30|141=Y|553=prices1602|554=sdfkj43kj|10=024|
8=FIX.4.4|9=106|35=A|34=1|49=PRC1602|52=20241007-16:58:52.966|56=QFXPRICES|98=0|108=30|141=Y|553=prices1602|554=sdfkj43kj|10=033|
8=FIX.4.4|9=106|35=A|34=1|49=PRC1602|52=20241007-17:01:56.019|56=QFXPRICES|98=0|108=30|141=Y|553=prices1602|554=sdfkj43kj|10=015|
8=FIX.4.4|9=106|35=A|34=1|49=PRC1602|52=20241007-17:05:57.969|56=QFXPRICES|98=0|108=30|141=Y|553=prices1602|554=sdfkj43kj|10=034|
8=FIX.4.4|9=106|35=A|34=1|49=PRC1602|52=20241007-17:06:58.967|56=QFXPRICES|98=0|108=30|141=Y|553=prices1602|554=sdfkj43kj|10=034|
8=FIX.4.4|9=106|35=A|34=1|49=PRC1602|52=20241007-22:53:18.117|56=QFXPRICES|98=0|108=30|141=Y|553=prices1602|554=sdfkj43kj|10=015|
8=FIX.4.4|9=106|35=A|34=1|49=PRC1602|52=20241007-22:58:21.016|56=QFXPRICES|98=0|108=30|141=Y|553=prices1602|554=sdfkj43kj|10=012|
8=FIX.4.4|9=106|35=A|34=1|49=PRC1602|52=20241007-23:03:25.002|56=QFXPRICES|98=0|108=30|141=Y|553=prices1602|554=sdfkj43kj|10=002|
8=FIX.4.4|9=106|35=A|34=1|49=PRC1602|52=20241007-23:06:27.133|56=QFXPRICES|98=0|108=30|141=Y|553=prices1602|554=sdfkj43kj|10=012|
8=FIX.4.4|9=106|35=A|34=1|49=PRC1602|52=20241007-23:10:30.011|56=QFXPRICES|98=0|108=30|141=Y|553=prices1602|554=sdfkj43kj|10=252|
8=FIX.4.4|9=106|35=A|34=1|49=PRC1602|52=20241007-23:13:32.008|56=QFXPRICES|98=0|108=30|141=Y|553=prices1602|554=sdfkj43kj|10=007|
8=FIX.4.4|9=106|35=A|34=1|49=PRC1602|52=20241007-23:16:34.106|56=QFXPRICES|98=0|108=30|141=Y|553=prices1602|554=sdfkj43kj|10=011|
8=FIX.4.4|9=106|35=A|34=1|49=PRC1602|52=20241007-23:24:39.006|56=QFXPRICES|98=0|108=30|141=Y|553=prices1602|554=sdfkj43kj|10=014|
