8=FIX.4.4|9=109|35=A|34=1|49=TRD82841|52=20241208-17:11:36.990|56=QFXTRADES|98=0|108=30|141=Y|553=real82841|554=9hucfe4riucr|10=007|
8=FIX.4.4|9=109|35=A|34=1|49=TRD82841|52=20241208-17:12:35.852|56=QFXTRADES|98=0|108=30|141=Y|553=real82841|554=9hucfe4riucr|10=004|
8=FIX.4.4|9=109|35=A|34=1|49=TRD82841|52=20241208-17:13:36.871|56=QFXTRADES|98=0|108=30|141=Y|553=real82841|554=9hucfe4riucr|10=007|
8=FIX.4.4|9=109|35=A|34=1|49=TRD82841|52=20241208-17:14:36.852|56=QFXTRADES|98=0|108=30|141=Y|553=real82841|554=9hucfe4riucr|10=007|
8=FIX.4.4|9=109|35=A|34=1|49=TRD82841|52=20241208-17:15:37.872|56=QFXTRADES|98=0|108=30|141=Y|553=real82841|554=9hucfe4riucr|10=011|
8=FIX.4.4|9=109|35=A|34=1|49=TRD82841|52=20241208-18:47:16.466|56=QFXTRADES|98=0|108=30|141=Y|553=real82841|554=9hucfe4riucr|10=013|
8=FIX.4.4|9=78|35=A|34=1|49=QFXTRADES|52=20241208-18:47:18.017|56=TRD82841|98=0|108=30|141=Y|10=221|
8=FIX.4.4|9=107|35=AF|34=2|49=TRD82841|52=20241208-18:47:17.140|56=QFXTRADES|1=82841|584=active-orders-1733683637139|585=6|10=127|
8=FIX.4.4|9=107|35=AF|34=3|49=TRD82841|52=20241208-18:47:17.149|56=QFXTRADES|1=82841|584=active-orders-1733683637139|585=6|10=137|
8=FIX.4.4|9=163|35=8|34=2|49=QFXTRADES|52=20241208-18:47:18.618|56=TRD82841|1=82841|6=0|11= |14=0|17= |37= |39=0|54=1|55= |150=I|151=0|584=active-orders-1733683637139|911=0|912=Y|10=196|
8=FIX.4.4|9=163|35=8|34=3|49=QFXTRADES|52=20241208-18:47:18.618|56=TRD82841|1=82841|6=0|11= |14=0|17= |37= |39=0|54=1|55= |150=I|151=0|584=active-orders-1733683637139|911=0|912=Y|10=197|
8=FIX.4.4|9=60|35=0|34=4|49=TRD82841|52=20241208-18:47:47.193|56=QFXTRADES|10=135|
8=FIX.4.4|9=60|35=0|34=4|49=QFXTRADES|52=20241208-18:47:48.661|56=TRD82841|10=136|
8=FIX.4.4|9=69|35=1|34=5|49=TRD82841|52=20241208-18:48:02.199|56=QFXTRADES|112=TEST|10=162|
8=FIX.4.4|9=69|35=0|34=5|49=QFXTRADES|52=20241208-18:48:03.662|56=TRD82841|112=TEST|10=157|
8=FIX.4.4|9=109|35=A|34=1|49=TRD82841|52=20241208-18:48:30.208|56=QFXTRADES|98=0|108=30|141=Y|553=real82841|554=9hucfe4riucr|10=004|
8=FIX.4.4|9=78|35=A|34=1|49=QFXTRADES|52=20241208-18:48:31.683|56=TRD82841|98=0|108=30|141=Y|10=226|
8=FIX.4.4|9=109|35=A|34=1|49=TRD82841|52=20241208-18:49:31.209|56=QFXTRADES|98=0|108=30|141=Y|553=real82841|554=9hucfe4riucr|10=007|
8=FIX.4.4|9=78|35=A|34=1|49=QFXTRADES|52=20241208-18:49:32.680|56=TRD82841|98=0|108=30|141=Y|10=225|
8=FIX.4.4|9=109|35=A|34=1|49=TRD82841|52=20241208-19:39:41.274|56=QFXTRADES|98=0|108=30|141=Y|553=real82841|554=9hucfe4riucr|10=010|
8=FIX.4.4|9=109|35=A|34=1|49=TRD82841|52=20241208-19:41:04.709|56=QFXTRADES|98=0|108=30|141=Y|553=real82841|554=9hucfe4riucr|10=005|
8=FIX.4.4|9=109|35=A|34=1|49=TRD82841|52=20241208-19:42:04.544|56=QFXTRADES|98=0|108=30|141=Y|553=real82841|554=9hucfe4riucr|10=003|
8=FIX.4.4|9=109|35=A|34=1|49=TRD82841|52=20241208-19:43:05.540|56=QFXTRADES|98=0|108=30|141=Y|553=real82841|554=9hucfe4riucr|10=001|
8=FIX.4.4|9=109|35=A|34=1|49=TRD82841|52=20241208-19:44:06.535|56=QFXTRADES|98=0|108=30|141=Y|553=real82841|554=9hucfe4riucr|10=007|
8=FIX.4.4|9=109|35=A|34=1|49=TRD82841|52=20241208-19:53:41.346|56=QFXTRADES|98=0|108=30|141=Y|553=real82841|554=9hucfe4riucr|10=006|
8=FIX.4.4|9=109|35=A|34=1|49=TRD82841|52=20241208-19:54:41.265|56=QFXTRADES|98=0|108=30|141=Y|553=real82841|554=9hucfe4riucr|10=007|
8=FIX.4.4|9=109|35=A|34=1|49=TRD82841|52=20241208-19:55:42.247|56=QFXTRADES|98=0|108=30|141=Y|553=real82841|554=9hucfe4riucr|10=009|
8=FIX.4.4|9=109|35=A|34=1|49=TRD82841|52=20241208-19:56:43.242|56=QFXTRADES|98=0|108=30|141=Y|553=real82841|554=9hucfe4riucr|10=006|
8=FIX.4.4|9=109|35=A|34=1|49=TRD82841|52=20241208-19:57:44.221|56=QFXTRADES|98=0|108=30|141=Y|553=real82841|554=9hucfe4riucr|10=005|
8=FIX.4.4|9=109|35=A|34=1|49=TRD82841|52=20241208-19:58:44.410|56=QFXTRADES|98=0|108=30|141=Y|553=real82841|554=9hucfe4riucr|10=006|
8=FIX.4.4|9=109|35=A|34=1|49=TRD82841|52=20241208-19:59:46.898|56=QFXTRADES|98=0|108=30|141=Y|553=real82841|554=9hucfe4riucr|10=029|
8=FIX.4.4|9=109|35=A|34=1|49=TRD82841|52=20241208-20:00:48.223|56=QFXTRADES|98=0|108=30|141=Y|553=real82841|554=9hucfe4riucr|10=247|
8=FIX.4.4|9=109|35=A|34=1|49=TRD82841|52=20241208-20:01:49.225|56=QFXTRADES|98=0|108=30|141=Y|553=real82841|554=9hucfe4riucr|10=251|
8=FIX.4.4|9=109|35=A|34=1|49=TRD82841|52=20241208-20:02:49.226|56=QFXTRADES|98=0|108=30|141=Y|553=real82841|554=9hucfe4riucr|10=253|
8=FIX.4.4|9=109|35=A|34=1|49=TRD82841|52=20241208-20:03:50.237|56=QFXTRADES|98=0|108=30|141=Y|553=real82841|554=9hucfe4riucr|10=248|
8=FIX.4.4|9=109|35=A|34=1|49=TRD82841|52=20241208-20:04:50.727|56=QFXTRADES|98=0|108=30|141=Y|553=real82841|554=9hucfe4riucr|10=253|
8=FIX.4.4|9=109|35=A|34=1|49=TRD82841|52=20241208-20:05:50.411|56=QFXTRADES|98=0|108=30|141=Y|553=real82841|554=9hucfe4riucr|10=244|
8=FIX.4.4|9=109|35=A|34=1|49=TRD82841|52=20241208-20:06:51.229|56=QFXTRADES|98=0|108=30|141=Y|553=real82841|554=9hucfe4riucr|10=253|
8=FIX.4.4|9=109|35=A|34=1|49=TRD82841|52=20241208-20:07:52.224|56=QFXTRADES|98=0|108=30|141=Y|553=real82841|554=9hucfe4riucr|10=250|
8=FIX.4.4|9=109|35=A|34=1|49=TRD82841|52=20241208-20:08:53.220|56=QFXTRADES|98=0|108=30|141=Y|553=real82841|554=9hucfe4riucr|10=248|
8=FIX.4.4|9=109|35=A|34=1|49=TRD82841|52=20241208-20:11:02.303|56=QFXTRADES|98=0|108=30|141=Y|553=real82841|554=9hucfe4riucr|10=238|
8=FIX.4.4|9=78|35=A|34=1|49=QFXTRADES|52=20241208-20:11:03.795|56=TRD82841|98=0|108=30|141=Y|10=212|
8=FIX.4.4|9=107|35=AF|34=2|49=TRD82841|52=20241208-20:11:02.959|56=QFXTRADES|1=82841|584=active-orders-1733688662945|585=6|10=131|
8=FIX.4.4|9=107|35=AF|34=3|49=TRD82841|52=20241208-20:11:02.967|56=QFXTRADES|1=82841|584=active-orders-1733688662945|585=6|10=131|
8=FIX.4.4|9=163|35=8|34=2|49=QFXTRADES|52=20241208-20:11:04.433|56=TRD82841|1=82841|6=0|11= |14=0|17= |37= |39=0|54=1|55= |150=I|151=0|584=active-orders-1733688662945|911=0|912=Y|10=178|
8=FIX.4.4|9=163|35=8|34=3|49=QFXTRADES|52=20241208-20:11:04.451|56=TRD82841|1=82841|6=0|11= |14=0|17= |37= |39=0|54=1|55= |150=I|151=0|584=active-orders-1733688662945|911=0|912=Y|10=179|
8=FIX.4.4|9=60|35=0|34=4|49=TRD82841|52=20241208-20:11:33.135|56=QFXTRADES|10=110|
8=FIX.4.4|9=60|35=0|34=4|49=QFXTRADES|52=20241208-20:11:34.657|56=TRD82841|10=120|
8=FIX.4.4|9=69|35=1|34=5|49=TRD82841|52=20241208-20:11:48.130|56=QFXTRADES|112=TEST|10=140|
8=FIX.4.4|9=69|35=0|34=5|49=QFXTRADES|52=20241208-20:11:49.593|56=TRD82841|112=TEST|10=153|
8=FIX.4.4|9=109|35=A|34=1|49=TRD82841|52=20241208-20:12:16.127|56=QFXTRADES|98=0|108=30|141=Y|553=real82841|554=9hucfe4riucr|10=248|
8=FIX.4.4|9=78|35=A|34=1|49=QFXTRADES|52=20241208-20:12:17.654|56=TRD82841|98=0|108=30|141=Y|10=212|
8=FIX.4.4|9=109|35=A|34=1|49=TRD82841|52=20241208-20:13:17.134|56=QFXTRADES|98=0|108=30|141=Y|553=real82841|554=9hucfe4riucr|10=248|
8=FIX.4.4|9=78|35=A|34=1|49=QFXTRADES|52=20241208-20:13:18.641|56=TRD82841|98=0|108=30|141=Y|10=210|
8=FIX.4.4|9=109|35=A|34=1|49=TRD82841|52=20241208-20:14:11.578|56=QFXTRADES|98=0|108=30|141=Y|553=real82841|554=9hucfe4riucr|10=255|
8=FIX.4.4|9=78|35=A|34=1|49=QFXTRADES|52=20241208-20:14:13.161|56=TRD82841|98=0|108=30|141=Y|10=203|
8=FIX.4.4|9=107|35=AF|34=2|49=TRD82841|52=20241208-20:14:11.977|56=QFXTRADES|1=82841|584=active-orders-1733688851977|585=6|10=139|
8=FIX.4.4|9=107|35=AF|34=3|49=TRD82841|52=20241208-20:14:11.979|56=QFXTRADES|1=82841|584=active-orders-1733688851977|585=6|10=142|
8=FIX.4.4|9=163|35=8|34=2|49=QFXTRADES|52=20241208-20:14:13.503|56=TRD82841|1=82841|6=0|11= |14=0|17= |37= |39=0|54=1|55= |150=I|151=0|584=active-orders-1733688851977|911=0|912=Y|10=184|
8=FIX.4.4|9=163|35=8|34=3|49=QFXTRADES|52=20241208-20:14:13.521|56=TRD82841|1=82841|6=0|11= |14=0|17= |37= |39=0|54=1|55= |150=I|151=0|584=active-orders-1733688851977|911=0|912=Y|10=185|
8=FIX.4.4|9=60|35=0|34=4|49=TRD82841|52=20241208-20:14:42.832|56=QFXTRADES|10=117|
8=FIX.4.4|9=60|35=0|34=4|49=QFXTRADES|52=20241208-20:14:44.245|56=TRD82841|10=117|
8=FIX.4.4|9=69|35=1|34=5|49=TRD82841|52=20241208-20:14:57.823|56=QFXTRADES|112=TEST|10=152|
8=FIX.4.4|9=69|35=0|34=5|49=QFXTRADES|52=20241208-20:14:59.326|56=TRD82841|112=TEST|10=151|
8=FIX.4.4|9=109|35=A|34=1|49=TRD82841|52=20241208-20:15:25.825|56=QFXTRADES|98=0|108=30|141=Y|553=real82841|554=9hucfe4riucr|10=000|
8=FIX.4.4|9=78|35=A|34=1|49=QFXTRADES|52=20241208-20:15:27.316|56=TRD82841|98=0|108=30|141=Y|10=211|
8=FIX.4.4|9=109|35=A|34=1|49=TRD82841|52=20241208-20:16:26.836|56=QFXTRADES|98=0|108=30|141=Y|553=real82841|554=9hucfe4riucr|10=004|
8=FIX.4.4|9=78|35=A|34=1|49=QFXTRADES|52=20241208-20:16:28.340|56=TRD82841|98=0|108=30|141=Y|10=210|
8=FIX.4.4|9=109|35=A|34=1|49=TRD82841|52=20241208-20:17:27.826|56=QFXTRADES|98=0|108=30|141=Y|553=real82841|554=9hucfe4riucr|10=005|
8=FIX.4.4|9=78|35=A|34=1|49=QFXTRADES|52=20241208-20:17:29.587|56=TRD82841|98=0|108=30|141=Y|10=225|
8=FIX.4.4|9=109|35=A|34=1|49=TRD82841|52=20241208-20:18:20.622|56=QFXTRADES|98=0|108=30|141=Y|553=real82841|554=9hucfe4riucr|10=249|
8=FIX.4.4|9=78|35=A|34=1|49=QFXTRADES|52=20241208-20:18:22.134|56=TRD82841|98=0|108=30|141=Y|10=207|
8=FIX.4.4|9=107|35=AF|34=2|49=TRD82841|52=20241208-20:18:21.208|56=QFXTRADES|1=82841|584=active-orders-1733689101207|585=6|10=106|
8=FIX.4.4|9=107|35=AF|34=3|49=TRD82841|52=20241208-20:18:21.209|56=QFXTRADES|1=82841|584=active-orders-1733689101207|585=6|10=108|
8=FIX.4.4|9=163|35=8|34=2|49=QFXTRADES|52=20241208-20:18:22.692|56=TRD82841|1=82841|6=0|11= |14=0|17= |37= |39=0|54=1|55= |150=I|151=0|584=active-orders-1733689101207|911=0|912=Y|10=172|
8=FIX.4.4|9=163|35=8|34=3|49=QFXTRADES|52=20241208-20:18:22.709|56=TRD82841|1=82841|6=0|11= |14=0|17= |37= |39=0|54=1|55= |150=I|151=0|584=active-orders-1733689101207|911=0|912=Y|10=172|
8=FIX.4.4|9=60|35=0|34=4|49=TRD82841|52=20241208-20:18:51.259|56=QFXTRADES|10=124|
8=FIX.4.4|9=60|35=0|34=4|49=QFXTRADES|52=20241208-20:18:52.731|56=TRD82841|10=120|
8=FIX.4.4|9=69|35=1|34=5|49=TRD82841|52=20241208-20:19:06.254|56=QFXTRADES|112=TEST|10=149|
8=FIX.4.4|9=69|35=0|34=5|49=QFXTRADES|52=20241208-20:19:07.740|56=TRD82841|112=TEST|10=149|
8=FIX.4.4|9=109|35=A|34=1|49=TRD82841|52=20241208-20:19:34.270|56=QFXTRADES|98=0|108=30|141=Y|553=real82841|554=9hucfe4riucr|10=254|
8=FIX.4.4|9=78|35=A|34=1|49=QFXTRADES|52=20241208-20:19:35.762|56=TRD82841|98=0|108=30|141=Y|10=219|
8=FIX.4.4|9=109|35=A|34=1|49=TRD82841|52=20241208-22:06:49.736|56=QFXTRADES|98=0|108=30|141=Y|553=real82841|554=9hucfe4riucr|10=009|
8=FIX.4.4|9=78|35=A|34=1|49=QFXTRADES|52=20241208-22:06:51.273|56=TRD82841|98=0|108=30|141=Y|10=212|
8=FIX.4.4|9=107|35=AF|34=2|49=TRD82841|52=20241208-22:06:50.304|56=QFXTRADES|1=82841|584=active-orders-1733695610302|585=6|10=102|
8=FIX.4.4|9=107|35=AF|34=3|49=TRD82841|52=20241208-22:06:50.308|56=QFXTRADES|1=82841|584=active-orders-1733695610302|585=6|10=107|
8=FIX.4.4|9=163|35=8|34=2|49=QFXTRADES|52=20241208-22:06:51.803|56=TRD82841|1=82841|6=0|11= |14=0|17= |37= |39=0|54=1|55= |150=I|151=0|584=active-orders-1733695610302|911=0|912=Y|10=165|
8=FIX.4.4|9=163|35=8|34=3|49=QFXTRADES|52=20241208-22:06:51.820|56=TRD82841|1=82841|6=0|11= |14=0|17= |37= |39=0|54=1|55= |150=I|151=0|584=active-orders-1733695610302|911=0|912=Y|10=165|
8=FIX.4.4|9=60|35=0|34=4|49=TRD82841|52=20241208-22:07:20.357|56=QFXTRADES|10=119|
8=FIX.4.4|9=60|35=0|34=4|49=QFXTRADES|52=20241208-22:07:21.859|56=TRD82841|10=127|
8=FIX.4.4|9=69|35=1|34=5|49=TRD82841|52=20241208-22:07:35.349|56=QFXTRADES|112=TEST|10=155|
8=FIX.4.4|9=69|35=0|34=5|49=QFXTRADES|52=20241208-22:07:36.839|56=TRD82841|112=TEST|10=159|
8=FIX.4.4|9=109|35=A|34=1|49=TRD82841|52=20241208-22:09:13.240|56=QFXTRADES|98=0|108=30|141=Y|553=real82841|554=9hucfe4riucr|10=249|
8=FIX.4.4|9=78|35=A|34=1|49=QFXTRADES|52=20241208-22:09:14.770|56=TRD82841|98=0|108=30|141=Y|10=216|
8=FIX.4.4|9=107|35=AF|34=2|49=TRD82841|52=20241208-22:09:13.790|56=QFXTRADES|1=82841|584=active-orders-1733695753780|585=6|10=131|
8=FIX.4.4|9=107|35=AF|34=3|49=TRD82841|52=20241208-22:09:13.797|56=QFXTRADES|1=82841|584=active-orders-1733695753780|585=6|10=139|
8=FIX.4.4|9=163|35=8|34=2|49=QFXTRADES|52=20241208-22:09:15.281|56=TRD82841|1=82841|6=0|11= |14=0|17= |37= |39=0|54=1|55= |150=I|151=0|584=active-orders-1733695753780|911=0|912=Y|10=186|
8=FIX.4.4|9=163|35=8|34=3|49=QFXTRADES|52=20241208-22:09:15.298|56=TRD82841|1=82841|6=0|11= |14=0|17= |37= |39=0|54=1|55= |150=I|151=0|584=active-orders-1733695753780|911=0|912=Y|10=195|
8=FIX.4.4|9=60|35=0|34=4|49=TRD82841|52=20241208-22:09:44.112|56=QFXTRADES|10=116|
8=FIX.4.4|9=60|35=0|34=4|49=QFXTRADES|52=20241208-22:09:45.604|56=TRD82841|10=123|
8=FIX.4.4|9=69|35=1|34=5|49=TRD82841|52=20241208-22:09:59.113|56=QFXTRADES|112=TEST|10=152|
8=FIX.4.4|9=69|35=0|34=5|49=QFXTRADES|52=20241208-22:10:00.616|56=TRD82841|112=TEST|10=137|
8=FIX.4.4|9=109|35=A|34=1|49=TRD82841|52=20241208-22:10:27.118|56=QFXTRADES|98=0|108=30|141=Y|553=real82841|554=9hucfe4riucr|10=250|
8=FIX.4.4|9=78|35=A|34=1|49=QFXTRADES|52=20241208-22:10:28.641|56=TRD82841|98=0|108=30|141=Y|10=210|
8=FIX.4.4|9=109|35=A|34=1|49=TRD82841|52=20241208-22:11:27.146|56=QFXTRADES|98=0|108=30|141=Y|553=real82841|554=9hucfe4riucr|10=252|
8=FIX.4.4|9=78|35=A|34=1|49=QFXTRADES|52=20241208-22:11:28.660|56=TRD82841|98=0|108=30|141=Y|10=212|
8=FIX.4.4|9=109|35=A|34=1|49=TRD82841|52=20241208-22:29:54.639|56=QFXTRADES|98=0|108=30|141=Y|553=real82841|554=9hucfe4riucr|10=012|
8=FIX.4.4|9=78|35=A|34=1|49=QFXTRADES|52=20241208-22:29:56.178|56=TRD82841|98=0|108=30|141=Y|10=226|
8=FIX.4.4|9=107|35=AF|34=2|49=TRD82841|52=20241208-22:29:55.740|56=QFXTRADES|1=82841|584=active-orders-1733696995735|585=6|10=143|
8=FIX.4.4|9=107|35=AF|34=3|49=TRD82841|52=20241208-22:29:55.741|56=QFXTRADES|1=82841|584=active-orders-1733696995735|585=6|10=145|
8=FIX.4.4|9=163|35=8|34=2|49=QFXTRADES|52=20241208-22:29:57.239|56=TRD82841|1=82841|6=0|11= |14=0|17= |37= |39=0|54=1|55= |150=I|151=0|584=active-orders-1733696995735|911=0|912=Y|10=206|
8=FIX.4.4|9=163|35=8|34=3|49=QFXTRADES|52=20241208-22:29:57.621|56=TRD82841|1=82841|6=0|11= |14=0|17= |37= |39=0|54=1|55= |150=I|151=0|584=active-orders-1733696995735|911=0|912=Y|10=202|
8=FIX.4.4|9=60|35=0|34=4|49=TRD82841|52=20241208-22:30:26.470|56=QFXTRADES|10=117|
8=FIX.4.4|9=60|35=0|34=4|49=QFXTRADES|52=20241208-22:30:27.960|56=TRD82841|10=122|
8=FIX.4.4|9=60|35=0|34=5|49=QFXTRADES|52=20241208-22:30:58.245|56=TRD82841|10=123|
8=FIX.4.4|9=109|35=A|34=1|49=TRD82841|52=20241208-22:31:08.498|56=QFXTRADES|98=0|108=30|141=Y|553=real82841|554=9hucfe4riucr|10=007|
8=FIX.4.4|9=78|35=A|34=1|49=QFXTRADES|52=20241208-22:31:10.008|56=TRD82841|98=0|108=30|141=Y|10=201|
8=FIX.4.4|9=109|35=A|34=1|49=TRD82841|52=20241208-22:32:08.576|56=QFXTRADES|98=0|108=30|141=Y|553=real82841|554=9hucfe4riucr|10=005|
8=FIX.4.4|9=78|35=A|34=1|49=QFXTRADES|52=20241208-22:32:10.079|56=TRD82841|98=0|108=30|141=Y|10=210|
8=FIX.4.4|9=109|35=A|34=1|49=TRD82841|52=20241208-22:33:09.477|56=QFXTRADES|98=0|108=30|141=Y|553=real82841|554=9hucfe4riucr|10=007|
8=FIX.4.4|9=78|35=A|34=1|49=QFXTRADES|52=20241208-22:33:10.995|56=TRD82841|98=0|108=30|141=Y|10=218|
8=FIX.4.4|9=109|35=A|34=1|49=TRD82841|52=20241208-22:34:10.472|56=QFXTRADES|98=0|108=30|141=Y|553=real82841|554=9hucfe4riucr|10=251|
8=FIX.4.4|9=78|35=A|34=1|49=QFXTRADES|52=20241208-22:34:12.002|56=TRD82841|98=0|108=30|141=Y|10=200|
8=FIX.4.4|9=109|35=A|34=1|49=TRD82841|52=20241208-23:47:28.792|56=QFXTRADES|98=0|108=30|141=Y|553=real82841|554=9hucfe4riucr|10=014|
8=FIX.4.4|9=78|35=A|34=1|49=QFXTRADES|52=20241208-23:47:30.557|56=TRD82841|98=0|108=30|141=Y|10=220|
8=FIX.4.4|9=107|35=AF|34=2|49=TRD82841|52=20241208-23:47:29.246|56=QFXTRADES|1=82841|584=active-orders-1733701649246|585=6|10=126|
8=FIX.4.4|9=107|35=AF|34=3|49=TRD82841|52=20241208-23:47:29.248|56=QFXTRADES|1=82841|584=active-orders-1733701649246|585=6|10=129|
8=FIX.4.4|9=163|35=8|34=2|49=QFXTRADES|52=20241208-23:47:30.756|56=TRD82841|1=82841|6=0|11= |14=0|17= |37= |39=0|54=1|55= |150=I|151=0|584=active-orders-1733701649246|911=0|912=Y|10=182|
8=FIX.4.4|9=163|35=8|34=3|49=QFXTRADES|52=20241208-23:47:30.784|56=TRD82841|1=82841|6=0|11= |14=0|17= |37= |39=0|54=1|55= |150=I|151=0|584=active-orders-1733701649246|911=0|912=Y|10=184|
8=FIX.4.4|9=60|35=0|34=4|49=TRD82841|52=20241208-23:47:59.387|56=QFXTRADES|10=139|
8=FIX.4.4|9=60|35=0|34=4|49=QFXTRADES|52=20241208-23:48:00.899|56=TRD82841|10=134|
8=FIX.4.4|9=109|35=A|34=1|49=TRD82841|52=20241208-23:48:27.652|56=QFXTRADES|98=0|108=30|141=Y|553=real82841|554=9hucfe4riucr|10=009|
8=FIX.4.4|9=78|35=A|34=1|49=QFXTRADES|52=20241208-23:48:29.238|56=TRD82841|98=0|108=30|141=Y|10=225|
8=FIX.4.4|9=107|35=AF|34=2|49=TRD82841|52=20241208-23:48:28.011|56=QFXTRADES|1=82841|584=active-orders-1733701707999|585=6|10=126|
8=FIX.4.4|9=107|35=AF|34=3|49=TRD82841|52=20241208-23:48:28.012|56=QFXTRADES|1=82841|584=active-orders-1733701707999|585=6|10=128|
8=FIX.4.4|9=163|35=8|34=2|49=QFXTRADES|52=20241208-23:48:29.519|56=TRD82841|1=82841|6=0|11= |14=0|17= |37= |39=0|54=1|55= |150=I|151=0|584=active-orders-1733701707999|911=0|912=Y|10=198|
8=FIX.4.4|9=163|35=8|34=3|49=QFXTRADES|52=20241208-23:48:29.538|56=TRD82841|1=82841|6=0|11= |14=0|17= |37= |39=0|54=1|55= |150=I|151=0|584=active-orders-1733701707999|911=0|912=Y|10=200|
8=FIX.4.4|9=60|35=0|34=4|49=TRD82841|52=20241208-23:48:58.243|56=QFXTRADES|10=130|
8=FIX.4.4|9=60|35=0|34=4|49=QFXTRADES|52=20241208-23:48:59.748|56=TRD82841|10=141|
8=FIX.4.4|9=69|35=1|34=5|49=TRD82841|52=20241208-23:49:13.244|56=QFXTRADES|112=TEST|10=152|
8=FIX.4.4|9=69|35=0|34=5|49=QFXTRADES|52=20241208-23:49:14.752|56=TRD82841|112=TEST|10=156|
8=FIX.4.4|9=109|35=A|34=1|49=TRD82841|52=20241208-23:49:41.245|56=QFXTRADES|98=0|108=30|141=Y|553=real82841|554=9hucfe4riucr|10=004|
8=FIX.4.4|9=78|35=A|34=1|49=QFXTRADES|52=20241208-23:49:42.760|56=TRD82841|98=0|108=30|141=Y|10=221|
8=FIX.4.4|9=109|35=A|34=1|49=TRD82841|52=20241208-23:50:41.245|56=QFXTRADES|98=0|108=30|141=Y|553=real82841|554=9hucfe4riucr|10=252|
8=FIX.4.4|9=78|35=A|34=1|49=QFXTRADES|52=20241208-23:50:42.771|56=TRD82841|98=0|108=30|141=Y|10=215|
8=FIX.4.4|9=109|35=A|34=1|49=TRD82841|52=20241208-23:51:42.258|56=QFXTRADES|98=0|108=30|141=Y|553=real82841|554=9hucfe4riucr|10=002|
8=FIX.4.4|9=78|35=A|34=1|49=QFXTRADES|52=20241208-23:51:43.776|56=TRD82841|98=0|108=30|141=Y|10=222|
8=FIX.4.4|9=109|35=A|34=1|49=TRD82841|52=20241208-23:52:43.252|56=QFXTRADES|98=0|108=30|141=Y|553=real82841|554=9hucfe4riucr|10=254|
8=FIX.4.4|9=78|35=A|34=1|49=QFXTRADES|52=20241208-23:52:44.779|56=TRD82841|98=0|108=30|141=Y|10=227|
8=FIX.4.4|9=109|35=A|34=1|49=TRD82841|52=20241208-23:53:44.254|56=QFXTRADES|98=0|108=30|141=Y|553=real82841|554=9hucfe4riucr|10=002|
8=FIX.4.4|9=78|35=A|34=1|49=QFXTRADES|52=20241208-23:53:45.796|56=TRD82841|98=0|108=30|141=Y|10=228|
8=FIX.4.4|9=109|35=A|34=1|49=TRD82841|52=20241208-23:54:44.608|56=QFXTRADES|98=0|108=30|141=Y|553=real82841|554=9hucfe4riucr|10=006|
8=FIX.4.4|9=78|35=A|34=1|49=QFXTRADES|52=20241208-23:54:46.139|56=TRD82841|98=0|108=30|141=Y|10=221|
8=FIX.4.4|9=109|35=A|34=1|49=TRD82841|52=20241208-23:57:30.340|56=QFXTRADES|98=0|108=30|141=Y|553=real82841|554=9hucfe4riucr|10=253|
8=FIX.4.4|9=78|35=A|34=1|49=QFXTRADES|52=20241208-23:57:31.920|56=TRD82841|98=0|108=30|141=Y|10=216|
8=FIX.4.4|9=107|35=AF|34=2|49=TRD82841|52=20241208-23:57:30.686|56=QFXTRADES|1=82841|584=active-orders-1733702250683|585=6|10=121|
8=FIX.4.4|9=107|35=AF|34=3|49=TRD82841|52=20241208-23:57:30.695|56=QFXTRADES|1=82841|584=active-orders-1733702250683|585=6|10=122|
8=FIX.4.4|9=163|35=8|34=2|49=QFXTRADES|52=20241208-23:57:32.214|56=TRD82841|1=82841|6=0|11= |14=0|17= |37= |39=0|54=1|55= |150=I|151=0|584=active-orders-1733702250683|911=0|912=Y|10=168|
8=FIX.4.4|9=163|35=8|34=3|49=QFXTRADES|52=20241208-23:57:32.231|56=TRD82841|1=82841|6=0|11= |14=0|17= |37= |39=0|54=1|55= |150=I|151=0|584=active-orders-1733702250683|911=0|912=Y|10=168|
8=FIX.4.4|9=60|35=0|34=4|49=QFXTRADES|52=20241208-23:58:02.245|56=TRD82841|10=122|
8=FIX.4.4|9=60|35=0|34=4|49=TRD82841|52=20241208-23:58:00.997|56=QFXTRADES|10=134|
8=FIX.4.4|9=69|35=1|34=5|49=TRD82841|52=20241208-23:58:16.002|56=QFXTRADES|112=TEST|10=147|
8=FIX.4.4|9=69|35=0|34=5|49=QFXTRADES|52=20241208-23:58:17.513|56=TRD82841|112=TEST|10=154|
8=FIX.4.4|9=109|35=A|34=1|49=TRD82841|52=20241208-23:58:44.009|56=QFXTRADES|98=0|108=30|141=Y|553=real82841|554=9hucfe4riucr|10=005|
8=FIX.4.4|9=78|35=A|34=1|49=QFXTRADES|52=20241208-23:58:45.547|56=TRD82841|98=0|108=30|141=Y|10=227|
8=FIX.4.4|9=109|35=A|34=1|49=TRD82841|52=20241208-23:59:44.020|56=QFXTRADES|98=0|108=30|141=Y|553=real82841|554=9hucfe4riucr|10=255|
8=FIX.4.4|9=78|35=A|34=1|49=QFXTRADES|52=20241208-23:59:45.551|56=TRD82841|98=0|108=30|141=Y|10=223|
8=FIX.4.4|9=109|35=A|34=1|49=TRD82841|52=20241209-00:06:33.683|56=QFXTRADES|98=0|108=30|141=Y|553=real82841|554=9hucfe4riucr|10=000|
8=FIX.4.4|9=78|35=A|34=1|49=QFXTRADES|52=20241209-00:06:35.224|56=TRD82841|98=0|108=30|141=Y|10=207|
8=FIX.4.4|9=107|35=AF|34=2|49=TRD82841|52=20241209-00:06:33.929|56=QFXTRADES|1=82841|584=active-orders-1733702793923|585=6|10=123|
8=FIX.4.4|9=107|35=AF|34=3|49=TRD82841|52=20241209-00:06:33.930|56=QFXTRADES|1=82841|584=active-orders-1733702793923|585=6|10=116|
8=FIX.4.4|9=163|35=8|34=2|49=QFXTRADES|52=20241209-00:06:35.466|56=TRD82841|1=82841|6=0|11= |14=0|17= |37= |39=0|54=1|55= |150=I|151=0|584=active-orders-1733702793923|911=0|912=Y|10=179|
8=FIX.4.4|9=163|35=8|34=3|49=QFXTRADES|52=20241209-00:06:35.479|56=TRD82841|1=82841|6=0|11= |14=0|17= |37= |39=0|54=1|55= |150=I|151=0|584=active-orders-1733702793923|911=0|912=Y|10=184|
8=FIX.4.4|9=60|35=0|34=4|49=TRD82841|52=20241209-00:07:04.367|56=QFXTRADES|10=119|
8=FIX.4.4|9=60|35=0|34=4|49=QFXTRADES|52=20241209-00:07:05.880|56=TRD82841|10=120|
8=FIX.4.4|9=109|35=A|34=1|49=TRD82841|52=20241209-00:07:18.218|56=QFXTRADES|98=0|108=30|141=Y|553=real82841|554=9hucfe4riucr|10=254|
8=FIX.4.4|9=78|35=A|34=1|49=QFXTRADES|52=20241209-00:07:19.807|56=TRD82841|98=0|108=30|141=Y|10=217|
8=FIX.4.4|9=107|35=AF|34=2|49=TRD82841|52=20241209-00:07:18.570|56=QFXTRADES|1=82841|584=active-orders-1733702838569|585=6|10=125|
8=FIX.4.4|9=107|35=AF|34=3|49=TRD82841|52=20241209-00:07:18.572|56=QFXTRADES|1=82841|584=active-orders-1733702838569|585=6|10=128|
8=FIX.4.4|9=163|35=8|34=2|49=QFXTRADES|52=20241209-00:07:20.089|56=TRD82841|1=82841|6=0|11= |14=0|17= |37= |39=0|54=1|55= |150=I|151=0|584=active-orders-1733702838569|911=0|912=Y|10=181|
8=FIX.4.4|9=163|35=8|34=3|49=QFXTRADES|52=20241209-00:07:20.105|56=TRD82841|1=82841|6=0|11= |14=0|17= |37= |39=0|54=1|55= |150=I|151=0|584=active-orders-1733702838569|911=0|912=Y|10=171|
8=FIX.4.4|9=60|35=0|34=4|49=TRD82841|52=20241209-00:07:48.803|56=QFXTRADES|10=122|
8=FIX.4.4|9=60|35=0|34=4|49=QFXTRADES|52=20241209-00:07:50.245|56=TRD82841|10=115|
8=FIX.4.4|9=69|35=1|34=5|49=TRD82841|52=20241209-00:08:03.802|56=QFXTRADES|112=TEST|10=142|
8=FIX.4.4|9=69|35=0|34=5|49=QFXTRADES|52=20241209-00:08:05.318|56=TRD82841|112=TEST|10=145|
8=FIX.4.4|9=109|35=A|34=1|49=TRD82841|52=20241209-00:08:31.820|56=QFXTRADES|98=0|108=30|141=Y|553=real82841|554=9hucfe4riucr|10=249|
8=FIX.4.4|9=78|35=A|34=1|49=QFXTRADES|52=20241209-00:08:33.374|56=TRD82841|98=0|108=30|141=Y|10=213|
8=FIX.4.4|9=109|35=A|34=1|49=TRD82841|52=20241209-00:09:31.895|56=QFXTRADES|98=0|108=30|141=Y|553=real82841|554=9hucfe4riucr|10=006|
8=FIX.4.4|9=78|35=A|34=1|49=QFXTRADES|52=20241209-00:09:33.435|56=TRD82841|98=0|108=30|141=Y|10=212|
8=FIX.4.4|9=109|35=A|34=1|49=TRD82841|52=20241209-00:10:32.810|56=QFXTRADES|98=0|108=30|141=Y|553=real82841|554=9hucfe4riucr|10=242|
8=FIX.4.4|9=78|35=A|34=1|49=QFXTRADES|52=20241209-00:10:34.337|56=TRD82841|98=0|108=30|141=Y|10=206|
8=FIX.4.4|9=109|35=A|34=1|49=TRD82841|52=20241209-00:11:33.814|56=QFXTRADES|98=0|108=30|141=Y|553=real82841|554=9hucfe4riucr|10=248|
8=FIX.4.4|9=78|35=A|34=1|49=QFXTRADES|52=20241209-00:11:35.329|56=TRD82841|98=0|108=30|141=Y|10=209|
8=FIX.4.4|9=109|35=A|34=1|49=TRD82841|52=20241209-00:12:33.820|56=QFXTRADES|98=0|108=30|141=Y|553=real82841|554=9hucfe4riucr|10=246|
8=FIX.4.4|9=78|35=A|34=1|49=QFXTRADES|52=20241209-00:12:35.348|56=TRD82841|98=0|108=30|141=Y|10=211|
8=FIX.4.4|9=109|35=A|34=1|49=TRD82841|52=20241209-00:13:34.813|56=QFXTRADES|98=0|108=30|141=Y|553=real82841|554=9hucfe4riucr|10=250|
8=FIX.4.4|9=78|35=A|34=1|49=QFXTRADES|52=20241209-00:13:36.347|56=TRD82841|98=0|108=30|141=Y|10=212|
8=FIX.4.4|9=109|35=A|34=1|49=TRD82841|52=20241209-00:14:35.821|56=QFXTRADES|98=0|108=30|141=Y|553=real82841|554=9hucfe4riucr|10=251|
8=FIX.4.4|9=78|35=A|34=1|49=QFXTRADES|52=20241209-00:14:37.356|56=TRD82841|98=0|108=30|141=Y|10=214|
8=FIX.4.4|9=109|35=A|34=1|49=TRD82841|52=20241209-00:15:35.840|56=QFXTRADES|98=0|108=30|141=Y|553=real82841|554=9hucfe4riucr|10=253|
8=FIX.4.4|9=78|35=A|34=1|49=QFXTRADES|52=20241209-00:15:37.386|56=TRD82841|98=0|108=30|141=Y|10=218|
8=FIX.4.4|9=109|35=A|34=1|49=TRD82841|52=20241209-00:16:36.818|56=QFXTRADES|98=0|108=30|141=Y|553=real82841|554=9hucfe4riucr|10=004|
8=FIX.4.4|9=78|35=A|34=1|49=QFXTRADES|52=20241209-00:16:38.350|56=TRD82841|98=0|108=30|141=Y|10=211|
8=FIX.4.4|9=109|35=A|34=1|49=TRD82841|52=20241209-00:17:37.808|56=QFXTRADES|98=0|108=30|141=Y|553=real82841|554=9hucfe4riucr|10=005|
8=FIX.4.4|9=78|35=A|34=1|49=QFXTRADES|52=20241209-00:17:39.347|56=TRD82841|98=0|108=30|141=Y|10=219|
8=FIX.4.4|9=109|35=A|34=1|49=TRD82841|52=20241209-00:18:37.801|56=QFXTRADES|98=0|108=30|141=Y|553=real82841|554=9hucfe4riucr|10=255|
8=FIX.4.4|9=78|35=A|34=1|49=QFXTRADES|52=20241209-00:18:39.327|56=TRD82841|98=0|108=30|141=Y|10=218|
8=FIX.4.4|9=109|35=A|34=1|49=TRD82841|52=20241209-00:19:37.879|56=QFXTRADES|98=0|108=30|141=Y|553=real82841|554=9hucfe4riucr|10=015|
8=FIX.4.4|9=78|35=A|34=1|49=QFXTRADES|52=20241209-00:19:39.424|56=TRD82841|98=0|108=30|141=Y|10=217|
8=FIX.4.4|9=109|35=A|34=2|49=TRD82841|52=20241209-00:20:18.640|56=QFXTRADES|98=0|108=30|141=Y|553=real82841|554=9hucfe4riucr|10=249|
8=FIX.4.4|9=78|35=A|34=1|49=QFXTRADES|52=20241209-00:20:20.247|56=TRD82841|98=0|108=30|141=Y|10=202|
8=FIX.4.4|9=109|35=A|34=1|49=TRD82841|52=20241209-00:20:43.756|56=QFXTRADES|98=0|108=30|141=Y|553=real82841|554=9hucfe4riucr|10=254|
8=FIX.4.4|9=78|35=A|34=1|49=QFXTRADES|52=20241209-00:20:45.350|56=TRD82841|98=0|108=30|141=Y|10=204|
8=FIX.4.4|9=60|35=0|34=2|49=TRD82841|52=20241209-00:21:14.433|56=QFXTRADES|10=108|
8=FIX.4.4|9=60|35=0|34=2|49=QFXTRADES|52=20241209-00:21:15.952|56=TRD82841|10=115|
8=FIX.4.4|9=60|35=0|34=3|49=TRD82841|52=20241209-00:21:44.432|56=QFXTRADES|10=111|
8=FIX.4.4|9=60|35=0|34=3|49=QFXTRADES|52=20241209-00:21:45.948|56=TRD82841|10=124|
8=FIX.4.4|9=60|35=0|34=4|49=TRD82841|52=20241209-00:22:14.428|56=QFXTRADES|10=115|
8=FIX.4.4|9=60|35=0|34=4|49=QFXTRADES|52=20241209-00:22:15.948|56=TRD82841|10=123|
8=FIX.4.4|9=60|35=0|34=5|49=TRD82841|52=20241209-00:22:44.431|56=QFXTRADES|10=113|
8=FIX.4.4|9=60|35=0|34=5|49=QFXTRADES|52=20241209-00:22:45.952|56=TRD82841|10=122|
8=FIX.4.4|9=60|35=0|34=6|49=TRD82841|52=20241209-00:23:14.426|56=QFXTRADES|10=116|
8=FIX.4.4|9=60|35=0|34=6|49=QFXTRADES|52=20241209-00:23:15.944|56=TRD82841|10=122|
8=FIX.4.4|9=60|35=0|34=7|49=TRD82841|52=20241209-00:23:44.424|56=QFXTRADES|10=118|
8=FIX.4.4|9=60|35=0|34=7|49=QFXTRADES|52=20241209-00:23:45.944|56=TRD82841|10=126|
8=FIX.4.4|9=60|35=0|34=8|49=TRD82841|52=20241209-00:24:14.428|56=QFXTRADES|10=121|
8=FIX.4.4|9=60|35=0|34=8|49=QFXTRADES|52=20241209-00:24:15.950|56=TRD82841|10=122|
8=FIX.4.4|9=60|35=0|34=9|49=TRD82841|52=20241209-00:24:44.440|56=QFXTRADES|10=119|
8=FIX.4.4|9=60|35=0|34=9|49=QFXTRADES|52=20241209-00:24:45.960|56=TRD82841|10=127|
8=FIX.4.4|9=61|35=0|34=10|49=TRD82841|52=20241209-00:25:14.436|56=QFXTRADES|10=163|
8=FIX.4.4|9=61|35=0|34=10|49=QFXTRADES|52=20241209-00:25:15.952|56=TRD82841|10=167|
8=FIX.4.4|9=61|35=0|34=11|49=QFXTRADES|52=20241209-00:25:46.245|56=TRD82841|10=167|
8=FIX.4.4|9=61|35=0|34=11|49=TRD82841|52=20241209-00:25:44.895|56=QFXTRADES|10=176|
8=FIX.4.4|9=61|35=0|34=12|49=QFXTRADES|52=20241209-00:26:16.245|56=TRD82841|10=166|
8=FIX.4.4|9=61|35=0|34=12|49=TRD82841|52=20241209-00:26:14.971|56=QFXTRADES|10=170|
8=FIX.4.4|9=61|35=0|34=13|49=QFXTRADES|52=20241209-00:26:46.245|56=TRD82841|10=170|
8=FIX.4.4|9=61|35=0|34=13|49=TRD82841|52=20241209-00:26:45.437|56=QFXTRADES|10=172|
8=FIX.4.4|9=61|35=0|34=14|49=QFXTRADES|52=20241209-00:27:16.246|56=TRD82841|10=170|
8=FIX.4.4|9=61|35=0|34=14|49=TRD82841|52=20241209-00:27:15.439|56=QFXTRADES|10=173|
8=FIX.4.4|9=61|35=0|34=15|49=QFXTRADES|52=20241209-00:27:46.245|56=TRD82841|10=173|
8=FIX.4.4|9=61|35=0|34=15|49=TRD82841|52=20241209-00:27:45.438|56=QFXTRADES|10=176|
8=FIX.4.4|9=109|35=A|34=1|49=TRD82841|52=20241209-00:30:44.270|56=QFXTRADES|98=0|108=30|141=Y|553=real82841|554=9hucfe4riucr|10=247|
8=FIX.4.4|9=78|35=A|34=1|49=QFXTRADES|52=20241209-00:30:46.047|56=TRD82841|98=0|108=30|141=Y|10=209|
8=FIX.4.4|9=60|35=0|34=2|49=TRD82841|52=20241209-00:31:14.796|56=QFXTRADES|10=121|
8=FIX.4.4|9=60|35=0|34=2|49=QFXTRADES|52=20241209-00:31:16.245|56=TRD82841|10=112|
8=FIX.4.4|9=60|35=0|34=3|49=TRD82841|52=20241209-00:31:44.792|56=QFXTRADES|10=121|
8=FIX.4.4|9=60|35=0|34=3|49=QFXTRADES|52=20241209-00:31:46.246|56=TRD82841|10=117|
8=FIX.4.4|9=60|35=0|34=4|49=TRD82841|52=20241209-00:32:14.793|56=QFXTRADES|10=121|
8=FIX.4.4|9=60|35=0|34=4|49=QFXTRADES|52=20241209-00:32:16.245|56=TRD82841|10=115|
8=FIX.4.4|9=60|35=0|34=5|49=TRD82841|52=20241209-00:32:44.795|56=QFXTRADES|10=127|
8=FIX.4.4|9=60|35=0|34=5|49=QFXTRADES|52=20241209-00:32:46.245|56=TRD82841|10=119|
8=FIX.4.4|9=60|35=0|34=6|49=TRD82841|52=20241209-00:33:14.794|56=QFXTRADES|10=125|
8=FIX.4.4|9=60|35=0|34=6|49=QFXTRADES|52=20241209-00:33:16.245|56=TRD82841|10=118|
8=FIX.4.4|9=60|35=0|34=7|49=QFXTRADES|52=20241209-00:33:46.245|56=TRD82841|10=122|
8=FIX.4.4|9=60|35=0|34=7|49=TRD82841|52=20241209-00:33:44.892|56=QFXTRADES|10=128|
8=FIX.4.4|9=60|35=0|34=8|49=QFXTRADES|52=20241209-00:34:16.245|56=TRD82841|10=121|
8=FIX.4.4|9=60|35=0|34=8|49=TRD82841|52=20241209-00:34:14.923|56=QFXTRADES|10=122|
8=FIX.4.4|9=60|35=0|34=9|49=QFXTRADES|52=20241209-00:34:46.245|56=TRD82841|10=125|
8=FIX.4.4|9=60|35=0|34=9|49=TRD82841|52=20241209-00:34:45.790|56=QFXTRADES|10=129|
8=FIX.4.4|9=61|35=0|34=10|49=QFXTRADES|52=20241209-00:35:16.245|56=TRD82841|10=164|
8=FIX.4.4|9=61|35=0|34=10|49=TRD82841|52=20241209-00:35:15.786|56=QFXTRADES|10=173|
8=FIX.4.4|9=61|35=0|34=11|49=QFXTRADES|52=20241209-00:35:46.245|56=TRD82841|10=168|
8=FIX.4.4|9=61|35=0|34=11|49=TRD82841|52=20241209-00:35:45.786|56=QFXTRADES|10=177|
8=FIX.4.4|9=61|35=0|34=12|49=QFXTRADES|52=20241209-00:36:16.245|56=TRD82841|10=167|
8=FIX.4.4|9=61|35=0|34=12|49=TRD82841|52=20241209-00:36:15.794|56=QFXTRADES|10=175|
8=FIX.4.4|9=61|35=0|34=13|49=QFXTRADES|52=20241209-00:36:46.245|56=TRD82841|10=171|
8=FIX.4.4|9=61|35=0|34=13|49=TRD82841|52=20241209-00:36:45.790|56=QFXTRADES|10=175|
8=FIX.4.4|9=61|35=0|34=14|49=QFXTRADES|52=20241209-00:37:16.245|56=TRD82841|10=170|
8=FIX.4.4|9=61|35=0|34=14|49=TRD82841|52=20241209-00:37:15.788|56=QFXTRADES|10=181|
8=FIX.4.4|9=61|35=0|34=15|49=QFXTRADES|52=20241209-00:37:46.245|56=TRD82841|10=174|
8=FIX.4.4|9=61|35=0|34=15|49=TRD82841|52=20241209-00:37:45.785|56=QFXTRADES|10=182|
8=FIX.4.4|9=109|35=A|34=1|49=TRD82841|52=20241209-00:49:17.594|56=QFXTRADES|98=0|108=30|141=Y|553=real82841|554=9hucfe4riucr|10=010|
8=FIX.4.4|9=78|35=A|34=1|49=QFXTRADES|52=20241209-00:49:19.214|56=TRD82841|98=0|108=30|141=Y|10=215|
8=FIX.4.4|9=60|35=0|34=2|49=QFXTRADES|52=20241209-00:49:49.245|56=TRD82841|10=127|
8=FIX.4.4|9=60|35=0|34=2|49=TRD82841|52=20241209-00:49:47.889|56=QFXTRADES|10=139|
8=FIX.4.4|9=60|35=0|34=3|49=QFXTRADES|52=20241209-00:50:19.245|56=TRD82841|10=117|
8=FIX.4.4|9=60|35=0|34=3|49=TRD82841|52=20241209-00:50:18.112|56=QFXTRADES|10=109|
8=FIX.4.4|9=60|35=0|34=4|49=QFXTRADES|52=20241209-00:50:49.245|56=TRD82841|10=121|
8=FIX.4.4|9=60|35=0|34=4|49=TRD82841|52=20241209-00:50:48.111|56=QFXTRADES|10=112|
8=FIX.4.4|9=60|35=0|34=5|49=QFXTRADES|52=20241209-00:51:19.245|56=TRD82841|10=120|
8=FIX.4.4|9=60|35=0|34=5|49=TRD82841|52=20241209-00:51:18.153|56=QFXTRADES|10=117|
8=FIX.4.4|9=60|35=0|34=6|49=QFXTRADES|52=20241209-00:51:49.245|56=TRD82841|10=124|
8=FIX.4.4|9=60|35=0|34=6|49=TRD82841|52=20241209-00:51:49.117|56=QFXTRADES|10=122|
