8=FIX.4.4|9=104|35=A|34=1|49=TRD1602|52=20240830-11:34:34.743|56=QFXTRADES|98=0|108=30|141=Y|553=real1602|554=dfj3k4j34|10=185|
8=FIX.4.4|9=104|35=A|34=1|49=TRD1602|52=20240902-02:06:34.332|56=QFXTRADES|98=0|108=30|141=Y|553=real1602|554=dfj3k4j34|10=178|
8=FIX.4.4|9=104|35=A|34=1|49=TRD1602|52=20240902-02:09:36.318|56=QFXTRADES|98=0|108=30|141=Y|553=real1602|554=dfj3k4j34|10=187|
8=FIX.4.4|9=104|35=A|34=1|49=TRD1602|52=20240902-02:15:40.312|56=QFXTRADES|98=0|108=30|141=Y|553=real1602|554=dfj3k4j34|10=173|
8=FIX.4.4|9=104|35=A|34=1|49=TRD1602|52=20240902-02:18:42.421|56=QFXTRADES|98=0|108=30|141=Y|553=real1602|554=dfj3k4j34|10=179|
8=FIX.4.4|9=104|35=A|34=1|49=TRD1602|52=20240902-02:21:44.397|56=QFXTRADES|98=0|108=30|141=Y|553=real1602|554=dfj3k4j34|10=187|
8=FIX.4.4|9=104|35=A|34=1|49=TRD1602|52=20240902-02:36:35.716|56=QFXTRADES|98=0|108=30|141=Y|553=real1602|554=dfj3k4j34|10=188|
8=FIX.4.4|9=104|35=A|34=1|49=TRD1602|52=20240902-02:44:31.346|56=QFXTRADES|98=0|108=30|141=Y|553=real1602|554=dfj3k4j34|10=182|
8=FIX.4.4|9=104|35=A|34=1|49=TRD1602|52=20240902-02:46:32.276|56=QFXTRADES|98=0|108=30|141=Y|553=real1602|554=dfj3k4j34|10=187|
8=FIX.4.4|9=104|35=A|34=1|49=TRD1602|52=20240902-02:51:35.273|56=QFXTRADES|98=0|108=30|141=Y|553=real1602|554=dfj3k4j34|10=183|
8=FIX.4.4|9=104|35=A|34=1|49=TRD1602|52=20240902-02:59:33.738|56=QFXTRADES|98=0|108=30|141=Y|553=real1602|554=dfj3k4j34|10=195|
8=FIX.4.4|9=104|35=A|34=1|49=TRD1602|52=20240902-03:04:16.682|56=QFXTRADES|98=0|108=30|141=Y|553=real1602|554=dfj3k4j34|10=185|
8=FIX.4.4|9=104|35=A|34=1|49=TRD1602|52=20240903-14:29:28.425|56=QFXTRADES|98=0|108=30|141=Y|553=real1602|554=dfj3k4j34|10=193|
8=FIX.4.4|9=104|35=A|34=1|49=TRD1602|52=20240903-14:32:30.438|56=QFXTRADES|98=0|108=30|141=Y|553=real1602|554=dfj3k4j34|10=184|
8=FIX.4.4|9=104|35=A|34=1|49=TRD1602|52=20240903-14:34:46.687|56=QFXTRADES|98=0|108=30|141=Y|553=real1602|554=dfj3k4j34|10=199|
8=FIX.4.4|9=104|35=A|34=1|49=TRD1602|52=20240903-14:35:32.401|56=QFXTRADES|98=0|108=30|141=Y|553=real1602|554=dfj3k4j34|10=179|
8=FIX.4.4|9=104|35=A|34=1|49=TRD1602|52=20240903-14:38:34.415|56=QFXTRADES|98=0|108=30|141=Y|553=real1602|554=dfj3k4j34|10=189|
8=FIX.4.4|9=104|35=A|34=1|49=TRD1602|52=20240903-20:21:04.399|56=QFXTRADES|98=0|108=30|141=Y|553=real1602|554=dfj3k4j34|10=186|
8=FIX.4.4|9=104|35=A|34=1|49=TRD1602|52=20240903-20:26:08.612|56=QFXTRADES|98=0|108=30|141=Y|553=real1602|554=dfj3k4j34|10=183|
8=FIX.4.4|9=104|35=A|34=1|49=TRD1602|52=20240903-20:27:09.390|56=QFXTRADES|98=0|108=30|141=Y|553=real1602|554=dfj3k4j34|10=188|
8=FIX.4.4|9=104|35=A|34=1|49=TRD1602|52=20240903-20:28:10.398|56=QFXTRADES|98=0|108=30|141=Y|553=real1602|554=dfj3k4j34|10=189|
8=FIX.4.4|9=104|35=A|34=1|49=TRD1602|52=20240903-23:35:01.827|56=QFXTRADES|98=0|108=30|141=Y|553=real1602|554=dfj3k4j34|10=187|
8=FIX.4.4|9=104|35=A|34=1|49=TRD1602|52=20240903-23:39:04.858|56=QFXTRADES|98=0|108=30|141=Y|553=real1602|554=dfj3k4j34|10=198|
8=FIX.4.4|9=104|35=A|34=1|49=TRD1602|52=20240903-23:42:07.899|56=QFXTRADES|98=0|108=30|141=Y|553=real1602|554=dfj3k4j34|10=200|
8=FIX.4.4|9=104|35=A|34=1|49=TRD1602|52=20240903-23:43:07.755|56=QFXTRADES|98=0|108=30|141=Y|553=real1602|554=dfj3k4j34|10=192|
8=FIX.4.4|9=104|35=A|34=1|49=TRD1602|52=20240903-23:46:09.767|56=QFXTRADES|98=0|108=30|141=Y|553=real1602|554=dfj3k4j34|10=200|
8=FIX.4.4|9=104|35=A|34=1|49=TRD1602|52=20240903-23:52:13.778|56=QFXTRADES|98=0|108=30|141=Y|553=real1602|554=dfj3k4j34|10=194|
8=FIX.4.4|9=104|35=A|34=1|49=TRD1602|52=20240903-23:56:16.810|56=QFXTRADES|98=0|108=30|141=Y|553=real1602|554=dfj3k4j34|10=188|
8=FIX.4.4|9=104|35=A|34=1|49=TRD1602|52=20240903-23:59:18.808|56=QFXTRADES|98=0|108=30|141=Y|553=real1602|554=dfj3k4j34|10=200|
8=FIX.4.4|9=104|35=A|34=1|49=TRD1602|52=20240904-00:02:20.761|56=QFXTRADES|98=0|108=30|141=Y|553=real1602|554=dfj3k4j34|10=175|
8=FIX.4.4|9=104|35=A|34=1|49=TRD1602|52=20240904-00:10:25.757|56=QFXTRADES|98=0|108=30|141=Y|553=real1602|554=dfj3k4j34|10=184|
8=FIX.4.4|9=104|35=A|34=1|49=TRD1602|52=20240904-00:12:26.830|56=QFXTRADES|98=0|108=30|141=Y|553=real1602|554=dfj3k4j34|10=179|
8=FIX.4.4|9=104|35=A|34=1|49=TRD1602|52=20240904-00:15:28.748|56=QFXTRADES|98=0|108=30|141=Y|553=real1602|554=dfj3k4j34|10=192|
8=FIX.4.4|9=104|35=A|34=1|49=TRD1602|52=20240904-00:16:30.375|56=QFXTRADES|98=0|108=30|141=Y|553=real1602|554=dfj3k4j34|10=182|
8=FIX.4.4|9=104|35=A|34=1|49=TRD1602|52=20240904-00:20:31.822|56=QFXTRADES|98=0|108=30|141=Y|553=real1602|554=dfj3k4j34|10=175|
8=FIX.4.4|9=104|35=A|34=1|49=TRD1602|52=20240904-00:23:33.894|56=QFXTRADES|98=0|108=30|141=Y|553=real1602|554=dfj3k4j34|10=189|
8=FIX.4.4|9=104|35=A|34=1|49=TRD1602|52=20240904-00:24:34.750|56=QFXTRADES|98=0|108=30|141=Y|553=real1602|554=dfj3k4j34|10=182|
8=FIX.4.4|9=104|35=A|34=1|49=TRD1602|52=20240904-00:27:36.777|56=QFXTRADES|98=0|108=30|141=Y|553=real1602|554=dfj3k4j34|10=196|
8=FIX.4.4|9=104|35=A|34=1|49=TRD1602|52=20240904-00:30:38.937|56=QFXTRADES|98=0|108=30|141=Y|553=real1602|554=dfj3k4j34|10=190|
8=FIX.4.4|9=104|35=A|34=1|49=TRD1602|52=20240904-00:34:41.816|56=QFXTRADES|98=0|108=30|141=Y|553=real1602|554=dfj3k4j34|10=184|
8=FIX.4.4|9=104|35=A|34=1|49=TRD1602|52=20240904-00:37:43.974|56=QFXTRADES|98=0|108=30|141=Y|553=real1602|554=dfj3k4j34|10=194|
8=FIX.4.4|9=104|35=A|34=1|49=TRD1602|52=20240904-00:38:44.753|56=QFXTRADES|98=0|108=30|141=Y|553=real1602|554=dfj3k4j34|10=191|
8=FIX.4.4|9=104|35=A|34=1|49=TRD1602|52=20240904-00:41:46.785|56=QFXTRADES|98=0|108=30|141=Y|553=real1602|554=dfj3k4j34|10=192|
8=FIX.4.4|9=104|35=A|34=1|49=TRD1602|52=20240904-00:44:48.780|56=QFXTRADES|98=0|108=30|141=Y|553=real1602|554=dfj3k4j34|10=192|
8=FIX.4.4|9=104|35=A|34=1|49=TRD1602|52=20240904-00:47:50.870|56=QFXTRADES|98=0|108=30|141=Y|553=real1602|554=dfj3k4j34|10=188|
8=FIX.4.4|9=104|35=A|34=1|49=TRD1602|52=20240904-00:48:51.751|56=QFXTRADES|98=0|108=30|141=Y|553=real1602|554=dfj3k4j34|10=188|
8=FIX.4.4|9=104|35=A|34=1|49=TRD1602|52=20240904-00:51:53.777|56=QFXTRADES|98=0|108=30|141=Y|553=real1602|554=dfj3k4j34|10=192|
8=FIX.4.4|9=104|35=A|34=1|49=TRD1602|52=20240904-00:54:55.775|56=QFXTRADES|98=0|108=30|141=Y|553=real1602|554=dfj3k4j34|10=195|
8=FIX.4.4|9=104|35=A|34=1|49=TRD1602|52=20240904-00:58:58.753|56=QFXTRADES|98=0|108=30|141=Y|553=real1602|554=dfj3k4j34|10=198|
8=FIX.4.4|9=104|35=A|34=1|49=TRD1602|52=20240904-01:02:00.748|56=QFXTRADES|98=0|108=30|141=Y|553=real1602|554=dfj3k4j34|10=179|
8=FIX.4.4|9=104|35=A|34=1|49=TRD1602|52=20240904-01:05:02.774|56=QFXTRADES|98=0|108=30|141=Y|553=real1602|554=dfj3k4j34|10=183|
8=FIX.4.4|9=104|35=A|34=1|49=TRD1602|52=20240904-01:08:04.755|56=QFXTRADES|98=0|108=30|141=Y|553=real1602|554=dfj3k4j34|10=187|
8=FIX.4.4|9=104|35=A|34=1|49=TRD1602|52=20240904-01:10:05.867|56=QFXTRADES|98=0|108=30|141=Y|553=real1602|554=dfj3k4j34|10=185|
8=FIX.4.4|9=104|35=A|34=1|49=TRD1602|52=20240904-01:15:08.778|56=QFXTRADES|98=0|108=30|141=Y|553=real1602|554=dfj3k4j34|10=194|
8=FIX.4.4|9=104|35=A|34=1|49=TRD1602|52=20240904-01:20:11.758|56=QFXTRADES|98=0|108=30|141=Y|553=real1602|554=dfj3k4j34|10=182|
8=FIX.4.4|9=104|35=A|34=1|49=TRD1602|52=20240904-01:22:12.838|56=QFXTRADES|98=0|108=30|141=Y|553=real1602|554=dfj3k4j34|10=184|
8=FIX.4.4|9=104|35=A|34=1|49=TRD1602|52=20240904-01:27:15.849|56=QFXTRADES|98=0|108=30|141=Y|553=real1602|554=dfj3k4j34|10=194|
8=FIX.4.4|9=104|35=A|34=1|49=TRD1602|52=20240904-01:32:18.761|56=QFXTRADES|98=0|108=30|141=Y|553=real1602|554=dfj3k4j34|10=186|
8=FIX.4.4|9=104|35=A|34=1|49=TRD1602|52=20240904-01:34:19.765|56=QFXTRADES|98=0|108=30|141=Y|553=real1602|554=dfj3k4j34|10=193|
8=FIX.4.4|9=104|35=A|34=1|49=TRD1602|52=20240904-01:41:23.752|56=QFXTRADES|98=0|108=30|141=Y|553=real1602|554=dfj3k4j34|10=182|
8=FIX.4.4|9=104|35=A|34=1|49=TRD1602|52=20240904-01:43:24.893|56=QFXTRADES|98=0|108=30|141=Y|553=real1602|554=dfj3k4j34|10=191|
8=FIX.4.4|9=104|35=A|34=1|49=TRD1602|52=20240904-01:48:27.762|56=QFXTRADES|98=0|108=30|141=Y|553=real1602|554=dfj3k4j34|10=194|
8=FIX.4.4|9=104|35=A|34=1|49=TRD1602|52=20240904-01:53:30.758|56=QFXTRADES|98=0|108=30|141=Y|553=real1602|554=dfj3k4j34|10=189|
8=FIX.4.4|9=104|35=A|34=1|49=TRD1602|52=20240904-01:58:33.762|56=QFXTRADES|98=0|108=30|141=Y|553=real1602|554=dfj3k4j34|10=192|
8=FIX.4.4|9=104|35=A|34=1|49=TRD1602|52=20240904-02:01:35.758|56=QFXTRADES|98=0|108=30|141=Y|553=real1602|554=dfj3k4j34|10=188|
8=FIX.4.4|9=104|35=A|34=1|49=TRD1602|52=20240904-02:03:36.853|56=QFXTRADES|98=0|108=30|141=Y|553=real1602|554=dfj3k4j34|10=187|
8=FIX.4.4|9=104|35=A|34=1|49=TRD1602|52=20240904-02:08:39.838|56=QFXTRADES|98=0|108=30|141=Y|553=real1602|554=dfj3k4j34|10=198|
8=FIX.4.4|9=104|35=A|34=1|49=TRD1602|52=20240904-02:11:41.757|56=QFXTRADES|98=0|108=30|141=Y|553=real1602|554=dfj3k4j34|10=185|
8=FIX.4.4|9=104|35=A|34=1|49=TRD1602|52=20240904-02:13:42.842|56=QFXTRADES|98=0|108=30|141=Y|553=real1602|554=dfj3k4j34|10=183|
8=FIX.4.4|9=104|35=A|34=1|49=TRD1602|52=20240904-02:16:44.758|56=QFXTRADES|98=0|108=30|141=Y|553=real1602|554=dfj3k4j34|10=194|
8=FIX.4.4|9=104|35=A|34=1|49=TRD1602|52=20240904-02:18:45.817|56=QFXTRADES|98=0|108=30|141=Y|553=real1602|554=dfj3k4j34|10=193|
8=FIX.4.4|9=104|35=A|34=1|49=TRD1602|52=20240904-02:21:47.759|56=QFXTRADES|98=0|108=30|141=Y|553=real1602|554=dfj3k4j34|10=194|
8=FIX.4.4|9=104|35=A|34=1|49=TRD1602|52=20240904-02:23:48.843|56=QFXTRADES|98=0|108=30|141=Y|553=real1602|554=dfj3k4j34|10=191|
8=FIX.4.4|9=104|35=A|34=1|49=TRD1602|52=20240904-02:26:50.750|56=QFXTRADES|98=0|108=30|141=Y|553=real1602|554=dfj3k4j34|10=184|
8=FIX.4.4|9=104|35=A|34=1|49=TRD1602|52=20240904-02:33:54.774|56=QFXTRADES|98=0|108=30|141=Y|553=real1602|554=dfj3k4j34|10=192|
8=FIX.4.4|9=104|35=A|34=1|49=TRD1602|52=20240904-02:38:57.761|56=QFXTRADES|98=0|108=30|141=Y|553=real1602|554=dfj3k4j34|10=196|
8=FIX.4.4|9=104|35=A|34=1|49=TRD1602|52=20240904-02:46:01.767|56=QFXTRADES|98=0|108=30|141=Y|553=real1602|554=dfj3k4j34|10=190|
8=FIX.4.4|9=104|35=A|34=1|49=TRD1602|52=20240904-02:51:04.761|56=QFXTRADES|98=0|108=30|141=Y|553=real1602|554=dfj3k4j34|10=183|
8=FIX.4.4|9=104|35=A|34=1|49=TRD1602|52=20240904-02:53:05.887|56=QFXTRADES|98=0|108=30|141=Y|553=real1602|554=dfj3k4j34|10=195|
8=FIX.4.4|9=104|35=A|34=1|49=TRD1602|52=20240904-02:56:07.759|56=QFXTRADES|98=0|108=30|141=Y|553=real1602|554=dfj3k4j34|10=198|
8=FIX.4.4|9=104|35=A|34=1|49=TRD1602|52=20240904-09:19:22.822|56=QFXTRADES|98=0|108=30|141=Y|553=real1602|554=dfj3k4j34|10=192|
8=FIX.4.4|9=104|35=A|34=1|49=TRD1602|52=20240904-09:23:25.802|56=QFXTRADES|98=0|108=30|141=Y|553=real1602|554=dfj3k4j34|10=188|
8=FIX.4.4|9=104|35=A|34=1|49=TRD1602|52=20240904-09:24:26.695|56=QFXTRADES|98=0|108=30|141=Y|553=real1602|554=dfj3k4j34|10=200|
8=FIX.4.4|9=104|35=A|34=1|49=TRD1602|52=20240904-09:26:29.253|56=QFXTRADES|98=0|108=30|141=Y|553=real1602|554=dfj3k4j34|10=195|
8=FIX.4.4|9=104|35=A|34=1|49=TRD1602|52=20240904-09:28:30.969|56=QFXTRADES|98=0|108=30|141=Y|553=real1602|554=dfj3k4j34|10=203|
8=FIX.4.4|9=104|35=A|34=1|49=TRD1602|52=20240904-09:29:30.754|56=QFXTRADES|98=0|108=30|141=Y|553=real1602|554=dfj3k4j34|10=196|
8=FIX.4.4|9=104|35=A|34=1|49=TRD1602|52=20240904-09:30:31.702|56=QFXTRADES|98=0|108=30|141=Y|553=real1602|554=dfj3k4j34|10=182|
8=FIX.4.4|9=104|35=A|34=1|49=TRD1602|52=20240904-09:34:34.736|56=QFXTRADES|98=0|108=30|141=Y|553=real1602|554=dfj3k4j34|10=196|
8=FIX.4.4|9=104|35=A|34=1|49=TRD1602|52=20240904-09:40:39.703|56=QFXTRADES|98=0|108=30|141=Y|553=real1602|554=dfj3k4j34|10=192|
8=FIX.4.4|9=104|35=A|34=1|49=TRD1602|52=20240904-09:44:42.724|56=QFXTRADES|98=0|108=30|141=Y|553=real1602|554=dfj3k4j34|10=193|
8=FIX.4.4|9=104|35=A|34=1|49=TRD1602|52=20240904-09:47:44.809|56=QFXTRADES|98=0|108=30|141=Y|553=real1602|554=dfj3k4j34|10=202|
8=FIX.4.4|9=104|35=A|34=1|49=TRD1602|52=20240904-09:48:45.705|56=QFXTRADES|98=0|108=30|141=Y|553=real1602|554=dfj3k4j34|10=199|
8=FIX.4.4|9=104|35=A|34=1|49=TRD1602|52=20240904-09:51:47.850|56=QFXTRADES|98=0|108=30|141=Y|553=real1602|554=dfj3k4j34|10=196|
8=FIX.4.4|9=104|35=A|34=1|49=TRD1602|52=20240904-09:55:50.762|56=QFXTRADES|98=0|108=30|141=Y|553=real1602|554=dfj3k4j34|10=196|
8=FIX.4.4|9=104|35=A|34=1|49=TRD1602|52=20240904-09:59:53.703|56=QFXTRADES|98=0|108=30|141=Y|553=real1602|554=dfj3k4j34|10=198|
8=FIX.4.4|9=104|35=A|34=1|49=TRD1602|52=20240904-10:02:55.812|56=QFXTRADES|98=0|108=30|141=Y|553=real1602|554=dfj3k4j34|10=181|
8=FIX.4.4|9=104|35=A|34=1|49=TRD1602|52=20240904-10:07:59.737|56=QFXTRADES|98=0|108=30|141=Y|553=real1602|554=dfj3k4j34|10=196|
8=FIX.4.4|9=104|35=A|34=1|49=TRD1602|52=20240904-10:18:05.702|56=QFXTRADES|98=0|108=30|141=Y|553=real1602|554=dfj3k4j34|10=181|
8=FIX.4.4|9=104|35=A|34=1|49=TRD1602|52=20240904-10:20:06.819|56=QFXTRADES|98=0|108=30|141=Y|553=real1602|554=dfj3k4j34|10=184|
8=FIX.4.4|9=104|35=A|34=1|49=TRD1602|52=20240904-10:30:11.695|56=QFXTRADES|98=0|108=30|141=Y|553=real1602|554=dfj3k4j34|10=183|
8=FIX.4.4|9=104|35=A|34=1|49=TRD1602|52=20240904-10:35:13.728|56=QFXTRADES|98=0|108=30|141=Y|553=real1602|554=dfj3k4j34|10=187|
8=FIX.4.4|9=104|35=A|34=1|49=TRD1602|52=20240904-10:37:14.695|56=QFXTRADES|98=0|108=30|141=Y|553=real1602|554=dfj3k4j34|10=193|
8=FIX.4.4|9=104|35=A|34=1|49=TRD1602|52=20240904-10:39:15.705|56=QFXTRADES|98=0|108=30|141=Y|553=real1602|554=dfj3k4j34|10=188|
8=FIX.4.4|9=104|35=A|34=1|49=TRD1602|52=20240904-10:46:38.339|56=QFXTRADES|98=0|108=30|141=Y|553=real1602|554=dfj3k4j34|10=194|
8=FIX.4.4|9=104|35=A|34=1|49=TRD1602|52=20240904-10:49:40.332|56=QFXTRADES|98=0|108=30|141=Y|553=real1602|554=dfj3k4j34|10=183|
8=FIX.4.4|9=104|35=A|34=1|49=TRD1602|52=20240904-11:07:51.065|56=QFXTRADES|98=0|108=30|141=Y|553=real1602|554=dfj3k4j34|10=183|
8=FIX.4.4|9=104|35=A|34=1|49=TRD1602|52=20240904-11:12:55.101|56=QFXTRADES|98=0|108=30|141=Y|553=real1602|554=dfj3k4j34|10=174|
8=FIX.4.4|9=104|35=A|34=1|49=TRD1602|52=20240904-11:17:59.038|56=QFXTRADES|98=0|108=30|141=Y|553=real1602|554=dfj3k4j34|10=192|
8=FIX.4.4|9=104|35=A|34=1|49=TRD1602|52=20240904-11:24:04.003|56=QFXTRADES|98=0|108=30|141=Y|553=real1602|554=dfj3k4j34|10=172|
8=FIX.4.4|9=104|35=A|34=1|49=TRD1602|52=20240904-11:33:00.471|56=QFXTRADES|98=0|108=30|141=Y|553=real1602|554=dfj3k4j34|10=177|
8=FIX.4.4|9=104|35=A|34=1|49=TRD1602|52=20240904-11:34:01.343|56=QFXTRADES|98=0|108=30|141=Y|553=real1602|554=dfj3k4j34|10=177|
8=FIX.4.4|9=104|35=A|34=1|49=TRD1602|52=20240904-11:38:04.355|56=QFXTRADES|98=0|108=30|141=Y|553=real1602|554=dfj3k4j34|10=187|
8=FIX.4.4|9=104|35=A|34=1|49=TRD1602|52=20240904-11:42:07.477|56=QFXTRADES|98=0|108=30|141=Y|553=real1602|554=dfj3k4j34|10=190|
8=FIX.4.4|9=104|35=A|34=1|49=TRD1602|52=20240904-11:43:08.349|56=QFXTRADES|98=0|108=30|141=Y|553=real1602|554=dfj3k4j34|10=190|
8=FIX.4.4|9=104|35=A|34=1|49=TRD1602|52=20240904-11:47:11.347|56=QFXTRADES|98=0|108=30|141=Y|553=real1602|554=dfj3k4j34|10=186|
8=FIX.4.4|9=104|35=A|34=1|49=TRD1602|52=20240904-11:50:13.951|56=QFXTRADES|98=0|108=30|141=Y|553=real1602|554=dfj3k4j34|10=183|
8=FIX.4.4|9=104|35=A|34=1|49=TRD1602|52=20240904-11:51:23.348|56=QFXTRADES|98=0|108=30|141=Y|553=real1602|554=dfj3k4j34|10=185|
8=FIX.4.4|9=104|35=A|34=1|49=TRD1602|52=20240904-11:52:15.224|56=QFXTRADES|98=0|108=30|141=Y|553=real1602|554=dfj3k4j34|10=180|
8=FIX.4.4|9=104|35=A|34=1|49=TRD1602|52=20240904-11:55:19.347|56=QFXTRADES|98=0|108=30|141=Y|553=real1602|554=dfj3k4j34|10=193|
8=FIX.4.4|9=104|35=A|34=1|49=TRD1602|52=20240904-11:57:18.514|56=QFXTRADES|98=0|108=30|141=Y|553=real1602|554=dfj3k4j34|10=190|
8=FIX.4.4|9=104|35=A|34=1|49=TRD1602|52=20240904-11:58:18.490|56=QFXTRADES|98=0|108=30|141=Y|553=real1602|554=dfj3k4j34|10=194|
8=FIX.4.4|9=104|35=A|34=1|49=TRD1602|52=20240904-11:59:18.837|56=QFXTRADES|98=0|108=30|141=Y|553=real1602|554=dfj3k4j34|10=200|
8=FIX.4.4|9=104|35=A|34=1|49=TRD1602|52=20240904-12:53:45.677|56=QFXTRADES|98=0|108=30|141=Y|553=real1602|554=dfj3k4j34|10=197|
8=FIX.4.4|9=104|35=A|34=1|49=TRD1602|52=20240904-12:57:32.852|56=QFXTRADES|98=0|108=30|141=Y|553=real1602|554=dfj3k4j34|10=192|
8=FIX.4.4|9=104|35=A|34=1|49=TRD1602|52=20240904-13:03:43.635|56=QFXTRADES|98=0|108=30|141=Y|553=real1602|554=dfj3k4j34|10=185|
8=FIX.4.4|9=104|35=A|34=1|49=TRD1602|52=20240904-13:10:48.712|56=QFXTRADES|98=0|108=30|141=Y|553=real1602|554=dfj3k4j34|10=184|
8=FIX.4.4|9=104|35=A|34=1|49=TRD1602|52=20240904-13:14:51.812|56=QFXTRADES|98=0|108=30|141=Y|553=real1602|554=dfj3k4j34|10=183|
8=FIX.4.4|9=104|35=A|34=1|49=TRD1602|52=20240904-13:15:52.752|56=QFXTRADES|98=0|108=30|141=Y|553=real1602|554=dfj3k4j34|10=188|
8=FIX.4.4|9=104|35=A|34=1|49=TRD1602|52=20240904-13:16:53.620|56=QFXTRADES|98=0|108=30|141=Y|553=real1602|554=dfj3k4j34|10=184|
8=FIX.4.4|9=104|35=A|34=1|49=TRD1602|52=20240904-13:19:55.737|56=QFXTRADES|98=0|108=30|141=Y|553=real1602|554=dfj3k4j34|10=198|
8=FIX.4.4|9=104|35=A|34=1|49=TRD1602|52=20240904-13:20:56.636|56=QFXTRADES|98=0|108=30|141=Y|553=real1602|554=dfj3k4j34|10=189|
8=FIX.4.4|9=104|35=A|34=1|49=TRD1602|52=20240904-13:21:56.634|56=QFXTRADES|98=0|108=30|141=Y|553=real1602|554=dfj3k4j34|10=188|
8=FIX.4.4|9=104|35=A|34=1|49=TRD1602|52=20240904-13:27:01.712|56=QFXTRADES|98=0|108=30|141=Y|553=real1602|554=dfj3k4j34|10=181|
8=FIX.4.4|9=104|35=A|34=1|49=TRD1602|52=20240904-13:34:05.788|56=QFXTRADES|98=0|108=30|141=Y|553=real1602|554=dfj3k4j34|10=196|
8=FIX.4.4|9=104|35=A|34=1|49=TRD1602|52=20240904-13:35:06.668|56=QFXTRADES|98=0|108=30|141=Y|553=real1602|554=dfj3k4j34|10=195|
8=FIX.4.4|9=104|35=A|34=1|49=TRD1602|52=20240904-13:41:10.693|56=QFXTRADES|98=0|108=30|141=Y|553=real1602|554=dfj3k4j34|10=185|
8=FIX.4.4|9=104|35=A|34=1|49=TRD1602|52=20240904-13:42:11.627|56=QFXTRADES|98=0|108=30|141=Y|553=real1602|554=dfj3k4j34|10=184|
8=FIX.4.4|9=104|35=A|34=1|49=TRD1602|52=20240904-13:45:13.706|56=QFXTRADES|98=0|108=30|141=Y|553=real1602|554=dfj3k4j34|10=187|
8=FIX.4.4|9=104|35=A|34=1|49=TRD1602|52=20240904-13:50:17.635|56=QFXTRADES|98=0|108=30|141=Y|553=real1602|554=dfj3k4j34|10=188|
8=FIX.4.4|9=104|35=A|34=1|49=TRD1602|52=20240904-13:54:20.691|56=QFXTRADES|98=0|108=30|141=Y|553=real1602|554=dfj3k4j34|10=188|
8=FIX.4.4|9=104|35=A|34=1|49=TRD1602|52=20240904-13:59:24.622|56=QFXTRADES|98=0|108=30|141=Y|553=real1602|554=dfj3k4j34|10=191|
8=FIX.4.4|9=104|35=A|34=1|49=TRD1602|52=20240904-14:00:25.622|56=QFXTRADES|98=0|108=30|141=Y|553=real1602|554=dfj3k4j34|10=179|
8=FIX.4.4|9=104|35=A|34=1|49=TRD1602|52=20240904-14:03:27.942|56=QFXTRADES|98=0|108=30|141=Y|553=real1602|554=dfj3k4j34|10=189|
8=FIX.4.4|9=104|35=A|34=1|49=TRD1602|52=20240904-14:04:28.791|56=QFXTRADES|98=0|108=30|141=Y|553=real1602|554=dfj3k4j34|10=193|
8=FIX.4.4|9=104|35=A|34=1|49=TRD1602|52=20240904-14:05:29.621|56=QFXTRADES|98=0|108=30|141=Y|553=real1602|554=dfj3k4j34|10=187|
8=FIX.4.4|9=104|35=A|34=1|49=TRD1602|52=20240904-14:10:33.676|56=QFXTRADES|98=0|108=30|141=Y|553=real1602|554=dfj3k4j34|10=188|
8=FIX.4.4|9=104|35=A|34=1|49=TRD1602|52=20240904-14:11:34.631|56=QFXTRADES|98=0|108=30|141=Y|553=real1602|554=dfj3k4j34|10=181|
8=FIX.4.4|9=104|35=A|34=1|49=TRD1602|52=20240904-14:15:37.681|56=QFXTRADES|98=0|108=30|141=Y|553=real1602|554=dfj3k4j34|10=193|
8=FIX.4.4|9=104|35=A|34=1|49=TRD1602|52=20240904-14:19:40.887|56=QFXTRADES|98=0|108=30|141=Y|553=real1602|554=dfj3k4j34|10=199|
8=FIX.4.4|9=104|35=A|34=1|49=TRD1602|52=20240904-14:20:41.630|56=QFXTRADES|98=0|108=30|141=Y|553=real1602|554=dfj3k4j34|10=178|
8=FIX.4.4|9=104|35=A|34=1|49=TRD1602|52=20240904-14:24:44.651|56=QFXTRADES|98=0|108=30|141=Y|553=real1602|554=dfj3k4j34|10=188|
8=FIX.4.4|9=104|35=A|34=1|49=TRD1602|52=20240904-14:28:47.623|56=QFXTRADES|98=0|108=30|141=Y|553=real1602|554=dfj3k4j34|10=194|
8=FIX.4.4|9=104|35=A|34=1|49=TRD1602|52=20240904-14:32:50.694|56=QFXTRADES|98=0|108=30|141=Y|553=real1602|554=dfj3k4j34|10=191|
8=FIX.4.4|9=104|35=A|34=1|49=TRD1602|52=20240904-14:36:53.700|56=QFXTRADES|98=0|108=30|141=Y|553=real1602|554=dfj3k4j34|10=186|
8=FIX.4.4|9=104|35=A|34=1|49=TRD1602|52=20240904-14:41:57.627|56=QFXTRADES|98=0|108=30|141=Y|553=real1602|554=dfj3k4j34|10=194|
8=FIX.4.4|9=104|35=A|34=1|49=TRD1602|52=20240904-14:46:00.748|56=QFXTRADES|98=0|108=30|141=Y|553=real1602|554=dfj3k4j34|10=191|
8=FIX.4.4|9=104|35=A|34=1|49=TRD1602|52=20240904-14:47:01.625|56=QFXTRADES|98=0|108=30|141=Y|553=real1602|554=dfj3k4j34|10=187|
8=FIX.4.4|9=104|35=A|34=1|49=TRD1602|52=20240904-14:51:04.627|56=QFXTRADES|98=0|108=30|141=Y|553=real1602|554=dfj3k4j34|10=187|
8=FIX.4.4|9=104|35=A|34=1|49=TRD1602|52=20240904-14:55:07.624|56=QFXTRADES|98=0|108=30|141=Y|553=real1602|554=dfj3k4j34|10=191|
8=FIX.4.4|9=104|35=A|34=1|49=TRD1602|52=20240904-19:10:27.708|56=QFXTRADES|98=0|108=30|141=Y|553=real1602|554=dfj3k4j34|10=192|
8=FIX.4.4|9=104|35=A|34=1|49=TRD1602|52=20240904-19:15:31.478|56=QFXTRADES|98=0|108=30|141=Y|553=real1602|554=dfj3k4j34|10=196|
8=FIX.4.4|9=104|35=A|34=1|49=TRD1602|52=20240904-19:19:35.580|56=QFXTRADES|98=0|108=30|141=Y|553=real1602|554=dfj3k4j34|10=198|
8=FIX.4.4|9=104|35=A|34=1|49=TRD1602|52=20240904-19:20:35.420|56=QFXTRADES|98=0|108=30|141=Y|553=real1602|554=dfj3k4j34|10=183|
8=FIX.4.4|9=104|35=A|34=1|49=TRD1602|52=20240904-19:24:38.422|56=QFXTRADES|98=0|108=30|141=Y|553=real1602|554=dfj3k4j34|10=192|
8=FIX.4.4|9=104|35=A|34=1|49=TRD1602|52=20240904-19:28:41.524|56=QFXTRADES|98=0|108=30|141=Y|553=real1602|554=dfj3k4j34|10=193|
8=FIX.4.4|9=104|35=A|34=1|49=TRD1602|52=20240904-19:29:42.535|56=QFXTRADES|98=0|108=30|141=Y|553=real1602|554=dfj3k4j34|10=197|
8=FIX.4.4|9=104|35=A|34=1|49=TRD1602|52=20240904-19:30:43.424|56=QFXTRADES|98=0|108=30|141=Y|553=real1602|554=dfj3k4j34|10=187|
8=FIX.4.4|9=104|35=A|34=1|49=TRD1602|52=20240904-19:33:45.536|56=QFXTRADES|98=0|108=30|141=Y|553=real1602|554=dfj3k4j34|10=196|
8=FIX.4.4|9=104|35=A|34=1|49=TRD1602|52=20240904-19:34:46.432|56=QFXTRADES|98=0|108=30|141=Y|553=real1602|554=dfj3k4j34|10=193|
8=FIX.4.4|9=104|35=A|34=1|49=TRD1602|52=20240904-19:39:50.418|56=QFXTRADES|98=0|108=30|141=Y|553=real1602|554=dfj3k4j34|10=197|
8=FIX.4.4|9=104|35=A|34=1|49=TRD1602|52=20240904-19:41:52.420|56=QFXTRADES|98=0|108=30|141=Y|553=real1602|554=dfj3k4j34|10=185|
8=FIX.4.4|9=104|35=A|34=1|49=TRD1602|52=20240904-19:45:54.437|56=QFXTRADES|98=0|108=30|141=Y|553=real1602|554=dfj3k4j34|10=199|
8=FIX.4.4|9=104|35=A|34=1|49=TRD1602|52=20240904-19:50:58.545|56=QFXTRADES|98=0|108=30|141=Y|553=real1602|554=dfj3k4j34|10=199|
8=FIX.4.4|9=104|35=A|34=1|49=TRD1602|52=20240904-19:51:59.473|56=QFXTRADES|98=0|108=30|141=Y|553=real1602|554=dfj3k4j34|10=201|
8=FIX.4.4|9=104|35=A|34=1|49=TRD1602|52=20240904-19:54:01.418|56=QFXTRADES|98=0|108=30|141=Y|553=real1602|554=dfj3k4j34|10=190|
8=FIX.4.4|9=104|35=A|34=1|49=TRD1602|52=20240904-19:58:04.980|56=QFXTRADES|98=0|108=30|141=Y|553=real1602|554=dfj3k4j34|10=201|
8=FIX.4.4|9=104|35=A|34=1|49=TRD1602|52=20240904-20:01:10.452|56=QFXTRADES|98=0|108=30|141=Y|553=real1602|554=dfj3k4j34|10=172|
8=FIX.4.4|9=104|35=A|34=1|49=TRD1602|52=20240904-20:06:09.419|56=QFXTRADES|98=0|108=30|141=Y|553=real1602|554=dfj3k4j34|10=188|
8=FIX.4.4|9=104|35=A|34=1|49=TRD1602|52=20240904-20:07:10.437|56=QFXTRADES|98=0|108=30|141=Y|553=real1602|554=dfj3k4j34|10=181|
8=FIX.4.4|9=104|35=A|34=1|49=TRD1602|52=20240904-20:11:13.459|56=QFXTRADES|98=0|108=30|141=Y|553=real1602|554=dfj3k4j34|10=183|
8=FIX.4.4|9=104|35=A|34=1|49=TRD1602|52=20240904-20:12:14.425|56=QFXTRADES|98=0|108=30|141=Y|553=real1602|554=dfj3k4j34|10=178|
8=FIX.4.4|9=104|35=A|34=1|49=TRD1602|52=20240904-20:15:16.578|56=QFXTRADES|98=0|108=30|141=Y|553=real1602|554=dfj3k4j34|10=192|
8=FIX.4.4|9=104|35=A|34=1|49=TRD1602|52=20240904-20:16:17.424|56=QFXTRADES|98=0|108=30|141=Y|553=real1602|554=dfj3k4j34|10=184|
8=FIX.4.4|9=104|35=A|34=1|49=TRD1602|52=20240904-20:20:20.491|56=QFXTRADES|98=0|108=30|141=Y|553=real1602|554=dfj3k4j34|10=177|
8=FIX.4.4|9=104|35=A|34=1|49=TRD1602|52=20240904-20:21:21.424|56=QFXTRADES|98=0|108=30|141=Y|553=real1602|554=dfj3k4j34|10=175|
8=FIX.4.4|9=104|35=A|34=1|49=TRD1602|52=20240904-20:22:22.432|56=QFXTRADES|98=0|108=30|141=Y|553=real1602|554=dfj3k4j34|10=176|
8=FIX.4.4|9=104|35=A|34=1|49=TRD1602|52=20240904-20:27:26.427|56=QFXTRADES|98=0|108=30|141=Y|553=real1602|554=dfj3k4j34|10=189|
8=FIX.4.4|9=104|35=A|34=1|49=TRD1602|52=20240904-20:32:31.662|56=QFXTRADES|98=0|108=30|141=Y|553=real1602|554=dfj3k4j34|10=182|
8=FIX.4.4|9=104|35=A|34=1|49=TRD1602|52=20240904-20:33:31.480|56=QFXTRADES|98=0|108=30|141=Y|553=real1602|554=dfj3k4j34|10=181|
8=FIX.4.4|9=104|35=A|34=1|49=TRD1602|52=20240904-20:34:32.422|56=QFXTRADES|98=0|108=30|141=Y|553=real1602|554=dfj3k4j34|10=179|
8=FIX.4.4|9=104|35=A|34=1|49=TRD1602|52=20240904-20:35:33.418|56=QFXTRADES|98=0|108=30|141=Y|553=real1602|554=dfj3k4j34|10=186|
8=FIX.4.4|9=104|35=A|34=1|49=TRD1602|52=20240904-20:40:37.501|56=QFXTRADES|98=0|108=30|141=Y|553=real1602|554=dfj3k4j34|10=179|
8=FIX.4.4|9=104|35=A|34=1|49=TRD1602|52=20240904-20:41:38.422|56=QFXTRADES|98=0|108=30|141=Y|553=real1602|554=dfj3k4j34|10=183|
8=FIX.4.4|9=104|35=A|34=1|49=TRD1602|52=20240904-20:46:42.704|56=QFXTRADES|98=0|108=30|141=Y|553=real1602|554=dfj3k4j34|10=186|
8=FIX.4.4|9=104|35=A|34=1|49=TRD1602|52=20240904-20:47:43.644|56=QFXTRADES|98=0|108=30|141=Y|553=real1602|554=dfj3k4j34|10=191|
8=FIX.4.4|9=104|35=A|34=1|49=TRD1602|52=20240904-20:48:44.423|56=QFXTRADES|98=0|108=30|141=Y|553=real1602|554=dfj3k4j34|10=188|
8=FIX.4.4|9=104|35=A|34=1|49=TRD1602|52=20240904-20:53:48.454|56=QFXTRADES|98=0|108=30|141=Y|553=real1602|554=dfj3k4j34|10=192|
8=FIX.4.4|9=104|35=A|34=1|49=TRD1602|52=20240904-20:54:49.431|56=QFXTRADES|98=0|108=30|141=Y|553=real1602|554=dfj3k4j34|10=189|
8=FIX.4.4|9=104|35=A|34=1|49=TRD1602|52=20240904-20:58:52.447|56=QFXTRADES|98=0|108=30|141=Y|553=real1602|554=dfj3k4j34|10=194|
8=FIX.4.4|9=104|35=A|34=1|49=TRD1602|52=20240904-20:59:53.420|56=QFXTRADES|98=0|108=30|141=Y|553=real1602|554=dfj3k4j34|10=187|
8=FIX.4.4|9=104|35=A|34=1|49=TRD1602|52=20240904-21:05:58.469|56=QFXTRADES|98=0|108=30|141=Y|553=real1602|554=dfj3k4j34|10=197|
8=FIX.4.4|9=104|35=A|34=1|49=TRD1602|52=20240904-21:08:00.419|56=QFXTRADES|98=0|108=30|141=Y|553=real1602|554=dfj3k4j34|10=182|
8=FIX.4.4|9=104|35=A|34=1|49=TRD1602|52=20240904-21:11:02.598|56=QFXTRADES|98=0|108=30|141=Y|553=real1602|554=dfj3k4j34|10=186|
8=FIX.4.4|9=104|35=A|34=1|49=TRD1602|52=20240904-21:12:03.423|56=QFXTRADES|98=0|108=30|141=Y|553=real1602|554=dfj3k4j34|10=175|
8=FIX.4.4|9=104|35=A|34=1|49=TRD1602|52=20240907-19:19:07.763|56=QFXTRADES|98=0|108=30|141=Y|553=real1602|554=dfj3k4j34|10=203|
8=FIX.4.4|9=104|35=A|34=1|49=TRD1602|52=20240907-19:22:48.754|56=QFXTRADES|98=0|108=30|141=Y|553=real1602|554=dfj3k4j34|10=202|
8=FIX.4.4|9=104|35=A|34=1|49=TRD1602|52=20240907-19:26:36.766|56=QFXTRADES|98=0|108=30|141=Y|553=real1602|554=dfj3k4j34|10=206|
8=FIX.4.4|9=104|35=A|34=1|49=TRD1602|52=20240907-19:27:37.604|56=QFXTRADES|98=0|108=30|141=Y|553=real1602|554=dfj3k4j34|10=199|
8=FIX.4.4|9=104|35=A|34=1|49=TRD1602|52=20240907-19:28:38.593|56=QFXTRADES|98=0|108=30|141=Y|553=real1602|554=dfj3k4j34|10=208|
8=FIX.4.4|9=104|35=A|34=1|49=TRD1602|52=20240907-19:30:39.781|56=QFXTRADES|98=0|108=30|141=Y|553=real1602|554=dfj3k4j34|10=201|
8=FIX.4.4|9=104|35=A|34=1|49=TRD1602|52=20240907-19:31:40.710|56=QFXTRADES|98=0|108=30|141=Y|553=real1602|554=dfj3k4j34|10=186|
8=FIX.4.4|9=104|35=A|34=1|49=TRD1602|52=20240907-19:32:40.717|56=QFXTRADES|98=0|108=30|141=Y|553=real1602|554=dfj3k4j34|10=194|
8=FIX.4.4|9=104|35=A|34=1|49=TRD1602|52=20240907-19:33:43.091|56=QFXTRADES|98=0|108=30|141=Y|553=real1602|554=dfj3k4j34|10=193|
8=FIX.4.4|9=104|35=A|34=1|49=TRD1602|52=20240907-19:36:59.496|56=QFXTRADES|98=0|108=30|141=Y|553=real1602|554=dfj3k4j34|10=212|
8=FIX.4.4|9=104|35=A|34=1|49=TRD1602|52=20240907-19:38:00.394|56=QFXTRADES|98=0|108=30|141=Y|553=real1602|554=dfj3k4j34|10=197|
8=FIX.4.4|9=104|35=A|34=1|49=TRD1602|52=20240907-19:39:01.400|56=QFXTRADES|98=0|108=30|141=Y|553=real1602|554=dfj3k4j34|10=187|
8=FIX.4.4|9=104|35=A|34=1|49=TRD1602|52=20240907-19:45:06.476|56=QFXTRADES|98=0|108=30|141=Y|553=real1602|554=dfj3k4j34|10=202|
8=FIX.4.4|9=104|35=A|34=1|49=TRD1602|52=20240907-19:46:07.768|56=QFXTRADES|98=0|108=30|141=Y|553=real1602|554=dfj3k4j34|10=208|
8=FIX.4.4|9=104|35=A|34=1|49=TRD1602|52=20240907-19:47:09.397|56=QFXTRADES|98=0|108=30|141=Y|553=real1602|554=dfj3k4j34|10=209|
8=FIX.4.4|9=104|35=A|34=1|49=TRD1602|52=20240907-19:50:11.401|56=QFXTRADES|98=0|108=30|141=Y|553=real1602|554=dfj3k4j34|10=182|
8=FIX.4.4|9=104|35=A|34=1|49=TRD1602|52=20240907-19:51:11.393|56=QFXTRADES|98=0|108=30|141=Y|553=real1602|554=dfj3k4j34|10=193|
8=FIX.4.4|9=104|35=A|34=1|49=TRD1602|52=20240907-19:52:11.532|56=QFXTRADES|98=0|108=30|141=Y|553=real1602|554=dfj3k4j34|10=189|
8=FIX.4.4|9=104|35=A|34=1|49=TRD1602|52=20240907-19:53:11.446|56=QFXTRADES|98=0|108=30|141=Y|553=real1602|554=dfj3k4j34|10=194|
8=FIX.4.4|9=104|35=A|34=1|49=TRD1602|52=20240907-19:54:12.491|56=QFXTRADES|98=0|108=30|141=Y|553=real1602|554=dfj3k4j34|10=196|
8=FIX.4.4|9=104|35=A|34=1|49=TRD1602|52=20240907-19:55:12.495|56=QFXTRADES|98=0|108=30|141=Y|553=real1602|554=dfj3k4j34|10=201|
8=FIX.4.4|9=104|35=A|34=1|49=TRD1602|52=20240907-19:56:13.445|56=QFXTRADES|98=0|108=30|141=Y|553=real1602|554=dfj3k4j34|10=198|
8=FIX.4.4|9=104|35=A|34=1|49=TRD1602|52=20240907-19:57:14.457|56=QFXTRADES|98=0|108=30|141=Y|553=real1602|554=dfj3k4j34|10=203|
8=FIX.4.4|9=104|35=A|34=1|49=TRD1602|52=20240907-19:58:14.784|56=QFXTRADES|98=0|108=30|141=Y|553=real1602|554=dfj3k4j34|10=207|
8=FIX.4.4|9=104|35=A|34=1|49=TRD1602|52=20240907-20:01:17.408|56=QFXTRADES|98=0|108=30|141=Y|553=real1602|554=dfj3k4j34|10=183|
8=FIX.4.4|9=104|35=A|34=1|49=TRD1602|52=20240907-20:05:19.717|56=QFXTRADES|98=0|108=30|141=Y|553=real1602|554=dfj3k4j34|10=192|
8=FIX.4.4|9=104|35=A|34=1|49=TRD1602|52=20240907-20:06:19.086|56=QFXTRADES|98=0|108=30|141=Y|553=real1602|554=dfj3k4j34|10=192|
8=FIX.4.4|9=104|35=A|34=1|49=TRD1602|52=20240907-20:07:20.265|56=QFXTRADES|98=0|108=30|141=Y|553=real1602|554=dfj3k4j34|10=184|
8=FIX.4.4|9=104|35=A|34=1|49=TRD1602|52=20240907-20:08:20.872|56=QFXTRADES|98=0|108=30|141=Y|553=real1602|554=dfj3k4j34|10=189|
8=FIX.4.4|9=104|35=A|34=1|49=TRD1602|52=20240907-20:12:22.568|56=QFXTRADES|98=0|108=30|141=Y|553=real1602|554=dfj3k4j34|10=188|
8=FIX.4.4|9=104|35=A|34=1|49=TRD1602|52=20240907-20:18:26.401|56=QFXTRADES|98=0|108=30|141=Y|553=real1602|554=dfj3k4j34|10=184|
8=FIX.4.4|9=104|35=A|34=1|49=TRD1602|52=20240907-20:19:27.009|56=QFXTRADES|98=0|108=30|141=Y|553=real1602|554=dfj3k4j34|10=190|
8=FIX.4.4|9=104|35=A|34=1|49=TRD1602|52=20240907-20:21:28.401|56=QFXTRADES|98=0|108=30|141=Y|553=real1602|554=dfj3k4j34|10=180|
8=FIX.4.4|9=104|35=A|34=1|49=TRD1602|52=20240907-20:22:28.400|56=QFXTRADES|98=0|108=30|141=Y|553=real1602|554=dfj3k4j34|10=180|
8=FIX.4.4|9=104|35=A|34=1|49=TRD1602|52=20240907-20:23:28.402|56=QFXTRADES|98=0|108=30|141=Y|553=real1602|554=dfj3k4j34|10=183|
8=FIX.4.4|9=104|35=A|34=1|49=TRD1602|52=20240907-20:25:28.393|56=QFXTRADES|98=0|108=30|141=Y|553=real1602|554=dfj3k4j34|10=194|
8=FIX.4.4|9=104|35=A|34=1|49=TRD1602|52=20240907-20:28:31.398|56=QFXTRADES|98=0|108=30|141=Y|553=real1602|554=dfj3k4j34|10=196|
8=FIX.4.4|9=104|35=A|34=1|49=TRD1602|52=20240907-20:30:32.390|56=QFXTRADES|98=0|108=30|141=Y|553=real1602|554=dfj3k4j34|10=182|
8=FIX.4.4|9=104|35=A|34=1|49=TRD1602|52=20240907-20:31:32.400|56=QFXTRADES|98=0|108=30|141=Y|553=real1602|554=dfj3k4j34|10=175|
8=FIX.4.4|9=104|35=A|34=1|49=TRD1602|52=20240907-20:34:35.546|56=QFXTRADES|98=0|108=30|141=Y|553=real1602|554=dfj3k4j34|10=192|
8=FIX.4.4|9=104|35=A|34=1|49=TRD1602|52=20240907-20:35:34.511|56=QFXTRADES|98=0|108=30|141=Y|553=real1602|554=dfj3k4j34|10=184|
8=FIX.4.4|9=104|35=A|34=1|49=TRD1602|52=20240907-20:36:34.866|56=QFXTRADES|98=0|108=30|141=Y|553=real1602|554=dfj3k4j34|10=198|
8=FIX.4.4|9=104|35=A|34=1|49=TRD1602|52=20240907-20:43:40.416|56=QFXTRADES|98=0|108=30|141=Y|553=real1602|554=dfj3k4j34|10=184|
8=FIX.4.4|9=104|35=A|34=1|49=TRD1602|52=20240907-20:44:40.493|56=QFXTRADES|98=0|108=30|141=Y|553=real1602|554=dfj3k4j34|10=190|
8=FIX.4.4|9=104|35=A|34=1|49=TRD1602|52=20240907-20:45:40.571|56=QFXTRADES|98=0|108=30|141=Y|553=real1602|554=dfj3k4j34|10=188|
8=FIX.4.4|9=104|35=A|34=1|49=TRD1602|52=20240907-20:46:41.498|56=QFXTRADES|98=0|108=30|141=Y|553=real1602|554=dfj3k4j34|10=198|
8=FIX.4.4|9=104|35=A|34=1|49=TRD1602|52=20240907-20:47:42.395|56=QFXTRADES|98=0|108=30|141=Y|553=real1602|554=dfj3k4j34|10=196|
8=FIX.4.4|9=104|35=A|34=1|49=TRD1602|52=20240907-20:48:43.402|56=QFXTRADES|98=0|108=30|141=Y|553=real1602|554=dfj3k4j34|10=187|
8=FIX.4.4|9=104|35=A|34=1|49=TRD1602|52=20240907-20:49:44.399|56=QFXTRADES|98=0|108=30|141=Y|553=real1602|554=dfj3k4j34|10=204|
8=FIX.4.4|9=104|35=A|34=1|49=TRD1602|52=20240907-20:50:45.398|56=QFXTRADES|98=0|108=30|141=Y|553=real1602|554=dfj3k4j34|10=196|
8=FIX.4.4|9=104|35=A|34=1|49=TRD1602|52=20240907-20:51:45.405|56=QFXTRADES|98=0|108=30|141=Y|553=real1602|554=dfj3k4j34|10=186|
8=FIX.4.4|9=104|35=A|34=1|49=TRD1602|52=20240907-20:57:49.403|56=QFXTRADES|98=0|108=30|141=Y|553=real1602|554=dfj3k4j34|10=194|
8=FIX.4.4|9=104|35=A|34=1|49=TRD1602|52=20240907-21:03:53.589|56=QFXTRADES|98=0|108=30|141=Y|553=real1602|554=dfj3k4j34|10=196|
8=FIX.4.4|9=104|35=A|34=1|49=TRD1602|52=20240907-21:04:54.414|56=QFXTRADES|98=0|108=30|141=Y|553=real1602|554=dfj3k4j34|10=185|
8=FIX.4.4|9=104|35=A|34=1|49=TRD1602|52=20240907-21:05:54.641|56=QFXTRADES|98=0|108=30|141=Y|553=real1602|554=dfj3k4j34|10=188|
8=FIX.4.4|9=104|35=A|34=1|49=TRD1602|52=20240907-21:06:54.533|56=QFXTRADES|98=0|108=30|141=Y|553=real1602|554=dfj3k4j34|10=189|
8=FIX.4.4|9=104|35=A|34=1|49=TRD1602|52=20240907-21:07:55.397|56=QFXTRADES|98=0|108=30|141=Y|553=real1602|554=dfj3k4j34|10=199|
8=FIX.4.4|9=104|35=A|34=1|49=TRD1602|52=20240907-21:08:56.394|56=QFXTRADES|98=0|108=30|141=Y|553=real1602|554=dfj3k4j34|10=198|
8=FIX.4.4|9=104|35=A|34=1|49=TRD1602|52=20240907-21:09:57.393|56=QFXTRADES|98=0|108=30|141=Y|553=real1602|554=dfj3k4j34|10=199|
8=FIX.4.4|9=104|35=A|34=1|49=TRD1602|52=20240907-21:15:01.545|56=QFXTRADES|98=0|108=30|141=Y|553=real1602|554=dfj3k4j34|10=184|
8=FIX.4.4|9=104|35=A|34=1|49=TRD1602|52=20240907-21:16:02.620|56=QFXTRADES|98=0|108=30|141=Y|553=real1602|554=dfj3k4j34|10=180|
8=FIX.4.4|9=104|35=A|34=1|49=TRD1602|52=20240907-21:17:02.449|56=QFXTRADES|98=0|108=30|141=Y|553=real1602|554=dfj3k4j34|10=190|
8=FIX.4.4|9=104|35=A|34=1|49=TRD1602|52=20240907-21:18:03.401|56=QFXTRADES|98=0|108=30|141=Y|553=real1602|554=dfj3k4j34|10=180|
8=FIX.4.4|9=104|35=A|34=1|49=TRD1602|52=20240907-21:19:04.398|56=QFXTRADES|98=0|108=30|141=Y|553=real1602|554=dfj3k4j34|10=197|
8=FIX.4.4|9=104|35=A|34=1|49=TRD1602|52=20240907-21:20:04.396|56=QFXTRADES|98=0|108=30|141=Y|553=real1602|554=dfj3k4j34|10=187|
8=FIX.4.4|9=104|35=A|34=1|49=TRD1602|52=20240907-21:21:05.394|56=QFXTRADES|98=0|108=30|141=Y|553=real1602|554=dfj3k4j34|10=187|
8=FIX.4.4|9=104|35=A|34=1|49=TRD1602|52=20240907-21:27:10.461|56=QFXTRADES|98=0|108=30|141=Y|553=real1602|554=dfj3k4j34|10=184|
8=FIX.4.4|9=104|35=A|34=1|49=TRD1602|52=20240907-21:28:11.394|56=QFXTRADES|98=0|108=30|141=Y|553=real1602|554=dfj3k4j34|10=191|
8=FIX.4.4|9=104|35=A|34=1|49=TRD1602|52=20240907-21:41:43.704|56=QFXTRADES|98=0|108=30|141=Y|553=real1602|554=dfj3k4j34|10=186|
8=FIX.4.4|9=104|35=A|34=1|49=TRD1602|52=20240907-22:00:37.802|56=QFXTRADES|98=0|108=30|141=Y|553=real1602|554=dfj3k4j34|10=184|
8=FIX.4.4|9=104|35=A|34=1|49=TRD1602|52=20240907-22:01:39.628|56=QFXTRADES|98=0|108=30|141=Y|553=real1602|554=dfj3k4j34|10=193|
8=FIX.4.4|9=104|35=A|34=1|49=TRD1602|52=20240907-22:02:39.692|56=QFXTRADES|98=0|108=30|141=Y|553=real1602|554=dfj3k4j34|10=195|
8=FIX.4.4|9=104|35=A|34=1|49=TRD1602|52=20240907-22:08:44.907|56=QFXTRADES|98=0|108=30|141=Y|553=real1602|554=dfj3k4j34|10=196|
8=FIX.4.4|9=104|35=A|34=1|49=TRD1602|52=20240907-22:09:45.824|56=QFXTRADES|98=0|108=30|141=Y|553=real1602|554=dfj3k4j34|10=196|
8=FIX.4.4|9=104|35=A|34=1|49=TRD1602|52=20240907-22:10:46.696|56=QFXTRADES|98=0|108=30|141=Y|553=real1602|554=dfj3k4j34|10=196|
8=FIX.4.4|9=104|35=A|34=1|49=TRD1602|52=20240907-22:11:47.741|56=QFXTRADES|98=0|108=30|141=Y|553=real1602|554=dfj3k4j34|10=189|
8=FIX.4.4|9=104|35=A|34=1|49=TRD1602|52=20240908-13:19:30.860|56=QFXTRADES|98=0|108=30|141=Y|553=real1602|554=dfj3k4j34|10=192|
8=FIX.4.4|9=104|35=A|34=1|49=TRD1602|52=20240908-13:22:32.921|56=QFXTRADES|98=0|108=30|141=Y|553=real1602|554=dfj3k4j34|10=186|
8=FIX.4.4|9=104|35=A|34=1|49=TRD1602|52=20240908-13:57:35.821|56=QFXTRADES|98=0|108=30|141=Y|553=real1602|554=dfj3k4j34|10=196|
8=FIX.4.4|9=104|35=A|34=1|49=TRD1602|52=20240908-14:22:57.457|56=QFXTRADES|98=0|108=30|141=Y|553=real1602|554=dfj3k4j34|10=198|
8=FIX.4.4|9=104|35=A|34=1|49=TRD1602|52=20240908-14:28:01.553|56=QFXTRADES|98=0|108=30|141=Y|553=real1602|554=dfj3k4j34|10=190|
8=FIX.4.4|9=104|35=A|34=1|49=TRD1602|52=20240908-14:32:04.526|56=QFXTRADES|98=0|108=30|141=Y|553=real1602|554=dfj3k4j34|10=188|
8=FIX.4.4|9=104|35=A|34=1|49=TRD1602|52=20240908-14:35:06.515|56=QFXTRADES|98=0|108=30|141=Y|553=real1602|554=dfj3k4j34|10=191|
8=FIX.4.4|9=104|35=A|34=1|49=TRD1602|52=20240908-14:40:09.506|56=QFXTRADES|98=0|108=30|141=Y|553=real1602|554=dfj3k4j34|10=190|
8=FIX.4.4|9=104|35=A|34=1|49=TRD1602|52=20240908-14:45:13.406|56=QFXTRADES|98=0|108=30|141=Y|553=real1602|554=dfj3k4j34|10=189|
8=FIX.4.4|9=104|35=A|34=1|49=TRD1602|52=20240908-14:47:15.416|56=QFXTRADES|98=0|108=30|141=Y|553=real1602|554=dfj3k4j34|10=194|
8=FIX.4.4|9=104|35=A|34=1|49=TRD1602|52=20240908-14:50:17.548|56=QFXTRADES|98=0|108=30|141=Y|553=real1602|554=dfj3k4j34|10=196|
8=FIX.4.4|9=104|35=A|34=1|49=TRD1602|52=20240908-14:51:18.533|56=QFXTRADES|98=0|108=30|141=Y|553=real1602|554=dfj3k4j34|10=192|
8=FIX.4.4|9=104|35=A|34=1|49=TRD1602|52=20240908-14:52:19.459|56=QFXTRADES|98=0|108=30|141=Y|553=real1602|554=dfj3k4j34|10=201|
8=FIX.4.4|9=104|35=A|34=1|49=TRD1602|52=20240908-14:53:20.414|56=QFXTRADES|98=0|108=30|141=Y|553=real1602|554=dfj3k4j34|10=185|
8=FIX.4.4|9=104|35=A|34=1|49=TRD1602|52=20240908-14:58:24.511|56=QFXTRADES|98=0|108=30|141=Y|553=real1602|554=dfj3k4j34|10=192|
8=FIX.4.4|9=104|35=A|34=1|49=TRD1602|52=20240908-14:59:25.417|56=QFXTRADES|98=0|108=30|141=Y|553=real1602|554=dfj3k4j34|10=199|
8=FIX.4.4|9=104|35=A|34=1|49=TRD1602|52=20240908-15:03:28.492|56=QFXTRADES|98=0|108=30|141=Y|553=real1602|554=dfj3k4j34|10=195|
8=FIX.4.4|9=104|35=A|34=1|49=TRD1602|52=20240908-15:04:29.406|56=QFXTRADES|98=0|108=30|141=Y|553=real1602|554=dfj3k4j34|10=192|
8=FIX.4.4|9=104|35=A|34=1|49=TRD1602|52=20240908-15:08:32.548|56=QFXTRADES|98=0|108=30|141=Y|553=real1602|554=dfj3k4j34|10=197|
8=FIX.4.4|9=104|35=A|34=1|49=TRD1602|52=20240908-15:09:33.408|56=QFXTRADES|98=0|108=30|141=Y|553=real1602|554=dfj3k4j34|10=194|
8=FIX.4.4|9=104|35=A|34=1|49=TRD1602|52=20240908-15:14:37.538|56=QFXTRADES|98=0|108=30|141=Y|553=real1602|554=dfj3k4j34|10=198|
8=FIX.4.4|9=104|35=A|34=1|49=TRD1602|52=20240908-15:15:38.406|56=QFXTRADES|98=0|108=30|141=Y|553=real1602|554=dfj3k4j34|10=194|
8=FIX.4.4|9=104|35=A|34=1|49=TRD1602|52=20240908-15:19:41.480|56=QFXTRADES|98=0|108=30|141=Y|553=real1602|554=dfj3k4j34|10=194|
8=FIX.4.4|9=104|35=A|34=1|49=TRD1602|52=20240908-15:20:42.417|56=QFXTRADES|98=0|108=30|141=Y|553=real1602|554=dfj3k4j34|10=187|
8=FIX.4.4|9=104|35=A|34=1|49=TRD1602|52=20240908-15:24:45.438|56=QFXTRADES|98=0|108=30|141=Y|553=real1602|554=dfj3k4j34|10=197|
8=FIX.4.4|9=104|35=A|34=1|49=TRD1602|52=20240908-15:28:47.443|56=QFXTRADES|98=0|108=30|141=Y|553=real1602|554=dfj3k4j34|10=199|
8=FIX.4.4|9=104|35=A|34=1|49=TRD1602|52=20240908-15:32:50.540|56=QFXTRADES|98=0|108=30|141=Y|553=real1602|554=dfj3k4j34|10=186|
8=FIX.4.4|9=104|35=A|34=1|49=TRD1602|52=20240908-15:33:51.410|56=QFXTRADES|98=0|108=30|141=Y|553=real1602|554=dfj3k4j34|10=184|
8=FIX.4.4|9=104|35=A|34=1|49=TRD1602|52=20240908-15:34:52.422|56=QFXTRADES|98=0|108=30|141=Y|553=real1602|554=dfj3k4j34|10=189|
8=FIX.4.4|9=104|35=A|34=1|49=TRD1602|52=20240908-15:39:56.552|56=QFXTRADES|98=0|108=30|141=Y|553=real1602|554=dfj3k4j34|10=202|
8=FIX.4.4|9=104|35=A|34=1|49=TRD1602|52=20240908-15:40:57.406|56=QFXTRADES|98=0|108=30|141=Y|553=real1602|554=dfj3k4j34|10=193|
8=FIX.4.4|9=104|35=A|34=1|49=TRD1602|52=20240908-15:43:59.419|56=QFXTRADES|98=0|108=30|141=Y|553=real1602|554=dfj3k4j34|10=202|
8=FIX.4.4|9=104|35=A|34=1|49=TRD1602|52=20240908-15:48:02.549|56=QFXTRADES|98=0|108=30|141=Y|553=real1602|554=dfj3k4j34|10=199|
8=FIX.4.4|9=104|35=A|34=1|49=TRD1602|52=20240908-15:52:05.655|56=QFXTRADES|98=0|108=30|141=Y|553=real1602|554=dfj3k4j34|10=195|
8=FIX.4.4|9=104|35=A|34=1|49=TRD1602|52=20240908-15:53:07.073|56=QFXTRADES|98=0|108=30|141=Y|553=real1602|554=dfj3k4j34|10=192|
8=FIX.4.4|9=104|35=A|34=1|49=TRD1602|52=20240908-15:57:09.418|56=QFXTRADES|98=0|108=30|141=Y|553=real1602|554=dfj3k4j34|10=201|
8=FIX.4.4|9=104|35=A|34=1|49=TRD1602|52=20240908-16:00:10.573|56=QFXTRADES|98=0|108=30|141=Y|553=real1602|554=dfj3k4j34|10=184|
8=FIX.4.4|9=104|35=A|34=1|49=TRD1602|52=20240908-16:01:11.509|56=QFXTRADES|98=0|108=30|141=Y|553=real1602|554=dfj3k4j34|10=185|
8=FIX.4.4|9=104|35=A|34=1|49=TRD1602|52=20240908-16:08:17.570|56=QFXTRADES|98=0|108=30|141=Y|553=real1602|554=dfj3k4j34|10=196|
8=FIX.4.4|9=104|35=A|34=1|49=TRD1602|52=20240908-16:13:21.561|56=QFXTRADES|98=0|108=30|141=Y|553=real1602|554=dfj3k4j34|10=187|
8=FIX.4.4|9=104|35=A|34=1|49=TRD1602|52=20240908-16:14:22.416|56=QFXTRADES|98=0|108=30|141=Y|553=real1602|554=dfj3k4j34|10=188|
8=FIX.4.4|9=104|35=A|34=1|49=TRD1602|52=20240908-16:18:25.503|56=QFXTRADES|98=0|108=30|141=Y|553=real1602|554=dfj3k4j34|10=192|
8=FIX.4.4|9=104|35=A|34=1|49=TRD1602|52=20240908-16:23:29.542|56=QFXTRADES|98=0|108=30|141=Y|553=real1602|554=dfj3k4j34|10=195|
8=FIX.4.4|9=104|35=A|34=1|49=TRD1602|52=20240908-16:28:33.529|56=QFXTRADES|98=0|108=30|141=Y|553=real1602|554=dfj3k4j34|10=200|
8=FIX.4.4|9=104|35=A|34=1|49=TRD1602|52=20240908-19:00:22.629|56=QFXTRADES|98=0|108=30|141=Y|553=real1602|554=dfj3k4j34|10=192|
8=FIX.4.4|9=104|35=A|34=1|49=TRD1602|52=20240908-19:01:22.867|56=QFXTRADES|98=0|108=30|141=Y|553=real1602|554=dfj3k4j34|10=197|
8=FIX.4.4|9=104|35=A|34=1|49=TRD1602|52=20240908-19:07:26.523|56=QFXTRADES|98=0|108=30|141=Y|553=real1602|554=dfj3k4j34|10=196|
8=FIX.4.4|9=104|35=A|34=1|49=TRD1602|52=20240908-19:08:27.404|56=QFXTRADES|98=0|108=30|141=Y|553=real1602|554=dfj3k4j34|10=196|
8=FIX.4.4|9=104|35=A|34=1|49=TRD1602|52=20240908-19:09:28.406|56=QFXTRADES|98=0|108=30|141=Y|553=real1602|554=dfj3k4j34|10=200|
8=FIX.4.4|9=104|35=A|34=1|49=TRD1602|52=20240908-19:16:33.888|56=QFXTRADES|98=0|108=30|141=Y|553=real1602|554=dfj3k4j34|10=208|
8=FIX.4.4|9=104|35=A|34=1|49=TRD1602|52=20240908-19:18:34.725|56=QFXTRADES|98=0|108=30|141=Y|553=real1602|554=dfj3k4j34|10=201|
8=FIX.4.4|9=104|35=A|34=1|49=TRD1602|52=20241002-11:16:40.439|56=QFXTRADES|98=0|108=30|141=Y|553=real1602|554=dfj3k4j34|10=176|
8=FIX.4.4|9=104|35=A|34=1|49=TRD1602|52=20241002-11:21:47.597|56=QFXTRADES|98=0|108=30|141=Y|553=real1602|554=dfj3k4j34|10=184|
8=FIX.4.4|9=104|35=A|34=1|49=TRD1602|52=20241002-11:22:45.331|56=QFXTRADES|98=0|108=30|141=Y|553=real1602|554=dfj3k4j34|10=169|
8=FIX.4.4|9=104|35=A|34=1|49=TRD1602|52=20241002-11:25:50.796|56=QFXTRADES|98=0|108=30|141=Y|553=real1602|554=dfj3k4j34|10=183|
8=FIX.4.4|9=104|35=A|34=1|49=TRD1602|52=20241002-11:26:48.373|56=QFXTRADES|98=0|108=30|141=Y|553=real1602|554=dfj3k4j34|10=182|
8=FIX.4.4|9=104|35=A|34=1|49=TRD1602|52=20241002-11:30:51.389|56=QFXTRADES|98=0|108=30|141=Y|553=real1602|554=dfj3k4j34|10=178|
8=FIX.4.4|9=104|35=A|34=1|49=TRD1602|52=20241002-11:31:52.344|56=QFXTRADES|98=0|108=30|141=Y|553=real1602|554=dfj3k4j34|10=171|
8=FIX.4.4|9=104|35=A|34=1|49=TRD1602|52=20241002-11:35:55.307|56=QFXTRADES|98=0|108=30|141=Y|553=real1602|554=dfj3k4j34|10=177|
8=FIX.4.4|9=104|35=A|34=1|49=TRD1602|52=20241002-11:39:58.299|56=QFXTRADES|98=0|108=30|141=Y|553=real1602|554=dfj3k4j34|10=194|
8=FIX.4.4|9=104|35=A|34=1|49=TRD1602|52=20241002-11:47:03.305|56=QFXTRADES|98=0|108=30|141=Y|553=real1602|554=dfj3k4j34|10=171|
8=FIX.4.4|9=104|35=A|34=1|49=TRD1602|52=20241002-11:49:05.302|56=QFXTRADES|98=0|108=30|141=Y|553=real1602|554=dfj3k4j34|10=172|
8=FIX.4.4|9=104|35=A|34=1|49=TRD1602|52=20241002-11:52:06.408|56=QFXTRADES|98=0|108=30|141=Y|553=real1602|554=dfj3k4j34|10=174|
8=FIX.4.4|9=104|35=A|34=1|49=TRD1602|52=20241002-11:55:08.347|56=QFXTRADES|98=0|108=30|141=Y|553=real1602|554=dfj3k4j34|10=181|
8=FIX.4.4|9=104|35=A|34=1|49=TRD1602|52=20241002-11:57:12.430|56=QFXTRADES|98=0|108=30|141=Y|553=real1602|554=dfj3k4j34|10=171|
8=FIX.4.4|9=104|35=A|34=1|49=TRD1602|52=20241002-11:58:10.309|56=QFXTRADES|98=0|108=30|141=Y|553=real1602|554=dfj3k4j34|10=175|
8=FIX.4.4|9=104|35=A|34=1|49=TRD1602|52=20241002-12:01:12.302|56=QFXTRADES|98=0|108=30|141=Y|553=real1602|554=dfj3k4j34|10=159|
8=FIX.4.4|9=104|35=A|34=1|49=TRD1602|52=20241002-12:04:14.321|56=QFXTRADES|98=0|108=30|141=Y|553=real1602|554=dfj3k4j34|10=165|
8=FIX.4.4|9=104|35=A|34=1|49=TRD1602|52=20241002-12:07:16.303|56=QFXTRADES|98=0|108=30|141=Y|553=real1602|554=dfj3k4j34|10=170|
8=FIX.4.4|9=104|35=A|34=1|49=TRD1602|52=20241002-12:16:22.388|56=QFXTRADES|98=0|108=30|141=Y|553=real1602|554=dfj3k4j34|10=180|
8=FIX.4.4|9=104|35=A|34=1|49=TRD1602|52=20241002-12:23:27.940|56=QFXTRADES|98=0|108=30|141=Y|553=real1602|554=dfj3k4j34|10=177|
8=FIX.4.4|9=104|35=A|34=1|49=TRD1602|52=20241002-12:24:28.300|56=QFXTRADES|98=0|108=30|141=Y|553=real1602|554=dfj3k4j34|10=169|
8=FIX.4.4|9=104|35=A|34=1|49=TRD1602|52=20241002-12:25:28.540|56=QFXTRADES|98=0|108=30|141=Y|553=real1602|554=dfj3k4j34|10=176|
8=FIX.4.4|9=104|35=A|34=1|49=TRD1602|52=20241002-12:26:28.308|56=QFXTRADES|98=0|108=30|141=Y|553=real1602|554=dfj3k4j34|10=179|
8=FIX.4.4|9=104|35=A|34=1|49=TRD1602|52=20241002-12:28:30.303|56=QFXTRADES|98=0|108=30|141=Y|553=real1602|554=dfj3k4j34|10=169|
8=FIX.4.4|9=104|35=A|34=1|49=TRD1602|52=20241002-12:29:30.956|56=QFXTRADES|98=0|108=30|141=Y|553=real1602|554=dfj3k4j34|10=184|
8=FIX.4.4|9=104|35=A|34=1|49=TRD1602|52=20241002-12:35:34.311|56=QFXTRADES|98=0|108=30|141=Y|553=real1602|554=dfj3k4j34|10=170|
8=FIX.4.4|9=104|35=A|34=1|49=TRD1602|52=20241002-12:38:36.402|56=QFXTRADES|98=0|108=30|141=Y|553=real1602|554=dfj3k4j34|10=176|
8=FIX.4.4|9=104|35=A|34=1|49=TRD1602|52=20241002-12:43:40.307|56=QFXTRADES|98=0|108=30|141=Y|553=real1602|554=dfj3k4j34|10=171|
8=FIX.4.4|9=104|35=A|34=1|49=TRD1602|52=20241002-12:45:41.319|56=QFXTRADES|98=0|108=30|141=Y|553=real1602|554=dfj3k4j34|10=177|
8=FIX.4.4|9=104|35=A|34=1|49=TRD1602|52=20241002-12:48:43.406|56=QFXTRADES|98=0|108=30|141=Y|553=real1602|554=dfj3k4j34|10=179|
8=FIX.4.4|9=104|35=A|34=1|49=TRD1602|52=20241002-12:52:46.333|56=QFXTRADES|98=0|108=30|141=Y|553=real1602|554=dfj3k4j34|10=176|
8=FIX.4.4|9=104|35=A|34=1|49=TRD1602|52=20241002-12:55:48.412|56=QFXTRADES|98=0|108=30|141=Y|553=real1602|554=dfj3k4j34|10=179|
8=FIX.4.4|9=104|35=A|34=1|49=TRD1602|52=20241002-12:57:50.305|56=QFXTRADES|98=0|108=30|141=Y|553=real1602|554=dfj3k4j34|10=175|
8=FIX.4.4|9=104|35=A|34=1|49=TRD1602|52=20241002-12:59:51.305|56=QFXTRADES|98=0|108=30|141=Y|553=real1602|554=dfj3k4j34|10=178|
8=FIX.4.4|9=104|35=A|34=1|49=TRD1602|52=20241002-13:02:53.425|56=QFXTRADES|98=0|108=30|141=Y|553=real1602|554=dfj3k4j34|10=172|
8=FIX.4.4|9=104|35=A|34=1|49=TRD1602|52=20241002-13:03:54.307|56=QFXTRADES|98=0|108=30|141=Y|553=real1602|554=dfj3k4j34|10=173|
8=FIX.4.4|9=104|35=A|34=1|49=TRD1602|52=20241002-13:04:55.748|56=QFXTRADES|98=0|108=30|141=Y|553=real1602|554=dfj3k4j34|10=184|
8=FIX.4.4|9=104|35=A|34=1|49=TRD1602|52=20241002-13:09:58.299|56=QFXTRADES|98=0|108=30|141=Y|553=real1602|554=dfj3k4j34|10=193|
8=FIX.4.4|9=104|35=A|34=1|49=TRD1602|52=20241002-13:13:00.378|56=QFXTRADES|98=0|108=30|141=Y|553=real1602|554=dfj3k4j34|10=173|
8=FIX.4.4|9=104|35=A|34=1|49=TRD1602|52=20241002-13:16:02.409|56=QFXTRADES|98=0|108=30|141=Y|553=real1602|554=dfj3k4j34|10=173|
8=FIX.4.4|9=104|35=A|34=1|49=TRD1602|52=20241002-13:21:05.547|56=QFXTRADES|98=0|108=30|141=Y|553=real1602|554=dfj3k4j34|10=175|
8=FIX.4.4|9=104|35=A|34=1|49=TRD1602|52=20241002-13:25:08.300|56=QFXTRADES|98=0|108=30|141=Y|553=real1602|554=dfj3k4j34|10=169|
8=FIX.4.4|9=104|35=A|34=1|49=TRD1602|52=20241002-13:28:10.386|56=QFXTRADES|98=0|108=30|141=Y|553=real1602|554=dfj3k4j34|10=179|
8=FIX.4.4|9=104|35=A|34=1|49=TRD1602|52=20241002-13:32:13.697|56=QFXTRADES|98=0|108=30|141=Y|553=real1602|554=dfj3k4j34|10=182|
8=FIX.4.4|9=104|35=A|34=1|49=TRD1602|52=20241002-13:33:13.417|56=QFXTRADES|98=0|108=30|141=Y|553=real1602|554=dfj3k4j34|10=173|
8=FIX.4.4|9=104|35=A|34=1|49=TRD1602|52=20241002-13:37:16.301|56=QFXTRADES|98=0|108=30|141=Y|553=real1602|554=dfj3k4j34|10=172|
8=FIX.4.4|9=104|35=A|34=1|49=TRD1602|52=20241002-13:40:18.417|56=QFXTRADES|98=0|108=30|141=Y|553=real1602|554=dfj3k4j34|10=176|
8=FIX.4.4|9=104|35=A|34=1|49=TRD1602|52=20241002-13:41:19.307|56=QFXTRADES|98=0|108=30|141=Y|553=real1602|554=dfj3k4j34|10=176|
8=FIX.4.4|9=104|35=A|34=1|49=TRD1602|52=20241002-13:45:22.347|56=QFXTRADES|98=0|108=30|141=Y|553=real1602|554=dfj3k4j34|10=178|
8=FIX.4.4|9=104|35=A|34=1|49=TRD1602|52=20241002-17:54:58.662|56=QFXTRADES|98=0|108=30|141=Y|553=real1602|554=dfj3k4j34|10=191|
8=FIX.4.4|9=104|35=A|34=1|49=TRD1602|52=20241002-17:59:00.983|56=QFXTRADES|98=0|108=30|141=Y|553=real1602|554=dfj3k4j34|10=189|
8=FIX.4.4|9=104|35=A|34=1|49=TRD1602|52=20241002-18:04:04.051|56=QFXTRADES|98=0|108=30|141=Y|553=real1602|554=dfj3k4j34|10=170|
8=FIX.4.4|9=104|35=A|34=1|49=TRD1602|52=20241002-18:08:06.981|56=QFXTRADES|98=0|108=30|141=Y|553=real1602|554=dfj3k4j34|10=188|
8=FIX.4.4|9=104|35=A|34=1|49=TRD1602|52=20241002-18:11:08.979|56=QFXTRADES|98=0|108=30|141=Y|553=real1602|554=dfj3k4j34|10=191|
8=FIX.4.4|9=104|35=A|34=1|49=TRD1602|52=20241002-18:14:11.032|56=QFXTRADES|98=0|108=30|141=Y|553=real1602|554=dfj3k4j34|10=168|
8=FIX.4.4|9=104|35=A|34=1|49=TRD1602|52=20241002-18:18:14.033|56=QFXTRADES|98=0|108=30|141=Y|553=real1602|554=dfj3k4j34|10=176|
8=FIX.4.4|9=104|35=A|34=1|49=TRD1602|52=20241002-18:22:17.084|56=QFXTRADES|98=0|108=30|141=Y|553=real1602|554=dfj3k4j34|10=180|
8=FIX.4.4|9=104|35=A|34=1|49=TRD1602|52=20241002-18:23:17.987|56=QFXTRADES|98=0|108=30|141=Y|553=real1602|554=dfj3k4j34|10=193|
8=FIX.4.4|9=104|35=A|34=1|49=TRD1602|52=20241002-18:27:20.990|56=QFXTRADES|98=0|108=30|141=Y|553=real1602|554=dfj3k4j34|10=185|
8=FIX.4.4|9=104|35=A|34=1|49=TRD1602|52=20241002-18:30:23.012|56=QFXTRADES|98=0|108=30|141=Y|553=real1602|554=dfj3k4j34|10=167|
8=FIX.4.4|9=104|35=A|34=1|49=TRD1602|52=20241002-18:34:25.988|56=QFXTRADES|98=0|108=30|141=Y|553=real1602|554=dfj3k4j34|10=195|
8=FIX.4.4|9=104|35=A|34=1|49=TRD1602|52=20241002-18:37:27.987|56=QFXTRADES|98=0|108=30|141=Y|553=real1602|554=dfj3k4j34|10=199|
8=FIX.4.4|9=104|35=A|34=1|49=TRD1602|52=20241002-18:41:30.983|56=QFXTRADES|98=0|108=30|141=Y|553=real1602|554=dfj3k4j34|10=184|
8=FIX.4.4|9=104|35=A|34=1|49=TRD1602|52=20241002-18:44:33.109|56=QFXTRADES|98=0|108=30|141=Y|553=real1602|554=dfj3k4j34|10=180|
8=FIX.4.4|9=104|35=A|34=1|49=TRD1602|52=20241002-18:45:33.984|56=QFXTRADES|98=0|108=30|141=Y|553=real1602|554=dfj3k4j34|10=192|
8=FIX.4.4|9=104|35=A|34=1|49=TRD1602|52=20241002-18:48:35.989|56=QFXTRADES|98=0|108=30|141=Y|553=real1602|554=dfj3k4j34|10=202|
8=FIX.4.4|9=104|35=A|34=1|49=TRD1602|52=20241002-18:52:38.990|56=QFXTRADES|98=0|108=30|141=Y|553=real1602|554=dfj3k4j34|10=192|
8=FIX.4.4|9=104|35=A|34=1|49=TRD1602|52=20241002-18:56:41.990|56=QFXTRADES|98=0|108=30|141=Y|553=real1602|554=dfj3k4j34|10=190|
8=FIX.4.4|9=104|35=A|34=1|49=TRD1602|52=20241002-19:07:48.985|56=QFXTRADES|98=0|108=30|141=Y|553=real1602|554=dfj3k4j34|10=198|
8=FIX.4.4|9=104|35=A|34=1|49=TRD1602|52=20241002-19:10:50.084|56=QFXTRADES|98=0|108=30|141=Y|553=real1602|554=dfj3k4j34|10=175|
8=FIX.4.4|9=104|35=A|34=1|49=TRD1602|52=20241002-19:14:53.128|56=QFXTRADES|98=0|108=30|141=Y|553=real1602|554=dfj3k4j34|10=181|
8=FIX.4.4|9=104|35=A|34=1|49=TRD1602|52=20241002-19:15:54.033|56=QFXTRADES|98=0|108=30|141=Y|553=real1602|554=dfj3k4j34|10=178|
8=FIX.4.4|9=104|35=A|34=1|49=TRD1602|52=20241002-19:16:54.990|56=QFXTRADES|98=0|108=30|141=Y|553=real1602|554=dfj3k4j34|10=191|
8=FIX.4.4|9=104|35=A|34=1|49=TRD1602|52=20241002-19:19:57.152|56=QFXTRADES|98=0|108=30|141=Y|553=real1602|554=dfj3k4j34|10=187|
8=FIX.4.4|9=104|35=A|34=1|49=TRD1602|52=20241002-19:20:57.990|56=QFXTRADES|98=0|108=30|141=Y|553=real1602|554=dfj3k4j34|10=189|
8=FIX.4.4|9=104|35=A|34=1|49=TRD1602|52=20241002-19:25:01.026|56=QFXTRADES|98=0|108=30|141=Y|553=real1602|554=dfj3k4j34|10=173|
8=FIX.4.4|9=104|35=A|34=1|49=TRD1602|52=20241002-19:29:03.982|56=QFXTRADES|98=0|108=30|141=Y|553=real1602|554=dfj3k4j34|10=190|
8=FIX.4.4|9=104|35=A|34=1|49=TRD1602|52=20241002-19:33:07.029|56=QFXTRADES|98=0|108=30|141=Y|553=real1602|554=dfj3k4j34|10=181|
8=FIX.4.4|9=104|35=A|34=1|49=TRD1602|52=20241002-19:34:07.986|56=QFXTRADES|98=0|108=30|141=Y|553=real1602|554=dfj3k4j34|10=194|
8=FIX.4.4|9=104|35=A|34=1|49=TRD1602|52=20241002-19:37:09.980|56=QFXTRADES|98=0|108=30|141=Y|553=real1602|554=dfj3k4j34|10=193|
8=FIX.4.4|9=104|35=A|34=1|49=TRD1602|52=20241002-19:42:14.075|56=QFXTRADES|98=0|108=30|141=Y|553=real1602|554=dfj3k4j34|10=180|
8=FIX.4.4|9=104|35=A|34=1|49=TRD1602|52=20241002-19:43:14.977|56=QFXTRADES|98=0|108=30|141=Y|553=real1602|554=dfj3k4j34|10=192|
8=FIX.4.4|9=104|35=A|34=1|49=TRD1602|52=20241002-19:44:15.997|56=QFXTRADES|98=0|108=30|141=Y|553=real1602|554=dfj3k4j34|10=196|
8=FIX.4.4|9=104|35=A|34=1|49=TRD1602|52=20241002-19:48:19.137|56=QFXTRADES|98=0|108=30|141=Y|553=real1602|554=dfj3k4j34|10=190|
8=FIX.4.4|9=104|35=A|34=1|49=TRD1602|52=20241002-19:49:20.170|56=QFXTRADES|98=0|108=30|141=Y|553=real1602|554=dfj3k4j34|10=180|
8=FIX.4.4|9=104|35=A|34=1|49=TRD1602|52=20241002-19:50:20.992|56=QFXTRADES|98=0|108=30|141=Y|553=real1602|554=dfj3k4j34|10=184|
8=FIX.4.4|9=104|35=A|34=1|49=TRD1602|52=20241002-19:51:21.982|56=QFXTRADES|98=0|108=30|141=Y|553=real1602|554=dfj3k4j34|10=185|
8=FIX.4.4|9=104|35=A|34=1|49=TRD1602|52=20241002-19:54:24.193|56=QFXTRADES|98=0|108=30|141=Y|553=real1602|554=dfj3k4j34|10=185|
8=FIX.4.4|9=104|35=A|34=1|49=TRD1602|52=20241002-19:55:24.977|56=QFXTRADES|98=0|108=30|141=Y|553=real1602|554=dfj3k4j34|10=196|
8=FIX.4.4|9=104|35=A|34=1|49=TRD1602|52=20241002-19:59:28.039|56=QFXTRADES|98=0|108=30|141=Y|553=real1602|554=dfj3k4j34|10=193|
8=FIX.4.4|9=104|35=A|34=1|49=TRD1602|52=20241002-20:21:47.727|56=QFXTRADES|98=0|108=30|141=Y|553=real1602|554=dfj3k4j34|10=179|
8=FIX.4.4|9=104|35=A|34=1|49=TRD1602|52=20241002-20:22:48.990|56=QFXTRADES|98=0|108=30|141=Y|553=real1602|554=dfj3k4j34|10=183|
8=FIX.4.4|9=104|35=A|34=1|49=TRD1602|52=20241002-20:24:50.175|56=QFXTRADES|98=0|108=30|141=Y|553=real1602|554=dfj3k4j34|10=173|
8=FIX.4.4|9=104|35=A|34=1|49=TRD1602|52=20241002-20:25:50.979|56=QFXTRADES|98=0|108=30|141=Y|553=real1602|554=dfj3k4j34|10=186|
8=FIX.4.4|9=104|35=A|34=1|49=TRD1602|52=20241002-20:31:56.089|56=QFXTRADES|98=0|108=30|141=Y|553=real1602|554=dfj3k4j34|10=181|
8=FIX.4.4|9=104|35=A|34=1|49=TRD1602|52=20241002-20:32:56.969|56=QFXTRADES|98=0|108=30|141=Y|553=real1602|554=dfj3k4j34|10=189|
8=FIX.4.4|9=104|35=A|34=1|49=TRD1602|52=20241002-20:33:57.968|56=QFXTRADES|98=0|108=30|141=Y|553=real1602|554=dfj3k4j34|10=190|
8=FIX.4.4|9=104|35=A|34=1|49=TRD1602|52=20241002-20:38:01.043|56=QFXTRADES|98=0|108=30|141=Y|553=real1602|554=dfj3k4j34|10=168|
8=FIX.4.4|9=104|35=A|34=1|49=TRD1602|52=20241002-20:39:01.974|56=QFXTRADES|98=0|108=30|141=Y|553=real1602|554=dfj3k4j34|10=182|
8=FIX.4.4|9=104|35=A|34=1|49=TRD1602|52=20241002-20:45:06.982|56=QFXTRADES|98=0|108=30|141=Y|553=real1602|554=dfj3k4j34|10=183|
8=FIX.4.4|9=104|35=A|34=1|49=TRD1602|52=20241002-20:47:08.083|56=QFXTRADES|98=0|108=30|141=Y|553=real1602|554=dfj3k4j34|10=179|
8=FIX.4.4|9=104|35=A|34=1|49=TRD1602|52=20241002-20:48:08.974|56=QFXTRADES|98=0|108=30|141=Y|553=real1602|554=dfj3k4j34|10=189|
8=FIX.4.4|9=104|35=A|34=1|49=TRD1602|52=20241002-20:53:13.032|56=QFXTRADES|98=0|108=30|141=Y|553=real1602|554=dfj3k4j34|10=166|
8=FIX.4.4|9=104|35=A|34=1|49=TRD1602|52=20241002-20:59:17.972|56=QFXTRADES|98=0|108=30|141=Y|553=real1602|554=dfj3k4j34|10=189|
8=FIX.4.4|9=104|35=A|34=1|49=TRD1602|52=20241002-21:00:19.929|56=QFXTRADES|98=0|108=30|141=Y|553=real1602|554=dfj3k4j34|10=180|
8=FIX.4.4|9=104|35=A|34=1|49=TRD1602|52=20241002-21:01:19.977|56=QFXTRADES|98=0|108=30|141=Y|553=real1602|554=dfj3k4j34|10=184|
8=FIX.4.4|9=104|35=A|34=1|49=TRD1602|52=20241002-21:09:25.988|56=QFXTRADES|98=0|108=30|141=Y|553=real1602|554=dfj3k4j34|10=191|
8=FIX.4.4|9=104|35=A|34=1|49=TRD1602|52=20241002-21:10:25.983|56=QFXTRADES|98=0|108=30|141=Y|553=real1602|554=dfj3k4j34|10=178|
8=FIX.4.4|9=104|35=A|34=1|49=TRD1602|52=20241002-21:11:26.979|56=QFXTRADES|98=0|108=30|141=Y|553=real1602|554=dfj3k4j34|10=185|
8=FIX.4.4|9=104|35=A|34=1|49=TRD1602|52=20241002-21:13:29.008|56=QFXTRADES|98=0|108=30|141=Y|553=real1602|554=dfj3k4j34|10=173|
8=FIX.4.4|9=104|35=A|34=1|49=TRD1602|52=20241002-21:15:31.708|56=QFXTRADES|98=0|108=30|141=Y|553=real1602|554=dfj3k4j34|10=175|
8=FIX.4.4|9=104|35=A|34=1|49=TRD1602|52=20241002-21:19:33.052|56=QFXTRADES|98=0|108=30|141=Y|553=real1602|554=dfj3k4j34|10=173|
8=FIX.4.4|9=104|35=A|34=1|49=TRD1602|52=20241002-21:26:39.037|56=QFXTRADES|98=0|108=30|141=Y|553=real1602|554=dfj3k4j34|10=180|
8=FIX.4.4|9=104|35=A|34=1|49=TRD1602|52=20241002-21:27:39.980|56=QFXTRADES|98=0|108=30|141=Y|553=real1602|554=dfj3k4j34|10=188|
8=FIX.4.4|9=104|35=A|34=1|49=TRD1602|52=20241002-21:31:44.186|56=QFXTRADES|98=0|108=30|141=Y|553=real1602|554=dfj3k4j34|10=177|
8=FIX.4.4|9=104|35=A|34=1|49=TRD1602|52=20241002-21:32:44.096|56=QFXTRADES|98=0|108=30|141=Y|553=real1602|554=dfj3k4j34|10=178|
8=FIX.4.4|9=104|35=A|34=1|49=TRD1602|52=20241002-21:33:45.028|56=QFXTRADES|98=0|108=30|141=Y|553=real1602|554=dfj3k4j34|10=175|
8=FIX.4.4|9=104|35=A|34=1|49=TRD1602|52=20241002-21:34:45.969|56=QFXTRADES|98=0|108=30|141=Y|553=real1602|554=dfj3k4j34|10=190|
8=FIX.4.4|9=104|35=A|34=1|49=TRD1602|52=20241002-21:37:49.498|56=QFXTRADES|98=0|108=30|141=Y|553=real1602|554=dfj3k4j34|10=194|
8=FIX.4.4|9=104|35=A|34=1|49=TRD1602|52=20241002-21:49:56.183|56=QFXTRADES|98=0|108=30|141=Y|553=real1602|554=dfj3k4j34|10=186|
8=FIX.4.4|9=104|35=A|34=1|49=TRD1602|52=20241002-21:50:57.067|56=QFXTRADES|98=0|108=30|141=Y|553=real1602|554=dfj3k4j34|10=180|
8=FIX.4.4|9=104|35=A|34=1|49=TRD1602|52=20241002-21:51:58.148|56=QFXTRADES|98=0|108=30|141=Y|553=real1602|554=dfj3k4j34|10=182|
8=FIX.4.4|9=104|35=A|34=1|49=TRD1602|52=20241002-21:52:58.456|56=QFXTRADES|98=0|108=30|141=Y|553=real1602|554=dfj3k4j34|10=185|
8=FIX.4.4|9=104|35=A|34=1|49=TRD1602|52=20241002-21:54:58.980|56=QFXTRADES|98=0|108=30|141=Y|553=real1602|554=dfj3k4j34|10=189|
8=FIX.4.4|9=104|35=A|34=1|49=TRD1602|52=20241002-21:55:58.969|56=QFXTRADES|98=0|108=30|141=Y|553=real1602|554=dfj3k4j34|10=197|
8=FIX.4.4|9=104|35=A|34=1|49=TRD1602|52=20241002-21:56:59.972|56=QFXTRADES|98=0|108=30|141=Y|553=real1602|554=dfj3k4j34|10=193|
8=FIX.4.4|9=104|35=A|34=1|49=TRD1602|52=20241002-21:58:00.008|56=QFXTRADES|98=0|108=30|141=Y|553=real1602|554=dfj3k4j34|10=171|
8=FIX.4.4|9=104|35=A|34=1|49=TRD1602|52=20241002-21:59:00.136|56=QFXTRADES|98=0|108=30|141=Y|553=real1602|554=dfj3k4j34|10=174|
8=FIX.4.4|9=104|35=A|34=1|49=TRD1602|52=20241002-22:00:00.130|56=QFXTRADES|98=0|108=30|141=Y|553=real1602|554=dfj3k4j34|10=155|
8=FIX.4.4|9=104|35=A|34=1|49=TRD1602|52=20241002-22:02:01.073|56=QFXTRADES|98=0|108=30|141=Y|553=real1602|554=dfj3k4j34|10=164|
8=FIX.4.4|9=104|35=A|34=1|49=TRD1602|52=20241002-22:04:02.250|56=QFXTRADES|98=0|108=30|141=Y|553=real1602|554=dfj3k4j34|10=164|
8=FIX.4.4|9=104|35=A|34=1|49=TRD1602|52=20241002-22:06:02.970|56=QFXTRADES|98=0|108=30|141=Y|553=real1602|554=dfj3k4j34|10=175|
8=FIX.4.4|9=104|35=A|34=1|49=TRD1602|52=20241002-22:07:03.153|56=QFXTRADES|98=0|108=30|141=Y|553=real1602|554=dfj3k4j34|10=170|
8=FIX.4.4|9=104|35=A|34=1|49=TRD1602|52=20241002-22:08:03.093|56=QFXTRADES|98=0|108=30|141=Y|553=real1602|554=dfj3k4j34|10=174|
8=FIX.4.4|9=104|35=A|34=1|49=TRD1602|52=20241003-07:46:13.947|56=QFXTRADES|98=0|108=30|141=Y|553=real1602|554=dfj3k4j34|10=189|
8=FIX.4.4|9=104|35=A|34=1|49=TRD1602|52=20241003-07:47:14.942|56=QFXTRADES|98=0|108=30|141=Y|553=real1602|554=dfj3k4j34|10=186|
8=FIX.4.4|9=104|35=A|34=1|49=TRD1602|52=20241003-07:53:20.134|56=QFXTRADES|98=0|108=30|141=Y|553=real1602|554=dfj3k4j34|10=173|
8=FIX.4.4|9=104|35=A|34=1|49=TRD1602|52=20241003-07:54:21.041|56=QFXTRADES|98=0|108=30|141=Y|553=real1602|554=dfj3k4j34|10=172|
8=FIX.4.4|9=104|35=A|34=1|49=TRD1602|52=20241003-07:55:22.253|56=QFXTRADES|98=0|108=30|141=Y|553=real1602|554=dfj3k4j34|10=179|
8=FIX.4.4|9=104|35=A|34=1|49=TRD1602|52=20241003-07:56:22.104|56=QFXTRADES|98=0|108=30|141=Y|553=real1602|554=dfj3k4j34|10=175|
8=FIX.4.4|9=104|35=A|34=1|49=TRD1602|52=20241003-07:57:22.984|56=QFXTRADES|98=0|108=30|141=Y|553=real1602|554=dfj3k4j34|10=192|
8=FIX.4.4|9=104|35=A|34=1|49=TRD1602|52=20241003-07:58:23.946|56=QFXTRADES|98=0|108=30|141=Y|553=real1602|554=dfj3k4j34|10=192|
8=FIX.4.4|9=104|35=A|34=1|49=TRD1602|52=20241003-07:59:24.949|56=QFXTRADES|98=0|108=30|141=Y|553=real1602|554=dfj3k4j34|10=197|
8=FIX.4.4|9=104|35=A|34=1|49=TRD1602|52=20241003-08:00:25.943|56=QFXTRADES|98=0|108=30|141=Y|553=real1602|554=dfj3k4j34|10=179|
8=FIX.4.4|9=104|35=A|34=1|49=TRD1602|52=20241003-08:01:27.665|56=QFXTRADES|98=0|108=30|141=Y|553=real1602|554=dfj3k4j34|10=183|
8=FIX.4.4|9=104|35=A|34=1|49=TRD1602|52=20241003-08:02:27.947|56=QFXTRADES|98=0|108=30|141=Y|553=real1602|554=dfj3k4j34|10=187|
8=FIX.4.4|9=104|35=A|34=1|49=TRD1602|52=20241003-08:06:28.250|56=QFXTRADES|98=0|108=30|141=Y|553=real1602|554=dfj3k4j34|10=179|
8=FIX.4.4|9=104|35=A|34=1|49=TRD1602|52=20241003-08:12:28.936|56=QFXTRADES|98=0|108=30|141=Y|553=real1602|554=dfj3k4j34|10=187|
8=FIX.4.4|9=104|35=A|34=1|49=TRD1602|52=20241003-08:13:29.166|56=QFXTRADES|98=0|108=30|141=Y|553=real1602|554=dfj3k4j34|10=184|
8=FIX.4.4|9=104|35=A|34=1|49=TRD1602|52=20241003-08:16:29.940|56=QFXTRADES|98=0|108=30|141=Y|553=real1602|554=dfj3k4j34|10=187|
8=FIX.4.4|9=104|35=A|34=1|49=TRD1602|52=20241003-08:18:29.941|56=QFXTRADES|98=0|108=30|141=Y|553=real1602|554=dfj3k4j34|10=190|
8=FIX.4.4|9=104|35=A|34=1|49=TRD1602|52=20241003-08:19:30.480|56=QFXTRADES|98=0|108=30|141=Y|553=real1602|554=dfj3k4j34|10=181|
8=FIX.4.4|9=104|35=A|34=1|49=TRD1602|52=20241003-08:22:30.946|56=QFXTRADES|98=0|108=30|141=Y|553=real1602|554=dfj3k4j34|10=182|
8=FIX.4.4|9=104|35=A|34=1|49=TRD1602|52=20241003-08:23:30.943|56=QFXTRADES|98=0|108=30|141=Y|553=real1602|554=dfj3k4j34|10=180|
8=FIX.4.4|9=104|35=A|34=1|49=TRD1602|52=20241003-08:24:30.940|56=QFXTRADES|98=0|108=30|141=Y|553=real1602|554=dfj3k4j34|10=178|
8=FIX.4.4|9=104|35=A|34=1|49=TRD1602|52=20241003-08:25:31.282|56=QFXTRADES|98=0|108=30|141=Y|553=real1602|554=dfj3k4j34|10=179|
8=FIX.4.4|9=104|35=A|34=1|49=TRD1602|52=20241003-08:27:32.154|56=QFXTRADES|98=0|108=30|141=Y|553=real1602|554=dfj3k4j34|10=180|
8=FIX.4.4|9=104|35=A|34=1|49=TRD1602|52=20241003-08:28:32.084|56=QFXTRADES|98=0|108=30|141=Y|553=real1602|554=dfj3k4j34|10=183|
8=FIX.4.4|9=104|35=A|34=1|49=TRD1602|52=20241003-08:29:32.989|56=QFXTRADES|98=0|108=30|141=Y|553=real1602|554=dfj3k4j34|10=198|
8=FIX.4.4|9=104|35=A|34=1|49=TRD1602|52=20241003-08:34:36.938|56=QFXTRADES|98=0|108=30|141=Y|553=real1602|554=dfj3k4j34|10=192|
8=FIX.4.4|9=104|35=A|34=1|49=TRD1602|52=20241003-08:35:37.941|56=QFXTRADES|98=0|108=30|141=Y|553=real1602|554=dfj3k4j34|10=188|
8=FIX.4.4|9=104|35=A|34=1|49=TRD1602|52=20241003-08:38:40.069|56=QFXTRADES|98=0|108=30|141=Y|553=real1602|554=dfj3k4j34|10=186|
8=FIX.4.4|9=104|35=A|34=1|49=TRD1602|52=20241003-08:39:40.962|56=QFXTRADES|98=0|108=30|141=Y|553=real1602|554=dfj3k4j34|10=189|
8=FIX.4.4|9=104|35=A|34=1|49=TRD1602|52=20241003-08:40:41.950|56=QFXTRADES|98=0|108=30|141=Y|553=real1602|554=dfj3k4j34|10=179|
8=FIX.4.4|9=104|35=A|34=1|49=TRD1602|52=20241003-08:41:42.943|56=QFXTRADES|98=0|108=30|141=Y|553=real1602|554=dfj3k4j34|10=183|
8=FIX.4.4|9=104|35=A|34=1|49=TRD1602|52=20241003-08:45:46.079|56=QFXTRADES|98=0|108=30|141=Y|553=real1602|554=dfj3k4j34|10=191|
8=FIX.4.4|9=104|35=A|34=1|49=TRD1602|52=20241003-08:46:46.970|56=QFXTRADES|98=0|108=30|141=Y|553=real1602|554=dfj3k4j34|10=192|
8=FIX.4.4|9=104|35=A|34=1|49=TRD1602|52=20241003-08:48:01.935|56=QFXTRADES|98=0|108=30|141=Y|553=real1602|554=dfj3k4j34|10=186|
8=FIX.4.4|9=104|35=A|34=1|49=TRD1602|52=20241003-08:49:48.186|56=QFXTRADES|98=0|108=30|141=Y|553=real1602|554=dfj3k4j34|10=196|
8=FIX.4.4|9=104|35=A|34=1|49=TRD1602|52=20241003-08:50:49.063|56=QFXTRADES|98=0|108=30|141=Y|553=real1602|554=dfj3k4j34|10=183|
8=FIX.4.4|9=104|35=A|34=1|49=TRD1602|52=20241003-08:51:49.953|56=QFXTRADES|98=0|108=30|141=Y|553=real1602|554=dfj3k4j34|10=192|
8=FIX.4.4|9=104|35=A|34=1|49=TRD1602|52=20241003-08:55:52.942|56=QFXTRADES|98=0|108=30|141=Y|553=real1602|554=dfj3k4j34|10=188|
8=FIX.4.4|9=104|35=A|34=1|49=TRD1602|52=20241003-08:58:54.986|56=QFXTRADES|98=0|108=30|141=Y|553=real1602|554=dfj3k4j34|10=201|
8=FIX.4.4|9=104|35=A|34=1|49=TRD1602|52=20241003-09:01:57.052|56=QFXTRADES|98=0|108=30|141=Y|553=real1602|554=dfj3k4j34|10=177|
8=FIX.4.4|9=104|35=A|34=1|49=TRD1602|52=20241003-09:02:57.945|56=QFXTRADES|98=0|108=30|141=Y|553=real1602|554=dfj3k4j34|10=189|
8=FIX.4.4|9=104|35=A|34=1|49=TRD1602|52=20241003-09:07:01.051|56=QFXTRADES|98=0|108=30|141=Y|553=real1602|554=dfj3k4j34|10=171|
8=FIX.4.4|9=104|35=A|34=1|49=TRD1602|52=20241003-09:08:01.937|56=QFXTRADES|98=0|108=30|141=Y|553=real1602|554=dfj3k4j34|10=185|
8=FIX.4.4|9=104|35=A|34=1|49=TRD1602|52=20241003-09:11:03.948|56=QFXTRADES|98=0|108=30|141=Y|553=real1602|554=dfj3k4j34|10=183|
8=FIX.4.4|9=104|35=A|34=1|49=TRD1602|52=20241003-09:14:06.048|56=QFXTRADES|98=0|108=30|141=Y|553=real1602|554=dfj3k4j34|10=180|
8=FIX.4.4|9=104|35=A|34=1|49=TRD1602|52=20241003-09:15:06.942|56=QFXTRADES|98=0|108=30|141=Y|553=real1602|554=dfj3k4j34|10=184|
8=FIX.4.4|9=104|35=A|34=1|49=TRD1602|52=20241003-09:19:09.944|56=QFXTRADES|98=0|108=30|141=Y|553=real1602|554=dfj3k4j34|10=193|
8=FIX.4.4|9=104|35=A|34=1|49=TRD1602|52=20241003-09:23:12.998|56=QFXTRADES|98=0|108=30|141=Y|553=real1602|554=dfj3k4j34|10=191|
8=FIX.4.4|9=104|35=A|34=1|49=TRD1602|52=20241003-09:27:16.086|56=QFXTRADES|98=0|108=30|141=Y|553=real1602|554=dfj3k4j34|10=187|
8=FIX.4.4|9=104|35=A|34=1|49=TRD1602|52=20241003-09:28:17.051|56=QFXTRADES|98=0|108=30|141=Y|553=real1602|554=dfj3k4j34|10=181|
8=FIX.4.4|9=104|35=A|34=1|49=TRD1602|52=20241003-09:29:17.947|56=QFXTRADES|98=0|108=30|141=Y|553=real1602|554=dfj3k4j34|10=196|
8=FIX.4.4|9=104|35=A|34=1|49=TRD1602|52=20241003-09:33:20.955|56=QFXTRADES|98=0|108=30|141=Y|553=real1602|554=dfj3k4j34|10=184|
8=FIX.4.4|9=104|35=A|34=1|49=TRD1602|52=20241003-09:34:21.940|56=QFXTRADES|98=0|108=30|141=Y|553=real1602|554=dfj3k4j34|10=180|
8=FIX.4.4|9=104|35=A|34=1|49=TRD1602|52=20241003-09:39:25.934|56=QFXTRADES|98=0|108=30|141=Y|553=real1602|554=dfj3k4j34|10=192|
8=FIX.4.4|9=104|35=A|34=1|49=TRD1602|52=20241003-09:44:29.960|56=QFXTRADES|98=0|108=30|141=Y|553=real1602|554=dfj3k4j34|10=191|
8=FIX.4.4|9=104|35=A|34=1|49=TRD1602|52=20241003-09:50:34.955|56=QFXTRADES|98=0|108=30|141=Y|553=real1602|554=dfj3k4j34|10=188|
8=FIX.4.4|9=104|35=A|34=1|49=TRD1602|52=20241003-09:54:37.984|56=QFXTRADES|98=0|108=30|141=Y|553=real1602|554=dfj3k4j34|10=197|
8=FIX.4.4|9=104|35=A|34=1|49=TRD1602|52=20241003-09:59:41.945|56=QFXTRADES|98=0|108=30|141=Y|553=real1602|554=dfj3k4j34|10=194|
8=FIX.4.4|9=104|35=A|34=1|49=TRD1602|52=20241007-09:10:27.498|56=QFXTRADES|98=0|108=30|141=Y|553=real1602|554=dfj3k4j34|10=192|
8=FIX.4.4|9=104|35=A|34=1|49=TRD1602|52=20241007-09:13:29.453|56=QFXTRADES|98=0|108=30|141=Y|553=real1602|554=dfj3k4j34|10=188|
8=FIX.4.4|9=104|35=A|34=1|49=TRD1602|52=20241007-09:14:30.430|56=QFXTRADES|98=0|108=30|141=Y|553=real1602|554=dfj3k4j34|10=176|
8=FIX.4.4|9=104|35=A|34=1|49=TRD1602|52=20241007-09:18:33.610|56=QFXTRADES|98=0|108=30|141=Y|553=real1602|554=dfj3k4j34|10=183|
8=FIX.4.4|9=104|35=A|34=1|49=TRD1602|52=20241007-09:19:34.418|56=QFXTRADES|98=0|108=30|141=Y|553=real1602|554=dfj3k4j34|10=191|
8=FIX.4.4|9=104|35=A|34=1|49=TRD1602|52=20241007-09:24:38.468|56=QFXTRADES|98=0|108=30|141=Y|553=real1602|554=dfj3k4j34|10=196|
8=FIX.4.4|9=104|35=A|34=1|49=TRD1602|52=20241007-09:28:41.640|56=QFXTRADES|98=0|108=30|141=Y|553=real1602|554=dfj3k4j34|10=186|
8=FIX.4.4|9=104|35=A|34=1|49=TRD1602|52=20241007-09:29:42.425|56=QFXTRADES|98=0|108=30|141=Y|553=real1602|554=dfj3k4j34|10=189|
8=FIX.4.4|9=104|35=A|34=1|49=TRD1602|52=20241007-09:34:46.464|56=QFXTRADES|98=0|108=30|141=Y|553=real1602|554=dfj3k4j34|10=192|
8=FIX.4.4|9=104|35=A|34=1|49=TRD1602|52=20241007-09:38:49.546|56=QFXTRADES|98=0|108=30|141=Y|553=real1602|554=dfj3k4j34|10=200|
8=FIX.4.4|9=104|35=A|34=1|49=TRD1602|52=20241007-09:43:02.418|56=QFXTRADES|98=0|108=30|141=Y|553=real1602|554=dfj3k4j34|10=183|
8=FIX.4.4|9=104|35=A|34=1|49=TRD1602|52=20241007-09:47:56.447|56=QFXTRADES|98=0|108=30|141=Y|553=real1602|554=dfj3k4j34|10=198|
8=FIX.4.4|9=104|35=A|34=1|49=TRD1602|52=20241007-09:48:57.426|56=QFXTRADES|98=0|108=30|141=Y|553=real1602|554=dfj3k4j34|10=197|
8=FIX.4.4|9=104|35=A|34=1|49=TRD1602|52=20241007-09:50:58.550|56=QFXTRADES|98=0|108=30|141=Y|553=real1602|554=dfj3k4j34|10=189|
8=FIX.4.4|9=104|35=A|34=1|49=TRD1602|52=20241007-09:51:59.427|56=QFXTRADES|98=0|108=30|141=Y|553=real1602|554=dfj3k4j34|10=194|
8=FIX.4.4|9=104|35=A|34=1|49=TRD1602|52=20241007-09:56:02.562|56=QFXTRADES|98=0|108=30|141=Y|553=real1602|554=dfj3k4j34|10=187|
8=FIX.4.4|9=104|35=A|34=1|49=TRD1602|52=20241007-09:57:03.428|56=QFXTRADES|98=0|108=30|141=Y|553=real1602|554=dfj3k4j34|10=190|
8=FIX.4.4|9=104|35=A|34=1|49=TRD1602|52=20241007-09:58:04.426|56=QFXTRADES|98=0|108=30|141=Y|553=real1602|554=dfj3k4j34|10=190|
8=FIX.4.4|9=104|35=A|34=1|49=TRD1602|52=20241007-10:01:06.459|56=QFXTRADES|98=0|108=30|141=Y|553=real1602|554=dfj3k4j34|10=178|
8=FIX.4.4|9=104|35=A|34=1|49=TRD1602|52=20241007-10:02:07.432|56=QFXTRADES|98=0|108=30|141=Y|553=real1602|554=dfj3k4j34|10=171|
8=FIX.4.4|9=104|35=A|34=1|49=TRD1602|52=20241007-10:07:11.514|56=QFXTRADES|98=0|108=30|141=Y|553=real1602|554=dfj3k4j34|10=172|
8=FIX.4.4|9=104|35=A|34=1|49=TRD1602|52=20241007-10:10:13.469|56=QFXTRADES|98=0|108=30|141=Y|553=real1602|554=dfj3k4j34|10=177|
8=FIX.4.4|9=104|35=A|34=1|49=TRD1602|52=20241007-10:56:43.618|56=QFXTRADES|98=0|108=30|141=Y|553=real1602|554=dfj3k4j34|10=186|
8=FIX.4.4|9=104|35=A|34=1|49=TRD1602|52=20241007-10:58:23.369|56=QFXTRADES|98=0|108=30|141=Y|553=real1602|554=dfj3k4j34|10=189|
8=FIX.4.4|9=104|35=A|34=1|49=TRD1602|52=20241007-10:59:23.505|56=QFXTRADES|98=0|108=30|141=Y|553=real1602|554=dfj3k4j34|10=182|
8=FIX.4.4|9=104|35=A|34=1|49=TRD1602|52=20241007-11:01:24.365|56=QFXTRADES|98=0|108=30|141=Y|553=real1602|554=dfj3k4j34|10=175|
8=FIX.4.4|9=104|35=A|34=1|49=TRD1602|52=20241007-11:31:13.652|56=QFXTRADES|98=0|108=30|141=Y|553=real1602|554=dfj3k4j34|10=175|
8=FIX.4.4|9=104|35=A|34=1|49=TRD1602|52=20241007-11:39:07.577|56=QFXTRADES|98=0|108=30|141=Y|553=real1602|554=dfj3k4j34|10=192|
8=FIX.4.4|9=104|35=A|34=1|49=TRD1602|52=20241007-11:47:52.072|56=QFXTRADES|98=0|108=30|141=Y|553=real1602|554=dfj3k4j34|10=181|
8=FIX.4.4|9=104|35=A|34=1|49=TRD1602|52=20241007-11:49:53.534|56=QFXTRADES|98=0|108=30|141=Y|553=real1602|554=dfj3k4j34|10=187|
8=FIX.4.4|9=104|35=A|34=1|49=TRD1602|52=20241007-15:36:02.962|56=QFXTRADES|98=0|108=30|141=Y|553=real1602|554=dfj3k4j34|10=186|
8=FIX.4.4|9=104|35=A|34=1|49=TRD1602|52=20241007-15:41:05.963|56=QFXTRADES|98=0|108=30|141=Y|553=real1602|554=dfj3k4j34|10=186|
8=FIX.4.4|9=104|35=A|34=1|49=TRD1602|52=20241007-15:43:07.104|56=QFXTRADES|98=0|108=30|141=Y|553=real1602|554=dfj3k4j34|10=177|
8=FIX.4.4|9=104|35=A|34=1|49=TRD1602|52=20241007-15:44:07.964|56=QFXTRADES|98=0|108=30|141=Y|553=real1602|554=dfj3k4j34|10=192|
8=FIX.4.4|9=104|35=A|34=1|49=TRD1602|52=20241007-15:46:08.967|56=QFXTRADES|98=0|108=30|141=Y|553=real1602|554=dfj3k4j34|10=198|
8=FIX.4.4|9=104|35=A|34=1|49=TRD1602|52=20241007-15:51:14.868|56=QFXTRADES|98=0|108=30|141=Y|553=real1602|554=dfj3k4j34|10=191|
8=FIX.4.4|9=104|35=A|34=1|49=TRD1602|52=20241007-15:54:14.969|56=QFXTRADES|98=0|108=30|141=Y|553=real1602|554=dfj3k4j34|10=196|
8=FIX.4.4|9=104|35=A|34=1|49=TRD1602|52=20241007-15:56:16.018|56=QFXTRADES|98=0|108=30|141=Y|553=real1602|554=dfj3k4j34|10=185|
8=FIX.4.4|9=104|35=A|34=1|49=TRD1602|52=20241007-16:00:30.964|56=QFXTRADES|98=0|108=30|141=Y|553=real1602|554=dfj3k4j34|10=181|
8=FIX.4.4|9=104|35=A|34=1|49=TRD1602|52=20241007-16:02:20.002|56=QFXTRADES|98=0|108=30|141=Y|553=real1602|554=dfj3k4j34|10=165|
8=FIX.4.4|9=104|35=A|34=1|49=TRD1602|52=20241007-16:04:21.067|56=QFXTRADES|98=0|108=30|141=Y|553=real1602|554=dfj3k4j34|10=179|
8=FIX.4.4|9=104|35=A|34=1|49=TRD1602|52=20241007-16:09:23.970|56=QFXTRADES|98=0|108=30|141=Y|553=real1602|554=dfj3k4j34|10=189|
8=FIX.4.4|9=104|35=A|34=1|49=TRD1602|52=20241007-16:11:25.042|56=QFXTRADES|98=0|108=30|141=Y|553=real1602|554=dfj3k4j34|10=174|
8=FIX.4.4|9=104|35=A|34=1|49=TRD1602|52=20241007-16:16:27.966|56=QFXTRADES|98=0|108=30|141=Y|553=real1602|554=dfj3k4j34|10=196|
8=FIX.4.4|9=104|35=A|34=1|49=TRD1602|52=20241007-16:18:34.383|56=QFXTRADES|98=0|108=30|141=Y|553=real1602|554=dfj3k4j34|10=189|
8=FIX.4.4|9=104|35=A|34=1|49=TRD1602|52=20241007-16:19:29.989|56=QFXTRADES|98=0|108=30|141=Y|553=real1602|554=dfj3k4j34|10=206|
8=FIX.4.4|9=104|35=A|34=1|49=TRD1602|52=20241007-16:24:32.963|56=QFXTRADES|98=0|108=30|141=Y|553=real1602|554=dfj3k4j34|10=188|
8=FIX.4.4|9=104|35=A|34=1|49=TRD1602|52=20241007-16:26:33.976|56=QFXTRADES|98=0|108=30|141=Y|553=real1602|554=dfj3k4j34|10=195|
8=FIX.4.4|9=104|35=A|34=1|49=TRD1602|52=20241007-16:29:35.965|56=QFXTRADES|98=0|108=30|141=Y|553=real1602|554=dfj3k4j34|10=198|
8=FIX.4.4|9=104|35=A|34=1|49=TRD1602|52=20241007-16:32:37.975|56=QFXTRADES|98=0|108=30|141=Y|553=real1602|554=dfj3k4j34|10=195|
8=FIX.4.4|9=104|35=A|34=1|49=TRD1602|52=20241007-16:35:39.967|56=QFXTRADES|98=0|108=30|141=Y|553=real1602|554=dfj3k4j34|10=201|
8=FIX.4.4|9=104|35=A|34=1|49=TRD1602|52=20241007-16:36:39.976|56=QFXTRADES|98=0|108=30|141=Y|553=real1602|554=dfj3k4j34|10=202|
8=FIX.4.4|9=104|35=A|34=1|49=TRD1602|52=20241007-16:40:43.675|56=QFXTRADES|98=0|108=30|141=Y|553=real1602|554=dfj3k4j34|10=188|
8=FIX.4.4|9=104|35=A|34=1|49=TRD1602|52=20241007-16:42:45.893|56=QFXTRADES|98=0|108=30|141=Y|553=real1602|554=dfj3k4j34|10=194|
8=FIX.4.4|9=104|35=A|34=1|49=TRD1602|52=20241007-16:48:47.967|56=QFXTRADES|98=0|108=30|141=Y|553=real1602|554=dfj3k4j34|10=204|
8=FIX.4.4|9=104|35=A|34=1|49=TRD1602|52=20241007-16:51:50.456|56=QFXTRADES|98=0|108=30|141=Y|553=real1602|554=dfj3k4j34|10=185|
8=FIX.4.4|9=104|35=A|34=1|49=TRD1602|52=20241007-16:54:51.973|56=QFXTRADES|98=0|108=30|141=Y|553=real1602|554=dfj3k4j34|10=193|
8=FIX.4.4|9=104|35=A|34=1|49=TRD1602|52=20241007-16:55:52.906|56=QFXTRADES|98=0|108=30|141=Y|553=real1602|554=dfj3k4j34|10=191|
8=FIX.4.4|9=104|35=A|34=1|49=TRD1602|52=20241007-16:58:54.971|56=QFXTRADES|98=0|108=30|141=Y|553=real1602|554=dfj3k4j34|10=198|
8=FIX.4.4|9=104|35=A|34=1|49=TRD1602|52=20241007-17:02:57.976|56=QFXTRADES|98=0|108=30|141=Y|553=real1602|554=dfj3k4j34|10=196|
8=FIX.4.4|9=104|35=A|34=1|49=TRD1602|52=20241007-17:06:00.061|56=QFXTRADES|98=0|108=30|141=Y|553=real1602|554=dfj3k4j34|10=173|
8=FIX.4.4|9=104|35=A|34=1|49=TRD1602|52=20241007-17:07:00.972|56=QFXTRADES|98=0|108=30|141=Y|553=real1602|554=dfj3k4j34|10=185|
8=FIX.4.4|9=104|35=A|34=1|49=TRD1602|52=20241007-22:33:38.086|56=QFXTRADES|98=0|108=30|141=Y|553=real1602|554=dfj3k4j34|10=187|
8=FIX.4.4|9=104|35=A|34=1|49=TRD1602|52=20241007-22:34:39.006|56=QFXTRADES|98=0|108=30|141=Y|553=real1602|554=dfj3k4j34|10=181|
8=FIX.4.4|9=104|35=A|34=1|49=TRD1602|52=20241007-22:47:14.207|56=QFXTRADES|98=0|108=30|141=Y|553=real1602|554=dfj3k4j34|10=181|
8=FIX.4.4|9=104|35=A|34=1|49=TRD1602|52=20241007-22:48:15.010|56=QFXTRADES|98=0|108=30|141=Y|553=real1602|554=dfj3k4j34|10=175|
8=FIX.4.4|9=104|35=A|34=1|49=TRD1602|52=20241007-22:51:17.004|56=QFXTRADES|98=0|108=30|141=Y|553=real1602|554=dfj3k4j34|10=174|
8=FIX.4.4|9=104|35=A|34=1|49=TRD1602|52=20241007-22:54:19.096|56=QFXTRADES|98=0|108=30|141=Y|553=real1602|554=dfj3k4j34|10=190|
8=FIX.4.4|9=104|35=A|34=1|49=TRD1602|52=20241007-22:55:20.002|56=QFXTRADES|98=0|108=30|141=Y|553=real1602|554=dfj3k4j34|10=170|
8=FIX.4.4|9=104|35=A|34=1|49=TRD1602|52=20241007-22:59:23.018|56=QFXTRADES|98=0|108=30|141=Y|553=real1602|554=dfj3k4j34|10=184|
8=FIX.4.4|9=104|35=A|34=1|49=TRD1602|52=20241007-23:04:27.000|56=QFXTRADES|98=0|108=30|141=Y|553=real1602|554=dfj3k4j34|10=170|
8=FIX.4.4|9=104|35=A|34=1|49=TRD1602|52=20241007-23:07:29.053|56=QFXTRADES|98=0|108=30|141=Y|553=real1602|554=dfj3k4j34|10=183|
8=FIX.4.4|9=104|35=A|34=1|49=TRD1602|52=20241007-23:14:34.005|56=QFXTRADES|98=0|108=30|141=Y|553=real1602|554=dfj3k4j34|10=174|
8=FIX.4.4|9=104|35=A|34=1|49=TRD1602|52=20241007-23:17:36.001|56=QFXTRADES|98=0|108=30|141=Y|553=real1602|554=dfj3k4j34|10=175|
8=FIX.4.4|9=104|35=A|34=1|49=TRD1602|52=20241007-23:20:38.010|56=QFXTRADES|98=0|108=30|141=Y|553=real1602|554=dfj3k4j34|10=171|
8=FIX.4.4|9=104|35=A|34=1|49=TRD1602|52=20241007-23:23:40.002|56=QFXTRADES|98=0|108=30|141=Y|553=real1602|554=dfj3k4j34|10=168|
8=FIX.4.4|9=104|35=A|34=1|49=TRD1602|52=20241007-23:24:40.091|56=QFXTRADES|98=0|108=30|141=Y|553=real1602|554=dfj3k4j34|10=177|
8=FIX.4.4|9=104|35=A|34=1|49=TRD1602|52=20241007-23:25:41.000|56=QFXTRADES|98=0|108=30|141=Y|553=real1602|554=dfj3k4j34|10=169|
