8=FIX.4.4|9=114|35=A|34=1|49=PRC82841|52=20241209-00:49:17.146|56=QFXPRICES|98=0|108=30|141=Y|553=prices82841|554=ibuefriurciuv5t|10=111|8=FIX.4.4|9=104|35=x|34=2|49=PRC82841|52=20241209-00:49:17.796|56=QFXPRICES|320=SecurityListRequest-1733705357794|559=0|10=149|8=FIX.4.4|9=147|35=V|34=3|49=PRC82841|52=20241209-00:49:17.808|56=QFXPRICES|262=symbol-meta data-1733705357796|263=1|264=0|265=0|146=1|55=EURUSD|267=2|269=0|269=1|10=137|8=FIX.4.4|9=147|35=V|34=4|49=PRC82841|52=20241209-00:49:17.810|56=QFXPRICES|262=symbol-meta data-1733705357809|263=1|264=0|265=0|146=1|55=USDJPY|267=2|269=0|269=1|10=133|8=FIX.4.4|9=147|35=V|34=5|49=PRC82841|52=20241209-00:49:17.812|56=QFXPRICES|262=symbol-meta data-1733705357812|263=1|264=0|265=0|146=1|55=GBPUSD|267=2|269=0|269=1|10=104|8=FIX.4.4|9=147|35=V|34=6|49=PRC82841|52=20241209-00:49:17.836|56=QFXPRICES|262=symbol-meta data-1733705357836|263=1|264=0|265=0|146=1|55=USDCHF|267=2|269=0|269=1|10=109|8=FIX.4.4|9=147|35=V|34=7|49=PRC82841|52=20241209-00:49:17.845|56=QFXPRICES|262=symbol-meta data-1733705357845|263=1|264=0|265=0|146=1|55=AUDUSD|267=2|269=0|269=1|10=119|8=FIX.4.4|9=147|35=V|34=8|49=PRC82841|52=20241209-00:49:17.850|56=QFXPRICES|262=symbol-meta data-1733705357850|263=1|264=0|265=0|146=1|55=USDCAD|267=2|269=0|269=1|10=094|8=FIX.4.4|9=147|35=V|34=9|49=PRC82841|52=20241209-00:49:17.866|56=QFXPRICES|262=symbol-meta data-1733705357866|263=1|264=0|265=0|146=1|55=NZDUSD|267=2|269=0|269=1|10=145|8=FIX.4.4|9=148|35=V|34=10|49=PRC82841|52=20241209-00:49:17.874|56=QFXPRICES|262=symbol-meta data-1733705357874|263=1|264=0|265=0|146=1|55=EURJPY|267=2|269=0|269=1|10=191|8=FIX.4.4|9=148|35=V|34=11|49=PRC82841|52=20241209-00:49:17.878|56=QFXPRICES|262=symbol-meta data-1733705357878|263=1|264=0|265=0|146=1|55=GBPJPY|267=2|269=0|269=1|10=181|8=FIX.4.4|9=148|35=V|34=12|49=PRC82841|52=20241209-00:49:17.879|56=QFXPRICES|262=symbol-meta data-1733705357879|263=1|264=0|265=0|146=1|55=CHFJPY|267=2|269=0|269=1|10=176|8=FIX.4.4|9=148|35=V|34=13|49=PRC82841|52=20241209-00:49:17.879|56=QFXPRICES|262=symbol-meta data-1733705357879|263=1|264=0|265=0|146=1|55=AUDJPY|267=2|269=0|269=1|10=186|8=FIX.4.4|9=148|35=V|34=14|49=PRC82841|52=20241209-00:49:17.881|56=QFXPRICES|262=symbol-meta data-1733705357881|263=1|264=0|265=0|146=1|55=EURGBP|267=2|269=0|269=1|10=165|8=FIX.4.4|9=148|35=V|34=15|49=PRC82841|52=20241209-00:49:17.883|56=QFXPRICES|262=symbol-meta data-1733705357883|263=1|264=0|265=0|146=1|55=EURAUD|267=2|269=0|269=1|10=171|8=FIX.4.4|9=148|35=V|34=16|49=PRC82841|52=20241209-00:49:17.885|56=QFXPRICES|262=symbol-meta data-1733705357885|263=1|264=0|265=0|146=1|55=EURCAD|267=2|269=0|269=1|10=158|8=FIX.4.4|9=148|35=V|34=17|49=PRC82841|52=20241209-00:49:17.886|56=QFXPRICES|262=symbol-meta data-1733705357886|263=1|264=0|265=0|146=1|55=EURNZD|267=2|269=0|269=1|10=197|8=FIX.4.4|9=148|35=V|34=18|49=PRC82841|52=20241209-00:49:17.886|56=QFXPRICES|262=symbol-meta data-1733705357886|263=1|264=0|265=0|146=1|55=GBPAUD|267=2|269=0|269=1|10=161|8=FIX.4.4|9=148|35=V|34=19|49=PRC82841|52=20241209-00:49:17.886|56=QFXPRICES|262=symbol-meta data-1733705357886|263=1|264=0|265=0|146=1|55=GBPCAD|267=2|269=0|269=1|10=144|8=FIX.4.4|9=148|35=V|34=20|49=PRC82841|52=20241209-00:49:17.886|56=QFXPRICES|262=symbol-meta data-1733705357886|263=1|264=0|265=0|146=1|55=GBPNZD|267=2|269=0|269=1|10=172|8=FIX.4.4|9=148|35=V|34=21|49=PRC82841|52=20241209-00:49:17.886|56=QFXPRICES|262=symbol-meta data-1733705357886|263=1|264=0|265=0|146=1|55=AUDCAD|267=2|269=0|269=1|10=138|8=FIX.4.4|9=148|35=V|34=22|49=PRC82841|52=20241209-00:49:17.886|56=QFXPRICES|262=symbol-meta data-1733705357886|263=1|264=0|265=0|146=1|55=AUDNZD|267=2|269=0|269=1|10=175|8=FIX.4.4|9=148|35=V|34=23|49=PRC82841|52=20241209-00:49:17.886|56=QFXPRICES|262=symbol-meta data-1733705357886|263=1|264=0|265=0|146=1|55=NZDCAD|267=2|269=0|269=1|10=158|8=FIX.4.4|9=148|35=V|34=24|49=PRC82841|52=20241209-00:49:17.886|56=QFXPRICES|262=symbol-meta data-1733705357886|263=1|264=0|265=0|146=1|55=NZDCHF|267=2|269=0|269=1|10=168|8=FIX.4.4|9=148|35=V|34=25|49=PRC82841|52=20241209-00:49:17.886|56=QFXPRICES|262=symbol-meta data-1733705357886|263=1|264=0|265=0|146=1|55=CADCHF|267=2|269=0|269=1|10=133|8=FIX.4.4|9=148|35=V|34=26|49=PRC82841|52=20241209-00:49:17.886|56=QFXPRICES|262=symbol-meta data-1733705357886|263=1|264=0|265=0|146=1|55=AUDCHF|267=2|269=0|269=1|10=152|8=FIX.4.4|9=148|35=V|34=27|49=PRC82841|52=20241209-00:49:17.895|56=QFXPRICES|262=symbol-meta data-1733705357894|263=1|264=0|265=0|146=1|55=EURCHF|267=2|269=0|269=1|10=170|8=FIX.4.4|9=148|35=V|34=28|49=PRC82841|52=20241209-00:49:17.895|56=QFXPRICES|262=symbol-meta data-1733705357895|263=1|264=0|265=0|146=1|55=EURNOK|267=2|269=0|269=1|10=195|8=FIX.4.4|9=148|35=V|34=29|49=PRC82841|52=20241209-00:49:17.896|56=QFXPRICES|262=symbol-meta data-1733705357896|263=1|264=0|265=0|146=1|55=USDNOK|267=2|269=0|269=1|10=198|8=FIX.4.4|9=148|35=V|34=30|49=PRC82841|52=20241209-00:49:17.897|56=QFXPRICES|262=symbol-meta data-1733705357897|263=1|264=0|265=0|146=1|55=USDSGD|267=2|269=0|269=1|10=182|8=FIX.4.4|9=148|35=V|34=31|49=PRC82841|52=20241209-00:49:17.898|56=QFXPRICES|262=symbol-meta data-1733705357898|263=1|264=0|265=0|146=1|55=USDHKD|267=2|269=0|269=1|10=178|8=FIX.4.4|9=148|35=V|34=32|49=PRC82841|52=20241209-00:49:17.900|56=QFXPRICES|262=symbol-meta data-1733705357900|263=1|264=0|265=0|146=1|55=USDMXN|267=2|269=0|269=1|10=175|8=FIX.4.4|9=148|35=V|34=33|49=PRC82841|52=20241209-00:49:17.902|56=QFXPRICES|262=symbol-meta data-1733705357902|263=1|264=0|265=0|146=1|55=USDTRY|267=2|269=0|269=1|10=192|8=FIX.4.4|9=148|35=V|34=34|49=PRC82841|52=20241209-00:49:17.904|56=QFXPRICES|262=symbol-meta data-1733705357904|263=1|264=0|265=0|146=1|55=USDZAR|267=2|269=0|269=1|10=179|8=FIX.4.4|9=148|35=V|34=35|49=PRC82841|52=20241209-00:49:17.905|56=QFXPRICES|262=symbol-meta data-1733705357905|263=1|264=0|265=0|146=1|55=USDRUB|267=2|269=0|269=1|10=178|8=FIX.4.4|9=148|35=V|34=36|49=PRC82841|52=20241209-00:49:17.906|56=QFXPRICES|262=symbol-meta data-1733705357906|263=1|264=0|265=0|146=1|55=USDINR|267=2|269=0|269=1|10=181|8=FIX.4.4|9=148|35=V|34=37|49=PRC82841|52=20241209-00:49:17.909|56=QFXPRICES|262=symbol-meta data-1733705357908|263=1|264=0|265=0|146=1|55=USDKRW|267=2|269=0|269=1|10=198|8=FIX.4.4|9=148|35=V|34=38|49=PRC82841|52=20241209-00:49:17.911|56=QFXPRICES|262=symbol-meta data-1733705357911|263=1|264=0|265=0|146=1|55=USDCNH|267=2|269=0|269=1|10=159|8=FIX.4.4|9=148|35=V|34=39|49=PRC82841|52=20241209-00:49:17.928|56=QFXPRICES|262=symbol-meta data-1733705357912|263=1|264=0|265=0|146=1|55=USDPLN|267=2|269=0|269=1|10=186|8=FIX.4.4|9=148|35=V|34=40|49=PRC82841|52=20241209-00:49:17.930|56=QFXPRICES|262=symbol-meta data-1733705357930|263=1|264=0|265=0|146=1|55=USDTHB|267=2|269=0|269=1|10=159|8=FIX.4.4|9=148|35=V|34=41|49=PRC82841|52=20241209-00:49:17.931|56=QFXPRICES|262=symbol-meta data-1733705357931|263=1|264=0|265=0|146=1|55=USDCZK|267=2|269=0|269=1|10=172|8=FIX.4.4|9=148|35=V|34=42|49=PRC82841|52=20241209-00:49:17.938|56=QFXPRICES|262=symbol-meta data-1733705357932|263=1|264=0|265=0|146=1|55=USDHUF|267=2|269=0|269=1|10=176|8=FIX.4.4|9=106|35=j|34=43|49=PRC82841|52=20241209-00:49:17.966|56=QFXPRICES|45=2|58=Unsupported Message Type|372=j|380=3|10=070|8=FIX.4.4|9=148|35=3|34=44|49=PRC82841|52=20241209-00:49:18.347|56=QFXPRICES|45=38|58=Value is incorrect (out of range) for this tag, field=269|371=269|372=W|373=5|10=250|8=FIX.4.4|9=107|35=j|34=45|49=PRC82841|52=20241209-00:49:18.368|56=QFXPRICES|45=39|58=Unsupported Message Type|372=Y|380=3|10=111|8=FIX.4.4|9=107|35=j|34=46|49=PRC82841|52=20241209-00:49:18.370|56=QFXPRICES|45=40|58=Unsupported Message Type|372=Y|380=3|10=097|8=FIX.4.4|9=107|35=j|34=47|49=PRC82841|52=20241209-00:49:18.410|56=QFXPRICES|45=45|58=Unsupported Message Type|372=Y|380=3|10=098|8=FIX.4.4|9=61|35=0|34=48|49=PRC82841|52=20241209-00:49:48.429|56=QFXPRICES|10=187|8=FIX.4.4|9=61|35=0|34=49|49=PRC82841|52=20241209-00:50:18.437|56=QFXPRICES|10=176|8=FIX.4.4|9=61|35=0|34=50|49=PRC82841|52=20241209-00:50:48.463|56=QFXPRICES|10=170|8=FIX.4.4|9=61|35=0|34=51|49=PRC82841|52=20241209-00:51:18.458|56=QFXPRICES|10=173|8=FIX.4.4|9=61|35=0|34=52|49=PRC82841|52=20241209-00:51:48.450|56=QFXPRICES|10=169|