8=FIX.4.4|9=114|35=A|34=1|49=PRC82841|52=20241217-09:49:35.240|56=QFXPRICES|98=0|108=30|141=Y|553=prices82841|554=ibuefriurciuv5t|10=114|8=FIX.4.4|9=104|35=x|34=2|49=PRC82841|52=20241217-09:49:35.823|56=QFXPRICES|320=SecurityListRequest-1734428975818|559=0|10=154|8=FIX.4.4|9=105|35=j|34=3|49=PRC82841|52=20241217-09:49:36.323|56=QFXPRICES|45=2|58=Unsupported Message Type|372=j|380=3|10=013|8=FIX.4.4|9=60|35=0|34=4|49=PRC82841|52=20241217-09:50:06.430|56=QFXPRICES|10=116|8=FIX.4.4|9=60|35=0|34=5|49=PRC82841|52=20241217-09:50:36.483|56=QFXPRICES|10=128|8=FIX.4.4|9=60|35=0|34=6|49=PRC82841|52=20241217-09:51:06.485|56=QFXPRICES|10=129|8=FIX.4.4|9=60|35=0|34=7|49=PRC82841|52=20241217-09:51:37.206|56=QFXPRICES|10=125|8=FIX.4.4|9=60|35=0|34=8|49=PRC82841|52=20241217-09:52:07.203|56=QFXPRICES|10=121|8=FIX.4.4|9=60|35=0|34=9|49=PRC82841|52=20241217-09:52:37.204|56=QFXPRICES|10=126|8=FIX.4.4|9=61|35=0|34=10|49=PRC82841|52=20241217-09:53:08.198|56=QFXPRICES|10=178|8=FIX.4.4|9=61|35=0|34=11|49=PRC82841|52=20241217-09:53:38.200|56=QFXPRICES|10=166|8=FIX.4.4|9=61|35=0|34=12|49=PRC82841|52=20241217-09:54:08.203|56=QFXPRICES|10=168|8=FIX.4.4|9=61|35=0|34=13|49=PRC82841|52=20241217-09:54:38.217|56=QFXPRICES|10=177|8=FIX.4.4|9=61|35=0|34=14|49=PRC82841|52=20241217-09:55:09.200|56=QFXPRICES|10=169|8=FIX.4.4|9=61|35=0|34=15|49=PRC82841|52=20241217-09:55:39.300|56=QFXPRICES|10=174|8=FIX.4.4|9=61|35=0|34=16|49=PRC82841|52=20241217-09:56:10.198|56=QFXPRICES|10=180|8=FIX.4.4|9=61|35=0|34=17|49=PRC82841|52=20241217-09:56:40.200|56=QFXPRICES|10=168|8=FIX.4.4|9=61|35=0|34=18|49=PRC82841|52=20241217-09:57:10.195|56=QFXPRICES|10=180|8=FIX.4.4|9=61|35=0|34=19|49=PRC82841|52=20241217-09:57:40.206|56=QFXPRICES|10=177|8=FIX.4.4|9=61|35=0|34=20|49=PRC82841|52=20241217-09:58:11.197|56=QFXPRICES|10=177|8=FIX.4.4|9=61|35=0|34=21|49=PRC82841|52=20241217-09:58:41.194|56=QFXPRICES|10=178|8=FIX.4.4|9=61|35=0|34=22|49=PRC82841|52=20241217-09:59:11.191|56=QFXPRICES|10=174|8=FIX.4.4|9=61|35=0|34=23|49=PRC82841|52=20241217-09:59:41.197|56=QFXPRICES|10=184|8=FIX.4.4|9=61|35=0|34=24|49=PRC82841|52=20241217-10:00:11.193|56=QFXPRICES|10=156|8=FIX.4.4|9=61|35=0|34=25|49=PRC82841|52=20241217-10:00:41.199|56=QFXPRICES|10=166|8=FIX.4.4|9=61|35=0|34=26|49=PRC82841|52=20241217-10:01:11.196|56=QFXPRICES|10=162|8=FIX.4.4|9=61|35=0|34=27|49=PRC82841|52=20241217-10:01:41.202|56=QFXPRICES|10=154|8=FIX.4.4|9=61|35=0|34=28|49=PRC82841|52=20241217-10:02:11.200|56=QFXPRICES|10=151|8=FIX.4.4|9=61|35=0|34=29|49=PRC82841|52=20241217-10:02:41.204|56=QFXPRICES|10=159|8=FIX.4.4|9=61|35=0|34=30|49=PRC82841|52=20241217-10:03:11.198|56=QFXPRICES|10=161|8=FIX.4.4|9=61|35=0|34=31|49=PRC82841|52=20241217-10:03:41.199|56=QFXPRICES|10=166|8=FIX.4.4|9=61|35=0|34=32|49=PRC82841|52=20241217-10:04:11.201|56=QFXPRICES|10=149|8=FIX.4.4|9=61|35=0|34=33|49=PRC82841|52=20241217-10:04:41.197|56=QFXPRICES|10=167|