8=FIX.4.4|9=109|35=A|34=1|49=TRD82841|52=20250131-20:23:09.563|56=QFXTRADES|98=0|108=30|141=Y|553=real82841|554=9hucfe4riucr|10=251|8=FIX.4.4|9=107|35=AF|34=2|49=TRD82841|52=20250131-20:23:10.560|56=QFXTRADES|1=82841|584=active-orders-1738354990559|585=6|10=116|8=FIX.4.4|9=127|35=j|34=3|49=TRD82841|52=20250131-20:23:10.940|56=QFXTRADES|45=2|58=Conditionally Required Field Missing, field=73|372=8|380=5|10=043|8=FIX.4.4|9=108|35=UAA|34=4|49=TRD82841|52=20250131-20:23:15.585|56=QFXTRADES|1=82841|3336=account_info_req_id1738354995585|10=085|8=FIX.4.4|9=151|35=AN|34=5|49=TRD82841|52=20250131-20:23:16.159|56=QFXTRADES|1=82841|60=20250131-20:23:16.159|581=1|710=open-positions-1738354996158|715=CURRENT|724=0|10=221|8=FIX.4.4|9=60|35=0|34=6|49=TRD82841|52=20250131-20:23:46.908|56=QFXTRADES|10=122|8=FIX.4.4|9=60|35=0|34=7|49=TRD82841|52=20250131-20:24:17.150|56=QFXTRADES|10=111|8=FIX.4.4|9=60|35=0|34=8|49=TRD82841|52=20250131-20:24:47.149|56=QFXTRADES|10=123|8=FIX.4.4|9=60|35=0|34=9|49=TRD82841|52=20250131-20:25:17.154|56=QFXTRADES|10=118|8=FIX.4.4|9=61|35=0|34=10|49=TRD82841|52=20250131-20:25:47.154|56=QFXTRADES|10=162|8=FIX.4.4|9=61|35=0|34=11|49=TRD82841|52=20250131-20:26:17.146|56=QFXTRADES|10=162|8=FIX.4.4|9=61|35=0|34=12|49=TRD82841|52=20250131-20:26:47.144|56=QFXTRADES|10=164|8=FIX.4.4|9=61|35=0|34=13|49=TRD82841|52=20250131-20:27:17.157|56=QFXTRADES|10=167|8=FIX.4.4|9=61|35=0|34=14|49=TRD82841|52=20250131-20:27:47.150|56=QFXTRADES|10=164|8=FIX.4.4|9=61|35=0|34=15|49=TRD82841|52=20250131-20:28:17.145|56=QFXTRADES|10=167|8=FIX.4.4|9=61|35=0|34=16|49=TRD82841|52=20250131-20:28:47.144|56=QFXTRADES|10=170|8=FIX.4.4|9=61|35=0|34=17|49=TRD82841|52=20250131-20:29:17.156|56=QFXTRADES|10=172|8=FIX.4.4|9=61|35=0|34=18|49=TRD82841|52=20250131-20:29:47.150|56=QFXTRADES|10=170|8=FIX.4.4|9=61|35=0|34=19|49=TRD82841|52=20250131-20:30:17.155|56=QFXTRADES|10=165|8=FIX.4.4|9=61|35=0|34=20|49=TRD82841|52=20250131-20:30:47.148|56=QFXTRADES|10=162|8=FIX.4.4|9=61|35=0|34=21|49=TRD82841|52=20250131-20:31:17.155|56=QFXTRADES|10=159|8=FIX.4.4|9=61|35=0|34=22|49=TRD82841|52=20250131-20:31:48.152|56=QFXTRADES|10=161|8=FIX.4.4|9=61|35=0|34=23|49=TRD82841|52=20250131-20:32:18.143|56=QFXTRADES|10=160|8=FIX.4.4|9=61|35=0|34=24|49=TRD82841|52=20250131-20:32:48.152|56=QFXTRADES|10=164|8=FIX.4.4|9=61|35=0|34=25|49=TRD82841|52=20250131-20:33:18.154|56=QFXTRADES|10=165|8=FIX.4.4|9=61|35=0|34=26|49=TRD82841|52=20250131-20:33:49.155|56=QFXTRADES|10=171|8=FIX.4.4|9=61|35=0|34=27|49=TRD82841|52=20250131-20:34:19.150|56=QFXTRADES|10=165|8=FIX.4.4|9=61|35=0|34=28|49=TRD82841|52=20250131-20:34:49.143|56=QFXTRADES|10=171|