8=FIX.4.4|9=106|35=A|34=1|49=PRC1602|52=20241007-23:24:39.006|56=QFXPRICES|98=0|108=30|141=Y|553=prices1602|554=sdfkj43kj|10=014|