8=FIX.4.4|9=114|35=A|34=1|49=PRC82841|52=20250131-20:31:41.442|56=QFXPRICES|98=0|108=30|141=Y|553=prices82841|554=ibuefriurciuv5t|10=094|8=FIX.4.4|9=104|35=x|34=2|49=PRC82841|52=20250131-20:31:42.541|56=QFXPRICES|320=SecurityListRequest-1738355502541|559=0|10=110|8=FIX.4.4|9=147|35=V|34=3|49=PRC82841|52=20250131-20:31:42.542|56=QFXPRICES|262=symbol-meta data-1738355502541|263=1|264=0|265=0|146=1|55=EURUSD|267=2|269=0|269=1|10=103|8=FIX.4.4|9=147|35=V|34=4|49=PRC82841|52=20250131-20:31:42.542|56=QFXPRICES|262=symbol-meta data-1738355502542|263=1|264=0|265=0|146=1|55=USDJPY|267=2|269=0|269=1|10=112|8=FIX.4.4|9=147|35=V|34=5|49=PRC82841|52=20250131-20:31:42.543|56=QFXPRICES|262=symbol-meta data-1738355502543|263=1|264=0|265=0|146=1|55=GBPUSD|267=2|269=0|269=1|10=089|8=FIX.4.4|9=147|35=V|34=6|49=PRC82841|52=20250131-20:31:42.544|56=QFXPRICES|262=symbol-meta data-1738355502543|263=1|264=0|265=0|146=1|55=USDCHF|267=2|269=0|269=1|10=083|8=FIX.4.4|9=147|35=V|34=7|49=PRC82841|52=20250131-20:31:42.544|56=QFXPRICES|262=symbol-meta data-1738355502544|263=1|264=0|265=0|146=1|55=AUDUSD|267=2|269=0|269=1|10=094|8=FIX.4.4|9=147|35=V|34=8|49=PRC82841|52=20250131-20:31:42.544|56=QFXPRICES|262=symbol-meta data-1738355502544|263=1|264=0|265=0|146=1|55=USDCAD|267=2|269=0|269=1|10=077|8=FIX.4.4|9=147|35=V|34=9|49=PRC82841|52=20250131-20:31:42.545|56=QFXPRICES|262=symbol-meta data-1738355502545|263=1|264=0|265=0|146=1|55=NZDUSD|267=2|269=0|269=1|10=116|8=FIX.4.4|9=148|35=V|34=10|49=PRC82841|52=20250131-20:31:42.545|56=QFXPRICES|262=symbol-meta data-1738355502545|263=1|264=0|265=0|146=1|55=EURJPY|267=2|269=0|269=1|10=164|8=FIX.4.4|9=148|35=V|34=11|49=PRC82841|52=20250131-20:31:42.545|56=QFXPRICES|262=symbol-meta data-1738355502545|263=1|264=0|265=0|146=1|55=GBPJPY|267=2|269=0|269=1|10=146|8=FIX.4.4|9=148|35=V|34=12|49=PRC82841|52=20250131-20:31:42.546|56=QFXPRICES|262=symbol-meta data-1738355502546|263=1|264=0|265=0|146=1|55=CHFJPY|267=2|269=0|269=1|10=141|8=FIX.4.4|9=148|35=V|34=13|49=PRC82841|52=20250131-20:31:42.546|56=QFXPRICES|262=symbol-meta data-1738355502546|263=1|264=0|265=0|146=1|55=AUDJPY|267=2|269=0|269=1|10=151|8=FIX.4.4|9=148|35=V|34=14|49=PRC82841|52=20250131-20:31:42.546|56=QFXPRICES|262=symbol-meta data-1738355502546|263=1|264=0|265=0|146=1|55=EURGBP|267=2|269=0|269=1|10=144|8=FIX.4.4|9=148|35=V|34=15|49=PRC82841|52=20250131-20:31:42.547|56=QFXPRICES|262=symbol-meta data-1738355502547|263=1|264=0|265=0|146=1|55=EURAUD|267=2|269=0|269=1|10=148|8=FIX.4.4|9=148|35=V|34=16|49=PRC82841|52=20250131-20:31:42.547|56=QFXPRICES|262=symbol-meta data-1738355502547|263=1|264=0|265=0|146=1|55=EURCAD|267=2|269=0|269=1|10=131|8=FIX.4.4|9=148|35=V|34=17|49=PRC82841|52=20250131-20:31:42.547|56=QFXPRICES|262=symbol-meta data-1738355502547|263=1|264=0|265=0|146=1|55=EURNZD|267=2|269=0|269=1|10=168|8=FIX.4.4|9=148|35=V|34=18|49=PRC82841|52=20250131-20:31:42.547|56=QFXPRICES|262=symbol-meta data-1738355502547|263=1|264=0|265=0|146=1|55=GBPAUD|267=2|269=0|269=1|10=132|8=FIX.4.4|9=148|35=V|34=19|49=PRC82841|52=20250131-20:31:42.548|56=QFXPRICES|262=symbol-meta data-1738355502548|263=1|264=0|265=0|146=1|55=GBPCAD|267=2|269=0|269=1|10=117|8=FIX.4.4|9=148|35=V|34=20|49=PRC82841|52=20250131-20:31:42.548|56=QFXPRICES|262=symbol-meta data-1738355502548|263=1|264=0|265=0|146=1|55=GBPNZD|267=2|269=0|269=1|10=145|8=FIX.4.4|9=148|35=V|34=21|49=PRC82841|52=20250131-20:31:42.548|56=QFXPRICES|262=symbol-meta data-1738355502548|263=1|264=0|265=0|146=1|55=AUDCAD|267=2|269=0|269=1|10=111|8=FIX.4.4|9=148|35=V|34=22|49=PRC82841|52=20250131-20:31:42.548|56=QFXPRICES|262=symbol-meta data-1738355502548|263=1|264=0|265=0|146=1|55=AUDNZD|267=2|269=0|269=1|10=148|8=FIX.4.4|9=148|35=V|34=23|49=PRC82841|52=20250131-20:31:42.549|56=QFXPRICES|262=symbol-meta data-1738355502549|263=1|264=0|265=0|146=1|55=NZDCAD|267=2|269=0|269=1|10=133|8=FIX.4.4|9=148|35=V|34=24|49=PRC82841|52=20250131-20:31:42.549|56=QFXPRICES|262=symbol-meta data-1738355502549|263=1|264=0|265=0|146=1|55=NZDCHF|267=2|269=0|269=1|10=143|8=FIX.4.4|9=148|35=V|34=25|49=PRC82841|52=20250131-20:31:42.549|56=QFXPRICES|262=symbol-meta data-1738355502549|263=1|264=0|265=0|146=1|55=CADCHF|267=2|269=0|269=1|10=108|8=FIX.4.4|9=148|35=V|34=26|49=PRC82841|52=20250131-20:31:42.550|56=QFXPRICES|262=symbol-meta data-1738355502550|263=1|264=0|265=0|146=1|55=AUDCHF|267=2|269=0|269=1|10=111|8=FIX.4.4|9=148|35=V|34=27|49=PRC82841|52=20250131-20:31:42.551|56=QFXPRICES|262=symbol-meta data-1738355502551|263=1|264=0|265=0|146=1|55=EURCHF|267=2|269=0|269=1|10=132|8=FIX.4.4|9=148|35=V|34=28|49=PRC82841|52=20250131-20:31:42.552|56=QFXPRICES|262=symbol-meta data-1738355502552|263=1|264=0|265=0|146=1|55=EURNOK|267=2|269=0|269=1|10=158|8=FIX.4.4|9=148|35=V|34=29|49=PRC82841|52=20250131-20:31:42.552|56=QFXPRICES|262=symbol-meta data-1738355502552|263=1|264=0|265=0|146=1|55=USDNOK|267=2|269=0|269=1|10=159|8=FIX.4.4|9=148|35=V|34=30|49=PRC82841|52=20250131-20:31:42.553|56=QFXPRICES|262=symbol-meta data-1738355502553|263=1|264=0|265=0|146=1|55=USDSGD|267=2|269=0|269=1|10=143|8=FIX.4.4|9=148|35=V|34=31|49=PRC82841|52=20250131-20:31:42.553|56=QFXPRICES|262=symbol-meta data-1738355502553|263=1|264=0|265=0|146=1|55=USDHKD|267=2|269=0|269=1|10=137|8=FIX.4.4|9=148|35=V|34=32|49=PRC82841|52=20250131-20:31:42.554|56=QFXPRICES|262=symbol-meta data-1738355502553|263=1|264=0|265=0|146=1|55=USDMXN|267=2|269=0|269=1|10=167|8=FIX.4.4|9=148|35=V|34=33|49=PRC82841|52=20250131-20:31:42.554|56=QFXPRICES|262=symbol-meta data-1738355502554|263=1|264=0|265=0|146=1|55=USDTRY|267=2|269=0|269=1|10=181|8=FIX.4.4|9=148|35=V|34=34|49=PRC82841|52=20250131-20:31:42.554|56=QFXPRICES|262=symbol-meta data-1738355502554|263=1|264=0|265=0|146=1|55=USDZAR|267=2|269=0|269=1|10=164|8=FIX.4.4|9=148|35=V|34=35|49=PRC82841|52=20250131-20:31:42.554|56=QFXPRICES|262=symbol-meta data-1738355502554|263=1|264=0|265=0|146=1|55=USDRUB|267=2|269=0|269=1|10=161|8=FIX.4.4|9=148|35=V|34=36|49=PRC82841|52=20250131-20:31:42.555|56=QFXPRICES|262=symbol-meta data-1738355502555|263=1|264=0|265=0|146=1|55=USDINR|267=2|269=0|269=1|10=164|8=FIX.4.4|9=148|35=V|34=37|49=PRC82841|52=20250131-20:31:42.555|56=QFXPRICES|262=symbol-meta data-1738355502555|263=1|264=0|265=0|146=1|55=USDKRW|267=2|269=0|269=1|10=176|8=FIX.4.4|9=148|35=V|34=38|49=PRC82841|52=20250131-20:31:42.556|56=QFXPRICES|262=symbol-meta data-1738355502556|263=1|264=0|265=0|146=1|55=USDCNH|267=2|269=0|269=1|10=152|8=FIX.4.4|9=148|35=V|34=39|49=PRC82841|52=20250131-20:31:42.556|56=QFXPRICES|262=symbol-meta data-1738355502556|263=1|264=0|265=0|146=1|55=USDPLN|267=2|269=0|269=1|10=170|8=FIX.4.4|9=148|35=V|34=40|49=PRC82841|52=20250131-20:31:42.556|56=QFXPRICES|262=symbol-meta data-1738355502556|263=1|264=0|265=0|146=1|55=USDTHB|267=2|269=0|269=1|10=150|8=FIX.4.4|9=148|35=V|34=41|49=PRC82841|52=20250131-20:31:42.556|56=QFXPRICES|262=symbol-meta data-1738355502556|263=1|264=0|265=0|146=1|55=USDCZK|267=2|269=0|269=1|10=161|8=FIX.4.4|9=148|35=V|34=42|49=PRC82841|52=20250131-20:31:42.556|56=QFXPRICES|262=symbol-meta data-1738355502556|263=1|264=0|265=0|146=1|55=USDHUF|267=2|269=0|269=1|10=157|8=FIX.4.4|9=148|35=V|34=43|49=PRC82841|52=20250131-20:31:42.557|56=QFXPRICES|262=symbol-meta data-1738355502557|263=1|264=0|265=0|146=1|55=XAUUSD|267=2|269=0|269=1|10=171|8=FIX.4.4|9=148|35=V|34=44|49=PRC82841|52=20250131-20:31:42.557|56=QFXPRICES|262=symbol-meta data-1738355502557|263=1|264=0|265=0|146=1|55=XAGUSD|267=2|269=0|269=1|10=158|8=FIX.4.4|9=106|35=j|34=45|49=PRC82841|52=20250131-20:31:42.845|56=QFXPRICES|45=2|58=Unsupported Message Type|372=j|380=3|10=053|8=FIX.4.4|9=107|35=j|34=46|49=PRC82841|52=20250131-20:31:43.505|56=QFXPRICES|45=36|58=Unsupported Message Type|372=Y|380=3|10=087|8=FIX.4.4|9=107|35=j|34=47|49=PRC82841|52=20250131-20:31:43.505|56=QFXPRICES|45=37|58=Unsupported Message Type|372=Y|380=3|10=089|8=FIX.4.4|9=107|35=j|34=48|49=PRC82841|52=20250131-20:31:43.506|56=QFXPRICES|45=40|58=Unsupported Message Type|372=Y|380=3|10=085|8=FIX.4.4|9=61|35=0|34=49|49=PRC82841|52=20250131-20:32:14.141|56=QFXPRICES|10=160|8=FIX.4.4|9=61|35=0|34=50|49=PRC82841|52=20250131-20:32:44.146|56=QFXPRICES|10=160|8=FIX.4.4|9=61|35=0|34=51|49=PRC82841|52=20250131-20:33:14.150|56=QFXPRICES|10=154|8=FIX.4.4|9=61|35=0|34=52|49=PRC82841|52=20250131-20:33:44.147|56=QFXPRICES|10=164|8=FIX.4.4|9=61|35=0|34=53|49=PRC82841|52=20250131-20:34:14.148|56=QFXPRICES|10=164|8=FIX.4.4|9=61|35=0|34=54|49=PRC82841|52=20250131-20:34:44.145|56=QFXPRICES|10=165|