8=FIX.4.4|9=109|35=A|34=1|49=TRD82841|52=20241209-00:49:17.594|56=QFXTRADES|98=0|108=30|141=Y|553=real82841|554=9hucfe4riucr|10=010|8=FIX.4.4|9=60|35=0|34=2|49=TRD82841|52=20241209-00:49:47.889|56=QFXTRADES|10=139|8=FIX.4.4|9=60|35=0|34=3|49=TRD82841|52=20241209-00:50:18.112|56=QFXTRADES|10=109|8=FIX.4.4|9=60|35=0|34=4|49=TRD82841|52=20241209-00:50:48.111|56=QFXTRADES|10=112|8=FIX.4.4|9=60|35=0|34=5|49=TRD82841|52=20241209-00:51:18.153|56=QFXTRADES|10=117|8=FIX.4.4|9=60|35=0|34=6|49=TRD82841|52=20241209-00:51:49.117|56=QFXTRADES|10=122|