8=FIX.4.4|9=114|35=A|34=1|49=PRC82841|52=20241215-16:04:53.199|56=QFXPRICES|98=0|108=30|141=Y|553=prices82841|554=ibuefriurciuv5t|10=114|8=FIX.4.4|9=104|35=x|34=2|49=PRC82841|52=20241215-16:04:53.937|56=QFXPRICES|320=SecurityListRequest-1734278693919|559=0|10=149|8=FIX.4.4|9=105|35=j|34=3|49=PRC82841|52=20241215-16:04:54.150|56=QFXPRICES|45=2|58=Unsupported Message Type|372=j|380=3|10=254|8=FIX.4.4|9=60|35=0|34=4|49=PRC82841|52=20241215-16:05:24.180|56=QFXPRICES|10=114|