8=FIX.4.4|9=104|35=A|34=1|49=TRD1602|52=20241007-23:25:41.000|56=QFXTRADES|98=0|108=30|141=Y|553=real1602|554=dfj3k4j34|10=169|