8=FIX.4.4|9=109|35=A|34=1|49=TRD82841|52=20241217-09:49:35.505|56=QFXTRADES|98=0|108=30|141=Y|553=real82841|554=9hucfe4riucr|10=010|8=FIX.4.4|9=107|35=AF|34=2|49=TRD82841|52=20241217-09:49:35.843|56=QFXTRADES|1=82841|584=active-orders-1734428975823|585=6|10=142|8=FIX.4.4|9=127|35=j|34=3|49=TRD82841|52=20241217-09:49:36.337|56=QFXTRADES|45=2|58=Conditionally Required Field Missing, field=73|372=8|380=5|10=071|8=FIX.4.4|9=108|35=UAA|34=4|49=TRD82841|52=20241217-09:49:40.859|56=QFXTRADES|1=82841|3336=account_info_req_id1734428980858|10=102|8=FIX.4.4|9=151|35=AN|34=5|49=TRD82841|52=20241217-09:49:41.234|56=QFXTRADES|1=82841|60=20241217-09:49:41.234|581=1|710=open-positions-1734428981233|715=CURRENT|724=0|10=231|8=FIX.4.4|9=60|35=0|34=6|49=TRD82841|52=20241217-09:50:12.192|56=QFXTRADES|10=122|8=FIX.4.4|9=60|35=0|34=7|49=TRD82841|52=20241217-09:50:42.192|56=QFXTRADES|10=126|8=FIX.4.4|9=60|35=0|34=8|49=TRD82841|52=20241217-09:51:12.204|56=QFXTRADES|10=119|8=FIX.4.4|9=60|35=0|34=9|49=TRD82841|52=20241217-09:51:42.204|56=QFXTRADES|10=123|8=FIX.4.4|9=61|35=0|34=10|49=TRD82841|52=20241217-09:52:12.203|56=QFXTRADES|10=161|8=FIX.4.4|9=61|35=0|34=11|49=TRD82841|52=20241217-09:52:42.394|56=QFXTRADES|10=176|8=FIX.4.4|9=61|35=0|34=12|49=TRD82841|52=20241217-09:53:12.438|56=QFXTRADES|10=174|8=FIX.4.4|9=61|35=0|34=13|49=TRD82841|52=20241217-09:53:42.447|56=QFXTRADES|10=178|8=FIX.4.4|9=61|35=0|34=14|49=TRD82841|52=20241217-09:54:12.449|56=QFXTRADES|10=179|8=FIX.4.4|9=61|35=0|34=15|49=TRD82841|52=20241217-09:54:42.446|56=QFXTRADES|10=180|8=FIX.4.4|9=61|35=0|34=16|49=TRD82841|52=20241217-09:55:12.551|56=QFXTRADES|10=176|8=FIX.4.4|9=61|35=0|34=17|49=TRD82841|52=20241217-09:55:43.203|56=QFXTRADES|10=175|8=FIX.4.4|9=61|35=0|34=18|49=TRD82841|52=20241217-09:56:13.200|56=QFXTRADES|10=171|8=FIX.4.4|9=61|35=0|34=19|49=TRD82841|52=20241217-09:56:43.202|56=QFXTRADES|10=177|8=FIX.4.4|9=61|35=0|34=20|49=TRD82841|52=20241217-09:57:13.199|56=QFXTRADES|10=182|8=FIX.4.4|9=61|35=0|34=21|49=TRD82841|52=20241217-09:57:43.201|56=QFXTRADES|10=170|8=FIX.4.4|9=61|35=0|34=22|49=TRD82841|52=20241217-09:58:13.201|56=QFXTRADES|10=169|8=FIX.4.4|9=61|35=0|34=23|49=TRD82841|52=20241217-09:58:43.198|56=QFXTRADES|10=188|8=FIX.4.4|9=61|35=0|34=24|49=TRD82841|52=20241217-09:59:13.204|56=QFXTRADES|10=175|8=FIX.4.4|9=61|35=0|34=25|49=TRD82841|52=20241217-09:59:43.198|56=QFXTRADES|10=191|8=FIX.4.4|9=61|35=0|34=26|49=TRD82841|52=20241217-10:00:13.198|56=QFXTRADES|10=167|8=FIX.4.4|9=61|35=0|34=27|49=TRD82841|52=20241217-10:00:43.201|56=QFXTRADES|10=156|8=FIX.4.4|9=61|35=0|34=28|49=TRD82841|52=20241217-10:01:13.202|56=QFXTRADES|10=156|8=FIX.4.4|9=61|35=0|34=29|49=TRD82841|52=20241217-10:01:43.195|56=QFXTRADES|10=171|8=FIX.4.4|9=61|35=0|34=30|49=TRD82841|52=20241217-10:02:13.204|56=QFXTRADES|10=152|8=FIX.4.4|9=61|35=0|34=31|49=TRD82841|52=20241217-10:02:43.199|56=QFXTRADES|10=169|8=FIX.4.4|9=61|35=0|34=32|49=TRD82841|52=20241217-10:03:13.199|56=QFXTRADES|10=168|8=FIX.4.4|9=61|35=0|34=33|49=TRD82841|52=20241217-10:03:43.196|56=QFXTRADES|10=169|8=FIX.4.4|9=61|35=0|34=34|49=TRD82841|52=20241217-10:04:13.192|56=QFXTRADES|10=164|8=FIX.4.4|9=61|35=0|34=35|49=TRD82841|52=20241217-10:04:43.201|56=QFXTRADES|10=159|