8=FIX.4.4|9=109|35=A|34=1|49=TRD82841|52=20241215-16:04:53.684|56=QFXTRADES|98=0|108=30|141=Y|553=real82841|554=9hucfe4riucr|10=005|8=FIX.4.4|9=107|35=AF|34=2|49=TRD82841|52=20241215-16:04:54.020|56=QFXTRADES|1=82841|584=active-orders-1734278694018|585=6|10=114|8=FIX.4.4|9=127|35=j|34=3|49=TRD82841|52=20241215-16:04:54.296|56=QFXTRADES|45=2|58=Conditionally Required Field Missing, field=73|372=8|380=5|10=062|8=FIX.4.4|9=108|35=UAA|34=4|49=TRD82841|52=20241215-16:04:59.029|56=QFXTRADES|1=82841|3336=account_info_req_id1734278699029|10=088|8=FIX.4.4|9=151|35=AN|34=5|49=TRD82841|52=20241215-16:05:02.714|56=QFXTRADES|1=82841|60=20241215-16:05:02.714|581=1|710=open-positions-1734278702713|715=CURRENT|724=0|10=204|